:020000040800F2
:1050000000800020CD6300086D6100087761000812
:105010007F610008856100088B61000800000000C6
:105020000000000000000000000000009161000886
:105030009D61000800000000A9610008B56100083A
:10504000156400081564000815640008156400085C
:105050001564000815640008C161000815640008A3
:1050600015640008CF610008156400081564000885
:10507000156400081564000815640008156400082C
:10508000156400081564000815640008156400081C
:10509000156400081564000815640008156400080C
:1050A000000000001564000815640008156400087D
:1050B00015640008DD610008156400081564000827
:1050C00015640008156400081564000815640008DC
:1050D00015640008F1610008056200081962000803
:1050E000156400082D6200081564000815640008A6
:1050F000156400080000000015640008156400082D
:10510000000000000000000015640008156400089D
:10511000156400081564000815640008000000000C
:1051200015640008000000000000000000000000FE
:0C51300000000000000000005FF808F123
:10513C0010B5054C237833B9044B13B10448AFF3C5
:10514C0000800123237010BD180100200000000016
:10515C00A0CA000808B5034B1BB103490348AFF3C1
:10516C00008008BD000000001C010020A0CA00083F
:10517C00034613F8012B002AFBD1181A013870478B
:10518C0053B94AB9002908BF00281CBF4FF0FF31A2
:10519C004FF0FF3000F06EB9ADF1080C6DE904CEA4
:1051AC0000F006F8DDF804E0DDE9022304B07047F6
:1051BC002DE9F047089E0D4604468E46002B40F024
:1051CC0083808A42174647D9B2FA82F34BB1C3F1B6
:1051DC00200105FA03FE20FA01F19F4041EA0E0E70
:1051EC009C404FEA1748BEFBF8FC1FFA87F908FBF6
:1051FC001CE20CFB09F0210C41EA024290420AD954
:10520C00BA180CF1FF3180F01881904240F21581F0
:10521C00ACF1020C3A44121AB2FBF8F008FB102263
:10522C0000FB09F1A4B244EA0244A14209D93C1999
:10523C0000F1FF3280F00381A14240F2008102387C
:10524C003C44641A002140EA0C401EB10022DC40B0
:10525C00C6E90042BDE8F08702B9FFDEB2FA82F37C
:10526C00002B4FD18D1A01214FEA124E1FFA82F8F2
:10527C00B5FBFEFC0EFB1C5508FB0CF0220C42EAA5
:10528C000545A84207D97D190CF1FF3202D2A8427C
:10529C0000F2E98094462D1AB5FBFEF00EFB10557A
:1052AC0008FB00F8A4B244EA0544A04507D93C1910
:1052BC0000F1FF3202D2A04500F2D9801046A4EBD7
:1052CC00080440EA0C40C0E78B4208D9002E00F0DD
:1052DC00B1800021C6E900050846BDE8F087B3FAA5
:1052EC0083F100294BD1AB4202D3824200F2B98048
:1052FC00841A65EB030301209E46002EAAD0C6E952
:10530C00004EA7E79F40C3F12002D1404FEA174E51
:10531C00B1FBFEF01FFA87F80EFB101124FA02F213
:10532C009D4000FB08FC2A43150C45EA0145AC45A1
:10533C0004FA03F409D97D1900F1FF3180F08F8054
:10534C00AC4540F28C8002383D44A5EB0C05B5FB16
:10535C00FEF10EFB115C01FB08F995B245EA0C4518
:10536C00A94507D97D1901F1FF3274D2A94572D92B
:10537C0002393D44A5EB090541EA004178E7C1F14A
:10538C0020078B4022FA07FC4CEA030C25FA07F4A1
:10539C004FEA1C4EB4FBFEF91FFA8CF80EFB1944B5
:1053AC0020FA07F309FB08FA8D401D432B0C43EA46
:1053BC000444A24502FA01F200FA01F309D91CEBEC
:1053CC00040409F1FF3048D2A24546D9A9F10209DB
:1053DC006444A4EB0A04B4FBFEF00EFB104400FB87
:1053EC0008FAADB245EA0444A24508D91CEB040402
:1053FC0000F1FF352DD2A2452BD90238644440EA86
:10540C000940A0FB0289A4EB0A044C45C6464D4654
:10541C0019D316D05EB1B3EB0E0264EB050404FA9B
:10542C0007F722FA01F31F43CC40C6E900740021B0
:10543C00BDE8F087314630460CE78C46EBE610466B
:10544C00FFE64345E6D2B8EB020E69EB0C050138DA
:10545C00E0E72846D3E711468CE78146B9E70846D2
:10546C0073E7084649E7ACF1020C3D4413E70238F8
:10547C003C4424E7704700BF80B586B006AF334B81
:10548C00334A9A6062B600BF01F09AFE00F078F8D9
:10549C0000F084FB00F0DEF800F002FB00F02AFBC9
:1054AC0000F052FB00F0A6FA00F02CF900F0B8F96D
:1054BC0000F004FA00F050FA264B0493264B0393A9
:1054CC00264B0293264B0193264B0093264B274ADF
:1054DC002749284805F0EEFF01F0BAFB264B1B6864
:1054EC002649184606F080F800F04AF84FF4FA60A6
:1054FC0001F0D4FE204B1B682049184606F074F8C6
:10550C0005F018FE06F052F9C82001F0C7FE06F0AF
:10551C0057F9C82001F0C2FE06F048F9C82001F086
:10552C00BDFE06F04DF905F01BFE06F07BF901F00F
:10553C00B3FB01F0F3FC01F097F901F0CBF801207B
:10554C0001F060FA01F012FEFEE700BF00ED00E092
:10555C0000500008F84000209C3E0020F40200207F
:10556C004C3C0020E83B0020503F002088030020EA
:10557C00DC3F0020303D00200C420020D0CA000847
:10558C0080B594B000AF07F11C03342200211846FB
:10559C0006F0E0F907F1080300221A605A609A60DD
:1055AC00DA601A613B4600221A605A60284B1B686D
:1055BC0023F4C053264A43F4006313600723FB61B2
:1055CC0001233B6201237B620123BB621023FB623C
:1055DC0002233B644FF480337B644FF40023BB64A1
:1055EC004FF48003FB6407F11C03184602F0BCFE69
:1055FC000346002B01D000F0ACFB0F23BB60032350
:10560C00FB6000233B6100237B610023BB6107F13E
:10561C0008030121184603F0D7F90346002B01D0EB
:10562C0000F097FB01233B604FF480337B603B46DB
:10563C00184603F083FC0346002B01D000F089FBD5
:10564C0003F0F6FA03F048FD00BF5037BD4680BDAD
:10565C000070004080B584B000AF3B1D00221A6082
:10566C005A609A60254B264A1A60244B00225A60D5
:10567C00224B00229A60214B0022DA601F4B002241
:10568C001A611E4B00225A611C4B00229A611B4B63
:10569C000022DA61194B00221A62184B002283F89F
:1056AC002420164B01229A62144B002283F82C20E2
:1056BC00124B10225A63114B00229A630F4B00229B
:1056CC0083F83C200D4801F00BFE0346002B01D063
:1056DC0000F03FFB08237B600123BB600023FB60D1
:1056EC003B1D1946054801F041FF0346002B01D034
:1056FC0000F02FFB00BF1037BD4680BDF8400020E6
:10570C000024014080B590B000AF07F12C030022BB
:10571C001A605A609A60DA601A610023BB623B46D9
:10572C0028220021184606F015F93A4B3A4A1A601D
:10573C00384B00225A60374B7F229A60354BFF2240
:10574C00DA60344B00221A61324B00225A61314B21
:10575C0000229A612F4803F0CBFC0346002B01D0AA
:10576C0000F0F7FA112387F82C30402387F82D30FE
:10577C00402387F82E300023BB630023FB6307F123
:10578C002C0301221946234803F043FD0346002B4A
:10579C0001D000F0DEFA012387F82830012387F8C6
:1057AC002930012387F82A30222387F82B3007F180
:1057BC00280301221946174803F0DFFD0346002B8E
:1057CC0001D000F0C6FA00233B7000237B7000234D
:1057DC00BB7000237B600023FB6000233B610F4BFD
:1057EC007B610023BB610023FB61012387F8203020
:1057FC004FF480737B623B4601221946054803F047
:10580C005BFE0346002B01D000F0A3FA00BF40372B
:10581C00BD4680BD9C3E002000280040008080805A
:10582C0080B586B000AF07F1080300221A605A60F9
:10583C009A60DA603B4600221A605A601E4B4FF0A9
:10584C0080421A601C4B45F6C0525A601A4B00221B
:10585C009A60194B4FF6FF72DA60174B4FF40072D7
:10586C001A61154B00225A61134804F022F80346C2
:10587C00002B01D000F06DFA4FF48053BB6007F1A0
:10588C00080319460C4804F0C3FB0346002B01D057
:10589C0000F05FFA00233B6000237B603B46194617
:1058AC00054804F0BDFE0346002B01D000F051FA70
:1058BC0000BF1837BD4680BD503F002080B586B074
:1058CC0000AF07F1080300221A605A609A60DA6090
:1058DC003B4600221A605A601D4B1E4A1A601C4B34
:1058EC0045F6C0525A601A4B00229A60184B47F288
:1058FC003052DA60164B00221A61154B00225A61A5
:10590C00134803F0D6FF0346002B01D000F021FA18
:10591C004FF48053BB6007F1080319460C4804F0A0
:10592C0077FB0346002B01D000F013FA00233B60F9
:10593C0000237B603B461946054804F071FE034684
:10594C00002B01D000F005FA00BF1837BD4680BD12
:10595C004C3C00200004004080B586B000AF07F13D
:10596C00080300221A605A609A60DA603B460022F3
:10597C001A605A601D4B1E4A1A601C4B18225A6042
:10598C001A4B00229A60194B4FF6FF72DA60174BD4
:10599C0000221A61154B00225A61144803F089FF4A
:1059AC000346002B01D000F0D4F94FF48053BB60B8
:1059BC0007F1080319460D4804F02AFB0346002B97
:1059CC0001D000F0C6F900233B6000237B603B460E
:1059DC001946064804F024FE0346002B01D000F0C3
:1059EC00B8F900BF1837BD4680BD00BFF4020020D7
:1059FC000008004080B586B000AF07F1100300220C
:105A0C001A605A603B4600221A605A609A60DA604B
:105A1C00214B224A1A60204B18225A601E4B00223E
:105A2C009A601D4B4FF4B772DA601B4B00221A615F
:105A3C00194B00225A61184804F03CF80346002B1D
:105A4C0001D000F086F900233B6100237B6107F154
:105A5C0010031946104804F0E3FD0346002B01D057
:105A6C0000F077F960233B6000237B600023BB6070
:105A7C000023FB603B4604221946074804F00AFA4F
:105A8C000346002B01D000F064F9034800F05AFAE9
:105A9C0000BF1837BD4680BDE83B0020000C00401D
:105AAC0080B500AF114B124A1A60104B4FF4E13223
:105ABC005A600E4B00229A600C4B0022DA600B4BA2
:105ACC0000221A61094B0C225A61084B00229A6180
:105ADC00064B0022DA61054804F000FE0346002B59
:105AEC0001D000F036F900BF80BD00BF303D002072
:105AFC000038014080B500AF114B124A1A60104BB0
:105B0C004FF4E1325A600E4B00229A600C4B00228B
:105B1C00DA600B4B00221A61094B0C225A61084BBC
:105B2C0000229A61064B0022DA61054804F0D6FD8A
:105B3C000346002B01D000F00CF900BF80BD00BF64
:105B4C00DC3F00200044004080B500AF114B124AEE
:105B5C001A60104B4FF416525A600E4B00229A608A
:105B6C000C4B0022DA600B4B00221A61094B0C2201
:105B7C005A61084B00229A61064B0022DA610548F3
:105B8C0004F0ACFD0346002B01D000F0E2F800BF9E
:105B9C0080BD00BF880300200048004080B58AB05B
:105BAC0000AF07F1140300221A605A609A60DA60A1
:105BBC001A615F4BDB695E4A43F00403D3615C4BB3
:105BCC00DB6903F004033B613B69594BDB69584AC1
:105BDC0043F02003D361564BDB6903F02003FB60D9
:105BEC00FB68534BDB69524A43F00103D361504BC2
:105BFC00DB6903F00103BB60BB684D4BDB694C4AAE
:105C0C0043F00203D3614A4BDB6903F002037B6070
:105C1C007B6800224FF4FC51464802F05CFB0022EA
:105C2C00C021454802F057FB4FF400537B614FF401
:105C3C008813BB610023FB6107F1140319463D482F
:105C4C0002F0B2F901237B614FF40413BB61012311
:105C5C00FB6107F114031946384802F0A5F948F224
:105C6C0002037B610023BB610023FB6107F114037A
:105C7C001946314802F098F94FF480537B614FF488
:105C8C008813BB610023FB6107F1140319462A48F2
:105C9C0002F08AF94FF4DC537B610123BB610023D2
:105CAC00FB6100233B6207F114031946214802F003
:105CBC007BF94FF480637B610123BB610223FB61A1
:105CCC0000233B6207F1140319461A4802F06CF9E1
:105CDC0008237B614FF44413BB610123FB6107F183
:105CEC0014031946144802F05FF9C0237B610123A9
:105CFC00BB610023FB6100233B6207F114031946CF
:105D0C000D4802F051F900220021062001F055FE49
:105D1C00062001F06EFE00220021092001F04DFE4C
:105D2C00092001F066FE00BF2837BD4680BD00BFCC
:105D3C00003802400008024000040240000002400B
:105D4C0080B483B000AF786000BF0C37BD4680BC18
:105D5C00704780B400AF72B600BFFEE780B485B068
:105D6C0000AF144B5B6A134A43F000435362114B70
:105D7C005B6A03F00043FB60FB680E4B1B6A0D4A29
:105D8C0043F0010313620B4B1B6A03F00103BB606E
:105D9C00BB68084B5B6A074A43F080535362054B60
:105DAC005B6A03F080537B607B6800BF1437BD4691
:105DBC0080BC70470038024080B58AB000AF786074
:105DCC0007F1140300221A605A609A60DA601A61B3
:105DDC007B681B68154A934223D1154B1B6A144AE6
:105DEC0043F400731362124B1B6A03F400733B61A0
:105DFC003B690F4BDB690E4A43F00203D3610C4B3A
:105E0C00DB6903F00203FB60FB6801237B61032366
:105E1C00BB610023FB6107F114031946054802F02E
:105E2C00C3F800BF2837BD4680BD00BF0024014029
:105E3C00003802400004024080B582B000AF7860A8
:105E4C007B681B68084A93420AD1084B01221A60EE
:105E5C0000220021292001F0B0FD292001F0C9FD0C
:105E6C0000BF0837BD4680BD00280040D806474219
:105E7C0080B586B000AF78607B681B68B3F1804F4B
:105E8C000CD11E4B5B6A1D4A43F0010353621B4B42
:105E9C005B6A03F001037B617B692AE07B681B680A
:105EAC00174A934214D1154B5B6A144A43F0020310
:105EBC005362124B5B6A03F002033B613B690022A5
:105ECC0000211D2001F079FD1D2001F092FD10E054
:105EDC007B681B680B4A93420BD1084B5B6A074AE1
:105EEC0043F004035362054B5B6A03F00403FB604D
:105EFC00FB6800BF1837BD4680BD00BF00380240AC
:105F0C00000400400008004080B485B000AF786009
:105F1C007B681B68094A93420BD1094B5B6A084AA0
:105F2C0043F008035362064B5B6A03F00803FB6003
:105F3C00FB6800BF1437BD4680BC7047000C0040A6
:105F4C000038024080B588B000AF786007F10C03D0
:105F5C0000221A605A609A60DA601A617B681B68CA
:105F6C00114A93421BD1114BDB69104A43F00103D8
:105F7C00D3610E4BDB6903F00103BB60BB680223EA
:105F8C00FB6002233B6100237B610023BB61022386
:105F9C00FB6107F10C031946054802F005F800BF38
:105FAC002037BD4680BD00BF000C004000380240C9
:105FBC000000024080B58EB000AF786007F124037A
:105FCC0000221A605A609A60DA601A617B681B685A
:105FDC00524A934231D1524B1B6A514A43F480438B
:105FEC0013624F4B1B6A03F480433B623B6A4C4B7E
:105FFC00DB694B4A43F00103D361494BDB6903F086
:10600C000103FB61FB694FF4C0637B620223BB623B
:10601C000023FB6203233B6307237B6307F1240309
:10602C001946404801F0C0FF00220021252001F054
:10603C00C4FC252001F0DDFC6BE07B681B683A4A50
:10604C00934230D1364B5B6A354A43F4003353628A
:10605C00334B5B6A03F40033BB61BB69304BDB69C8
:10606C002F4A43F00103D3612D4BDB6903F001038D
:10607C007B617B690C237B620223BB620023FB6286
:10608C0003233B6307237B6307F12403194625484D
:10609C0001F08AFF00220021262001F08EFC262030
:1060AC0001F0A7FC35E07B681B68204A934230D195
:1060BC001B4B5B6A1A4A43F480235362184B5B6A8E
:1060CC0003F480233B613B69154BDB69144A43F0B5
:1060DC000203D361124BDB6903F00203FB60FB6824
:1060EC004FF440637B620223BB620023FB620323F9
:1060FC003B6307237B6307F1240319460C4801F02B
:10610C0053FF00220021272001F057FC272001F02B
:10611C0070FC00BF3837BD4680BD00BF0038014061
:10612C00003802400000024000440040004800409B
:10613C000004024080B400AFBFF34F8F00BF064B8A
:10614C00DB6803F4E0620449044B1343CB60BFF3F8
:10615C004F8F00BF00BFFDE700ED00E00400FA0523
:10616C0080B500AF02F070FEFEE780B500AFFFF720
:10617C00E1FF80B400AFFEE780B400AFFEE780B46F
:10618C0000AFFEE780B400AF00BFBD4680BC7047D7
:10619C0080B400AF00BFBD4680BC704780B400AF78
:1061AC0000BFBD4680BC704780B500AF01F05AF807
:1061BC0000BF80BD80B500AF012002F0BDF800BF6C
:1061CC0080BD80B500AF082002F0B6F800BF80BDDE
:1061DC0080B500AF024803F080FD00BF80BD00BF5A
:1061EC004C3C002080B500AF024804F039FB00BFE6
:1061FC0080BD00BF303D002080B500AF024804F0E8
:10620C002FFB00BF80BD00BFDC3F002080B500AF7E
:10621C00024804F025FB00BF80BD00BF88030020AE
:10622C0080B500AF024803F07FFA00BF80BD00BF0D
:10623C009C3E002080B400AF01231846BD4680BCB4
:10624C00704780B582B000AF7860396005F030FBE4
:10625C00034616221A604FF0FF3318460837BD4626
:10626C0080BD80B582B000AF78604FF0FF317868A8
:10627C00FFF7E7FFFEE780B586B000AFF860B960C6
:10628C007A6000237B610AE0AFF300800146BB68B3
:10629C005A1CBA60CAB21A707B6901337B617A6985
:1062AC007B689A42F0DB7B6818461837BD4680BD88
:1062BC0080B586B000AFF860B9607A6000237B616E
:1062CC0009E0BB685A1CBA601B781846AFF3008013
:1062DC007B6901337B617A697B689A42F1DB7B686D
:1062EC0018461837BD4680BD80B483B000AF7860C7
:1062FC004FF0FF3318460C37BD4680BC704780B456
:10630C0083B000AF786039603B684FF400525A603C
:10631C00002318460C37BD4680BC704780B483B050
:10632C0000AF7860012318460C37BD4680BC70471F
:10633C0080B485B000AFF860B9607A60002318466D
:10634C001437BD4680BC704780B586B000AF78600E
:10635C00144A154BD31A7B617B693B61134B1B6849
:10636C00002B02D1114B124A1A60104B1A687B6831
:10637C0013443A699A4207D205F09AFA03460C2262
:10638C001A604FF0FF3309E0084B1B68FB60074BAA
:10639C001A687B681344054A1360FB681846183763
:1063AC00BD4680BD008000200004000034010020A8
:1063BC00284B002080B400AF00BFBD4680BC7047A6
:1063CC000C480D490D4A002302E0D458C450043344
:1063DC00C4188C42F9D30A4A0A4C002301E013601A
:1063EC000432A242FBD3FFF7E5FF05F067FAFFF793
:1063FC0043F87047000000201801002034DA000830
:10640C0018010020244B0020FEE7000080B582B06C
:10641C0000AF78600E4B1B680E49184605F0F0F97A
:10642C000B4B1B687968184605F0EAF9084B1B689A
:10643C000949184605F0E4F9054B1B68074A116831
:10644C000522184605F0C6F900BF0837BD4680BDC9
:10645C00C84A0020DCCA000814CB000880000020C9
:10646C0080B588B000AF78600023FB6107F10C03A6
:10647C000A221946F86905F05DFA404B00221A70A1
:10648C003F4B1B683F49184605F0BAF93C4B1B685B
:10649C007968184605F0B4F9394B1B683A49184627
:1064AC0005F0AEF9364B1B6807F10C021146184685
:1064BC0005F0A6F9324B1B68344A1268114618468F
:1064CC0005F09EF92E4B1B68314A116801221846C3
:1064DC0005F0E6F80346332B44D100234AE02D4B5C
:1064EC00BB61B869FEF744FE0346063BBA69134428
:1064FC0000221A70B969214805F077FAFB6932332A
:10650C00FB6107F10C030A221946F86905F012FA2F
:10651C001B4B1B681B49184605F072F9184B1B687E
:10652C007968184605F06CF9154B1B681649184626
:10653C0005F066F9124B1B6807F10C021146184660
:10654C0005F05EF90E4B1B68104A1268114618468E
:10655C0005F056F90A4B1B680D4A116801221846C2
:10656C0005F09EF80C490D4805F056FA0346002B31
:10657C00B5D0012318462037BD4680BD80140020BD
:10658C00C84A0020ECCA000818CB00089C00002068
:10659C0080000020F242002020CB0008F0420020B6
:1065AC0080B584B000AF786039607868FFF72EFF53
:1065BC003868FEF7DDFD0346184607F108030A228A
:1065CC00194605F0B7F9304B1B68304A1268114672
:1065DC00184605F015F92C4B1B687968184605F020
:1065EC000FF9294B1B682A4A12681146184605F008
:1065FC0007F9254B1B68274A12681146184605F007
:10660C00FFF8214B1B68224A12681146184605F008
:10661C00F7F81D4B1B6807F108021146184605F0E8
:10662C00EFF8194B1B681A4A12681146184605F008
:10663C00E7F8154B1B68184A12681146184605F006
:10664C00DFF8114B1B68154A12681146184605F005
:10665C00D7F80D4B1B68124A11680522184605F035
:10666C00B9F8094B1B683968184605F0C9F8064B90
:10667C001B680C4A11680522184605F0ABF800BFE0
:10668C001037BD4680BD00BFC84A0020080000205E
:10669C00A00000200C000020100000209C00002016
:1066AC00040000208000002080B400AFBFF34F8FA7
:1066BC0000BF064BDB6803F4E0620449044B134350
:1066CC00CB60BFF34F8F00BF00BFFDE700ED00E0D4
:1066DC000400FA0580B500AF4E4B1B68382B40F018
:1066EC0096804D4B1B684D4A12681146184605F0B2
:1066FC0087F8494B1B684A49184605F081F8464B08
:10670C001B684849184605F07BF8434B1B68464903
:10671C00184605F075F8404B1B68444A1168012275
:10672C00184605F057F83C4B1B68414A1268114655
:10673C00184605F065F8384B1B683C4A1168012275
:10674C00184605F047F8344B1B683A4A1268114654
:10675C00184605F055F8304B1B68374A1168322241
:10676C00184604F09DFF0346332B01D100234FE064
:10677C004FF47A7000F092FD274B1B682F4A126879
:10678C001146184605F03CF8234B1B68274A116844
:10679C000522184605F01EF829492A4805F034F957
:1067AC001D4B1B68284A11683C22184604F078FFE0
:1067BC00264B1B682349184604F016FF244B002275
:1067CC001A60244B00221A60234B00221A602349C2
:1067DC001C4805F021F90346002B02D01C4B01226A
:1067EC001A601F49174805F017F90346002B02D011
:1067FC00184B01221A601B49124805F00DF903468B
:10680C00002B02D0144B01221A60012300E000235C
:10681C00184680BDB0000020C84A00203800002077
:10682C008CCC0008383C002094CC00088000002060
:10683C00340000203C000020140000204000002008
:10684C00F0420020801400209C0000200C4200200C
:10685C002C3F0020D4030020443E00209CCC000898
:10686C00A8CC0008B4CC0008B0B500AF554A564BC4
:10687C00144607CB20606160A2601A889B78A281C5
:10688C00A373524B524A1188927819809A70514ACC
:10689C00514B14461D460FCD20606160A260E36031
:1068AC004E4A4F4B03CB106051601B7813724D4B0B
:1068BC001B684D4A12681146184604F0A1FF494B5B
:1068CC001B684A4A11680122184604F083FF454BA5
:1068DC001B68474A12681146184604F091FF414B59
:1068EC001B683849184604F08BFF3E4B1B68414A25
:1068FC0012681146184604F083FF3A4B1B683B4A5A
:10690C0011680122184604F065FF364B1B683A4AA1
:10691C0012681146184604F073FF324B1B682B4962
:10692C00184604F06DFF2F4B1B68324A1268114653
:10693C00184604F065FF2B4B1B682C4A116801228A
:10694C00184604F047FF274B1B682C4A1268114667
:10695C00184604F055FF234B1B681E49184604F0DB
:10696C004FFF204B1B68234A12681146184604F04F
:10697C0047FF1C4B1B681D4A11680122184604F086
:10698C0029FF184B1B681E4A12681146184604F062
:10699C0037FF144B1B681149184604F031FF114B9B
:1069AC001B68144A12681146184604F029FF0D4B57
:1069BC001B680E4A11680122184604F00BFF00BF39
:1069CC00B0BD00BF9C3C0020C4CC00087C03002060
:1069DC00D4CC0008C03E0020D8CC0008E002002037
:1069EC00E8CC0008C84A00201C00002080000020D1
:1069FC00200000203000002024000020280000206F
:106A0C002C00002080B500AF774B1B68012B4DD1BB
:106A1C00764B1B687649184604F0F2FE734B1B68E4
:106A2C00744A11680122184604F0D4FE6F4B1B689F
:106A3C00714A12681146184604F0E2FE6B4B1B6853
:106A4C006C4A11680122184604F0C4FE674B1B689F
:106A5C006A4A11684FF49672184604F021FE0346F8
:106A6C00322B23D1614B1B686549184604F0C8FED4
:106A7C005E4B1B685F4A11680122184604F0AAFE9F
:106A8C005A4B1B681E225F49184604F009FE5E48EB
:106A9C00FFF7E6FC5D4B1B685D491846FFF780FD70
:106AAC005C4B1B685C49184604F09EFD5B4B1B68F5
:106ABC00012B4DD14D4B1B685949184604F0A0FED3
:106ACC004A4B1B684B4A11680122184604F082FE9F
:106ADC00464B1B68534A12681146184604F090FE48
:106AEC00424B1B68434A11680122184604F072FE9F
:106AFC003E4B1B68414A11684FF4C872184604F0AB
:106B0C00CFFD0346322B23D1384B1B683C4918462A
:106B1C0004F076FE354B1B68364A11680122184684
:106B2C0004F058FE314B1B681E223649184604F0FF
:106B3C00B7FD3548FFF794FC344B1B6834491846B5
:106B4C00FFF72EFD334B1B683749184604F04CFDFC
:106B5C00364B1B68012B44D1244B1B683449184617
:106B6C0004F04EFE214B1B68224A11680122184684
:106B7C0004F030FE1D4B1B682E4A12681146184655
:106B8C0004F03EFE194B1B681A4A11680122184684
:106B9C0004F020FE154B1B68184A11684FF4FA627A
:106BAC00184604F07DFD0346322B1AD1194B1B6895
:106BBC002149184604F018FD20492148FFF7F0FC44
:106BCC00144B1B681F49184604F00EFD01F080F8A9
:106BDC001D4A1E49022001F0A7F801F095F8FFF7B5
:106BEC0063FD00BF80BD00BF2C3F0020C84A0020C1
:106BFC00F4CC000880000020440000201800002085
:106C0C0014CD000824CD000834CD0008500000201D
:106C1C00801400200C42002048CD0008D403002032
:106C2C0058CD00084800002074CD0008443E0020D8
:106C3C0084CD00084C000020A4CD0008B8CD00087D
:106C4C00D0CD0008DCCD0008DEC0EDFE0001080848
:106C5C0080B500AF0B4B1B680B4A934210D101F06F
:106C6C0037F80A4A0749022001F05EF801F04CF8A7
:106C7C00074B1B680749184604F0B6FCFFF714FDD8
:106C8C0000BF80BD00010808DEC0EDFEDDC0EDFEDA
:106C9C000C42002060CE0008B0B400AF634B644AD5
:106CAC001068186012791A71624B634A1068186088
:106CBC009188927999809A71604A614B1B881380F4
:106CCC00604A5F4B1B8813805F4B604A1188927837
:106CDC0019809A705E4B5D4A1188927819809A706F
:106CEC005C4A5D4B1B8813805C4A5D4B1B88138090
:106CFC005C4A5D4B14461D460FCD20606160A2605E
:106D0C00E3605A4B5A4A1068186012791A71594B41
:106D1C00594A1068186012791A71584B584A106801
:106D2C00186092889A80574A574B1B881380574A91
:106D3C00434B1B881380564B564A11889278198006
:106D4C009A70554B534A1188927819809A70534B0C
:106D5C00534A1068186012791A71524B524A1068D3
:106D6C00186012791A71514B514A10681860514BC6
:106D7C00514A10681860514A514B144607CB206099
:106D8C006160A2601A889B78A281A3734D4B4E4A16
:106D9C001188927819809A704C4A4D4B14461D46B6
:106DAC000FCD20606160A260E3604A4A4A4B03CB7E
:106DBC00106051601B781372484B494A1068186078
:106DCC0012791A71474B3A4A10681860464B474A79
:106DDC001188927819809A70454A194B1B88138038
:106DEC00444A174B1B881380434A154B1B8813804E
:106DFC00424B434A1068186012791A71414A424B4F
:106E0C0003CB106051601B781372404B00221A7038
:106E1C003F4B00221A703F4B00221A703E4A0E4B19
:106E2C001B88138000BFBD46B0BC7047BC3C002023
:106E3C009CD10008003F0020A4D10008D001002004
:106E4C00ACD1000890410020503E0020B0D1000889
:106E5C00303F002068410020B4D10008E40300203A
:106E6C00B8D10008D43B0020BCD100082040002041
:106E7C00CCD100083C3F0020D4D10008D03C0020ED
:106E8C00DCD10008E83E0020E4D10008083D0020D9
:106E9C00203F0020E8D10008F43E00202C400020C8
:106EAC00ECD1000836400020F4D10008404000200E
:106EBC00FCD100084A40002000D200089C3C002075
:106ECC0004D200087C03002014D20008C03E00202D
:106EDC0018D20008E002002028D20008D4020020BA
:106EEC0034D200087C3D0020863D00203CD20008B6
:106EFC00903F00209C3B00204803002068010020AC
:106F0C0040D20008E43C002048D200087401002064
:106F1C009C4100200C3F0020283C002080B500AF95
:106F2C007B4B1B68362B40F0F0807A4B1B68392B5F
:106F3C0040F0EB80784B1B68784A12681146184673
:106F4C0004F05EFC744B1B687549184604F058FC41
:106F5C00714B1B68734A12681146184604F050FCBA
:106F6C006D4B1B68704A11680122184604F032FC04
:106F7C00694B1B686D4A12681146184604F040FCB8
:106F8C00654B1B686A49184604F03AFC624B1B6857
:106F9C00644A12681146184604F032FC5E4B1B68BA
:106FAC00614A11680122184604F014FC5A4B1B6804
:106FBC00604A12681146184604F022FC564B1B68B6
:106FCC005D49184604F01CFC534B1B68554A12686B
:106FDC001146184604F014FC4F4B1B68524A1168BA
:106FEC000122184604F0F6FB4B4B1B68534A1268FF
:106FFC001146184604F004FC474B1B6850491846D0
:10700C0004F0FEFB444B1B68464A126811461846B6
:10701C0004F0F6FB404B1B68434A116801221846EA
:10702C0004F0D8FB3C4B1B68464A126811461846C4
:10703C0004F0E6FB384B1B684349184604F0E0FBB0
:10704C00354B1B68374A12681146184604F0D8FBBA
:10705C00314B1B68344A11680122184604F0BAFB04
:10706C002D4B1B68394A12681146184604F0C8FBB0
:10707C00294B1B683649184604F0C2FB264B1B688B
:10708C00284A12681146184604F0BAFB224B1B68BA
:10709C00254A11680122184604F09CFB1E4B1B6804
:1070AC002C4A12681146184604F0AAFB1A4B1B68AE
:1070BC001D4A11682822184604F0F2FA164B1B6878
:1070CC00254A12681146184604F09AFB124B1B68AD
:1070DC00154A11680122184604F07CFB1F49204810
:1070EC0004F09AFC0346002B09D10A4B38221A6093
:1070FC001C4B1B681C49184604F076FA02E0054B41
:10710C0039221A60642000F0C9F800BF80BD00BFAE
:10711C00C04A0020B0000020C84A002054000020C3
:10712C0068010020A40000208000002058000020EE
:10713C00E43C00205C000020740100206000002072
:10714C009C410020640000200C3F002068000020BF
:10715C00283C00206C00002070000020E8D30008C0
:10716C00F04200200C420020F0D3000880B500AFA4
:10717C000F4B1B68382B18D10E4B1B680E4A12682C
:10718C001146184604F03CFB0A4B1B680B4A11686D
:10719C002822184604F084FA0346322B02D1044B01
:1071AC0039221A60642000F079F800BF80BD00BF5E
:1071BC00B0000020C84A002074000020800000208D
:1071CC0080B582B000AF0023FB71032000F0EAFB16
:1071DC000F2000F00DF80346002B02D00123FB71A9
:1071EC0001E0FEF7BBFDFB7918460837BD4680BDB4
:1071FC0080B584B000AF78600023FB73164B1B681E
:10720C00002B22D0154B1A68134B1B684FF47A7164
:10721C00B1FBF3F3B2FBF3F3184600F0F8FB0346B3
:10722C00002B0FD17B680F2B09D8002279684FF007
:10723C00FF3000F0C2FB0A4A7B68136007E00123B1
:10724C00FB7304E00123FB7301E00123FB73FB7B65
:10725C0018461037BD4680BD7C0000200000002081
:10726C007800002080B400AF054B1A68054B1B68F2
:10727C001344034A136000BFBD4680BC704700BF77
:10728C00B04100207C00002080B400AF024B1B6892
:10729C001846BD4680BC7047B041002080B584B014
:1072AC0000AF7860FFF7F0FFB8607B68FB60FB68AD
:1072BC00B3F1FF3F04D0094B1B68FA681344FB6021
:1072CC0000BFFFF7E1FF0246BB68D31AFA689A4287
:1072DC00F7D800BF00BF1037BD4680BD7C00002032
:1072EC0080B58EB000AF7860002387F8373000236C
:1072FC003B630023FB627B68002B01D1012327E158
:10730C007B681B69002B7B68DB6C002B15D17B68C1
:10731C0000221A657B68002283F848208E4B1B6A7A
:10732C008D4A43F0010313628B4B1B6A03F001037C
:10733C00BB60BB687868FEF73FFD7B68DB6C03F0D5
:10734C001003002B40F0FF807B68DB6C23F4885328
:10735C0023F0020343F002027B68DA647F4B5B6824
:10736C0023F440327B685B687C4913434B607B6839
:10737C00DA687B685B691A437B6893F83C30194682
:10738C004FF400733B623B6A93FAA3F3FB61FB6916
:10739C00B3FA83F3DBB201FA03F31A437B681B6A7B
:1073AC001A437B6893F8243019460223BB62BB6AEC
:1073BC0093FAA3F37B627B6AB3FA83F3DBB201FA31
:1073CC0003F31343FA6A1343FB627B685B6B102B6A
:1073DC0007D07B685A6B7B689B6B1343FA6A134329
:1073EC00FB627B681B681B6803F04003402B4FD08B
:1073FC007B689B69FA6A1343FB627B689A687B68BB
:10740C00DB6913437A681269B2F5807F03D07A681E
:10741C001269012A02D14FF4807200E0002213435A
:10742C003A6B13433B637B6893F82C30012B25D1CB
:10743C007B6893F82430002B14D17B681B6B013BC9
:10744C004FF46042BA61BA6992FAA2F27A617A692F
:10745C00B2FA82F2D2B2934043F400633A6B134314
:10746C003B630BE07B68DB6C43F020027B68DA64E7
:10747C007B681B6D43F001027B681A657B681B6897
:10748C005A68374B13407A681268396B0B43536058
:10749C007B681B689A68334B13407A681268F96AE8
:1074AC000B4393607B681B69B3F5807F03D07B68CB
:1074BC001B69012B19D17B681B681B6B23F0F871BE
:1074CC007B689B6A013B4FF0F8723A613A6992FA19
:1074DC00A2F2FA60FA68B2FA82F2D2B203FA02F2BB
:1074EC007B681B680A431A6307E07B681B681A6B8E
:1074FC007B681B6822F0F8721A637B681B689A68B9
:10750C00194B1340FA6A9A420BD17B6800221A6518
:10751C007B68DB6C23F0030343F001027B68DA64C5
:10752C0014E07B68DB6C23F0120343F010027B68E1
:10753C00DA647B681B6D43F001027B681A650123DA
:10754C0087F8373002E0012387F8373097F8373067
:10755C0018463837BD4680BD003802400027014030
:10756C00FF16FCFC89F1FFC0FEFF80BF80B485B024
:10757C0000AF786039600023FB730023BB607B682D
:10758C0093F84830012B01D1022334E17B680122AE
:10759C0083F848203B685B68062B1CD87B681B680B
:1075AC00196C3B685A6813469B001344053B1F2219
:1075BC0002FA03F3DB4319403B6818683B685A68CE
:1075CC0013469B001344053B00FA03F27B681B68CF
:1075DC000A431A647EE03B685B680C2B1CD87B6802
:1075EC001B68D96B3B685A6813469B001344233BBA
:1075FC001F2202FA03F3DB4319403B6818683B680F
:10760C005A6813469B001344233B00FA03F27B6831
:10761C001B680A43DA635DE03B685B68122B1CD87D
:10762C007B681B68996B3B685A6813469B00134434
:10763C00413B1F2202FA03F3DB4319403B681868F5
:10764C003B685A6813469B001344413B00FA03F213
:10765C007B681B680A439A633CE03B685B68182BA9
:10766C001CD87B681B68596B3B685A6813469B0097
:10767C0013445F3B1F2202FA03F3DB4319403B68C0
:10768C0018683B685A6813469B0013445F3B00FA2A
:10769C0003F27B681B680A435A631BE07B681B6818
:1076AC00196B3B685A6813469B0013447D3B1F22A1
:1076BC0002FA03F3DB4319403B6818683B685A68CD
:1076CC0013469B0013447D3B00FA03F27B681B6856
:1076DC000A431A633B681B68092B1AD87B681B6822
:1076EC0059693B681A6813465B001344072202FA77
:1076FC0003F3DB4319403B6898683B681A681346F0
:10770C005B00134400FA03F27B681B680A435A615E
:10771C0042E03B681B68132B1CD87B681B681969FB
:10772C003B681A6813465B0013441E3B072202FA9F
:10773C0003F3DB4319403B6898683B681A681346AF
:10774C005B0013441E3B00FA03F27B681B680A4380
:10775C001A6121E03B681B681A2B1CD87B681B68DC
:10776C00D9683B681A6813465B0013443C3B0722FC
:10777C0002FA03F3DB4319403B6898683B681A68CC
:10778C0013465B0013443C3B00FA03F27B681B6816
:10779C000A43DA6000E000BF3B681B68102B03D083
:1077AC003B681B68112B21D1154B5B6803F400035C
:1077BC00002B1BD1124B5B68114A43F4000353603E
:1077CC003B681B68102B11D10E4B1B680E4AA2FB99
:1077DC0003239A0C13469B0013445B00BB6002E02E
:1077EC00BB68013BBB60BB68002BF9D17B680022F6
:1077FC0083F84820FB7B18461437BD4680BC704785
:10780C00002701400000002083DE1B4380B485B0BC
:10781C0000AF78607B6803F00703FB600C4BDB6800
:10782C00BB60BA684FF6FF031340BB60FB681A02DB
:10783C00BB68134343F0BF6343F40033BB60044A9B
:10784C00BB68D36000BF1437BD4680BC704700BF17
:10785C0000ED00E080B400AF044BDB681B0A03F0C2
:10786C0007031846BD4680BC704700BF00ED00E022
:10787C0080B483B000AF0346FB7197F90730002B3F
:10788C000BDBFB7903F01F02064997F907305B0904
:10789C00012000FA02F241F8232000BF0C37BD464C
:1078AC0080BC704700E100E080B483B000AF0346B9
:1078BC003960FB7197F90730002B0ADB3B68DAB2B1
:1078CC000C4997F907301201D2B20B4483F800230C
:1078DC000AE03B68DAB20849FB7903F00F03043B7A
:1078EC001201D2B20B441A7600BF0C37BD4680BCD5
:1078FC00704700BF00E100E000ED00E080B489B00B
:10790C0000AFF860B9607A60FB6803F00703FB61B5
:10791C00FB69C3F10703042B28BF0423BB61FB697C
:10792C000433062B02D9FB69033B00E000237B6187
:10793C004FF0FF32BB6902FA03F3DA43BB681A401B
:10794C007B699A404FF0FF317B6901FA03F3D9430D
:10795C007B680B40134318462437BD4680BC7047E8
:10796C0080B582B000AF78607B68013BB3F1807F5B
:10797C0001D301230FE00A4A7B68013B53600F21BE
:10798C004FF0FF30FFF790FF054B00229A60044B3D
:10799C0007221A60002318460837BD4680BD00BF79
:1079AC0010E000E080B582B000AF78607868FFF737
:1079BC002DFF00BF0837BD4680BD80B586B000AF37
:1079CC000346B9607A60FB7300237B61FFF742FFCB
:1079DC0078617A68B9687869FFF790FF024697F981
:1079EC000F3011461846FFF75FFF00BF1837BD4632
:1079FC0080BD80B582B000AF0346FB7197F90730AC
:107A0C001846FFF735FF00BF0837BD4680BD80B56F
:107A1C0082B000AF78607868FFF7A2FF0346184683
:107A2C000837BD4680BD80B485B000AF78600023B8
:107A3C00FB737B6893F82130DBB2022B08D07B6898
:107A4C0004229A637B68002283F82020012322E021
:107A5C007B681B681A687B681B6822F00E021A6030
:107A6C007B681B681A687B681B6822F001021A602D
:107A7C007B681B6C03F01C027B68DB6B012101FA39
:107A8C0002F25A607B68012283F821207B68002275
:107A9C0083F82020FB7B18461437BD4680BC70470A
:107AAC0080B584B000AF78600023FB737B6893F8DB
:107ABC002130DBB2022B05D07B6804229A630123B0
:107ACC00FB7329E07B681B681A687B681B6822F0D3
:107ADC000E021A607B681B681A687B681B6822F0B0
:107AEC0001021A607B681B6C03F01C027B68DB6B69
:107AFC00012101FA02F25A607B68012283F82120ED
:107B0C007B68002283F820207B685B6B002B03D002
:107B1C007B685B6B78689847FB7B18461037BD46D3
:107B2C0080BD000080B584B000AF7860FFF7ACFB7F
:107B3C00F86010E07B68B3F1FF3F0CD07B68002B42
:107B4C0007D0FFF7A1FB0246FB68D31A7A689A426A
:107B5C0001D203233DE0214B9B6903F00103012B70
:107B6C00E8D01E4B9B6903F00203022B02D11B4B86
:107B7C0002229A61194B9B6903F48073B3F5807FE1
:107B8C0022D0164B9B6903F40063B3F5006F1BD036
:107B9C00124B9B6903F40053B3F5005F14D00F4BE9
:107BAC009B6903F48053B3F5805F0DD00B4B9B693D
:107BBC0003F48063B3F5806F06D0084B9B6903F424
:107BCC000073B3F5007F03D100F00AF8012300E045
:107BDC00002318461037BD4680BD00BF003C024054
:107BEC0080B483B000AF00237B60374B9B6903F4F8
:107BFC008073B3F5807F09D1344B5B6943F002038A
:107C0C00324A53617B6843F480737B602E4B9B69D3
:107C1C0003F40073B3F5007F09D12C4B5B6943F07F
:107C2C0001032A4A53617B6843F400737B60264B43
:107C3C009B6903F40063B3F5006F09D1234B5B69B7
:107C4C0043F00403214A53617B6843F400637B6077
:107C5C001D4B9B6903F40053B3F5005F09D11B4B1B
:107C6C005B6943F01003194A53617B6843F400537A
:107C7C007B60154B9B6903F48053B3F5805F09D18E
:107C8C00124B5B6943F02003104A53617B6843F449
:107C9C0080537B600C4B9B6903F48063B3F5806F5E
:107CAC0009D10A4B5B6943F00803084A53617B68AE
:107CBC0043F480637B60044A7B68936100BF0C379C
:107CCC00BD4680BC704700BF003C0240B441002060
:107CDC0080B400AF094B5B6803F00103002B07D0A5
:107CEC00064B074ADA60054B064ADA60002300E0CF
:107CFC0001231846BD4680BC704700BF003C0240C3
:107D0C00EFCDAB890504030280B400AF054B5B6873
:107D1C00044A43F00103536000231846BD4680BC5F
:107D2C00704700BF003C024080B586B000AFF860E1
:107D3C00B9607A600123FB75314B1B7C012B01D19F
:107D4C00022358E02E4B01221A744CF25030FFF7EC
:107D5C00E9FE0346FB75FB7D002B48D1284B002226
:107D6C005A61FB68022B06D17968B86800F0FEF8FE
:107D7C000346FB753BE0FB68012B08D17B689BB28B
:107D8C001946B86800F0D3F80346FB752FE0FB6882
:107D9C00002B08D17B68DBB21946B86800F0A8F854
:107DAC000346FB7523E0FB68042B08D17B68DBB230
:107DBC001946B86800F026F80346FB7517E0FB6817
:107DCC00082B08D17B689BB21946B86800F042F8C2
:107DDC000346FB750BE0FB68102B06D17968B8687D
:107DEC0000F060F80346FB7501E00123FB75044BC2
:107DFC0000221A74FB7D18461837BD4680BD00BFA3
:107E0C00B441002080B584B000AF78600B46FB70A5
:107E1C000023FB734CF25030FFF784FE0346FB73D8
:107E2C00FB7B002B0ED10A4B5B68094A23F4807351
:107E3C0053607B68FA781A704CF25030FFF772FE80
:107E4C000346FB73FB7B18461037BD4680BD00BF55
:107E5C00003C024080B584B000AF78600B467B805C
:107E6C000023FB734CF25030FFF75CFE0346FB73B0
:107E7C00FB7B002B0ED10A4B5B68094A23F4807301
:107E8C0053607B687A881A804CF25030FFF74AFEB8
:107E9C000346FB73FB7B18461037BD4680BD00BF05
:107EAC00003C024080B584B000AF7860396000239C
:107EBC00FB734CF25030FFF735FE0346FB73FB7B34
:107ECC00002B0ED1094B5B68084A23F48073536076
:107EDC007B683A681A604CF25030FFF723FE034679
:107EEC00FB73FB7B18461037BD4680BD003C02403F
:107EFC0080B584B000AF78600B46FB700023FB7339
:107F0C004CF25030FFF70EFE0346FB73FB7B002B4D
:107F1C0008D17B68FA781A704CF25030FFF702FEE9
:107F2C000346FB73FB7B18461037BD4680BD80B5FE
:107F3C0084B000AF78600B467B800023FB734CF25F
:107F4C005030FFF7EFFD0346FB73FB7B002B08D192
:107F5C007B687A881A804CF25030FFF7E3FD0346B9
:107F6C00FB73FB7B18461037BD4680BD80B584B0D3
:107F7C0000AF786039600023FB734CF25030FFF790
:107F8C00D1FD0346FB73FB7B002B08D17B683A6861
:107F9C001A604CF25030FFF7C5FD0346FB73FB7BB8
:107FAC0018461037BD4680BD80B487B000AF7860EE
:107FBC00396000237B610023FB6000233B6154E1AB
:107FCC003B681A6801217B6901FA03F31340FB60DB
:107FDC00FB68002B00F046813B685B6803F00303F1
:107FEC00012B05D03B685B6803F00303022B30D1F7
:107FFC007B689B683B617B695B00032202FA03F39D
:10800C00DB433A6913403B613B68DA687B695B0090
:10801C0002FA03F33A6913433B617B683A699A604D
:10802C007B685B683B6101227B6902FA03F3DB43EB
:10803C003A6913403B613B685B681B0903F0010222
:10804C007B6902FA03F33A6913433B617B683A6933
:10805C005A603B685B6803F00303032B17D07B6803
:10806C00DB683B617B695B00032202FA03F3DB43B1
:10807C003A6913403B613B689A687B695B0002FA82
:10808C0003F33A6913433B617B683A69DA603B68F6
:10809C005B6803F00303022B23D17B69DA087B684E
:1080AC00083253F822303B617B6903F007039B00D5
:1080BC000F2202FA03F3DB433A6913403B613B683E
:1080CC001A697B6903F007039B0002FA03F33A6910
:1080DC0013433B617B69DA087B680832396943F8E2
:1080EC0022107B681B683B617B695B00032202FAF0
:1080FC0003F3DB433A6913403B613B685B6803F075
:10810C0003027B695B0002FA03F33A6913433B6198
:10811C007B683A691A603B685B6803F44033002B58
:10812C0000F0A080584B1B6A574A43F001031362BE
:10813C00554B1B6A03F00103BB60BB68534A7B6958
:10814C009B08023352F823303B617B6903F0030335
:10815C009B000F2202FA03F3DB433A6913403B61A5
:10816C007B684B4A934219D07B684A4A934213D09E
:10817C007B68494A93420DD07B68484A934207D0AA
:10818C007B68474A934201D1042308E0052306E0AB
:10819C00032304E0022302E0012300E000237A69B8
:1081AC0002F00302920093403A6913433B61374952
:1081BC007B699B0802333A6941F82320394B1B68D1
:1081CC003B61FB68DB433A6913403B613B685B688E
:1081DC0003F48033002B03D03A69FB6813433B61F3
:1081EC00304A3B6913602F4B5B683B61FB68DB4398
:1081FC003A6913403B613B685B6803F40033002B26
:10820C0003D03A69FB6813433B61264A3B695360D0
:10821C00244B9B683B61FB68DB433A6913403B6131
:10822C003B685B6803F48013002B03D03A69FB684E
:10823C0013433B611B4A3B6993601A4BDB683B6100
:10824C00FB68DB433A6913403B613B685B6803F4B2
:10825C000013002B03D03A69FB6813433B61114AAE
:10826C003B69D3607B6901337B613B681A687B692E
:10827C0022FA03F3002B7FF4A3AE00BF00BF1C3720
:10828C00BD4680BC704700BF003802400000014072
:10829C00000002400004024000080240000C0240B2
:1082AC00001002400004014080B485B000AF78603B
:1082BC000B467B807B681A697B881340002B02D0AD
:1082CC000123FB7301E00023FB73FB7B184614377F
:1082DC00BD4680BC704780B483B000AF78600B465D
:1082EC007B8013467B707B78002B03D07A887B686D
:1082FC009A6103E07B881A047B689A6100BF0C3793
:10830C00BD4680BC704780B485B000AF78600B462A
:10831C007B807B685B69FB607A88FB6813401A047E
:10832C00FB68D9437B880B401A437B689A6100BF7A
:10833C001437BD4680BC704780B582B000AF034691
:10834C00FB80084B5A69FB881340002B06D0054A6A
:10835C00FB885361FB88184603F060F800BF0837B0
:10836C00BD4680BD0004014080B588B000AF786088
:10837C007B68002B01D101231DE3944B9B6803F018
:10838C000C03BB61914B9B6803F480337B617B686E
:10839C001B6803F00103002B7BD0BB69082B06D0B4
:1083AC00BB690C2B0FD17B69B3F5803F0BD1874B8D
:1083BC001B6803F40033002B6AD07B685B68002BCE
:1083CC0066D10123F7E27B685B68012B06D17F4BFA
:1083DC001B687E4A43F4803313602DE07B685B6836
:1083EC00002B0CD1794B1B68784A23F48033136033
:1083FC00764B1B68754A23F4802313601CE07B6862
:10840C005B68052B0CD1714B1B68704A43F48023BD
:10841C0013606E4B1B686D4A43F4803313600BE0A2
:10842C006A4B1B68694A23F480331360674B1B68E3
:10843C00664A23F4802313607B685B68002B13D09F
:10844C00FEF722FF386108E0FEF71EFF02463B698B
:10845C00D31A642B01D90323ADE25C4B1B6803F4E4
:10846C000033002BF0D014E0FEF70EFF386108E06B
:10847C00FEF70AFF02463B69D31A642B01D903238A
:10848C0099E2524B1B6803F40033002BF0D100E04F
:10849C0000BF7B681B6803F00203002B5AD0BB693A
:1084AC00042B05D0BB690C2B19D17B69002B16D181
:1084BC00464B1B6803F00203002B05D07B68DB687E
:1084CC00012B01D0012376E2404B5B6823F4F85278
:1084DC007B681B691B023D4913434B603AE07B6888
:1084EC00DB68002B20D03A4B01221A60FEF7CCFE41
:1084FC00386108E0FEF7C8FE02463B69D31A022B2E
:10850C0001D9032357E2314B1B6803F00203002B04
:10851C00F0D02E4B5B6823F4F8527B681B691B026E
:10852C002A4913434B6015E0294B00221A60FEF7D1
:10853C00ABFE386108E0FEF7A7FE02463B69D31A92
:10854C00022B01D9032336E2204B1B6803F00203F4
:10855C00002BF0D17B681B6803F01003002B00F09C
:10856C00B880BB69002B70D1184B1B6803F40073E7
:10857C00002B05D07B689B69002B01D101231AE2EB
:10858C007B681A6A114B5B6803F460439A4221D9E9
:10859C007B681B6A184600F071FC0346002B01D067
:1085AC00012308E2094B5B6823F460427B681B6A79
:1085BC00064913434B60054B5B6823F07F427B6895
:1085CC00DB691B06014913434B6020E00038024075
:1085DC0000004742A44B5B6823F460427B681B6A33
:1085EC00A14913434B60A04B5B6823F07F427B682F
:1085FC00DB691B069C4913434B607B681B6A18465E
:10860C0000F03CFC0346002B01D00123D3E17B6836
:10861C001B6A5B0B01334FF4004202FA03F3924ADC
:10862C009268120902F00F0290498A5CD340904A7A
:10863C001360904B1B681846FEF7DAFD0346FB737C
:10864C00FB7B002B45D0FB7BB5E17B689B69002B4A
:10865C0029D0894B01221A60FEF716FE386108E01A
:10866C00FEF712FE02463B69D31A022B01D90323F3
:10867C00A1E17D4B1B6803F40073002BF0D07A4B07
:10868C005B6823F460427B681B6A774913434B6039
:10869C00754B5B6823F07F427B68DB691B06724974
:1086AC0013434B6015E0744B00221A60FEF7ECFD8F
:1086BC00386108E0FEF7E8FD02463B69D31A022B4D
:1086CC0001D9032377E1684B1B6803F40073002B7B
:1086DC00F0D17B681B6803F00803002B30D07B685B
:1086EC005B69002B16D0654B01221A60FEF7CCFD9E
:1086FC00386108E0FEF7C8FD02463B69D31A022B2D
:10870C0001D9032357E1584B5B6B03F00203002B99
:10871C00F0D015E0594B00221A60FEF7B5FD386118
:10872C0008E0FEF7B1FD02463B69D31A022B01D9D2
:10873C00032340E14C4B5B6B03F00203002BF0D1A5
:10874C007B681B6803F00403002B00F0B58000234A
:10875C00FB77454B5B6A03F08053002B0DD1424BEA
:10876C005B6A414A43F0805353623F4B5B6A03F0B0
:10877C008053BB60BB680123FB77414B1B6803F440
:10878C008073002B18D13E4B1B683D4A43F4807319
:10879C001360FEF779FD386108E0FEF775FD0246BF
:1087AC003B69D31A642B01D9032304E1344B1B68B6
:1087BC0003F48073002BF0D07B689B68012B06D1EF
:1087CC00294B5B6B284A43F4807353632DE07B6821
:1087DC009B68002B0CD1244B5B6B234A23F48073D6
:1087EC005363214B5B6B204A23F4806353631CE07F
:1087FC007B689B68052B0CD11B4B5B6B1A4A43F4B3
:10880C0080635363184B5B6B174A43F48073536359
:10881C000BE0154B5B6B144A23F480735363124BC0
:10882C005B6B114A23F4806353637B689B68002B5A
:10883C0015D0FEF729FD38610AE0FEF725FD02464A
:10884C003B69D31A41F28832934201D90323B2E037
:10885C00054B5B6B03F40073002BEED023E0FEF7AB
:10886C0013FD386119E000BF003802409CD80008A5
:10887C00000000207800002020004742800647427C
:10888C0000700040FEF700FD02463B69D31A41F22E
:10889C008832934201D903238DE0494B5B6B03F47F
:1088AC000073002BEED1FB7F012B05D1444B5B6A8F
:1088BC00434A23F0805353627B685B6A002B79D068
:1088CC00BB690C2B56D07B685B6A022B3BD13D4BB2
:1088DC0000221A60FEF7D8FC386108E0FEF7D4FCE1
:1088EC0002463B69D31A022B01D9032363E0344BB4
:1088FC001B6803F00073002BF0D1314B9B6823F401
:10890C007D027B68996A7B68DB6A19437B681B6B09
:10891C000B432B4913438B602A4B01221A60FEF741
:10892C00B3FC386108E0FEF7AFFC02463B69D31A92
:10893C00022B01D903233EE0214B1B6803F000738B
:10894C00002BF0D036E01F4B00221A60FEF79CFC87
:10895C00386108E0FEF798FC02463B69D31A022BFB
:10896C0001D9032327E0164B1B6803F00073002B7F
:10897C00F0D11FE07B685B6A012B01D101231AE067
:10898C000F4B9B687B617B6903F480327B689B6A2D
:10899C009A420DD17B6903F470127B68DB6A9A42B0
:1089AC0006D17B6903F440027B681B6B9A4201D0B1
:1089BC00012300E0002318462037BD4680BD00BFD0
:1089CC00003802406000474280B584B000AF786048
:1089DC0039607B68002B01D101231AE18F4B1B6896
:1089EC0003F001033A689A4219D93B68012B05D16F
:1089FC008A4B1B68894A43F004031360874B1B683E
:108A0C0023F0010285493B6813430B60834B1B68C1
:108A1C0003F001033A689A4201D00123F9E07B6824
:108A2C001B6803F00203002B08D07D4B9B6823F0DE
:108A3C00F0027B689B687A4913438B607B681B68E8
:108A4C0003F00103002B00F08E807B685B68022B27
:108A5C0007D1734B1B6803F40033002B21D1012386
:108A6C00D7E07B685B68032B07D16D4B1B6803F069
:108A7C000073002B15D10123CBE07B685B68012BC5
:108A8C0007D1674B1B6803F00203002B09D10123AC
:108A9C00BFE0634B1B6803F40073002B01D101236F
:108AAC00B7E05F4B9B6823F003027B685B685C4913
:108ABC0013438B60FEF7E8FBF8607B685B68022B66
:108ACC0012D10AE0FEF7E0FB0246FB68D31A41F232
:108ADC008832934201D903239BE0514B9B6803F0EE
:108AEC000C03082BEED13EE07B685B68032B12D1A4
:108AFC000AE0FEF7C9FB0246FB68D31A41F2883242
:108B0C00934201D9032384E0454B9B6803F00C038B
:108B1C000C2BEED127E07B685B68012B1DD10AE0A2
:108B2C00FEF7B2FB0246FB68D31A41F2883293423D
:108B3C0001D903236DE03A4B9B6803F00C03042B23
:108B4C00EED110E0FEF7A0FB0246FB68D31A41F20F
:108B5C008832934201D903235BE0314B9B6803F0CD
:108B6C000C03002BEED12D4B1B6803F001033A686C
:108B7C009A4219D23B68012B05D1284B1B68274A16
:108B8C0043F004031360254B1B6823F001022349B7
:108B9C003B6813430B60214B1B6803F001033A68DD
:108BAC009A4201D0012334E07B681B6803F0040374
:108BBC00002B08D01A4B9B6823F4E0627B68DB68BF
:108BCC00174913438B607B681B6803F00803002B69
:108BDC0009D0134B9B6823F460527B681B69DB0044
:108BEC000F4913438B6000F02FF802460C4B9B6827
:108BFC001B0903F00F030B49CB5C22FA03F30A4A5F
:108C0C0013600A4B1B681846FEF7F2FA0346FB7218
:108C1C00FB7A18461037BD4680BD00BF003C0240B1
:108C2C00003802409CD8000800000020780000208A
:108C3C0080B400AF034B01221A6000BFBD4680BC5C
:108C4C00704700BF70004742B0B586B000AF614BB3
:108C5C009B68FB60FB6803F00C030C2B0DD00C2BFA
:108C6C0000F2A480042B02D0082B03D09EE05A4BB8
:108C7C003B61A9E0594B3B61A6E0FB689B0C03F000
:108C8C000F03574AD35CBB60FB689B0D03F00303D7
:108C9C0001337B604F4B9B6803F48033002B41D036
:108CAC00BB681C464FF00005204629464FF00002D9
:108CBC004FF000034B0143EAD063420110461946C2
:108CCC00001B61EB05014FF000024FF000038B011C
:108CDC0043EA90638201121A63EB01034FF0000028
:108CEC004FF00001D90041EA5271D00002460B4608
:108CFC00121945EB03034FF000004FF0000159022D
:108D0C0041EAD251500202460B46104619467B6886
:108D1C001A464FF00003FCF733FA02460B46134693
:108D2C007B6140E0BB681C464FF00005204629469D
:108D3C004FF000024FF000034B0143EAD0634201B5
:108D4C0010461946001B61EB05014FF000024FF075
:108D5C0000038B0143EA90638201121A63EB010357
:108D6C004FF000004FF00001D90041EA5271D000E1
:108D7C0002460B46121945EB03034FF000004FF06F
:108D8C000001990241EA9251900202460B461046AC
:108D9C0019467B681A464FF00003FCF7F1F90246BE
:108DAC000B4613467B617B693B610DE0094B5B68AD
:108DBC005B0B03F007033B603B6801334FF400424D
:108DCC0002FA03F33B6100BF3B6918461837BD46F6
:108DDC00B0BD00BF003802400024F40000127A003D
:108DEC0090D8000880B400AF024B1B681846BD46F3
:108DFC0080BC70470000002080B500AFFFF7F2FF89
:108E0C000246054B9B681B0A03F007030349CB5C26
:108E1C0022FA03F3184680BD00380240ACD8000893
:108E2C0080B500AFFFF7DEFF0246054B9B68DB0AFF
:108E3C0003F007030349CB5C22FA03F3184680BD09
:108E4C0000380240ACD8000880B500AF064BDB6898
:108E5C0003F08003802B04D100F00AF8034B80222E
:108E6C001A7000BF80BD00BF003802400E380240AF
:108E7C0080B400AF00BFBD4680BC704780B487B0E3
:108E8C0000AF786000233B61294B9B6803F0F00333
:108E9C00002B2CD1264B5B6A03F08053002B05D0A2
:108EAC00244B1B6803F4C0537B6116E0204B5B6AB8
:108EBC001F4A43F0805353621D4B5B6A03F080538F
:108ECC00FB60FB681B4B1B6803F4C0537B61184BA6
:108EDC005B6A174A23F0805353627B69B3F5C05F1A
:108EEC0005D17B68B3F5404F01D101233B613B6950
:108EFC00012B05D1104B1B680F4A43F00403136080
:108F0C000D4B1B6823F001020B493B6913430B60AB
:108F1C00094B1B6803F001033A699A4201D0012303
:108F2C0000E0002318461C37BD4680BC704700BFCC
:108F3C000038024000700040003C024080B586B012
:108F4C0000AF78607B681B6803F00103002B00F016
:108F5C00B8800023FB755D4B5B6A03F08053002BDC
:108F6C000DD15A4B5B6A594A43F080535362574BAD
:108F7C005B6A03F08053BB60BB680123FB75544BE9
:108F8C001B6803F48073002B18D1514B1B68504A9B
:108F9C0043F480731360FEF777F9386108E0FEF74D
:108FAC0073F902463B69D31A642B01D9032389E078
:108FBC00474B1B6803F48073002BF0D0434B1B68AA
:108FCC0003F0C043FB607B685B6803F0C043FA6846
:108FDC009A420FD07B685B6803F44033B3F5403F93
:108FEC0008D13A4B1B6803F40033B3F5003F01D1B1
:108FFC00012367E0354B5B6B03F44033FB60FB688C
:10900C00002B34D07B685B6803F44033FA689A42D7
:10901C002DD07B681B6803F00103002B27D02B4B52
:10902C005B6B23F44033FB602A4B01221A60294B03
:10903C0000221A60254AFB685363FB6803F48073B3
:10904C00002B14D0FEF720F938610AE0FEF71CF96A
:10905C0002463B69D31A41F28832934201D9032369
:10906C0030E01A4B5B6B03F40073002BEED07B6883
:10907C001B6803F00103002B1AD07B685B6803F4B8
:10908C004033B3F5403F0AD1104B1B6823F0C0426C
:10909C007B685B6803F0C0430C4913430B600B4BBC
:1090AC005A6B7B685B6803F44033084913434B638A
:1090BC00FB7D012B05D1054B5B6A044A23F08053E1
:1090CC005362002318461837BD4680BD0038024055
:1090DC0000700040DC06474280B400AF034B012215
:1090EC001A6000BFBD4680BC704700BFAC0647424B
:1090FC0080B582B000AF78607B68002B01D1012372
:10910C0083E07B685B7FDBB2002B05D17B680022A0
:10911C001A777868FCF790FE7B6802225A777B6896
:10912C001B68CA225A627B681B6853225A62786891
:10913C0000F06DFB0346002B08D07B681B68FF22F8
:10914C005A627B6804225A7701235EE07B681B68B5
:10915C009B687A68126823F4E00323F04003936061
:10916C007B681B6899687B685A687B681B691A4323
:10917C007B685B691A437B681B680A439A607B684F
:10918C001B687A68D2681A617B681B6819697B68EE
:10919C009B681A047B681B680A431A617B681B680E
:1091AC00DA687B681B6822F08002DA607B681B68D7
:1091BC009B6803F02003002B0ED1786800F0FAFABC
:1091CC000346002B08D07B681B68FF225A627B6821
:1091DC0004225A77012318E07B681B681A6C7B68A1
:1091EC001B6822F480221A647B681B68196C7B68EC
:1091FC009A697B681B680A431A647B681B68FF22A8
:10920C005A627B6801225A77002318460837BD46FC
:10921C0080BD90B587B000AFF860B9607A60FB682C
:10922C001B7F012B01D10223A3E0FB6801221A77DB
:10923C00FB6802225A777B68002B26D1FB681B68DF
:10924C009B6803F04003002B02D1BB680022DA704C
:10925C00BB681B78184600F004FB03461C04BB6873
:10926C005B78184600F0FDFA03461B021C43BB68F2
:10927C009B78184600F0F5FA034644EA0302BB68F3
:10928C00DB781B0413437B6118E0FB681B689B684D
:10929C0003F04003002B02D1BB680022DA70BB68DC
:1092AC001B781A04BB685B781B021343BA6892786C
:1092BC001A43BB68DB781B0413437B61FB681B6898
:1092CC00CA225A62FB681B6853225A62F86800F083
:1092DC009EFA0346002B0BD0FB681B68FF225A62D8
:1092EC00FB6804225A77FB6800221A77012340E0BE
:1092FC00FB681A687B6903F07F3323F0FE4313602D
:10930C00FB681B689A68FB681B6822F480229A60D1
:10931C00FB681B689968BB68DA68BB681B691A43F1
:10932C00FB681B680A439A60FB681B68DA68FB6879
:10933C001B6822F08002DA60F86800F03BFA034602
:10934C00002B0BD0FB681B68FF225A62FB680422BF
:10935C005A77FB6800221A7701230AE0FB681B6826
:10936C00FF225A62FB6801225A77FB6800221A77A7
:10937C00002318461C37BD4690BD90B587B000AF92
:10938C00F860B9607A60FB681B7F012B01D1022366
:10939C008DE0FB6801221A77FB6802225A777B6802
:1093AC00002B0ED1BB685B7803F01003002B08D0A8
:1093BC00BB685B7823F01003DBB20A33DAB2BB680C
:1093CC005A707B68002B1CD1BB68DB78184600F008
:1093DC0048FA03461C04BB685B78184600F041FA57
:1093EC0003461B021C43BB689B78184600F039FAF5
:1093FC00034644EA0302BB681B785B0313437B619F
:10940C000EE0BB68DB781A04BB685B781B02134365
:10941C00BA6892781A43BB681B785B0313437B6171
:10942C00FB681B68CA225A62FB681B6853225A628B
:10943C00F86800F0ECF90346002B0BD0FB681B68B6
:10944C00FF225A62FB6804225A77FB6800221A77C3
:10945C0001232CE0FB681A687B6923F07F4323F01F
:10946C00C0035360FB681B68DA68FB681B6822F05A
:10947C008002DA60F86800F09DF90346002B0BD0EF
:10948C00FB681B68FF225A62FB6804225A77FB6850
:10949C0000221A7701230AE0FB681B68FF225A623C
:1094AC00FB6801225A77FB6800221A7700231846C2
:1094BC001C37BD4690BD000090B589B000AFF86078
:1094CC00B9607A600023BB610023FB6100237B61E0
:1094DC00FB681B7F012B01D102231FE1FB680122DA
:1094EC001A77FB6802225A777B68002B37D1FB680E
:1094FC001B689B6803F04003002B02D1BB68002261
:10950C00DA70BB681B78184600F0ABF903461C04F4
:10951C00BB685B78184600F0A4F903461B021C4399
:10952C00BB689B78184600F09CF9034644EA03029A
:10953C00BB68DB781B0442EA0304BB6893F8203059
:10954C00184600F08EF903461B0644EA0302BB687A
:10955C00DB691A43BB685B691343FB6123E0FB685F
:10956C001B689B6803F04003002B02D1BB680022F0
:10957C00DA70BB681B781A04BB685B781B02134358
:10958C00BA6892781A43BB68DB781B041A43BB6831
:10959C0093F820301B061A43BB68DB691A43BB687F
:1095AC005B691343FB61BB685A68BB689B691343D7
:1095BC007B61FB681B68CA225A62FB681B685322DA
:1095CC005A62BB685B6AB3F5807F48D1FB681B6845
:1095DC009A68FB681B6822F480729A60FB681B68AF
:1095EC00DB68DAB2FB681B6862F4C072DA60FDF704
:1095FC004BFEB86113E0FDF747FE0246BB69D31A78
:10960C00B3F57A7F0BD9FB681B68FF225A62FB68A3
:10961C0003225A77FB6800221A7703237EE0FB684B
:10962C001B68DB6803F00103002BE4D0FB681B68AC
:10963C00FA69DA61FB681B687A695A64FB681B6813
:10964C009A68FB681B6842F480729A60FB681B681E
:10965C009A68FB681B6842F480529A6047E0FB688A
:10966C001B689A68FB681B6822F400729A60FB689E
:10967C001B68DB68DAB2FB681B6862F42072DA6084
:10968C00FDF702FEB86113E0FDF7FEFD0246BB6973
:10969C00D31AB3F57A7F0BD9FB681B68FF225A6289
:1096AC00FB6803225A77FB6800221A77032335E004
:1096BC00FB681B68DB6803F00203002BE4D0FB683B
:1096CC001B68FA691A62FB681B687A699A64FB6802
:1096DC001B689A68FB681B6842F400729A60FB680E
:1096EC001B689A68FB681B6842F400529A600D4B29
:1096FC001B680C4A43F4003313600A4B9B68094AFD
:10970C0043F400339360FB681B68FF225A62FB68CA
:10971C0001225A77FB6800221A7700231846243757
:10972C00BD4690BD0004014080B582B000AF7860AA
:10973C007B681B689B6803F48053002B12D07B68FA
:10974C001B68DB6803F48073002B0BD07868FCF784
:10975C00F7FA7B681B68DB68DAB27B681B6862F41B
:10976C00C072DA607B681B689B6803F40053002BA3
:10977C0012D07B681B68DB6803F40073002B0BD0E2
:10978C00786800F08DF87B681B68DB68DAB27B6860
:10979C001B6862F42072DA60054B4FF400325A6198
:1097AC007B6801225A7700BF0837BD4680BD00BFD9
:1097BC000004014080B584B000AF78607B681B6802
:1097CC009B6803F02003002B1CD17B681B68DA68B4
:1097DC007B681B6822F0A002DA60FDF755FDF8608B
:1097EC0009E0FDF751FD0246FB68D31AB3F57A7F09
:1097FC0001D9032307E07B681B68DB6803F02003B7
:10980C00002BEED0002318461037BD4680BD80B526
:10981C0084B000AF78607B681B68DB6803F04003A2
:10982C00002B19D17B681B684FF0FF32DA60FDF713
:10983C002BFDF86009E0FDF727FD0246FB68D31A03
:10984C00B3F57A7F01D9032307E07B681B68DB68DB
:10985C0003F04003002BEED0002318461037BD4612
:10986C0080BD80B485B000AF0346FB710023FB6064
:10987C00FB79FB7205E0FB680133FB60FB7A0A3B6A
:10988C00FB72FB7A092BF6D8FB68DBB21B01DAB250
:10989C00FB7A1343DBB218461437BD4680BC7047C5
:1098AC0080B483B000AF786000BF0C37BD4680BC7D
:1098BC00704780B582B000AF78607B68002B01D117
:1098CC00012331E07B6893F83930DBB2002B06D1F1
:1098DC007B68002283F838207868FCF7C9FA7B682B
:1098EC00022283F839207B681A687B680433194696
:1098FC00104600F075FC7B68012283F83E207B68E3
:10990C00012283F83A207B68012283F83B207B6894
:10991C00012283F83C207B68012283F83D207B6880
:10992C00012283F83920002318460837BD4680BD34
:10993C0080B485B000AF78607B6893F83930DBB2C7
:10994C00012B01D0012332E07B68022283F83920FD
:10995C007B681B68B3F1804F0ED07B681B68164A7E
:10996C00934209D07B681B68144A934204D07B68ED
:10997C001B68134A934211D17B681B689B6803F0E8
:10998C000703FB60FB68062B10D07B681B681A680A
:10999C007B681B6842F001021A6007E07B681B6859
:1099AC001A687B681B6842F001021A600023184693
:1099BC001437BD4680BC70470004004000080040CE
:1099CC000008014080B485B000AF78607B6893F8E4
:1099DC003930DBB2012B01D001233AE07B68022243
:1099EC0083F839207B681B68DA687B681B6842F057
:1099FC000102DA607B681B68B3F1804F0ED07B6884
:109A0C001B68164A934209D07B681B68144A934220
:109A1C0004D07B681B68134A934211D17B681B6886
:109A2C009B6803F00703FB60FB68062B10D07B6878
:109A3C001B681A687B681B6842F001021A6007E019
:109A4C007B681B681A687B681B6842F001021A600D
:109A5C00002318461437BD4680BC704700040040F4
:109A6C00000800400008014080B483B000AF78606B
:109A7C007B681B68DA687B681B6822F00102DA607D
:109A8C007B681B681A6A41F211131340002B07D133
:109A9C007B681B681A687B681B6822F001021A60DD
:109AAC007B68012283F83920002318460C37BD4609
:109ABC0080BC704780B582B000AF78607B68002BAB
:109ACC0001D1012331E07B6893F83930DBB2002BF4
:109ADC0006D17B68002283F838207868FCF714FAEA
:109AEC007B68022283F839207B681A687B68043310
:109AFC001946104600F074FB7B68012283F83E2067
:109B0C007B68012283F83A207B68012283F83B2092
:109B1C007B68012283F83C207B68012283F83D207E
:109B2C007B68012283F83920002318460837BD468C
:109B3C0080BD000080B584B000AF786039603B68B0
:109B4C00002B09D17B6893F83A30DBB2012B14BFA0
:109B5C0001230023DBB222E03B68042B09D17B6894
:109B6C0093F83B30DBB2012B14BF01230023DBB293
:109B7C0015E03B68082B09D17B6893F83C30DBB2CD
:109B8C00012B14BF01230023DBB208E07B6893F8A0
:109B9C003D30DBB2012B14BF01230023DBB2002BC1
:109BAC0001D0012351E03B68002B04D17B680222D9
:109BBC0083F83A2013E03B68042B04D17B68022223
:109BCC0083F83B200BE03B68082B04D17B68022216
:109BDC0083F83C2003E07B68022283F83D207B68FD
:109BEC001B6801223968184600F0F5FC7B681B687D
:109BFC00B3F1804F0ED07B681B68164A934209D094
:109C0C007B681B68144A934204D07B681B68134A18
:109C1C00934211D17B681B689B6803F00703FB60C0
:109C2C00FB68062B10D07B681B681A687B681B6866
:109C3C0042F001021A6007E07B681B681A687B68B7
:109C4C001B6842F001021A60002318461037BD460B
:109C5C0080BD00BF00040040000800400008014027
:109C6C0080B582B000AF786039607B681B680022D9
:109C7C003968184600F0AFFC7B681B681A6A41F221
:109C8C0011131340002B07D17B681B681A687B6883
:109C9C001B6822F001021A603B68002B04D17B6820
:109CAC00012283F83A2013E03B68042B04D17B6833
:109CBC00012283F83B200BE03B68082B04D17B6826
:109CCC00012283F83C2003E07B68012283F83D20CD
:109CDC00002318460837BD4680BD80B582B000AF62
:109CEC0078607B681B681B6903F00203022B22D18E
:109CFC007B681B68DB6803F00203022B1BD17B68BB
:109D0C001B686FF002021A617B6801221A767B686D
:109D1C001B689B6903F00303002B03D0786800F0E9
:109D2C0044FA05E0786800F037FA786800F046FAF3
:109D3C007B6800221A767B681B681B6903F004039E
:109D4C00042B22D17B681B68DB6803F00403042B13
:109D5C001BD17B681B686FF004021A617B680222BE
:109D6C001A767B681B689B6903F44073002B03D045
:109D7C00786800F01AFA05E0786800F00DFA786857
:109D8C0000F01CFA7B6800221A767B681B681B6942
:109D9C0003F00803082B22D17B681B68DB6803F0F7
:109DAC000803082B1BD17B681B686FF008021A6133
:109DBC007B6804221A767B681B68DB6903F003035B
:109DCC00002B03D0786800F0F0F905E0786800F01B
:109DDC00E3F9786800F0F2F97B6800221A767B6868
:109DEC001B681B6903F01003102B22D17B681B68C6
:109DFC00DB6803F01003102B1BD17B681B686FF022
:109E0C0010021A617B6808221A767B681B68DB6972
:109E1C0003F44073002B03D0786800F0C6F905E01A
:109E2C00786800F0B9F9786800F0C8F97B6800220E
:109E3C001A767B681B681B6903F00103012B0ED19A
:109E4C007B681B68DB6803F00103012B07D17B687F
:109E5C001B686FF001021A61786801F013FB7B68D4
:109E6C001B681B6903F04003402B0ED17B681B68F9
:109E7C00DB6803F04003402B07D17B681B686FF055
:109E8C0040021A61786800F0A2F900BF0837BD469D
:109E9C0080BD000080B584B000AFF860B9607A6016
:109EAC00FB6893F83830012B01D10223ACE0FB683E
:109EBC00012283F838207B680C2B00F29F8001A2D2
:109ECC0052F823F0059F000809A0000809A000081B
:109EDC0009A00008459F000809A0000809A0000877
:109EEC0009A00008879F000809A0000809A0000825
:109EFC0009A00008C79F0008FB681B68B9681846D2
:109F0C0000F0DEF9FB681B689A69FB681B6842F07D
:109F1C0008029A61FB681B689A69FB681B6822F04F
:109F2C0004029A61FB681B689969BB68DA68FB6874
:109F3C001B680A439A6162E0FB681B68B9681846A3
:109F4C0000F0FAF9FB681B689A69FB681B6842F41D
:109F5C0000629A61FB681B689A69FB681B6822F4B3
:109F6C0080629A61FB681B689969BB68DB681A029E
:109F7C00FB681B680A439A6141E0FB681B68B9687F
:109F8C00184600F017FAFB681B68DA69FB681B6857
:109F9C0042F00802DA61FB681B68DA69FB681B682F
:109FAC0022F00402DA61FB681B68D969BB68DA68C5
:109FBC00FB681B680A43DA6121E0FB681B68B9681F
:109FCC00184600F034FAFB681B68DA69FB681B68FA
:109FDC0042F40062DA61FB681B68DA69FB681B6893
:109FEC0022F48062DA61FB681B68D969BB68DB68A4
:109FFC001A02FB681B680A43DA6100E000BFFB68C9
:10A00C00002283F83820002318461037BD4680BD47
:10A01C0080B584B000AF786039607B6893F83830D5
:10A02C00012B01D10223B3E07B68012283F8382095
:10A03C007B68022283F839207B681B689B68FB6075
:10A04C00FB6823F07703FB60FB6823F47F43FB6022
:10A05C007B681B68FA689A603B681B68B3F5005F05
:10A06C003ED0B3F5005F00F28780B3F5805F00F05F
:10A07C008580B3F5805F7FD8702B1AD0702B7BD87E
:10A08C00602B50D0602B77D8502B3CD0502B73D8F2
:10A09C00402B58D0402B6FD8302B64D0302B6BD842
:10A0AC00202B60D0202B67D8002B5CD0102B5AD0E3
:10A0BC0062E07B6818683B6899683B685A683B6843
:10A0CC00DB6800F069FA7B681B689B68FB60FB68C7
:10A0DC0043F07703FB607B681B68FA689A604EE07C
:10A0EC007B6818683B6899683B685A683B68DB6812
:10A0FC0000F052FA7B681B689A687B681B6842F414
:10A10C0080429A603BE07B6818683B6859683B6802
:10A11C00DB681A4600F0C9F97B681B6850211846A9
:10A12C0000F020FA2BE07B6818683B6859683B68A4
:10A13C00DB681A4600F0E7F97B681B68602118465B
:10A14C0000F010FA1BE07B6818683B6859683B68A4
:10A15C00DB681A4600F0A9F97B681B684021184699
:10A16C0000F000FA0BE07B681A683B681B68194624
:10A17C00104600F0F7F902E000BF00E000BF7B687A
:10A18C00012283F839207B68002283F838200023D1
:10A19C0018461037BD4680BD80B483B000AF7860E0
:10A1AC0000BF0C37BD4680BC704780B483B000AF95
:10A1BC00786000BF0C37BD4680BC704780B483B05C
:10A1CC0000AF786000BF0C37BD4680BC704780B4D0
:10A1DC0083B000AF786000BF0C37BD4680BC7047C1
:10A1EC0080B485B000AF786039607B681B68FB6019
:10A1FC007B68B3F1804F0FD07B682B4A93420BD016
:10A20C007B682A4A934207D07B68294A934203D041
:10A21C007B68284A934208D1FB6823F07003FB60EB
:10A22C003B685B68FA681343FB607B68B3F1804F53
:10A23C0017D07B681C4A934213D07B681B4A93420D
:10A24C000FD07B681A4A93420BD07B68194A934211
:10A25C0007D07B68184A934203D07B68174A934215
:10A26C0008D1FB6823F44073FB603B68DB68FA6839
:10A27C001343FB60FB6823F080023B681B691343AC
:10A28C00FB607B68FA681A603B689A687B68DA62E4
:10A29C003B681A687B689A627B6801225A6100BF2E
:10A2AC001437BD4680BC70470004004000080040D5
:10A2BC00000C004000080140000C0140001001405F
:10A2CC0080B487B000AF786039607B681B6A23F07C
:10A2DC0001027B681A627B681B6A7B617B685B6826
:10A2EC003B617B689B69FB60FB6823F07003FB6040
:10A2FC00FB6823F00303FB603B681B68FA6813439D
:10A30C00FB607B6923F002037B613B689B687A6985
:10A31C0013437B617B683A695A607B68FA689A617F
:10A32C003B685A687B685A637B687A691A6200BF1B
:10A33C001C37BD4680BC704780B487B000AF7860D6
:10A34C0039607B681B6A23F010027B681A627B6899
:10A35C001B6A7B617B685B683B617B689B69FB600C
:10A36C00FB6823F4E043FB60FB6823F44073FB6061
:10A37C003B681B681B02FA681343FB607B6923F084
:10A38C0020037B613B689B681B017A6913437B61EB
:10A39C007B683A695A607B68FA689A613B685A68CC
:10A3AC007B689A637B687A691A6200BF1C37BD466A
:10A3BC0080BC704780B487B000AF786039607B6830
:10A3CC001B6A23F480727B681A627B681B6A7B6150
:10A3DC007B685B683B617B68DB69FB60FB6823F037
:10A3EC007003FB60FB6823F00303FB603B681B6896
:10A3FC00FA681343FB607B6923F400737B613B6851
:10A40C009B681B027A6913437B617B683A695A60CB
:10A41C007B68FA68DA613B685A687B68DA637B6848
:10A42C007A691A6200BF1C37BD4680BC704780B485
:10A43C0087B000AF786039607B681B6A23F4805268
:10A44C007B681A627B681B6A7B617B685B683B611B
:10A45C007B68DB69FB60FB6823F4E043FB60FB6813
:10A46C0023F44073FB603B681B681B02FA681343C0
:10A47C00FB607B6923F400537B613B689B681B0387
:10A48C007A6913437B617B683A695A607B68FA6826
:10A49C00DA613B685A687B681A647B687A691A626D
:10A4AC0000BF1C37BD4680BC704780B487B000AF7E
:10A4BC00F860B9607A60FB681B6A7B61FB681B6A99
:10A4CC0023F00102FB681A62FB689B693B613B69E4
:10A4DC0023F0F0033B617B681B013A6913433B613A
:10A4EC007B6923F00A037B617A69BB6813437B6148
:10A4FC00FB683A699A61FB687A691A6200BF1C377B
:10A50C00BD4680BC704780B487B000AFF860B960BE
:10A51C007A60FB681B6A23F01002FB681A62FB6806
:10A52C009B697B61FB681B6A3B617B6923F470430D
:10A53C007B617B681B037A6913437B613B6923F066
:10A54C00A0033B61BB681B013A6913433B61FB6889
:10A55C007A699A61FB683A691A6200BF1C37BD467A
:10A56C0080BC704780B485B000AF786039607B6880
:10A57C009B68FB60FB6823F07003FB603A68FB6828
:10A58C00134343F00703FB607B68FA689A6000BFD3
:10A59C001437BD4680BC704780B487B000AFF860FC
:10A5AC00B9607A603B60FB689B687B617B6923F4D4
:10A5BC007F437B613B681A027B681A43BB68134379
:10A5CC007A6913437B61FB687A699A6000BF1C3718
:10A5DC00BD4680BC704780B487B000AFF860B960EE
:10A5EC007A60BB6803F01F03012202FA03F37B615C
:10A5FC00FB681A6A7B69DB431A40FB681A62FB68CA
:10A60C001A6ABB6803F01F03796801FA03F31A4353
:10A61C00FB681A6200BF1C37BD4680BC7047000047
:10A62C0080B485B000AF786039607B6893F83830BF
:10A63C00012B01D1022346E07B68012283F83820EC
:10A64C007B68022283F839207B681B685B68FB609F
:10A65C007B681B689B68BB60FB6823F07003FB6026
:10A66C003B681B68FA681343FB607B681B68FA68DD
:10A67C005A607B681B68B3F1804F0ED07B681B68F7
:10A68C00134A934209D07B681B68124A934204D048
:10A69C007B681B68104A93420CD1BB6823F0800383
:10A6AC00BB603B685B68BA681343BB607B681B6824
:10A6BC00BA689A607B68012283F839207B68002293
:10A6CC0083F83820002318461437BD4680BC7047E9
:10A6DC0000040040000800400008014080B582B032
:10A6EC0000AF78607B68002B01D101233FE07B68D1
:10A6FC0093F83D30DBB2002B06D17B68002283F847
:10A70C003C207868FBF756FC7B68242283F83D20BC
:10A71C007B681B68DA687B681B6822F40052DA607D
:10A72C00786800F0E5FB7B681B681A697B681B681E
:10A73C0022F490421A617B681B685A697B681B681B
:10A74C0022F02A025A617B681B68DA687B681B68F6
:10A75C0042F40052DA607B6800221A647B68202283
:10A76C0083F83D207B68202283F83E200023184686
:10A77C000837BD4680BD80B485B000AFF860B960C5
:10A78C001346FB80FB6893F83D30DBB2202B30D1B5
:10A79C00BB68002B02D0FB88002B01D1012329E0E0
:10A7AC00FB6893F83C30012B01D1022322E0FB68BB
:10A7BC00012283F83C20FB68BA681A62FB68FA88AD
:10A7CC009A84FB68FA88DA84FB6800221A64FB68B6
:10A7DC00212283F83D20FB68002283F83C20FB6893
:10A7EC001B68DA68FB681B6842F08002DA600023A1
:10A7FC0000E0022318461437BD4680BC704780B574
:10A80C0084B000AFF860B9601346FB80FB6893F826
:10A81C003E30DBB2202B1DD1BB68002B02D0FB8855
:10A82C00002B01D1012316E0FB6893F83C30012B7F
:10A83C0001D102230FE0FB68012283F83C20FB6866
:10A84C0000221A63FB881A46B968F86800F0C6F94A
:10A85C00034600E0022318461037BD4680BD0000B9
:10A86C0080B58AB000AF78607B681B681B687B6220
:10A87C007B681B68DB683B627B681B685B69FB6100
:10A88C000023BB6100237B617B6A03F00F03BB6178
:10A89C00BB69002B0DD17B6A03F02003002B08D081
:10A8AC003B6A03F02003002B03D0786800F076FAA3
:10A8BC007BE1BB69002B00F0B180FB6903F0010365
:10A8CC00002B05D13B6A03F49073002B00F0A6809B
:10A8DC007B6A03F00103002B0AD03B6A03F48073FC
:10A8EC00002B05D07B681B6C43F001027B681A645B
:10A8FC007B6A03F00403002B0AD0FB6903F001030D
:10A90C00002B05D07B681B6C43F002027B681A6439
:10A91C007B6A03F00203002B0AD0FB6903F00103EE
:10A92C00002B05D07B681B6C43F004027B681A6417
:10A93C007B6A03F00803002B0FD03B6A03F0200363
:10A94C00002B04D1FB6903F00103002B05D07B68BD
:10A95C001B6C43F008027B681A647B681B6C002B31
:10A96C0000F01E817B6A03F02003002B07D03B6AAA
:10A97C0003F02003002B02D0786800F00FFA7B68FC
:10A98C001B685B6903F04003402B0CBF01230023C1
:10A99C00DBB27B617B681B6C03F00803002B02D1DC
:10A9AC007B69002B31D0786800F051F97B681B680B
:10A9BC005B6903F04003402B23D17B681B685A6909
:10A9CC007B681B6822F040025A617B689B6B002BF2
:10A9DC0013D07B689B6B764A5A637B689B6B1846DB
:10A9EC00FDF75EF80346002B16D07B689B6B5B6B08
:10A9FC007A68926B104698470EE0786800F0DAF8A7
:10AA0C000AE0786800F0D6F806E0786800F0D2F832
:10AA1C007B6800221A64C3E000BFC1E07B681B6B3B
:10AA2C00012B40F0A1807B6A03F01003002B00F097
:10AA3C009B803B6A03F01003002B00F095800023F1
:10AA4C00FB607B681B681B68FB607B681B685B6832
:10AA5C00FB60FB687B681B685B6903F04003402B61
:10AA6C004ED17B689B6B1B685B683B823B8A002BDF
:10AA7C0000F098807B689B8D3A8A9A4280F0928095
:10AA8C007B683A8ADA857B689B6B9B69202B2BD081
:10AA9C007B681B68DA687B681B6822F48072DA605A
:10AAAC007B681B685A697B681B6822F001025A613B
:10AABC007B681B685A697B681B6822F040025A61EC
:10AACC007B68202283F83E207B6800221A637B6817
