:020000040800F2
:100000000080002049120008B9110008BF11000843
:10001000C5110008CB110008D11100080000000034
:10002000000000000000000000000000D7110008E0
:10003000E311000800000000EF110008FB110008A8
:100040009112000891120008911200089112000804
:1000500091120008911200089112000891120008F4
:1000600091120008911200089112000891120008E4
:1000700091120008911200089112000891120008D4
:1000800091120008911200089112000891120008C4
:1000900091120008911200089112000891120008B4
:1000A000000000009112000891120008911200084F
:1000B0009112000891120008911200089112000894
:1000C0009112000891120008911200089112000884
:1000D00091120008091200081D1200089112000870
:1000E0009112000891120008911200089112000864
:1000F00091120008000000009112000891120008FF
:100100000000000000000000911200089112000899
:1001100091120008911200089112000800000000DE
:100120009112000800000000000000000000000024
:0C01300000000000000000005FF808F173
:10013C0010B5054C237833B9044B13B10448AFF315
:10014C0000800123237010BD70000020000000000F
:10015C00243E000808B5034B1BB103490348AFF319
:10016C00008008BD0000000074000020243E000840
:10017C00034613F8012B002AFBD1181A01387047DB
:10018C0053B94AB9002908BF00281CBF4FF0FF31F2
:10019C004FF0FF3000F06EB9ADF1080C6DE904CEF4
:1001AC0000F006F8DDF804E0DDE9022304B0704746
:1001BC002DE9F047089E0D4604468E46002B40F074
:1001CC0083808A42174647D9B2FA82F34BB1C3F106
:1001DC00200105FA03FE20FA01F19F4041EA0E0EC0
:1001EC009C404FEA1748BEFBF8FC1FFA87F908FB46
:1001FC001CE20CFB09F0210C41EA024290420AD9A4
:10020C00BA180CF1FF3180F01881904240F2158140
:10021C00ACF1020C3A44121AB2FBF8F008FB1022B3
:10022C0000FB09F1A4B244EA0244A14209D93C19E9
:10023C0000F1FF3280F00381A14240F200810238CC
:10024C003C44641A002140EA0C401EB10022DC4000
:10025C00C6E90042BDE8F08702B9FFDEB2FA82F3CC
:10026C00002B4FD18D1A01214FEA124E1FFA82F842
:10027C00B5FBFEFC0EFB1C5508FB0CF0220C42EAF5
:10028C000545A84207D97D190CF1FF3202D2A842CC
:10029C0000F2E98094462D1AB5FBFEF00EFB1055CA
:1002AC0008FB00F8A4B244EA0544A04507D93C1960
:1002BC0000F1FF3202D2A04500F2D9801046A4EB27
:1002CC00080440EA0C40C0E78B4208D9002E00F02D
:1002DC00B1800021C6E900050846BDE8F087B3FAF5
:1002EC0083F100294BD1AB4202D3824200F2B98098
:1002FC00841A65EB030301209E46002EAAD0C6E9A2
:10030C00004EA7E79F40C3F12002D1404FEA174EA1
:10031C00B1FBFEF01FFA87F80EFB101124FA02F263
:10032C009D4000FB08FC2A43150C45EA0145AC45F1
:10033C0004FA03F409D97D1900F1FF3180F08F80A4
:10034C00AC4540F28C8002383D44A5EB0C05B5FB66
:10035C00FEF10EFB115C01FB08F995B245EA0C4568
:10036C00A94507D97D1901F1FF3274D2A94572D97B
:10037C0002393D44A5EB090541EA004178E7C1F19A
:10038C0020078B4022FA07FC4CEA030C25FA07F4F1
:10039C004FEA1C4EB4FBFEF91FFA8CF80EFB194405
:1003AC0020FA07F309FB08FA8D401D432B0C43EA96
:1003BC000444A24502FA01F200FA01F309D91CEB3C
:1003CC00040409F1FF3048D2A24546D9A9F102092B
:1003DC006444A4EB0A04B4FBFEF00EFB104400FBD7
:1003EC0008FAADB245EA0444A24508D91CEB040452
:1003FC0000F1FF352DD2A2452BD90238644440EAD6
:10040C000940A0FB0289A4EB0A044C45C6464D46A4
:10041C0019D316D05EB1B3EB0E0264EB050404FAEB
:10042C0007F722FA01F31F43CC40C6E90074002100
:10043C00BDE8F087314630460CE78C46EBE61046BB
:10044C00FFE64345E6D2B8EB020E69EB0C0501382A
:10045C00E0E72846D3E711468CE78146B9E7084622
:10046C0073E7084649E7ACF1020C3D4413E7023848
:10047C003C4424E7704700BF80B500AF00F003FF99
:10048C0000F032F800F01EF900F0C8F800F0F0F8B7
:10049C0000F076F801220D490D4802F08AFF012286
:1004AC000A490C4802F085FF0B4802F02DFC0B4B5F
:1004BC001B680B4A934205D100F03AFB09490548E9
:1004CC0000F0A8FA00F0C8FAFEE700BF3C030020D9
:1004DC00F8000020880300204403002000010808D5
:1004EC00DEC0EDFE3C3E000880B592B000AF07F1D7
:1004FC00140334220021184603F076FB3B460022FD
:10050C001A605A609A60DA601A611C4B1B6823F4FB
:10051C00C0531A4A43F40063136001237B61012327
:10052C00BB610223BB634FF48033FB634FF40023A6
:10053C003B644FF480037B6407F11403184601F00D
:10054C00A3FD0346002B01D000F010FD0F233B60F0
:10055C0003237B600023BB600023FB6000233B6113
:10056C003B460121184602F0BFF80346002B01D090
:10057C0000F0FCFC00BF4837BD4680BD0070004059
:10058C0080B586B000AF07F1080300221A605A60EC
:10059C009A60DA603B4600221A605A601E4B4FF09C
:1005AC0080421A601C4B45F6C0525A601A4B00220E
:1005BC009A60194B4EF66022DA60174B00221A61D2
:1005CC00154B00225A61144802F022FB0346002B03
:1005DC0001D000F0CBFC4FF48053BB6007F1080353
:1005EC0019460D4802F000FC0346002B01D000F028
:1005FC00BDFC00233B6000237B603B46194606484C
:10060C0002F0BCFD0346002B01D000F0AFFC00BF94
:10061C001837BD4680BD00BF4403002080B500AF35
:10062C00114B124A1A60104B4FF4E1325A600E4BC8
:10063C0000229A600C4B0022DA600B4B00221A61EC
:10064C00094B0C225A61084B00229A61064B00227E
:10065C00DA61054802F0F0FD0346002B01D000F0F2
:10066C0085FC00BF80BD00BFF800002000380140B1
:10067C0080B500AF114B124A1A60104B4FF4E132A7
:10068C005A600E4B00229A600C4B0022DA600B4B26
:10069C0000221A61094B0C225A61084B00229A6104
:1006AC00064B0022DA61054802F0C6FD0346002B1A
:1006BC0001D000F05BFC00BF80BD00BF88030020B0
:1006CC000044004080B58AB000AF07F1140300224B
:1006DC001A605A609A60DA601A61374BDB69364AE5
:1006EC0043F00403D361344BDB6903F004033B6137
:1006FC003B69314BDB69304A43F02003D3612E4B0D
:10070C00DB6903F02003FB60FB682B4BDB692A4A97
:10071C0043F00103D361284BDB6903F00103BB6099
:10072C00BB68254BDB69244A43F00203D361224B9F
:10073C00DB6903F002037B607B68002202211F4807
:10074C0001F0E6FB00224FF4FC511D4801F0E0FBE8
:10075C000022C0211B4801F0DBFB02237B6101233B
:10076C00BB610023FB6100233B6207F114031946B4
:10077C00124801F06DF94FF4FC537B610123BB610E
:10078C000023FB6100233B6207F1140319460C485C
:10079C0001F05EF9C0237B610123BB610023FB6187
:1007AC0000233B6207F114031946064801F050F987
:1007BC0000BF2837BD4680BD003802400000024013
:1007CC00000802400004024080B582B000AF012254
:1007DC004FF40061254801F09BFB00224FF480711F
:1007EC00224801F095FB00224FF480511F4801F084
:1007FC008FFB01224FF480611C4801F089FB4FF400
:10080C00FA6000F0D3FD00224FF48061174801F02C
:10081C007FFB00237B601649164800F0FBF84FF471
:10082C007A721549134800F089F84FF4FA7000F009
:10083C00BDFD7B685A1C7A603C2B07DC0F491048C5
:10084C0003F000FA0346002BE5D000E000BF0D4991
:10085C00084800F0DFF84FF47A720749054800F0B9
:10086C006DF8012318460837BD4680BD00080240CC
:10087C00503E0008F80000205C3E0008643E000872
:10088C0044010020683E000880B582B000AF78605B
:10089C007B681B68174A934211D1174B1B68012BBD
:1008AC0008D1164B1B685A1C14490A60144A11785B
:1008BC00144AD15401221249134802F07AFD7B6884
:1008CC001B68124A934211D10B4B1B68022B08D1A7
:1008DC000A4B1B685A1C09490A60094A1178094AD3
:1008EC00D154012206490A4802F063FD00BF0837C3
:1008FC00BD4680BD00380140A8000020D003002078
:10090C003C03002044010020F8000020004400407B
:10091C008803002080B582B000AF7860054B0122BF
:10092C001A604021044801F00BFB00BF0837BD469C
:10093C0080BD00BFCC0300200004024080B588B00D
:10094C0000AFF860B9607A602C4B00221A60B8686E
:10095C00FFF70EFC03463B610023BB6100237B6168
:10096C00FB681B68264A934202D1264B01221A606F
:10097C00FB681B68244A934202D1224B02221A6064
:10098C00224B1B6800225A6229E0204B1B685B6AD1
:10099C007A689A4227D30023FB611CE0174B1A6834
:1009AC003B69D21AFB691344194AD25CFB69B968DA
:1009BC000B441B789A4209D17B6901337B617A69BC
:1009CC003B699A4204D10123BB6101E000237B61A6
:1009DC00FB690133FB61FA693B699A42DEDBBB6957
:1009EC00002BD2D000E000BF044B1B68084A00214A
:1009FC00D154BB6918462037BD4680BDD0030020BA
:100A0C0000380140A80000200044004044030020AE
:100A1C004401002080B582B000AF786039603B683B
:100A2C001B78002B11D03868FFF7A2FB03469BB252
:100A3C001A463968786802F078FC064B00221A6076
:100A4C0000BF044B1B68002BFBD000BF0837BD4612
:100A5C0080BD00BFCC03002080B586B000AF2B4812
:100A6C0002F09CF92A4802F0F9FC2A4802F0F6FC44
:100A7C004FF48061284801F06BF94FF480512648FF
:100A8C0001F066F94FF40061234801F061F94FF46D
:100A9C008071214801F05CF90221204801F058F9DD
:100AAC001A4802F0F4F81A4802F013FC194802F044
:100ABC0010FC01F05FFA00F0FFFB194B00221A60EA
:100ACC00174B00225A60164B00229A6001237B6060
:100ADC007B6883F3108800BF72B600BF114B124ABB
:100AEC009A60114B1B687B617B69BB60BB6883F3AD
:100AFC00088800BF0D4B1B683B613B69FB60FB68C2
:100B0C00984700BF1837BD4680BD00BF4403002086
:100B1C0088030020F800002000080240000002407A
:100B2C0010E000E000ED00E0005000080450000868
:100B3C0090B585B000AFFFF747FE86498648FFF7B2
:100B4C0069FF4FF47A7285498348FFF7F7FE8449B1
:100B5C008448FFF75FFF4421814803F04DF80346BA
:100B6C00814A1360804B1C687F4B1B687F49184679
:100B7C0003F057F80346234400221A707A4B1B6883
:100B8C0019467B4803F045F87A497348FFF742FF52
:100B9C0077497148FFF73EFF77496F48FFF73AFFF7
:100BAC004FF47A7275496C48FFF7C8FE0346002B68
:100BBC0005D173496B48FFF72DFF0023C5E171493F
:100BCC006848FFF727FF00BF4CF2503000F00AFED8
:100BDC000346002BF8D100F0BBFD6B4B4FF46C724D
:100BEC009A60694B694A5A60674B00221A606849DF
:100BFC00654800F0B3FE00BF4CF2503000F0F2FD3F
:100C0C000346002BF8D100F0DDFD00BF4CF2503054
:100C1C0000F0E8FD0346002BF8D15E495148FFF780
:100C2C00F9FE53494F48FFF7F5FE5B494D48FFF776
:100C3C00F1FE82E1594B1B680A225949184602F011
:100C4C00D1FF4C494448FFF7E5FE49494248FFF7BC
:100C5C00E1FE54494048FFF7DDFE51493E48FFF79D
:100C6C00D9FE51493C48FFF7D5FE4FF47A724349FF
:100C7C003948FFF763FE4D493A48FFF7CBFE3A215E
:100C8C00374802F0B9FF0346494A1360484B1B68CA
:100C9C000133474A1360464B1C68454B1B6845495A
:100CAC00184602F0BEFF0346023B234400221A7092
:100CBC003F4B1B681846FFF75BFA0346374A12682E
:100CCC00134403331A46354B1A60394B1B680733F0
:100CDC001B78302B40F00F81354B1B689B783B7099
:100CEC00334B1B68DB787B70314B1B681B79BB70FB
:100CFC002F4B1B685B79FB7000233B713B4610222A
:100D0C000021184603F03CF803469BB21A462A4BC6
:100D1C001B681344294A1360284B1B6823F0FF03FC
:100D2C00274A1360224B1B681B783B70204B1B68B7
:100D3C005B787B700023BB703B4610220021184669
:100D4C0003F01EF803469BB21A461E4B1A60002392
:100D5C00FB60C9E0703E0008F80000205C3E000813
:100D6C004401002088030020D8030020903E000896
:100D7C00B0000020943E0008A03E0008AC3E0008E5
:100D8C00B03E0008C03E00089C0000200050000847
:100D9C00C8030020D03E0008E03E00088C00002074
:100DAC0090000020EC3E0008F43E0008F83E0008DD
:100DBC00AC000020FC3E000840010020380300205D
:100DCC00840300203C010020624B1A68FB680E3340
:100DDC0013441B783B705F4B1A68FB680F3313444A
:100DEC001B787B705B4B1A68FB680C3313441B78C5
:100DFC00BB70584B1A68FB680D3313441B78FB709F
:100E0C0000233B713B4610220021184602F0B8FF2C
:100E1C0003469BB21B041A464F4B1A604D4B1A6883
:100E2C00FB680A3313441B787B704A4B1A68FB68C7
:100E3C000B3313441B78BB70464B1A68FB680833A2
:100E4C0013441B78FB70434B1A68FB68093313443B
:100E5C001B783B7100237B713B4610220021184606
:100E6C0002F08EFF03469BB21A463B4B1B681344A1
:100E7C00394A136001220221384801F049F800BFB9
:100E8C004CF2503000F0AEFC0346002BF8D100F0D1
:100E9C005FFC00BF4CF2503000F0A4FC0346002B6A
:100EAC00F8D100BF2E4B1B682B4A12681946022042
:100EBC0000F01EFC0346002BF4D10022022127482F
:100ECC0001F026F800BF4CF2503000F08BFC0346CA
:100EDC00002BF8D100F076FC214B1B680433204A20
:100EEC001360FB680833FB601E4B1B685B00FA68E1
:100EFC009A42FFF669AF174B1B6807331B78342BEC
:100F0C001BD1144B1B681B7A3B70124B1B685B7A12
:100F1C007B70104B1B689B7ABB700E4B1B68DB7A8B
:100F2C00FB7000233B713B4610220021184602F057
:100F3C0027FF03461B040C4A1360064B1B68073340
:100F4C001B78312B7FF476AE002318461437BD4640
:100F5C0090BD00BFAC000020400300200000024008
:100F6C00380300203C0100204001002080B400AF79
:100F7C0072B600BFFEE7000080B485B000AF144B22
:100F8C005B6A134A43F000435362114B5B6A03F0F4
:100F9C000043FB60FB680E4B1B6A0D4A43F00103D8
:100FAC0013620B4B1B6A03F00103BB60BB68084B5D
:100FBC005B6A074A43F080535362054B5B6A03F04C
:100FCC0080537B607B6800BF1437BD4680BC704784
:100FDC000038024080B485B000AF78607B681B6835
:100FEC00B3F1804F0BD1084B5B6A074A43F0010306
:100FFC005362054B5B6A03F00103FB60FB6800BFA7
:10100C001437BD4680BC70470038024080B483B0B2
:10101C0000AF78607B681B68B3F1804F05D1054B3E
:10102C005B6A044A23F00103536200BF0C37BD46D0
:10103C0080BC70470038024080B58CB000AF78603F
:10104C0007F11C0300221A605A609A60DA601A6178
:10105C007B681B68364A934231D1364B1B6A354A42
:10106C0043F480431362334B1B6A03F48043BB612C
:10107C00BB69304BDB692F4A43F00103D3612D4B25
:10108C00DB6903F001037B617B694FF4C063FB6197
:10109C0002233B6200237B620323BB620723FB62B8
:1010AC0007F11C031946244800F0D2FC0022002151
:1010BC00252000F098FA252000F0B1FA34E07B6886
:1010CC001B681E4A93422FD11A4B5B6A194A43F490
:1010DC0000335362174B5B6A03F400333B613B698B
:1010EC00144BDB69134A43F00103D361114BDB69E9
:1010FC0003F00103FB60FB680C23FB6102233B62E2
:10110C0000237B620323BB620723FB6207F11C03F2
:10111C001946094800F09CFC00220021262000F012
:10112C0062FA262000F07BFA00BF3037BD4680BD46
:10113C0000380140003802400000024000440040EA
:10114C0080B582B000AF78607B681B68134A93420D
:10115C000ED1134B1B6A124A23F4804313624FF4D3
:10116C00C061104800F0F4FD252000F066FA11E093
:10117C007B681B680C4A93420CD1094B5B6A084A8A
:10118C0023F4003353620C21064800F0E1FD2620C5
:10119C0000F053FA00BF0837BD4680BD003801404F
:1011AC0000380240000002400044004080B400AF10
:1011BC00FEE780B400AFFEE780B400AFFEE780B47A
:1011CC0000AFFEE780B400AFFEE780B400AF00BF15
:1011DC00BD4680BC704780B400AF00BFBD4680BC2C
:1011EC00704780B400AF00BFBD4680BC704780B56F
:1011FC0000AF00F0BFF800BF80BD000080B500AFAD
:10120C00024802F083F900BF80BD00BFF800002047
:10121C0080B500AF024802F079F900BF80BD00BF75
:10122C008803002080B400AF034B4FF000629A603B
:10123C0000BFBD4680BC704700ED00E0002103E01C
:10124C000B4B5B58435004310A480B4B42189A42E3
:10125C00F6D30A4A02E0002342F8043B084B9A42B8
:10126C00F9D3FFF7DFFF02F081FCFFF705F97047B8
:10127C005C4000080000002070000020700000207E
:10128C00F8030020FEE780B582B000AF0023FB71AD
:10129C00032000F09DF9002000F032F80346002BEB
:1012AC0002D00123FB7101E0FFF766FEFB791846C3
:1012BC000837BD4680BD000080B500AF0C4B4FF029
:1012CC00FF329A610A4B00229A61094B4FF0FF32B0
:1012DC005A61074B00225A61054B4FF0FF321A61DD
:1012EC00034B00221A6100F005F80023184680BD5C
:1012FC000038024080B400AF00BFBD4680BC7047D0
:10130C0080B584B000AF78600023FB73164B1B686C
:10131C00002B22D0154B1A68134B1B684FF47A71B3
:10132C00B1FBF3F3B2FBF3F3184600F094F9034668
:10133C00002B0FD17B680F2B09D8002279684FF056
:10134C00FF3000F050F90A4A7B68136007E0012374
:10135C00FB7304E00123FB7301E00123FB73FB7BB4
:10136C0018461037BD4680BD080000200000002044
:10137C000400002080B400AF054B1A68054B1B68B5
:10138C001344034A136000BFBD4680BC704700BFC6
:10139C00DC0300200800002080B400AF024B1B6867
:1013AC001846BD4680BC7047DC03002080B584B075
:1013BC0000AF7860FFF7F0FFB8607B68FB60FB68FC
:1013CC00B3F1FF3F04D0094B1B68FA681344FB6070
:1013DC0000BFFFF7E1FF0246BB68D31AFA689A42D6
:1013EC00F7D800BF00BF1037BD4680BD08000020F5
:1013FC0080B485B000AF78607B6803F00703FB60B6
:10140C000C4BDB68BB60BA684FF6FF031340BB6044
:10141C00FB681A02BB68134343F0BF6343F4003309
:10142C00BB60044ABB68D36000BF1437BD4680BCA8
:10143C00704700BF00ED00E080B400AF044BDB68E8
:10144C001B0A03F007031846BD4680BC704700BF5B
:10145C0000ED00E080B483B000AF0346FB7197F958
:10146C000730002B0BDBFB7903F01F02064997F9C1
:10147C0007305B09012000FA02F241F8232000BF7B
:10148C000C37BD4680BC704700E100E080B483B0EF
:10149C0000AF0346FB7197F90730002B12DBFB7989
:1014AC0003F01F020A4997F907305B09012000FA83
:1014BC0002F2203341F82320BFF34F8F00BFBFF35C
:1014CC006F8F00BF00BF0C37BD4680BC704700BF9C
:1014DC0000E100E080B483B000AF03463960FB71DB
:1014EC0097F90730002B0ADB3B68DAB20C4997F905
:1014FC0007301201D2B20B4483F800230AE03B6898
:10150C00DAB20849FB7903F00F03043B1201D2B2A3
:10151C000B441A7600BF0C37BD4680BC704700BF29
:10152C0000E100E000ED00E080B489B000AFF860AD
:10153C00B9607A60FB6803F00703FB61FB69C3F1D8
:10154C000703042B28BF0423BB61FB690433062B60
:10155C0002D9FB69033B00E000237B614FF0FF32B3
:10156C00BB6902FA03F3DA43BB681A407B699A4001
:10157C004FF0FF317B6901FA03F3D9437B680B40D1
:10158C00134318462437BD4680BC704780B582B0E3
:10159C0000AF78607B68013BB3F1807F01D30123FE
:1015AC000FE00A4A7B68013B53600F214FF0FF307C
:1015BC00FFF790FF054B00229A60044B07221A603C
:1015CC00002318460837BD4680BD00BF10E000E080
:1015DC0080B582B000AF78607868FFF709FF00BF74
:1015EC000837BD4680BD80B586B000AF0346B960F4
:1015FC007A60FB7300237B61FFF71EFF78617A68CA
:10160C00B9687869FFF790FF024697F90F301146D9
:10161C001846FFF75FFF00BF1837BD4680BD80B589
:10162C0082B000AF0346FB7197F907301846FFF7FD
:10163C0011FF00BF0837BD4680BD80B582B000AF3A
:10164C000346FB7197F907301846FFF71FFF00BFE1
:10165C000837BD4680BD80B582B000AF7860786831
:10166C00FFF794FF034618460837BD4680BD80B58A
:10167C0084B000AF78600023FB737B6893F8213053
:10168C00DBB2022B05D07B6804229A630123FB7327
:10169C0029E07B681B681A687B681B6822F00E02C5
:1016AC001A607B681B681A687B681B6822F0010251
:1016BC001A607B681B6C03F01C027B68DB6B0121DE
:1016CC0001FA02F25A607B68012283F821207B68C0
:1016DC00002283F820207B685B6B002B03D07B6897
:1016EC005B6B78689847FB7B18461037BD4680BD0E
:1016FC0080B586B000AFF860B9607A600123FB75E5
:10170C00124B1B7C012B01D102231BE00F4B01223E
:10171C001A744CF2503000F065F80346FB75FB7DF3
:10172C00002B0BD1094B00225A61BB687A681A60F6
:10173C004CF2503000F056F80346FB75034B002278
:10174C001A74FB7D18461837BD4680BDE003002097
:10175C0080B400AF164B5B6803F00203022B21D15F
:10176C00134B5B6803F00103012B0DD1104B114A95
:10177C00DA600F4B104ADA600D4B5B6803F0010323
:10178C00012B01D101230EE0094B0C4A1A61084BC5
:10179C000B4A1A61064B5B6803F00203022B01D162
:1017AC00012300E000231846BD4680BC704700BFF3
:1017BC00003C0240EFCDAB8905040302BFAE9D8C0B
:1017CC001615141380B400AF054B5B68044A43F044
:1017DC000203536000231846BD4680BC704700BF0F
:1017EC00003C024080B584B000AF7860FFF7D4FDB8
:1017FC00F86010E07B68B3F1FF3F0CD07B68002BE6
:10180C0007D0FFF7C9FD0246FB68D31A7A689A42E3
:10181C0001D2032336E01D4B9B6903F00103012B1E
:10182C00E8D01A4B9B6903F00203022B02D1174B31
:10183C0002229A61154B9B6903F48073B3F5807F88
:10184C001BD0124B9B6903F40063B3F5006F14D0EB
:10185C000E4B9B6903F40053B3F5005F0DD00B4B9B
:10186C009B6903F48053B3F5805F06D0074B9B69EB
:10187C0003F40073B3F5007F03D100F009F80123E2
:10188C0000E0002318461037BD4680BD003C0240E6
:10189C0080B483B000AF00237B602E4B9B6903F4B4
:1018AC008073B3F5807F09D12B4B5B6943F0020346
:1018BC00294A53617B6843F480737B60254B9B6999
:1018CC0003F40073B3F5007F09D1234B5B6943F03C
:1018DC000103214A53617B6843F400737B601D4B09
:1018EC009B6903F40063B3F5006F09D11A4B5B6974
:1018FC0043F00403184A53617B6843F400637B6034
:10190C00144B9B6903F40053B3F5005F09D1124BE0
:10191C005B6943F01003104A53617B6843F4005336
:10192C007B600C4B9B6903F48053B3F5805F09D14A
:10193C00094B5B6943F02003074A53617B6843F40E
:10194C0080537B60034A7B68936100BF0C37BD46B4
:10195C0080BC7047003C0240E003002080B584B09E
:10196C0000AF786039600123FB730023BB60254B0B
:10197C001B7C012B01D1022340E0224B01221A7463
:10198C004CF25030FFF72EFF0346FB73FB7B002B12
:10199C0030D13B684FF0FF321A607B685B68BB60EC
:1019AC001FE0B86800F032F84CF25030FFF71AFF25
:1019BC000346FB73144B5B68134A23F00803536014
:1019CC00114B5B68104A23F400735360FB7B002BB4
:1019DC0003D03B68BA681A600CE0BB6803F58073EF
:1019EC00BB607B689B681A027B685B681344BA68AF
:1019FC009A42D6D3034B00221A74FB7B184610373D
:101A0C00BD4680BDE0030020003C024080B483B0A2
:101A1C0000AF78600C4B00225A610C4B5B680B4A90
:101A2C0043F400735360094B5B68084A43F00803A6
:101A3C0053607B6823F0FF031A460023136000BF3A
:101A4C000C37BD4680BC7047E0030020003C0240D0
:101A5C0080B487B000AF7860396000237B610023CD
:101A6C00FB6000233B6154E13B681A6801217B69F0
:101A7C0001FA03F31340FB60FB68002B00F0468176
:101A8C003B685B68012B0BD03B685B68022B07D073
:101A9C003B685B68112B03D03B685B68122B30D121
:101AAC007B689B683B617B695B00032202FA03F352
:101ABC00DB433A6913403B613B68DA687B695B0046
:101ACC0002FA03F33A6913433B617B683A699A6003
:101ADC007B685B683B6101227B6902FA03F3DB43A1
:101AEC003A6913403B613B685B681B0903F00102D8
:101AFC007B6902FA03F33A6913433B617B683A69E9
:101B0C005A607B68DB683B617B695B00032202FAED
:101B1C0003F3DB433A6913403B613B689A687B698A
:101B2C005B0002FA03F33A6913433B617B683A6941
:101B3C00DA603B685B68022B03D03B685B68122B56
:101B4C0023D17B69DA087B68083253F822303B6179
:101B5C007B6903F007039B000F2202FA03F3DB43BC
:101B6C003A6913403B613B681A697B6903F00703D0
:101B7C009B0002FA03F33A6913433B617B69DA0871
:101B8C007B680832396943F822107B681B683B611B
:101B9C007B695B00032202FA03F3DB433A691340CF
:101BAC003B613B685B6803F003027B695B0002FAF4
:101BBC0003F33A6913433B617B683A691A603B68EB
:101BCC005B6803F08053002B00F0A080584B1B6A1D
:101BDC00574A43F001031362554B1B6A03F0010390
:101BEC00BB60BB68534A7B699B08023352F82330B5
:101BFC003B617B6903F003039B000F2202FA03F3A2
:101C0C00DB433A6913403B617B684B4A934219D0E2
:101C1C007B684A4A934213D07B68494A93420DD061
:101C2C007B68484A934207D07B68474A934201D16C
:101C3C00042308E0052306E0032304E0022302E06A
:101C4C00012300E000237A6902F003029200934022
:101C5C003A6913433B6137497B699B0802333A6904
:101C6C0041F82320394B1B683B61FB68DB433A6925
:101C7C0013403B613B685B6803F48033002B03D05B
:101C8C003A69FB6813433B61304A3B6913602F4B45
:101C9C005B683B61FB68DB433A6913403B613B6823
:101CAC005B6803F40033002B03D03A69FB681343E1
:101CBC003B61264A3B695360244B9B683B61FB6844
:101CCC00DB433A6913403B613B685B6803F4801368
:101CDC00002B03D03A69FB6813433B611B4A3B69F9
:101CEC0093601A4BDB683B61FB68DB433A6913403A
:101CFC003B613B685B6803F40013002B03D03A692B
:101D0C00FB6813433B61114A3B69D3607B69013328
:101D1C007B613B681A687B6922FA03F3002B7FF422
:101D2C00A3AE00BF00BF1C37BD4680BC704700BFD0
:101D3C000038024000000140000002400004024054
:101D4C0000080240000C0240001002400004014058
:101D5C0080B487B000AF7860396000237B610023CA
:101D6C003B610023FB60B8E001227B6902FA03F3BC
:101D7C003A6813403B613B69002B00F0AB805D4A35
:101D8C007B699B08023352F82330FB607B6903F0BC
:101D9C0003039B000F2202FA03F3FA681340FB6063
:101DAC007B68554A934219D07B68544A934213D0AE
:101DBC007B68534A93420DD07B68524A934207D0BA
:101DCC007B68514A934201D1042308E0052306E0C5
:101DDC00032304E0022302E0012300E000237A69DC
:101DEC0002F0030292009340FA689A4232D1474BB8
:101DFC001A683B69DB43454913400B60434B5A68F7
:101E0C003B69DB43414913404B60404B9A683B694B
:101E1C00DB433E4913408B603C4BDA683B69DB4348
:101E2C003A491340CB607B6903F003039B000F22FC
:101E3C0002FA03F3FB602F4A7B699B08023352F8CA
:101E4C002310FB68DA432B487B699B080A4002335A
:101E5C0040F823207B681A687B695B00032101FA38
:101E6C0003F3DB431A407B681A607B69DA087B68F2
:101E7C00083253F822107B6903F007039B000F22F2
:101E8C0002FA03F3DB437A69D20819407B68083203
:101E9C0043F822107B68DA687B695B00032101FA46
:101EAC0003F3DB431A407B68DA607B685A680121D4
:101EBC007B6901FA03F3DB431A407B685A607B6849
:101ECC009A687B695B00032101FA03F3DB431A4038
:101EDC007B689A607B6901337B613A687B6922FA83
:101EEC0003F3002B7FF440AF00BF00BF1C37BD468F
:101EFC0080BC70470000014000000240000402401A
:101F0C0000080240000C0240001002400004014096
:101F1C0080B483B000AF78600B467B8013467B7037
:101F2C007B78002B03D07A887B689A6103E07B88EE
:101F3C001A047B689A6100BF0C37BD4680BC7047A1
:101F4C0080B485B000AF78600B467B807B685B69A2
:101F5C00FB607A88FB6813401A04FB68D9437B88C2
:101F6C000B401A437B689A6100BF1437BD4680BC96
:101F7C007047000080B582B000AF3F4B5B6803F048
:101F8C00FF133D4A43F4304353603B4B1B683A4AC2
:101F9C0043F480731360FFF7FFF9786008E0FFF7F4
:101FAC00FBF902467B68D31A022B01D903235EE0AE
:101FBC00314B1B6803F40073002BF0D02E4B9B6845
:101FCC002D4A23F0030393600AE0FFF7E5F902467C
:101FDC007B68D31A41F28832934201D9032346E03D
:101FEC00254B9B6803F00C03002BEED1234B244AAA
:101FFC001A60244B1B681846FFF782F90346FB70E6
:10200C00FB78002B01D0FB7831E01B4B1B681A4A84
:10201C0023F0885323F001131360174B1B68164AE7
:10202C0023F480231360FFF7B7F9786008E0FFF71B
:10203C00B3F902467B68D31A022B01D9032316E0AD
:10204C000D4B1B6803F00073002BF0D10A4B0022E0
:10205C009A60094B0022DA60074B4FF47F02DA607A
:10206C00054B5B6B044A43F08073536300231846A3
:10207C000837BD4680BD00BF00380240000000207C
:10208C000024F4000400002080B588B000AF786014
:10209C007B68002B01D101231DE3944B9B6803F05B
:1020AC000C03BB61914B9B6803F480337B617B68B1
:1020BC001B6803F00103002B7BD0BB69082B06D0F7
:1020CC00BB690C2B0FD17B69B3F5803F0BD1874BD0
:1020DC001B6803F40033002B6AD07B685B68002B11
:1020EC0066D10123F7E27B685B68012B06D17F4B3D
:1020FC001B687E4A43F4803313602DE07B685B6879
:10210C00002B0CD1794B1B68784A23F48033136075
:10211C00764B1B68754A23F4802313601CE07B68A4
:10212C005B68052B0CD1714B1B68704A43F4802300
:10213C0013606E4B1B686D4A43F4803313600BE0E5
:10214C006A4B1B68694A23F480331360674B1B6826
:10215C00664A23F4802313607B685B68002B13D0E2
:10216C00FFF71AF9386108E0FFF716F902463B69E8
:10217C00D31A642B01D90323ADE25C4B1B6803F427
:10218C000033002BF0D014E0FFF706F9386108E0BB
:10219C00FFF702F902463B69D31A642B01D90323DA
:1021AC0099E2524B1B6803F40033002BF0D100E092
:1021BC0000BF7B681B6803F00203002B5AD0BB697D
:1021CC00042B05D0BB690C2B19D17B69002B16D1C4
:1021DC00464B1B6803F00203002B05D07B68DB68C1
:1021EC00012B01D0012376E2404B5B6823F4F852BB
:1021FC007B681B691B023D4913434B603AE07B68CB
:10220C00DB68002B20D03A4B01221A60FFF7C4F890
:10221C00386108E0FFF7C0F802463B69D31A022B7D
:10222C0001D9032357E2314B1B6803F00203002B47
:10223C00F0D02E4B5B6823F4F8527B681B691B02B1
:10224C002A4913434B6015E0294B00221A60FFF713
:10225C00A3F8386108E0FFF79FF802463B69D31AF0
:10226C00022B01D9032336E2204B1B6803F0020337
:10227C00002BF0D17B681B6803F01003002B00F0DF
:10228C00B880BB69002B70D1184B1B6803F400732A
:10229C00002B05D07B689B69002B01D101231AE22E
:1022AC007B681A6A114B5B6803F460439A4221D92C
:1022BC007B681B6A184600F04BFC0346002B01D0D0
:1022CC00012308E2094B5B6823F460427B681B6ABC
:1022DC00064913434B60054B5B6823F07F427B68D8
:1022EC00DB691B06014913434B6020E000380240B8
:1022FC0000004742A44B5B6823F460427B681B6A76
:10230C00A14913434B60A04B5B6823F07F427B6871
:10231C00DB691B069C4913434B607B681B6A1846A0
:10232C0000F016FC0346002B01D00123D3E17B689F
:10233C001B6A5B0B01334FF4004202FA03F3924A1F
:10234C009268120902F00F0290498A5CD340904ABD
:10235C001360904B1B681846FEF7D2FF0346FB73C5
:10236C00FB7B002B45D0FB7BB5E17B689B69002B8D
:10237C0029D0894B01221A60FFF70EF8386108E06A
:10238C00FFF70AF802463B69D31A022B01D9032343
:10239C00A1E17D4B1B6803F40073002BF0D07A4B4A
:1023AC005B6823F460427B681B6A774913434B607C
:1023BC00754B5B6823F07F427B68DB691B067249B7
:1023CC0013434B6015E0744B00221A60FEF7E4FFD8
:1023DC00386108E0FEF7E0FF02463B69D31A022B96
:1023EC0001D9032377E1684B1B6803F40073002BBE
:1023FC00F0D17B681B6803F00803002B30D07B689E
:10240C005B69002B16D0654B01221A60FEF7C4FFE6
:10241C00386108E0FEF7C0FF02463B69D31A022B75
:10242C0001D9032357E1584B5B6B03F00203002BDC
:10243C00F0D015E0594B00221A60FEF7ADFF386161
:10244C0008E0FEF7A9FF02463B69D31A022B01D91B
:10245C00032340E14C4B5B6B03F00203002BF0D1E8
:10246C007B681B6803F00403002B00F0B58000238D
:10247C00FB77454B5B6A03F08053002B0DD1424B2D
:10248C005B6A414A43F0805353623F4B5B6A03F0F3
:10249C008053BB60BB680123FB77414B1B6803F483
:1024AC008073002B18D13E4B1B683D4A43F480735C
:1024BC001360FEF771FF386108E0FEF76DFF02460E
:1024CC003B69D31A642B01D9032304E1344B1B68F9
:1024DC0003F48073002BF0D07B689B68012B06D132
:1024EC00294B5B6B284A43F4807353632DE07B6864
:1024FC009B68002B0CD1244B5B6B234A23F4807319
:10250C005363214B5B6B204A23F4806353631CE0C1
:10251C007B689B68052B0CD11B4B5B6B1A4A43F4F5
:10252C0080635363184B5B6B174A43F4807353639C
:10253C000BE0154B5B6B144A23F480735363124B03
:10254C005B6B114A23F4806353637B689B68002B9D
:10255C0015D0FEF721FF38610AE0FEF71DFF024699
:10256C003B69D31A41F28832934201D90323B2E07A
:10257C00054B5B6B03F40073002BEED023E0FEF7EE
:10258C000BFF386119E000BF003802400C3F000817
:10259C000000002004000020200047428006474233
:1025AC0000700040FEF7F8FE02463B69D31A41F278
:1025BC008832934201D903238DE0494B5B6B03F4C2
:1025CC000073002BEED1FB7F012B05D1444B5B6AD2
:1025DC00434A23F0805353627B685B6A002B79D0AB
:1025EC00BB690C2B56D07B685B6A022B3BD13D4BF5
:1025FC0000221A60FEF7D0FE386108E0FEF7CCFE30
:10260C0002463B69D31A022B01D9032363E0344BF6
:10261C001B6803F00073002BF0D1314B9B6823F443
:10262C007D027B68996A7B68DB6A19437B681B6B4C
:10263C000B432B4913438B602A4B01221A60FEF784
:10264C00ABFE386108E0FEF7A7FE02463B69D31AE1
:10265C00022B01D903233EE0214B1B6803F00073CE
:10266C00002BF0D036E01F4B00221A60FEF794FED0
:10267C00386108E0FEF790FE02463B69D31A022B44
:10268C0001D9032327E0164B1B6803F00073002BC2
:10269C00F0D11FE07B685B6A012B01D101231AE0AA
:1026AC000F4B9B687B617B6903F480327B689B6A70
:1026BC009A420DD17B6903F470127B68DB6A9A42F3
:1026CC0006D17B6903F440027B681B6B9A4201D0F4
:1026DC00012300E0002318462037BD4680BD00BF13
:1026EC00003802406000474280B584B000AF78608B
:1026FC0039607B68002B01D101231AE18F4B1B68D9
:10270C0003F001033A689A4219D93B68012B05D1B1
:10271C008A4B1B68894A43F004031360874B1B6880
:10272C0023F0010285493B6813430B60834B1B6804
:10273C0003F001033A689A4201D00123F9E07B6867
:10274C001B6803F00203002B08D07D4B9B6823F021
:10275C00F0027B689B687A4913438B607B681B682B
:10276C0003F00103002B00F08E807B685B68022B6A
:10277C0007D1734B1B6803F40033002B21D10123C9
:10278C00D7E07B685B68032B07D16D4B1B6803F0AC
:10279C000073002B15D10123CBE07B685B68012B08
:1027AC0007D1674B1B6803F00203002B09D10123EF
:1027BC00BFE0634B1B6803F40073002B01D10123B2
:1027CC00B7E05F4B9B6823F003027B685B685C4956
:1027DC0013438B60FEF7E0FDF8607B685B68022BAF
:1027EC0012D10AE0FEF7D8FD0246FB68D31A41F27B
:1027FC008832934201D903239BE0514B9B6803F031
:10280C000C03082BEED13EE07B685B68032B12D1E6
:10281C000AE0FEF7C1FD0246FB68D31A41F288328A
:10282C00934201D9032384E0454B9B6803F00C03CE
:10283C000C2BEED127E07B685B68012B1DD10AE0E5
:10284C00FEF7AAFD0246FB68D31A41F28832934286
:10285C0001D903236DE03A4B9B6803F00C03042B66
:10286C00EED110E0FEF798FD0246FB68D31A41F258
:10287C008832934201D903235BE0314B9B6803F010
:10288C000C03002BEED12D4B1B6803F001033A68AF
:10289C009A4219D23B68012B05D1284B1B68274A59
:1028AC0043F004031360254B1B6823F001022349FA
:1028BC003B6813430B60214B1B6803F001033A6820
:1028CC009A4201D0012334E07B681B6803F00403B7
:1028DC00002B08D01A4B9B6823F4E0627B68DB6802
:1028EC00174913438B607B681B6803F00803002BAC
:1028FC0009D0134B9B6823F460527B681B69DB0087
:10290C000F4913438B6000F023F802460C4B9B6875
:10291C001B0903F00F030B49CB5C22FA03F30A4AA1
:10292C0013600A4B1B681846FEF7EAFC0346FB7261
:10293C00FB7A18461037BD4680BD00BF003C0240F4
:10294C00003802400C3F000800000020040000206A
:10295C00B0B586B000AF614B9B68FB60FB6803F0C1
:10296C000C030C2B0DD00C2B00F2A480042B02D0EA
:10297C00082B03D09EE05A4B3B61A9E0594B3B61BD
:10298C00A6E0FB689B0C03F00F03574AD35CBB60BB
:10299C00FB689B0D03F0030301337B604F4B9B687B
:1029AC0003F48033002B41D0BB681C464FF000056C
:1029BC00204629464FF000024FF000034B0143EA3A
:1029CC00D063420110461946001B61EB05014FF024
:1029DC0000024FF000038B0143EA90638201121A4C
:1029EC0063EB01034FF000004FF00001D90041EA06
:1029FC005271D00002460B46121945EB03034FF0FF
:102A0C0000004FF00001590241EAD2515002024637
:102A1C000B46104619467B681A464FF00003FDF72B
:102A2C00AFFB02460B4613467B6140E0BB681C467D
:102A3C004FF00005204629464FF000024FF00003EE
:102A4C004B0143EAD063420110461946001B61EB6F
:102A5C0005014FF000024FF000038B0143EA906335
:102A6C008201121A63EB01034FF000004FF00001DA
:102A7C00D90041EA5271D00002460B46121945EBBF
:102A8C0003034FF000004FF00001990241EA92510C
:102A9C00900202460B46104619467B681A464FF0C8
:102AAC000003FDF76DFB02460B4613467B617B6909
:102ABC003B610DE0094B5B685B0B03F007033B606C
:102ACC003B6801334FF4004202FA03F33B6100BF51
:102ADC003B6918461837BD46B0BD00BF00380240F0
:102AEC000024F40000127A00003F000880B400AF0C
:102AFC00024B1B681846BD4680BC70470000002086
:102B0C0080B500AFFFF7F2FF0246054B9B681B0A2E
:102B1C0003F007030349CB5C22FA03F3184680BD8C
:102B2C00003802401C3F000880B500AFFFF7DEFF05
:102B3C000246054B9B68DB0A03F007030349CB5C99
:102B4C0022FA03F3184680BD003802401C3F0008EF
:102B5C0080B487B000AF786000233B61294B9B6841
:102B6C0003F0F003002B2CD1264B5B6A03F080534F
:102B7C00002B05D0244B1B6803F4C0537B6116E07B
:102B8C00204B5B6A1F4A43F0805353621D4B5B6AB8
:102B9C0003F08053FB60FB681B4B1B6803F4C053B2
:102BAC007B61184B5B6A174A23F0805353627B6935
:102BBC00B3F5C05F05D17B68B3F5404F01D101235C
:102BCC003B613B69012B05D1104B1B680F4A43F04D
:102BDC00040313600D4B1B6823F001020B493B6986
:102BEC0013430B60094B1B6803F001033A699A42CB
:102BFC0001D0012300E0002318461C37BD4680BCE1
:102C0C00704700BF0038024000700040003C02409A
:102C1C0080B582B000AF78607B68002B01D10123B6
:102C2C0031E07B6893F83930DBB2002B06D17B683E
:102C3C00002283F838207868FEF7CCF97B680222F2
:102C4C0083F839207B681A687B6804331946104670
:102C5C0000F08EF97B68012283F83E207B6801220C
:102C6C0083F83A207B68012283F83B207B680122A1
:102C7C0083F83C207B68012283F83D207B6801228D
:102C8C0083F83920002318460837BD4680BD80B52F
:102C9C0082B000AF78607B68022283F839207B68B1
:102CAC001B681A6A41F211131340002B07D17B6881
:102CBC001B681A687B681B6822F001021A6078682E
:102CCC00FEF7A4F97B68002283F83E207B68002283
:102CDC0083F83A207B68002283F83B207B68002233
:102CEC0083F83C207B68002283F83D207B6800221F
:102CFC0083F839207B68002283F83820002318469B
:102D0C000837BD4680BD000080B485B000AF786048
:102D1C007B6893F83930DBB2012B01D0012332E010
:102D2C007B68022283F839207B681B68B3F1804FE3
:102D3C000ED07B681B68164A934209D07B681B68CF
:102D4C00144A934204D07B681B68134A934211D1F6
:102D5C007B681B689B6803F00703FB60FB68062B12
:102D6C0010D07B681B681A687B681B6842F00102F4
:102D7C001A6007E07B681B681A687B681B6842F066
:102D8C0001021A60002318461437BD4680BC7047F8
:102D9C0000040040000800400008014080B483B0EB
:102DAC0000AF78607B681B68DA687B681B6822F070
:102DBC000102DA607B681B681A6A41F21113134036
:102DCC00002B07D17B681B681A687B681B6822F094
:102DDC0001021A607B68012283F83920002318460F
:102DEC000C37BD4680BC704780B584B000AF7860AE
:102DFC0039607B6893F83830012B01D10223B3E0A2
:102E0C007B68012283F838207B68022283F8392002
:102E1C007B681B689B68FB60FB6823F07703FB6097
:102E2C00FB6823F47F43FB607B681B68FA689A603D
:102E3C003B681B68B3F5005F3ED0B3F5005F00F252
:102E4C008780B3F5805F00F08580B3F5805F7FD815
:102E5C00702B1AD0702B7BD8602B50D0602B77D86E
:102E6C00502B3CD0502B73D8402B58D0402B6FD8C4
:102E7C00302B64D0302B6BD8202B60D0202B67D814
:102E8C00002B5CD0102B5AD062E07B6818683B6832
:102E9C0099683B685A683B68DB6800F050F97B68BE
:102EAC001B689B68FB60FB6843F07703FB607B68E7
:102EBC001B68FA689A604EE07B6818683B689968F2
:102ECC003B685A683B68DB6800F039F97B681B6823
:102EDC009A687B681B6842F480429A603BE07B688E
:102EEC0018683B6859683B68DB681A4600F0B0F814
:102EFC007B681B685021184600F007F92BE07B68B3
:102F0C0018683B6859683B68DB681A4600F0CEF8D5
:102F1C007B681B686021184600F0F7F81BE07B68A3
:102F2C0018683B6859683B68DB681A4600F090F8F3
:102F3C007B681B684021184600F0E7F80BE07B68C3
:102F4C001A683B681B681946104600F0DEF802E070
:102F5C0000BF00E000BF7B68012283F839207B684A
:102F6C00002283F83820002318461037BD4680BD58
:102F7C0080B485B000AF786039607B681B68FB60FB
:102F8C007B68B3F1804F0FD07B682B4A93420BD0F8
:102F9C007B682A4A934207D07B68294A934203D024
:102FAC007B68284A934208D1FB6823F07003FB60CE
:102FBC003B685B68FA681343FB607B68B3F1804F36
:102FCC0017D07B681C4A934213D07B681B4A9342F0
:102FDC000FD07B681A4A93420BD07B68194A9342F4
:102FEC0007D07B68184A934203D07B68174A9342F8
:102FFC0008D1FB6823F44073FB603B68DB68FA681C
:10300C001343FB60FB6823F080023B681B6913438E
:10301C00FB607B68FA681A603B689A687B68DA62C6
:10302C003B681A687B689A627B6801225A6100BF10
:10303C001437BD4680BC70470004004000080040B7
:10304C00000C004000080140000C01400010014041
:10305C0080B487B000AFF860B9607A60FB681B6A17
:10306C007B61FB681B6A23F00102FB681A62FB6838
:10307C009B693B613B6923F0F0033B617B681B015F
:10308C003A6913433B617B6923F00A037B617A69DC
:10309C00BB6813437B61FB683A699A61FB687A6988
:1030AC001A6200BF1C37BD4680BC704780B487B025
:1030BC0000AFF860B9607A60FB681B6A23F01002FD
:1030CC00FB681A62FB689B697B61FB681B6A3B614E
:1030DC007B6923F470437B617B681B037A69134320
:1030EC007B613B6923F0A0033B61BB681B013A6920
:1030FC0013433B61FB687A699A61FB683A691A620F
:10310C0000BF1C37BD4680BC704780B485B000AF93
:10311C00786039607B689B68FB60FB6823F0700308
:10312C00FB603A68FB68134343F00703FB607B6862
:10313C00FA689A6000BF1437BD4680BC704780B4F3
:10314C0087B000AFF860B9607A603B60FB689B6841
:10315C007B617B6923F47F437B613B681A027B684C
:10316C001A43BB6813437A6913437B61FB687A6922
:10317C009A6000BF1C37BD4680BC704780B485B0D8
:10318C0000AF786039607B6893F83830012B01D13F
:10319C00022346E07B68012283F838207B680222F8
:1031AC0083F839207B681B685B68FB607B681B6855
:1031BC009B68BB60FB6823F07003FB603B681B687B
:1031CC00FA681343FB607B681B68FA685A607B687B
:1031DC001B68B3F1804F0ED07B681B68134A934277
:1031EC0009D07B681B68124A934204D07B681B6829
:1031FC00104A93420CD1BB6823F08003BB603B6840
:10320C005B68BA681343BB607B681B68BA689A60DA
:10321C007B68012283F839207B68002283F83820F0
:10322C00002318461437BD4680BC7047000400408C
:10323C00000800400008014080B582B000AF786003
:10324C007B68002B01D101233FE07B6893F8393078
:10325C00DBB2002B06D17B68002283F8382078681B
:10326C00FDF7EAFE7B68242283F839207B681B6813
:10327C00DA687B681B6822F40052DA60786800F028
:10328C008BFB7B681B681A697B681B6822F4904275
:10329C001A617B681B685A697B681B6822F02A02DA
:1032AC005A617B681B68DA687B681B6842F40052C1
:1032BC00DA607B680022DA637B68202283F839208D
:1032CC007B68202283F83A20002318460837BD4635
:1032DC0080BD80B582B000AF78607B68002B01D1D7
:1032EC0001231EE07B68242283F839207B681B684D
:1032FC00DA687B681B6822F40052DA607868FDF7A4
:10330C001FFF7B680022DA637B68002283F8392078
:10331C007B68002283F83A207B68002283F83820EF
:10332C00002318460837BD4680BD80B485B000AF79
:10333C00F860B9601346FB80FB6893F83930DBB258
:10334C00202B30D1BB68002B02D0FB88002B01D185
:10335C00012329E0FB6893F83830012B01D10223BB
:10336C0022E0FB68012283F83820FB68BA681A62F5
:10337C00FB68FA889A84FB68FA88DA84FB68002276
:10338C00DA63FB68212283F83920FB68002283F87A
:10339C003820FB681B68DA68FB681B6842F0800207
:1033AC00DA60002300E0022318461437BD4680BCC7
:1033BC00704780B485B000AFF860B9601346FB80ED
:1033CC00FB6893F83A30DBB2202B40D1BB68002B62
:1033DC0002D0FB88002B01D1012339E0FB6893F864
:1033EC003830012B01D1022332E0FB68012283F833
:1033FC003820FB68BA689A62FB68FA889A85FB6881
:10340C00FA88DA85FB680022DA63FB68222283F8EB
:10341C003A20FB68002283F83820FB681B68DA68C6
:10342C00FB681B6842F48072DA60FB681B685A699F
:10343C00FB681B6842F001025A61FB681B68DA6882
:10344C00FB681B6842F02002DA60002300E00223D4
:10345C0018461437BD4680BC7047000080B582B05A
:10346C0000AF78607B681B68DA687B681B6822F4A5
:10347C009072DA607B681B685A697B681B6822F063
:10348C0001025A617B681B685B6903F04003402BA7
:10349C002AD17B681B685A697B681B6822F0400242
:1034AC005A617B685B6B002B13D07B685B6B164A95
:1034BC005A637B685B6B1846FEF7D9F80346002B02
:1034CC001CD07B685B6B5B6B7A68526B10469847C1
:1034DC0014E07B680022DA857B68202283F83A208E
:1034EC00786800F01CF909E07B680022DA857B68BB
:1034FC00202283F83A20786800F011F9002318464E
:10350C000837BD4680BD00BF9F37000880B588B026
:10351C0000AF78607B681B681B68FB617B681B686D
:10352C00DB68BB617B681B685B697B6100233B616B
:10353C000023FB60FB6903F00F033B613B69002B2D
:10354C000DD1FB6903F02003002B08D0BB6903F0FD
:10355C002003002B03D0786800F09DF9D0E03B6984
:10356C00002B00F0B0807B6903F00103002B05D128
:10357C00BB6903F49073002B00F0A580FB6903F08A
:10358C000103002B0AD0BB6903F48073002B05D018
:10359C007B68DB6B43F001027B68DA63FB6903F049
:1035AC000403002B0AD07B6903F00103002B05D028
:1035BC007B68DB6B43F002027B68DA63FB6903F028
:1035CC000203002B0AD07B6903F00103002B05D00A
:1035DC007B68DB6B43F004027B68DA63FB6903F006
:1035EC000803002B0FD0BB6903F02003002B04D180
:1035FC007B6903F00103002B05D07B68DB6B43F088
:10360C0008027B68DA637B68DB6B002B77D0FB6985
:10361C0003F02003002B07D0BB6903F02003002B21
:10362C0002D0786800F037F97B681B685B6903F09F
:10363C004003402B0CBF01230023DBB2FB607B68F3
:10364C00DB6B03F00803002B02D1FB68002B31D09D
:10365C00786800F06DF87B681B685B6903F04003C9
:10366C00402B23D17B681B685A697B681B6822F04E
:10367C0040025A617B685B6B002B13D07B685B6BE1
:10368C00214A5A637B685B6B1846FDF7F0FF0346D3
:10369C00002B16D07B685B6B5B6B7A68526B1046A9
:1036AC0098470EE0786800F031F80AE0786800F08E
:1036BC002DF806E0786800F029F87B680022DA63C0
:1036CC001DE000BF1BE0FB6903F08003002B08D05A
:1036DC00BB6903F08003002B03D0786800F06EF810
:1036EC000EE0FB6903F04003002B09D0BB6903F02B
:1036FC004003002B04D0786800F0B5F800E000BF60
:10370C002037BD4680BD00BF7737000880B483B03A
:10371C0000AF786000BF0C37BD4680BC704780B4EA
:10372C0083B000AF786000BF0C37BD4680BC7047DB
:10373C0080B483B000AF78607B681B68DA687B6804
:10374C001B6822F49072DA607B681B685A697B688C
:10375C001B6822F001025A617B68202283F83A2010
:10376C0000BF0C37BD4680BC704780B584B000AF3D
:10377C0078607B685B6AFB60FB680022DA85FB681B
:10378C000022DA84F868FFF7C1FF00BF1037BD468E
:10379C0080BD80B584B000AF78607B685B6AFB60ED
:1037AC00FB680022DA85FB68202283F83A20F8684F
:1037BC00FFF7B5FF00BF1037BD4680BD80B485B0A4
:1037CC0000AF78607B6893F83930DBB2212B44D1A1
:1037DC007B689B68B3F5805F1AD17B681B6AFB60C2
:1037EC00FB681B881A467B681B68C2F308025A6088
:1037FC007B681B69002B05D17B681B6A9A1C7B6854
:10380C001A620EE07B681B6A5A1C7B681A6208E01D
:10381C007B681B6A591C7A6811621A787B681B6872
:10382C005A607B68DB8C9BB2013B9BB27A68194671
:10383C00D184002B0FD17B681B68DA687B681B680E
:10384C0022F08002DA607B681B68DA687B681B6890
:10385C0042F04002DA60002300E0022318461437DD
:10386C00BD4680BC704780B582B000AF78607B6885
:10387C001B68DA687B681B6822F04002DA607B68A0
:10388C00202283F839207868FDF744F80023184685
:10389C000837BD4680BD80B584B000AF78607B68CA
:1038AC0093F83A30DBB2222B71D17B689B68B3F56D
:1038BC00805F23D17B689B6AFB607B681B69002B54
:1038CC000ED17B681B685B689BB2C3F308039AB28A
:1038DC00FB681A807B689B6A9A1C7B689A6229E059
:1038EC007B681B685B689BB2DBB29AB2FB681A8080
:1038FC007B689B6A5A1C7B689A621BE07B681B691D
:10390C00002B0AD17B681B6858687B689B6A591C22
:10391C007A689162C2B21A700CE07B681B685B68B3
:10392C00DAB27B689B6A581C7968886202F07F0265
:10393C00D2B21A707B68DB8D9BB2013B9BB27A686A
:10394C001946D185002B20D17B681B68DA687B680F
:10395C001B6822F02002DA607B681B68DA687B68DF
:10396C001B6822F48072DA607B681B685A697B687A
:10397C001B6822F001025A617B68202283F83A20EE
:10398C007868FCF781FF002302E0002300E00223AB
:10399C0018461037BD4680BD80B584B000AF786046
:1039AC007B681B681B6923F440517B68DA687B6871
:1039BC001B680A431A617B689A687B681B691A4307
:1039CC007B685B691A437B68DB691343BB607B686C
:1039DC001B68DB6823F4164323F00C037A68126827
:1039EC00B9680B43D3607B681B685B6923F4407137
:1039FC007B689A697B681B680A435A617B681B6801
:103A0C00554A934203D1FFF78FF8F86002E0FFF7B5
:103A1C0077F8F8607B68DB69B3F5004F4CD1FA6836
:103A2C0013469B0013449A001A447B685B685B0046
:103A3C00B2FBF3F3494AA2FB03235B091901FA68B1
:103A4C0013469B0013449A001A447B685B685B0026
:103A5C00B2FBF3F2414BA3FB02035B09642000FBB6
:103A6C0003F3D31ADB0032333C4AA2FB03235B097A
:103A7C005B0003F4F8731944FA6813469B00134473
:103A8C009A001A447B685B685B00B2FBF3F2334B21
:103A9C00A3FB02035B09642000FB03F3D31ADB00D6
:103AAC0032332E4AA2FB03235B0903F007027B6827
:103ABC001B680A449A604AE0FA6813469B00134458
:103ACC009A001A447B685B689B00B2FBF3F3234AB1
:103ADC00A2FB03235B091901FA6813469B001344EC
:103AEC009A001A447B685B689B00B2FBF3F21B4B99
:103AFC00A3FB02035B09642000FB03F3D31A1B0135
:103B0C003233164AA2FB03235B0903F0F00319447A
:103B1C00FA6813469B0013449A001A447B685B684E
:103B2C009B00B2FBF3F20D4BA3FB02035B09642079
:103B3C0000FB03F3D31A1B013233084AA2FB032305
:103B4C005B0903F00F027B681B680A449A6000BF94
:103B5C001037BD4680BD00BF003801401F85EB51BA
:103B6C00014B1868704700BF0C00002070B5002690
:103B7C000C4D0D4C641BA410A64209D100F04CF95D
:103B8C0000260A4D0A4C641BA410A64205D170BD38
:103B9C0055F8043B98470136EEE755F8043B984737
:103BAC000136F2E754400008544000085440000825
:103BBC0058400008931E222B10B50C4604D9002344
:103BCC001C460B70204610BD0A2A09D1002807DAC2
:103BDC002D230B7001214042214400F0DBF8F1E76A
:103BEC000021F9E7FFF7E6BF03460244934200D1F8
:103BFC00704703F8011BF9E70346C9B2184613F8DE
:103C0C00012B12B18A42F9D17047002918BF00204C
:103C1C007047034611F8012B03F8012B002AF9D148
:103C2C007047034670B51E4613F8014B44B14A1E4B
:103C3C0001E0A54204D012F8015F002DF9D1F2E7A2
:103C4C00301A70BDF0B50C7864B103461A7818467A
:103C5C005E1C0AB9104605E0944208D10D4615F8D1
:103C6C00012F02B9F0BD13F8017F9742F7D033460C
:103C7C00ECE70000012B2DE9F047864601D0242B00
:103C8C0006D9FFF76DFF162303600020BDE8F0870F
:103C9C008C463A4E60461CF8014BA55D15F00805A4
:103CAC00F8D12D2C33D14FF001089CF8004000F1D5
:103CBC00020C002B5DD0102B0CD1302C0AD19CF8AF
:103CCC00000000F0DF0058284ED110239CF8014072
:103CDC000CF1020C002508F10047013FB7FBF3F98A
:103CEC00284603FB197AA4F13006092E18D834465D
:103CFC00A34224DD002D1FDB81451DD301D1A2453C
:103D0C001ADB012500FB03401CF8014BEBE72B2CC5
:103D1C0008BF9CF80040A84608BF00F1020CC8E799
:103D2C00A4F14106192E01D8373CE1E7A4F1610654
:103D3C00192E04D8573CDBE74FF0FF35E4E7002D94
:103D4C0008DA22233846CEF80030002A9ED00CF137
:103D5C00FF3107E0B8F1000F00D04042002A95D0A7
:103D6C00002DF4D1116091E73024002BB2D108233F
:103D7C00B0E7302CA3D00A23ACE700BF4A3F0008C1
:103D8C0013460A46014602480068FFF773BF00BF9E
:103D9C000C000020F0B58BB005460B466E461D4C52
:103DAC0004F1200C374620686168083403C7644569
:103DBC003E46F7D1217920683971911E222938604D
:103DCC004FF0000104D919700B4618460BB0F0BD2A
:103DDC00581E8446B5FBF2F702FB17560DF1280E60
:103DEC00764416F8286C0C460CF8016F2E46B2423D
:103DFC003D4601F10101EDD900225A541919A51AB9
:103E0C00AA42E2DA10F8015F0E780132067001F86E
:103E1C000159F4E7243F0008F8B500BFF8BC08BC12
:103E2C009E467047F8B500BFF8BC08BC9E4670476C
:103E3C00426F6F746C6F6164657220657869740D84
:103E4C000A00000041542B435245473F0D0A000025
:103E5C004F4B0D0A000000002C310000415445303E
:103E6C000D0A000041542B4653524541443D433A00
:103E7C005C66772E6366672C302C3130302C300D1D
:103E8C000A0000002300000041542B4653524541C8
:103E9C00443D00002C312C35302C300D0A00000034
:103EAC004F4B000046696C65206572726F720D0A8B
:103EBC000000000045726173696E6720666C617367
:103ECC00680D0A0077726974696E672066696C65A3
:103EDC002000000020746F20666C6173680D0A006E
:103EEC002C312C35302C00000D0A00002E00000067
:103EFC003A000000030406080C10182030000000E3
:103F0C00000000000000000001020304060708097D
:103F1C0000000000010203043031323334353637EF
:103F2C0038396162636465666768696A6B6C6D6E6B
:103F3C006F707172737475767778797A00002020BF
:103F4C00202020202020202828282828202020203D
:103F5C0020202020202020202020202020208810FD
:103F6C00101010101010101010101010101004045D
:103F7C000404040404040404101010101010104164
:103F8C0041414141410101010101010101010101D5
:103F9C00010101010101010101101010101010426A
:103FAC0042424242420202020202020202020202A5
:103FBC000202020202020202021010101020000083
:103FCC0000000000000000000000000000000000E5
:103FDC0000000000000000000000000000000000D5
:103FEC0000000000000000000000000000000000C5
:103FFC0000000000000000000000000000000000B5
:10400C0000000000000000000000000000000000A4
:10401C000000000000000000000000000000000094
:10402C000000000000000000000000000000000084
:10403C000000000000000000000000000000000074
:08404C0070C1FF7F01000000BC
:0440540061010008FE
:044058003D0100081E
:10405C0068FF1F001000000001000000100000208D
:10406C000000000000000000000000000000000044
:10407C000000000000000000000000000000000034
:10408C000000000000000000000000000000000024
:10409C000000000000000000000000000000000014
:1040AC000000000000000000000000000000000004
:1040BC0000000000000000000000000000000000F4
:040000050800124994
:020000040800F2
:1050000000800020B96C0008716A00087B6A000803
:10501000836A0008896A00088F6A0008000000009F
:10502000000000000000000000000000956A000879
:10503000A16A000800000000AD6A0008B96A000813
:10504000016D0008016D0008016D0008016D000888
:10505000016D0008016D0008016D0008016D000878
:10506000016D0008016D0008016D0008016D000868
:10507000016D0008016D0008016D0008016D000858
:10508000016D0008016D0008016D0008016D000848
:10509000016D0008016D0008016D0008016D000838
:1050A00000000000016D0008016D0008016D00089E
:1050B000016D0008016D0008016D0008016D000818
:1050C000016D0008016D0008016D0008016D000808
:1050D000016D0008C56A0008D96A0008ED6A000879
:1050E000016B0008196B0008016D0008016D0008D4
:1050F000016D000800000000016D0008016D00084E
:105100000000000000000000016D0008016D0008B3
:10511000016D0008016D0008016D0008000000002D
:10512000016D000800000000000000000000000009
:0C51300000000000000000005FF808F123
:10513C0010B5054C237833B9044B13B10448AFF3C5
:10514C0000800123237010BDDC0100200000000052
:10515C003446010808B5034B1BB103490348AFF3B0
:10516C00008008BD00000000E0010020344601086A
:10517C0010F8012B11F8013B012A28BF9A42F7D0F5
:10518C00D01A7047034613F8012B002AFBD1181ACA
:10519C000138704781F0004102E000BF83F000430A
:1051AC0030B54FEA41044FEA430594EA050F08BFB6
:1051BC0090EA020F1FBF54EA000C55EA020C7FEA7A
:1051CC00645C7FEA655C00F0E2804FEA5454D4EBF7
:1051DC005555B8BF6D420CDD2C4480EA020281EAC1
:1051EC00030382EA000083EA010180EA020281EAF9
:1051FC000303362D88BF30BD11F0004F4FEA01314B
:10520C004FF4801C4CEA113102D0404261EB410159
:10521C0013F0004F4FEA03334CEA133302D05242DF
:10522C0063EB430394EA050F00F0A780A4F101049B
:10523C00D5F1200E0DDB02FA0EFC22FA05F28018D5
:10524C0041F1000103FA0EF2801843FA05F35941BB
:10525C000EE0A5F120050EF1200E012A03FA0EFC3A
:10526C0028BF4CF0020C43FA05F3C01851EBE37164
:10527C0001F0004507D54FF0000EDCF1000C7EEB81
:10528C0000006EEB0101B1F5801F1BD3B1F5001FBF
:10529C000CD349085FEA30004FEA3C0C04F10104DE
:1052AC004FEA445212F5800F80F09A80BCF1004F07
:1052BC0008BF5FEA500C50F1000041EB045141EA89
:1052CC00050130BD5FEA4C0C404141EB0101013C52
:1052DC0028BFB1F5801FE9D291F0000F04BF014641
:1052EC000020B1FA81F308BF2033A3F10B03B3F113
:1052FC0020020CDA0C3208DD02F1140CC2F10C02A3
:10530C0001FA0CF021FA02F10CE002F11402D8BF00
:10531C00C2F1200C01FA02F120FA0CFCDCBF41EACC
:10532C000C019040E41AA2BF01EB0451294330BD9B
:10533C006FEA04041F3C1CDA0C340EDC04F1140478
:10534C00C4F1200220FA04F001FA02F340EA03004F
:10535C0021FA04F345EA030130BDC4F10C04C4F195
:10536C00200220FA02F001FA04F340EA0300294675
:10537C0030BD21FA04F0294630BD94F0000F83F4BF
:10538C00801306BF81F480110134013D4EE77FEAA2
:10539C00645C18BF7FEA655C29D094EA050F08BFEE
:1053AC0090EA020F05D054EA000C04BF19461046CF
:1053BC0030BD91EA030F1EBF0021002030BD5FEA13
:1053CC00545C05D14000494128BF41F0004130BD3B
:1053DC0014F580043CBF01F5801130BD01F000458F
:1053EC0045F0FE4141F470014FF0000030BD7FEA02
:1053FC00645C1ABF194610467FEA655C1CBF0B46FD
:10540C00024650EA013406BF52EA033591EA030F13
:10541C0041F4002130BD00BF90F0000F04BF00210B
:10542C00704730B54FF4806404F132044FF000053E
:10543C004FF0000150E700BF90F0000F04BF0021B7
:10544C00704730B54FF4806404F1320410F000451D
:10545C0048BF40424FF000013EE700BF42004FEA18
:10546C00E2014FEA31014FEA02701FBF12F07F4395
:10547C0093F07F4F81F06051704732F07F4208BF4C
:10548C00704793F07F4F04BF41F40021704730B553
:10549C004FF4607401F0004521F000411CE700BF9F
:1054AC0050EA010208BF704730B54FF000050AE022
:1054BC0050EA010208BF704730B511F0004502D523
:1054CC00404261EB41014FF4806404F132045FEA25
:1054DC00915C3FF4D8AE4FF003025FEADC0C18BFCE
:1054EC0003325FEADC0C18BF033202EBDC02C2F1C0
:1054FC00200300FA03FC20FA02F001FA03FE40EA52
:10550C000E0021FA02F11444BDE600BF70B54FF055
:10551C00FF0C4CF4E06C1CEA11541DBF1CEA135533
:10552C0094EA0C0F95EA0C0F00F0DEF82C4481EA9B
:10553C00030621EA4C5123EA4C5350EA013518BFBB
:10554C0052EA033541F4801143F4801338D0A0FBA8
:10555C0002CE4FF00005E1FB02E506F00042E0FB55
:10556C0003E54FF00006E1FB03569CF0000F18BF5B
:10557C004EF0010EA4F1FF04B6F5007F64F5407403
:10558C0004D25FEA4E0E6D4146EB060642EAC62196
:10559C0041EA55514FEAC52040EA5E504FEACE2E03
:1055AC00B4F1FD0C88BFBCF5E06F1ED8BEF1004F06
:1055BC0008BF5FEA500E50F1000041EB045170BD82
:1055CC0006F0004646EA010140EA020081EA0301C6
:1055DC00B4EB5C04C2BFD4EB0C0541EA045170BDC2
:1055EC0041F480114FF0000E013C00F3AB8014F13C
:1055FC00360FDEBF002001F0004170BDC4F1000485
:10560C00203C35DA0C341BDC04F11404C4F1200505
:10561C0000FA05F320FA04F001FA05F240EA020060
:10562C0001F0004221F0004110EBD37021FA04F696
:10563C0042EB06015EEA430E08BF20EAD37070BD50
:10564C00C4F10C04C4F1200500FA04F320FA05F0AF
:10565C0001FA04F240EA020001F0004110EBD370B1
:10566C0041F100015EEA430E08BF20EAD37070BD21
:10567C00C4F1200500FA05F24EEA020E20FA04F3FA
:10568C0001FA05F243EA020321FA04F001F00041A9
:10569C0021FA04F220EA020000EBD3705EEA430E1A
:1056AC0008BF20EAD37070BD94F0000F0FD101F049
:1056BC000046400041EB010111F4801F08BF013C82
:1056CC00F7D041EA060195F0000F18BF704703F0C0
:1056DC000046520043EB030313F4801F08BF013D47
:1056EC00F7D043EA0603704794EA0C0F0CEA135503
:1056FC0018BF95EA0C0F0CD050EA410618BF52EABD
:10570C004306D1D181EA030101F000414FF00000C2
:10571C0070BD50EA410606BF1046194652EA4306D0
:10572C0019D094EA0C0F02D150EA013613D195EA44
:10573C000C0F05D152EA03361CBF104619460AD18C
:10574C0081EA030101F0004141F0FE4141F4700196
:10575C004FF0000070BD41F0FE4141F4780170BD86
:10576C0070B54FF0FF0C4CF4E06C1CEA11541DBFEB
:10577C001CEA135594EA0C0F95EA0C0F00F0A7F8ED
:10578C00A4EB050481EA030E52EA03354FEA01311A
:10579C0000F088804FEA03334FF0805545EA13132D
:1057AC0043EA12634FEA022245EA111545EA1065F5
:1057BC004FEA00260EF000419D4208BF964244F18C
:1057CC00FD0404F5407402D25B084FEA3202B61AAB
:1057DC0065EB03055B084FEA32024FF480104FF47F
:1057EC00002CB6EB020E75EB030E22BFB61A7546F3
:1057FC0040EA0C005B084FEA3202B6EB020E75EB86
:10580C00030E22BFB61A754640EA5C005B084FEAED
:10581C003202B6EB020E75EB030E22BFB61A7546BA
:10582C0040EA9C005B084FEA3202B6EB020E75EBC5
:10583C00030E22BFB61A754640EADC0055EA060E86
:10584C0018D04FEA051545EA16754FEA06164FEAC9
:10585C00C30343EA52734FEAC2025FEA1C1CC0D175
:10586C0011F4801F0BD141EA00014FF000004FF002
:10587C00004CB6E711F4801F04BF01430020B4F1C3
:10588C00FD0C88BFBCF5E06F3FF6AFAEB5EB030C7B
:10589C0004BFB6EB020C5FEA500C50F1000041EB78
:1058AC00045170BD0EF0004E4EEA113114EB5C0445
:1058BC00C2BFD4EB0C0541EA045170BD41F4801118
:1058CC004FF0000E013C90E645EA060E8DE60CEA20
:1058DC00135594EA0C0F08BF95EA0C0F3FF43BAF3D
:1058EC0094EA0C0F0AD150EA01347FF434AF95EAF4
:1058FC000C0F7FF425AF104619462CE795EA0C0FD8
:10590C0006D152EA03353FF4FDAE1046194622E7A4
:10591C0050EA410618BF52EA43067FF4C5AE50EA7E
:10592C0041047FF40DAF52EA43057FF4EBAE12E76E
:10593C004FEA410212F5001215D211D56FF47873AB
:10594C00B3EB625212D94FEAC12343F0004343EA4E
:10595C00505311F0004F23FA02F018BF4042704729
:10596C004FF00000704750EA013005D111F00040B3
:10597C0008BF6FF0004070474FF00000704700BF49
:10598C0053B94AB9002908BF00281CBF4FF0FF319A
:10599C004FF0FF3000F06EB9ADF1080C6DE904CE9C
:1059AC0000F006F8DDF804E0DDE9022304B07047EE
:1059BC002DE9F047089E0D4604468E46002B40F01C
:1059CC0083808A42174647D9B2FA82F34BB1C3F1AE
:1059DC00200105FA03FE20FA01F19F4041EA0E0E68
:1059EC009C404FEA1748BEFBF8FC1FFA87F908FBEE
:1059FC001CE20CFB09F0210C41EA024290420AD94C
:105A0C00BA180CF1FF3180F01881904240F21581E8
:105A1C00ACF1020C3A44121AB2FBF8F008FB10225B
:105A2C0000FB09F1A4B244EA0244A14209D93C1991
:105A3C0000F1FF3280F00381A14240F20081023874
:105A4C003C44641A002140EA0C401EB10022DC40A8
:105A5C00C6E90042BDE8F08702B9FFDEB2FA82F374
:105A6C00002B4FD18D1A01214FEA124E1FFA82F8EA
:105A7C00B5FBFEFC0EFB1C5508FB0CF0220C42EA9D
:105A8C000545A84207D97D190CF1FF3202D2A84274
:105A9C0000F2E98094462D1AB5FBFEF00EFB105572
:105AAC0008FB00F8A4B244EA0544A04507D93C1908
:105ABC0000F1FF3202D2A04500F2D9801046A4EBCF
:105ACC00080440EA0C40C0E78B4208D9002E00F0D5
:105ADC00B1800021C6E900050846BDE8F087B3FA9D
:105AEC0083F100294BD1AB4202D3824200F2B98040
:105AFC00841A65EB030301209E46002EAAD0C6E94A
:105B0C00004EA7E79F40C3F12002D1404FEA174E49
:105B1C00B1FBFEF01FFA87F80EFB101124FA02F20B
:105B2C009D4000FB08FC2A43150C45EA0145AC4599
:105B3C0004FA03F409D97D1900F1FF3180F08F804C
:105B4C00AC4540F28C8002383D44A5EB0C05B5FB0E
:105B5C00FEF10EFB115C01FB08F995B245EA0C4510
:105B6C00A94507D97D1901F1FF3274D2A94572D923
:105B7C0002393D44A5EB090541EA004178E7C1F142
:105B8C0020078B4022FA07FC4CEA030C25FA07F499
:105B9C004FEA1C4EB4FBFEF91FFA8CF80EFB1944AD
:105BAC0020FA07F309FB08FA8D401D432B0C43EA3E
:105BBC000444A24502FA01F200FA01F309D91CEBE4
:105BCC00040409F1FF3048D2A24546D9A9F10209D3
:105BDC006444A4EB0A04B4FBFEF00EFB104400FB7F
:105BEC0008FAADB245EA0444A24508D91CEB0404FA
:105BFC0000F1FF352DD2A2452BD90238644440EA7E
:105C0C000940A0FB0289A4EB0A044C45C6464D464C
:105C1C0019D316D05EB1B3EB0E0264EB050404FA93
:105C2C0007F722FA01F31F43CC40C6E900740021A8
:105C3C00BDE8F087314630460CE78C46EBE6104663
:105C4C00FFE64345E6D2B8EB020E69EB0C050138D2
:105C5C00E0E72846D3E711468CE78146B9E70846CA
:105C6C0073E7084649E7ACF1020C3D4413E70238F0
:105C7C003C4424E7704700BF80B586B006AF1C4B90
:105C8C001C4A9A6062B600BF06F008FB00F046F8AA
:105C9C0000F018FB00F0ACF800F096FA00F0BEFA39
:105CAC0000F0E6FA00F03AFA00F0FAF800F04CF9DD
:105CBC0000F098F900F0E4F9282007F040F90E4BB9
:105CCC0004930E4B03930E4B02930E4B01930E4B0E
:105CDC0000930E4B0E4A0F490F480CF01BF80CF0BA
:105CEC004DFB0CF0EFFB0CF057FC0CF0EDFCF8E767
:105CFC0000ED00E000500008D0420020A43F00203E
:105D0C00CC030020903D00202C3D00202C41002095
:105D1C0060040020B8410020743E002080B594B08F
:105D2C0000AF07F11C033422002118460CF02EFDA5
:105D3C0007F1080300221A605A609A60DA601A614F
:105D4C003B4600221A605A60284B1B6823F4C05350
:105D5C00264A43F4006313600723FB6101233B6273
:105D6C0001237B620123BB621023FB6202233B6491
:105D7C004FF480337B644FF40023BB644FF48003F7
:105D8C00FB6407F11C03184607F012FF0346002BB7
:105D9C0001D000F019FC0F23BB600323FB60002330
:105DAC003B6100237B610023BB6107F108030121E8
:105DBC00184608F02DFA0346002B01D000F004FC25
:105DCC0001233B604FF480337B603B46184608F060
:105DDC00D9FC0346002B01D000F0F6FB08F04CFB7D
:105DEC0008F09EFD00BF5037BD4680BD00700040DE
:105DFC0080B584B000AF3B1D00221A605A609A60D7
:105E0C00254B264A1A60244B00225A60224B002252
:105E1C009A60214B0022DA601F4B00221A611E4B44
:105E2C0000225A611C4B00229A611B4B0022DA6142
:105E3C00194B00221A62184B002283F82420164BAF
:105E4C0001229A62144B002283F82C20124B102250
:105E5C005A63114B00229A630F4B002283F83C20AB
:105E6C000D4806F0EBFA0346002B01D000F0ACFB1A
:105E7C0008237B600123BB600023FB603B1D19469C
:105E8C00054806F049FD0346002B01D000F09CFBB1
:105E9C0000BF1037BD4680BDD04200200024014019
:105EAC0080B58AB000AF3B462822002118460CF082
:105EBC006DFC224B224A1A60204B00225A601F4B69
:105ECC007F229A601D4BFF22DA601C4B00221A6164
:105EDC001A4B00225A61194B00229A61174808F09C
:105EEC002BFD0346002B01D000F06EFB00233B7012
:105EFC0000237B700023BB7000237B600023FB60BE
:105F0C0000233B610F4B7B610023BB610023FB61D2
:105F1C00012387F820304FF480737B623B460122CB
:105F2C001946064808F096FF0346002B01D000F0F6
:105F3C004BFB00BF2837BD4680BD00BFA43F0020EF
:105F4C00002800400080808080B586B000AF07F14B
:105F5C00080300221A605A609A60DA603B460022FD
:105F6C001A605A601E4B4FF080421A601C4B45F66B
:105F7C00C0525A601A4B00229A60194B4FF6FF72AE
:105F8C00DA60174B4FF400721A61154B00225A61FC
:105F9C00134809F077F90346002B01D000F014FBED
:105FAC004FF48053BB6007F1080319460C4809F005
:105FBC00C5FB0346002B01D000F006FB00233B6021
:105FCC0000237B603B461946054809F09BFE0346BF
:105FDC00002B01D000F0F8FA00BF1837BD4680BD89
:105FEC002C41002080B586B000AF07F108030022D9
:105FFC001A605A609A60DA603B4600221A605A6056
:10600C001D4B1E4A1A601C4B45F6C0525A601A4B67
:10601C0000229A60184B47F23052DA60164B00227D
:10602C001A61154B00225A61134809F02BF90346EB
:10603C00002B01D000F0C8FA4FF48053BB6007F17D
:10604C00080319460C4809F079FB0346002B01D0D4
:10605C0000F0BAFA00233B6000237B603B461946F4
:10606C00054809F04FFE0346002B01D000F0ACFAB6
:10607C0000BF1837BD4680BD903D00200004004095
:10608C0080B586B000AF07F1080300221A605A6091
:10609C009A60DA603B4600221A605A601D4B1E4A19
:1060AC001A601C4B18225A601A4B00229A60194B2A
:1060BC004FF6FF72DA60174B00221A61154B002263
:1060CC005A61144809F0DEF80346002B01D000F0A9
:1060DC007BFA4FF48053BB6007F1080319460D4857
:1060EC0009F02CFB0346002B01D000F06DFA0023C5
:1060FC003B6000237B603B461946064809F002FED4
:10610C000346002B01D000F05FFA00BF1837BD46E4
:10611C0080BD00BFCC0300200008004080B586B0D5
:10612C0000AF07F1100300221A605A603B460022B0
:10613C001A605A609A60DA60214B224A1A60204B2E
:10614C0018225A601E4B00229A601D4B4FF4B772F6
:10615C00DA601B4B00221A61194B00225A61184855
:10616C0009F01AF90346002B01D000F02DFA002398
:10617C003B6100237B6107F110031946104809F0BD
:10618C00C1FD0346002B01D000F01EFA60233B60DA
:10619C0000237B600023BB600023FB603B46042292
:1061AC001946074809F00CFA0346002B01D000F001
:1061BC000BFA034800F0FAFA00BF1837BD4680BD51
:1061CC002C3D0020000C004080B500AF114B124A52
:1061DC001A60104B4FF4E1325A600E4B00229A6059
:1061EC000C4B0022DA600B4B00221A61094B0C227B
:1061FC005A61084B00229A61064B0022DA6105486D
:10620C0009F0DEFD0346002B01D000F0DDF900BFE4
:10621C0080BD00BF743E00200038014080B500AF47
:10622C00114B124A1A60104B4FF416525A600E4B17
:10623C0000229A600C4B0022DA600B4B00221A6190
:10624C00094B0C225A61084B00229A61064B002222
:10625C00DA61054809F0B4FD0346002B01D000F0CB
:10626C00B3F900BF80BD00BFB8410020004400401E
:10627C0080B500AF114B124A1A60104B4FF41652F6
:10628C005A600E4B00229A600C4B0022DA600B4BCA
:10629C0000221A61094B0C225A61084B00229A61A8
:1062AC00064B0022DA61054809F08AFD0346002BF3
:1062BC0001D000F089F900BF80BD00BF6004002050
:1062CC000048004080B58AB000AF07F114030022EB
:1062DC001A605A609A60DA601A61634BDB69624A31
:1062EC0043F00403D361604BDB6903F004033B61AF
:1062FC003B695D4BDB695C4A43F02003D3615A4B2D
:10630C00DB6903F02003FB60FB68574BDB69564AE3
:10631C0043F00103D361544BDB6903F00103BB6011
:10632C00BB68514BDB69504A43F00203D3614E4BBF
:10633C00DB6903F002037B607B68012280214B4800
:10634C0007F04FFB00224FF4F851484807F049FB87
:10635C000022C021464807F044FB4FF400537B61F8
:10636C004FF40413BB610123FB6107F114031946BD
:10637C003E4807F0BFF801237B610023BB6101237A
:10638C00FB6107F1140319463A4807F0B3F80223EE
:10639C007B610023BB610023FB6107F114031946E9
:1063AC00334807F0A7F84FF480537B614FF4881300
:1063BC00BB610023FB6107F1140319462C4807F05D
:1063CC0099F84FF400437B610023BB610123FB610F
:1063DC0007F114031946264807F08CF880237B61DB
:1063EC000123BB610123FB6100233B6207F1140312
:1063FC0019461E4807F07EF84FF4D8537B610123F1
:10640C00BB610023FB6100233B6207F114031946B7
:10641C00164807F06FF84FF480637B610123BB6172
:10642C000223FB6100233B6207F1140319460F485A
:10643C0007F060F8C0237B610123BB610023FB6183
:10644C0000233B6207F114031946094807F052F880
:10645C0000220021282006F048FD282006F061FDCE
:10646C0000BF2837BD4680BD0038024000080240FE
:10647C00000402400000024080B483B000AF78609A
:10648C00064B1B680133054A1360054B01221A6049
:10649C0000BF0C37BD4680BC704700BFB840002021
:1064AC00D03D002080B500AF134B1B681B689A6869
:1064BC00114B1B681B6842F480729A60282006F00E
:1064CC0030FD0E4809F0C9FC0D4809F0C6FC0D481A
:1064DC0009F0C3FC094809F0F5FD094809F0F2FD83
:1064EC00084809F0EFFD05F08DFF0121012007F0B0
:1064FC00A9FA00BF80BD00BF64450020743E002097
:10650C00B84100206004002080B500AF05F088FF82
:10651C00FFF704FC134809F053FC134809F050FC36
:10652C00124809F04DFC01221149104809F09AFD5E
:10653C0001220F490C4809F095FD01220C4909482C
:10654C0009F090FD282006F0FAFC0A4B1B681B682A
:10655C009A68084B1B681B6822F480729A6000BF13
:10656C0080BD00BF60040020B8410020743E0020B4
:10657C00384D00206445002080B586B000AF0F492F
:10658C000F480CF0CFF90346002B13D04FF4806367
:10659C007B600123BB600123FB6000233B613B1D3F
:1065AC001946084806F0A6FF00224FF48061054802
:1065BC0007F017FA00BF1837BD4680BD64460108C6
:1065CC00D84000200004024080B400AF72B600BF77
:1065DC00FEE7000080B485B000AF144B5B6A134A31
:1065EC0043F000435362114B5B6A03F00043FB60C2
:1065FC00FB680E4B1B6A0D4A43F0010313620B4BF5
:10660C001B6A03F00103BB60BB68084B5B6A074A5B
:10661C0043F080535362054B5B6A03F080537B60FD
:10662C007B6800BF1437BD4680BC70470038024001
:10663C0080B58AB000AF786007F1140300221A60AD
:10664C005A609A60DA601A617B681B68154A93423B
:10665C0023D1154B1B6A144A43F400731362124B7B
:10666C001B6A03F400733B613B690F4BDB690E4AF9
:10667C0043F00203D3610C4BDB6903F00203FB60B4
:10668C00FB6801237B610323BB610023FB6107F1E2
:10669C0014031946054806F02DFF00BF2837BD46E8
:1066AC0080BD00BF002401400038024000040240BD
:1066BC0080B582B000AF78607B681B68084A934253
:1066CC000AD1084B01221A6000220021292006F071
:1066DC000CFC292006F025FC00BF0837BD4680BD08
:1066EC0000280040D806474280B487B000AF7860DD
:1066FC007B681B68B3F1804F0CD11A4B5B6A194A4B
:10670C0043F001035362174B5B6A03F001037B6197
:10671C007B6922E07B681B68134A93420CD1114BB6
:10672C005B6A104A43F0020353620E4B5B6A03F040
:10673C0002033B613B6910E07B681B680B4A934288
:10674C000BD1084B5B6A074A43F004035362054BB9
:10675C005B6A03F00403FB60FB6800BF1C37BD469B
:10676C0080BC704700380240000400400008004024
:10677C0080B485B000AF78607B681B68094A93428F
:10678C000BD1094B5B6A084A43F008035362064B72
:10679C005B6A03F00803FB60FB6800BF1437BD465F
:1067AC0080BC7047000C00400038024080B588B0B7
:1067BC0000AF786007F10C0300221A605A609A60EF
:1067CC00DA601A617B681B68114A93421BD1114B2A
:1067DC00DB69104A43F00103D3610E4BDB6903F014
:1067EC000103BB60BB680223FB6002233B610023F7
:1067FC007B610023BB610223FB6107F10C0319468B
:10680C00054806F077FE00BF2037BD4680BD00BFAF
:10681C00000C0040003802400000024080B58EB0F1
:10682C0000AF786007F1240300221A605A609A6066
:10683C00DA601A617B681B68524A934231D1524B21
:10684C001B6A514A43F4804313624F4B1B6A03F497
:10685C0080433B623B6A4C4BDB694B4A43F0010380
:10686C00D361494BDB6903F00103FB61FB694FF416
:10687C00C0637B620223BB620023FB6203233B6386
:10688C0007237B6307F124031946404806F032FEC8
:10689C0000220021252006F028FB252006F041FBD4
:1068AC006BE07B681B683A4A934230D1364B5B6A8B
:1068BC00354A43F400335362334B5B6A03F40033C1
:1068CC00BB61BB69304BDB692F4A43F00103D361D9
:1068DC002D4BDB6903F001037B617B690C237B622D
:1068EC000223BB620023FB6203233B6307237B630E
:1068FC0007F124031946254806F0FCFD002200216F
:10690C00262006F0F2FA262006F00BFB35E07B6819
:10691C001B68204A934230D11B4B5B6A1A4A43F4E2
:10692C0080235362184B5B6A03F480233B613B6901
:10693C00154BDB69144A43F00203D361124BDB693C
:10694C0003F00203FB60FB684FF440637B6202239D
:10695C00BB620023FB6203233B6307237B6307F1CA
:10696C00240319460C4806F0C5FD002200212720FF
:10697C0006F0BBFA272006F0D4FA00BF3837BD4624
:10698C0080BD00BF003801400038024000000240CA
:10699C0000440040004800400004024080B582B032
:1069AC0000AF78607B681B681D4A93420ED11D4B6B
:1069BC001B6A1C4A23F4804313624FF4C0611A48CB
:1069CC0006F018FF252006F0BAFA25E07B681B6854
:1069DC00164A93420DD1134B5B6A124A23F40033CF
:1069EC0053620C21104806F005FF262006F0A7FA8A
