:020000040800F2
:1050000000800020996C0008516A00085B6A000863
:10501000636A0008696A00086F6A000800000000FF
:10502000000000000000000000000000756A000899
:10503000816A0008000000008D6A0008996A000873
:10504000E16C0008E16C0008E16C0008E16C00080C
:10505000E16C0008E16C0008E16C0008E16C0008FC
:10506000E16C0008E16C0008E16C0008E16C0008EC
:10507000E16C0008E16C0008E16C0008E16C0008DC
:10508000E16C0008E16C0008E16C0008E16C0008CC
:10509000E16C0008E16C0008E16C0008E16C0008BC
:1050A00000000000E16C0008E16C0008E16C000801
:1050B000E16C0008E16C0008E16C0008E16C00089C
:1050C000E16C0008E16C0008E16C0008E16C00088C
:1050D000E16C0008A56A0008B96A0008CD6A0008FA
:1050E000E16A0008F96A0008E16C0008E16C000858
:1050F000E16C000800000000E16C0008E16C0008B1
:105100000000000000000000E16C0008E16C0008F5
:10511000E16C0008E16C0008E16C00080000000090
:10512000E16C00080000000000000000000000002A
:0C51300000000000000000005FF808F123
:10513C0010B5054C237833B9044B13B10448AFF3C5
:10514C0000800123237010BDD80100200000000056
:10515C00A843010808B5034B1BB103490348AFF33F
:10516C00008008BD00000000DC010020A8430108FD
:10517C0010F8012B11F8013B012A28BF9A42F7D0F5
:10518C00D01A7047034613F8012B002AFBD1181ACA
:10519C000138704781F0004102E000BF83F000430A
:1051AC0030B54FEA41044FEA430594EA050F08BFB6
:1051BC0090EA020F1FBF54EA000C55EA020C7FEA7A
:1051CC00645C7FEA655C00F0E2804FEA5454D4EBF7
:1051DC005555B8BF6D420CDD2C4480EA020281EAC1
:1051EC00030382EA000083EA010180EA020281EAF9
:1051FC000303362D88BF30BD11F0004F4FEA01314B
:10520C004FF4801C4CEA113102D0404261EB410159
:10521C0013F0004F4FEA03334CEA133302D05242DF
:10522C0063EB430394EA050F00F0A780A4F101049B
:10523C00D5F1200E0DDB02FA0EFC22FA05F28018D5
:10524C0041F1000103FA0EF2801843FA05F35941BB
:10525C000EE0A5F120050EF1200E012A03FA0EFC3A
:10526C0028BF4CF0020C43FA05F3C01851EBE37164
:10527C0001F0004507D54FF0000EDCF1000C7EEB81
:10528C0000006EEB0101B1F5801F1BD3B1F5001FBF
:10529C000CD349085FEA30004FEA3C0C04F10104DE
:1052AC004FEA445212F5800F80F09A80BCF1004F07
:1052BC0008BF5FEA500C50F1000041EB045141EA89
:1052CC00050130BD5FEA4C0C404141EB0101013C52
:1052DC0028BFB1F5801FE9D291F0000F04BF014641
:1052EC000020B1FA81F308BF2033A3F10B03B3F113
:1052FC0020020CDA0C3208DD02F1140CC2F10C02A3
:10530C0001FA0CF021FA02F10CE002F11402D8BF00
:10531C00C2F1200C01FA02F120FA0CFCDCBF41EACC
:10532C000C019040E41AA2BF01EB0451294330BD9B
:10533C006FEA04041F3C1CDA0C340EDC04F1140478
:10534C00C4F1200220FA04F001FA02F340EA03004F
:10535C0021FA04F345EA030130BDC4F10C04C4F195
:10536C00200220FA02F001FA04F340EA0300294675
:10537C0030BD21FA04F0294630BD94F0000F83F4BF
:10538C00801306BF81F480110134013D4EE77FEAA2
:10539C00645C18BF7FEA655C29D094EA050F08BFEE
:1053AC0090EA020F05D054EA000C04BF19461046CF
:1053BC0030BD91EA030F1EBF0021002030BD5FEA13
:1053CC00545C05D14000494128BF41F0004130BD3B
:1053DC0014F580043CBF01F5801130BD01F000458F
:1053EC0045F0FE4141F470014FF0000030BD7FEA02
:1053FC00645C1ABF194610467FEA655C1CBF0B46FD
:10540C00024650EA013406BF52EA033591EA030F13
:10541C0041F4002130BD00BF90F0000F04BF00210B
:10542C00704730B54FF4806404F132044FF000053E
:10543C004FF0000150E700BF90F0000F04BF0021B7
:10544C00704730B54FF4806404F1320410F000451D
:10545C0048BF40424FF000013EE700BF42004FEA18
:10546C00E2014FEA31014FEA02701FBF12F07F4395
:10547C0093F07F4F81F06051704732F07F4208BF4C
:10548C00704793F07F4F04BF41F40021704730B553
:10549C004FF4607401F0004521F000411CE700BF9F
:1054AC0050EA010208BF704730B54FF000050AE022
:1054BC0050EA010208BF704730B511F0004502D523
:1054CC00404261EB41014FF4806404F132045FEA25
:1054DC00915C3FF4D8AE4FF003025FEADC0C18BFCE
:1054EC0003325FEADC0C18BF033202EBDC02C2F1C0
:1054FC00200300FA03FC20FA02F001FA03FE40EA52
:10550C000E0021FA02F11444BDE600BF70B54FF055
:10551C00FF0C4CF4E06C1CEA11541DBF1CEA135533
:10552C0094EA0C0F95EA0C0F00F0DEF82C4481EA9B
:10553C00030621EA4C5123EA4C5350EA013518BFBB
:10554C0052EA033541F4801143F4801338D0A0FBA8
:10555C0002CE4FF00005E1FB02E506F00042E0FB55
:10556C0003E54FF00006E1FB03569CF0000F18BF5B
:10557C004EF0010EA4F1FF04B6F5007F64F5407403
:10558C0004D25FEA4E0E6D4146EB060642EAC62196
:10559C0041EA55514FEAC52040EA5E504FEACE2E03
:1055AC00B4F1FD0C88BFBCF5E06F1ED8BEF1004F06
:1055BC0008BF5FEA500E50F1000041EB045170BD82
:1055CC0006F0004646EA010140EA020081EA0301C6
:1055DC00B4EB5C04C2BFD4EB0C0541EA045170BDC2
:1055EC0041F480114FF0000E013C00F3AB8014F13C
:1055FC00360FDEBF002001F0004170BDC4F1000485
:10560C00203C35DA0C341BDC04F11404C4F1200505
:10561C0000FA05F320FA04F001FA05F240EA020060
:10562C0001F0004221F0004110EBD37021FA04F696
:10563C0042EB06015EEA430E08BF20EAD37070BD50
:10564C00C4F10C04C4F1200500FA04F320FA05F0AF
:10565C0001FA04F240EA020001F0004110EBD370B1
:10566C0041F100015EEA430E08BF20EAD37070BD21
:10567C00C4F1200500FA05F24EEA020E20FA04F3FA
:10568C0001FA05F243EA020321FA04F001F00041A9
:10569C0021FA04F220EA020000EBD3705EEA430E1A
:1056AC0008BF20EAD37070BD94F0000F0FD101F049
:1056BC000046400041EB010111F4801F08BF013C82
:1056CC00F7D041EA060195F0000F18BF704703F0C0
:1056DC000046520043EB030313F4801F08BF013D47
:1056EC00F7D043EA0603704794EA0C0F0CEA135503
:1056FC0018BF95EA0C0F0CD050EA410618BF52EABD
:10570C004306D1D181EA030101F000414FF00000C2
:10571C0070BD50EA410606BF1046194652EA4306D0
:10572C0019D094EA0C0F02D150EA013613D195EA44
:10573C000C0F05D152EA03361CBF104619460AD18C
:10574C0081EA030101F0004141F0FE4141F4700196
:10575C004FF0000070BD41F0FE4141F4780170BD86
:10576C0070B54FF0FF0C4CF4E06C1CEA11541DBFEB
:10577C001CEA135594EA0C0F95EA0C0F00F0A7F8ED
:10578C00A4EB050481EA030E52EA03354FEA01311A
:10579C0000F088804FEA03334FF0805545EA13132D
:1057AC0043EA12634FEA022245EA111545EA1065F5
:1057BC004FEA00260EF000419D4208BF964244F18C
:1057CC00FD0404F5407402D25B084FEA3202B61AAB
:1057DC0065EB03055B084FEA32024FF480104FF47F
:1057EC00002CB6EB020E75EB030E22BFB61A7546F3
:1057FC0040EA0C005B084FEA3202B6EB020E75EB86
:10580C00030E22BFB61A754640EA5C005B084FEAED
:10581C003202B6EB020E75EB030E22BFB61A7546BA
:10582C0040EA9C005B084FEA3202B6EB020E75EBC5
:10583C00030E22BFB61A754640EADC0055EA060E86
:10584C0018D04FEA051545EA16754FEA06164FEAC9
:10585C00C30343EA52734FEAC2025FEA1C1CC0D175
:10586C0011F4801F0BD141EA00014FF000004FF002
:10587C00004CB6E711F4801F04BF01430020B4F1C3
:10588C00FD0C88BFBCF5E06F3FF6AFAEB5EB030C7B
:10589C0004BFB6EB020C5FEA500C50F1000041EB78
:1058AC00045170BD0EF0004E4EEA113114EB5C0445
:1058BC00C2BFD4EB0C0541EA045170BD41F4801118
:1058CC004FF0000E013C90E645EA060E8DE60CEA20
:1058DC00135594EA0C0F08BF95EA0C0F3FF43BAF3D
:1058EC0094EA0C0F0AD150EA01347FF434AF95EAF4
:1058FC000C0F7FF425AF104619462CE795EA0C0FD8
:10590C0006D152EA03353FF4FDAE1046194622E7A4
:10591C0050EA410618BF52EA43067FF4C5AE50EA7E
:10592C0041047FF40DAF52EA43057FF4EBAE12E76E
:10593C004FEA410212F5001215D211D56FF47873AB
:10594C00B3EB625212D94FEAC12343F0004343EA4E
:10595C00505311F0004F23FA02F018BF4042704729
:10596C004FF00000704750EA013005D111F00040B3
:10597C0008BF6FF0004070474FF00000704700BF49
:10598C0053B94AB9002908BF00281CBF4FF0FF319A
:10599C004FF0FF3000F06EB9ADF1080C6DE904CE9C
:1059AC0000F006F8DDF804E0DDE9022304B07047EE
:1059BC002DE9F047089E0D4604468E46002B40F01C
:1059CC0083808A42174647D9B2FA82F34BB1C3F1AE
:1059DC00200105FA03FE20FA01F19F4041EA0E0E68
:1059EC009C404FEA1748BEFBF8FC1FFA87F908FBEE
:1059FC001CE20CFB09F0210C41EA024290420AD94C
:105A0C00BA180CF1FF3180F01881904240F21581E8
:105A1C00ACF1020C3A44121AB2FBF8F008FB10225B
:105A2C0000FB09F1A4B244EA0244A14209D93C1991
:105A3C0000F1FF3280F00381A14240F20081023874
:105A4C003C44641A002140EA0C401EB10022DC40A8
:105A5C00C6E90042BDE8F08702B9FFDEB2FA82F374
:105A6C00002B4FD18D1A01214FEA124E1FFA82F8EA
:105A7C00B5FBFEFC0EFB1C5508FB0CF0220C42EA9D
:105A8C000545A84207D97D190CF1FF3202D2A84274
:105A9C0000F2E98094462D1AB5FBFEF00EFB105572
:105AAC0008FB00F8A4B244EA0544A04507D93C1908
:105ABC0000F1FF3202D2A04500F2D9801046A4EBCF
:105ACC00080440EA0C40C0E78B4208D9002E00F0D5
:105ADC00B1800021C6E900050846BDE8F087B3FA9D
:105AEC0083F100294BD1AB4202D3824200F2B98040
:105AFC00841A65EB030301209E46002EAAD0C6E94A
:105B0C00004EA7E79F40C3F12002D1404FEA174E49
:105B1C00B1FBFEF01FFA87F80EFB101124FA02F20B
:105B2C009D4000FB08FC2A43150C45EA0145AC4599
:105B3C0004FA03F409D97D1900F1FF3180F08F804C
:105B4C00AC4540F28C8002383D44A5EB0C05B5FB0E
:105B5C00FEF10EFB115C01FB08F995B245EA0C4510
:105B6C00A94507D97D1901F1FF3274D2A94572D923
:105B7C0002393D44A5EB090541EA004178E7C1F142
:105B8C0020078B4022FA07FC4CEA030C25FA07F499
:105B9C004FEA1C4EB4FBFEF91FFA8CF80EFB1944AD
:105BAC0020FA07F309FB08FA8D401D432B0C43EA3E
:105BBC000444A24502FA01F200FA01F309D91CEBE4
:105BCC00040409F1FF3048D2A24546D9A9F10209D3
:105BDC006444A4EB0A04B4FBFEF00EFB104400FB7F
:105BEC0008FAADB245EA0444A24508D91CEB0404FA
:105BFC0000F1FF352DD2A2452BD90238644440EA7E
:105C0C000940A0FB0289A4EB0A044C45C6464D464C
:105C1C0019D316D05EB1B3EB0E0264EB050404FA93
:105C2C0007F722FA01F31F43CC40C6E900740021A8
:105C3C00BDE8F087314630460CE78C46EBE6104663
:105C4C00FFE64345E6D2B8EB020E69EB0C050138D2
:105C5C00E0E72846D3E711468CE78146B9E70846CA
:105C6C0073E7084649E7ACF1020C3D4413E70238F0
:105C7C003C4424E7704700BF80B586B006AF1C4B90
:105C8C001C4A9A6062B600BF06F0BAFA00F046F8F9
:105C9C0000F018FB00F0ACF800F096FA00F0BEFA39
:105CAC0000F0E6FA00F03AFA00F0FAF800F04CF9DD
:105CBC0000F098F900F0E4F9282007F0F2F80E4B08
:105CCC0004930E4B03930E4B02930E4B01930E4B0E
:105CDC0000930E4B0E4A0F490F480BF093FF0CF03C
:105CEC0005FA0CF0ADFA0CF015FB0CF0A7FBF8E77D
:105CFC0000ED00E000500008D0420020A43F00203E
:105D0C00C8030020903D00202C3D00202C41002099
:105D1C005C040020B8410020743E002080B594B093
:105D2C0000AF07F11C033422002118460CF0E8FBED
:105D3C0007F1080300221A605A609A60DA601A614F
:105D4C003B4600221A605A60284B1B6823F4C05350
:105D5C00264A43F4006313600723FB6101233B6273
:105D6C0001237B620123BB621023FB6202233B6491
:105D7C004FF480337B644FF40023BB644FF48003F7
:105D8C00FB6407F11C03184607F0C4FE0346002B06
:105D9C0001D000F009FC0F23BB600323FB60002340
:105DAC003B6100237B610023BB6107F108030121E8
:105DBC00184608F0DFF90346002B01D000F0F4FB85
:105DCC0001233B604FF480337B603B46184608F060
:105DDC008BFC0346002B01D000F0E6FB08F0FEFA2A
:105DEC0008F050FD00BF5037BD4680BD007000402C
:105DFC0080B584B000AF3B1D00221A605A609A60D7
:105E0C00254B264A1A60244B00225A60224B002252
:105E1C009A60214B0022DA601F4B00221A611E4B44
:105E2C0000225A611C4B00229A611B4B0022DA6142
:105E3C00194B00221A62184B002283F82420164BAF
:105E4C0001229A62144B002283F82C20124B102250
:105E5C005A63114B00229A630F4B002283F83C20AB
:105E6C000D4806F09DFA0346002B01D000F09CFB78
:105E7C0008237B600123BB600023FB603B1D19469C
:105E8C00054806F0FBFC0346002B01D000F08CFB10
:105E9C0000BF1037BD4680BDD04200200024014019
:105EAC0080B58AB000AF3B462822002118460CF082
:105EBC0027FB224B224A1A60204B00225A601F4BB0
:105ECC007F229A601D4BFF22DA601C4B00221A6164
:105EDC001A4B00225A61194B00229A61174808F09C
:105EEC00DDFC0346002B01D000F05EFB00233B7071
:105EFC0000237B700023BB7000237B600023FB60BE
:105F0C0000233B610F4B7B610023BB610023FB61D2
:105F1C00012387F820304FF480737B623B460122CB
:105F2C001946064808F048FF0346002B01D000F044
:105F3C003BFB00BF2837BD4680BD00BFA43F0020FF
:105F4C00002800400080808080B586B000AF07F14B
:105F5C00080300221A605A609A60DA603B460022FD
:105F6C001A605A601E4B4FF080421A601C4B45F66B
:105F7C00C0525A601A4B00229A60194B4FF6FF72AE
:105F8C00DA60174B4FF400721A61154B00225A61FC
:105F9C00134809F029F90346002B01D000F004FB4B
:105FAC004FF48053BB6007F1080319460C4809F005
:105FBC0077FB0346002B01D000F0F6FA00233B6080
:105FCC0000237B603B461946054809F04DFE03460D
:105FDC00002B01D000F0E8FA00BF1837BD4680BD99
:105FEC002C41002080B586B000AF07F108030022D9
:105FFC001A605A609A60DA603B4600221A605A6056
:10600C001D4B1E4A1A601C4B45F6C0525A601A4B67
:10601C0000229A60184B47F23052DA60164B00227D
:10602C001A61154B00225A61134809F0DDF803463A
:10603C00002B01D000F0B8FA4FF48053BB6007F18D
:10604C00080319460C4809F02BFB0346002B01D022
:10605C0000F0AAFA00233B6000237B603B46194604
:10606C00054809F001FE0346002B01D000F09CFA14
:10607C0000BF1837BD4680BD903D00200004004095
:10608C0080B586B000AF07F1080300221A605A6091
:10609C009A60DA603B4600221A605A601D4B1E4A19
:1060AC001A601C4B18225A601A4B00229A60194B2A
:1060BC004FF6FF72DA60174B00221A61154B002263
:1060CC005A61144809F090F80346002B01D000F0F7
:1060DC006BFA4FF48053BB6007F1080319460D4867
:1060EC0009F0DEFA0346002B01D000F05DFA002324
:1060FC003B6000237B603B461946064809F0B4FD23
:10610C000346002B01D000F04FFA00BF1837BD46F4
:10611C0080BD00BFC80300200008004080B586B0D9
:10612C0000AF07F1100300221A605A603B460022B0
:10613C001A605A609A60DA60214B224A1A60204B2E
:10614C0018225A601E4B00229A601D4B4FF4B772F6
:10615C00DA601B4B00221A61194B00225A61184855
:10616C0009F0CCF80346002B01D000F01DFA0023F7
:10617C003B6100237B6107F110031946104809F0BD
:10618C0073FD0346002B01D000F00EFA60233B6038
:10619C0000237B600023BB600023FB603B46042292
:1061AC001946074809F0BEF90346002B01D000F050
:1061BC00FBF9034800F0EAFA00BF1837BD4680BD72
:1061CC002C3D0020000C004080B500AF114B124A52
:1061DC001A60104B4FF4E1325A600E4B00229A6059
:1061EC000C4B0022DA600B4B00221A61094B0C227B
:1061FC005A61084B00229A61064B0022DA6105486D
:10620C0009F090FD0346002B01D000F0CDF900BF42
:10621C0080BD00BF743E00200038014080B500AF47
:10622C00114B124A1A60104B4FF416525A600E4B17
:10623C0000229A600C4B0022DA600B4B00221A6190
:10624C00094B0C225A61084B00229A61064B002222
:10625C00DA61054809F066FD0346002B01D000F019
:10626C00A3F900BF80BD00BFB8410020004400402E
:10627C0080B500AF114B124A1A60104B4FF41652F6
:10628C005A600E4B00229A600C4B0022DA600B4BCA
:10629C0000221A61094B0C225A61084B00229A61A8
:1062AC00064B0022DA61054809F03CFD0346002B41
:1062BC0001D000F079F900BF80BD00BF5C04002064
:1062CC000048004080B58AB000AF07F114030022EB
:1062DC001A605A609A60DA601A61664BDB69654A2B
:1062EC0043F00403D361634BDB6903F004033B61AC
:1062FC003B69604BDB695F4A43F02003D3615D4B24
:10630C00DB6903F02003FB60FB685A4BDB69594ADD
:10631C0043F00103D361574BDB6903F00103BB600E
:10632C00BB68544BDB69534A43F00203D361514BB6
:10633C00DB6903F002037B607B68012204214E4879
:10634C0007F001FB01224FF484514C4807F0FBFA93
:10635C0000224FF47061494807F0F5FA0022C02181
:10636C00454807F0F0FA4FF400537B614FF40413E7
:10637C00BB610123FB6107F1140319463F4807F089
:10638C006BF801237B610023BB610123FB6107F1E7
:10639C00140319463A4807F05FF802237B61002387
:1063AC00BB610023FB6107F114031946324807F067
:1063BC0053F8C4237B610123BB610023FB610023E1
:1063CC003B6207F1140319462B4807F045F84FF4CC
:1063DC0080537B614FF48813BB610023FB6107F191
:1063EC0014031946244807F037F84FF400437B6137
:1063FC000023BB610123FB6107F1140319461E48FE
:10640C0007F02AF880237B610123BB610123FB6128
:10641C0000233B6207F114031946184807F01CF8D7
:10642C004FF4D8537B610123BB610023FB61002334
:10643C003B6207F114031946104807F00DF84FF4AE
:10644C0080637B610123BB610223FB6100233B6200
:10645C0007F114031946094806F0FEFF002200213B
:10646C00282006F0F4FC282006F00DFD00BF28378C
:10647C00BD4680BD003802400004024000080240C6
:10648C000000024080B483B000AF7860064B1B68FC
:10649C000133054A1360054B01221A6000BF0C370B
:1064AC00BD4680BC704700BFB8400020D03D0020E6
:1064BC0080B500AF134B1B681B689A68114B1B68A7
:1064CC001B6842F480729A60282006F0DCFC0E48AF
:1064DC0009F075FC0D4809F072FC0D4809F06FFCD1
:1064EC00094809F0A1FD094809F09EFD084809F08A
:1064FC009BFD05F039FF0121012007F055FA00BF83
:10650C0080BD00BF64450020743E0020B8410020CF
:10651C005C04002080B500AF05F034FFFFF7FEFBF4
:10652C00134809F0FFFB134809F0FCFB124809F073
:10653C00F9FB01221149104809F046FD01220F49CF
:10654C000C4809F041FD01220C49094809F03CFDB9
:10655C00282006F0A6FC0A4B1B681B689A68084B9F
:10656C001B681B6822F480729A6000BF80BD00BF5C
:10657C005C040020B8410020743E0020384D0020FF
:10658C006445002080B500AFFFF772FE044B1B681A
:10659C0001220449184609F017FD00BF80BD00BF59
:1065AC0088440020384D002080B400AF72B600BF84
:1065BC00FEE7000080B485B000AF144B5B6A134A51
:1065CC0043F000435362114B5B6A03F00043FB60E2
:1065DC00FB680E4B1B6A0D4A43F0010313620B4B15
:1065EC001B6A03F00103BB60BB68084B5B6A074A7C
:1065FC0043F080535362054B5B6A03F080537B601E
:10660C007B6800BF1437BD4680BC70470038024021
:10661C0080B58AB000AF786007F1140300221A60CD
:10662C005A609A60DA601A617B681B68154A93425B
:10663C0023D1154B1B6A144A43F400731362124B9B
:10664C001B6A03F400733B613B690F4BDB690E4A19
:10665C0043F00203D3610C4BDB6903F00203FB60D4
:10666C00FB6801237B610323BB610023FB6107F102
:10667C0014031946054806F0EFFE00BF2837BD4647
:10668C0080BD00BF002401400038024000040240DD
:10669C0080B582B000AF78607B681B68084A934273
:1066AC000AD1084B01221A6000220021292006F091
:1066BC00CEFB292006F0E7FB00BF0837BD4680BDA6
:1066CC0000280040D806474280B487B000AF7860FD
:1066DC007B681B68B3F1804F0CD11A4B5B6A194A6B
:1066EC0043F001035362174B5B6A03F001037B61B8
:1066FC007B6922E07B681B68134A93420CD1114BD7
:10670C005B6A104A43F0020353620E4B5B6A03F060
:10671C0002033B613B6910E07B681B680B4A9342A8
:10672C000BD1084B5B6A074A43F004035362054BD9
:10673C005B6A03F00403FB60FB6800BF1C37BD46BB
:10674C0080BC704700380240000400400008004044
:10675C0080B485B000AF78607B681B68094A9342AF
:10676C000BD1094B5B6A084A43F008035362064B92
:10677C005B6A03F00803FB60FB6800BF1437BD467F
:10678C0080BC7047000C00400038024080B588B0D7
:10679C0000AF786007F10C0300221A605A609A600F
:1067AC00DA601A617B681B68114A93421BD1114B4A
:1067BC00DB69104A43F00103D3610E4BDB6903F034
:1067CC000103BB60BB680223FB6002233B61002317
:1067DC007B610023BB610223FB6107F10C031946AB
:1067EC00054806F039FE00BF2037BD4680BD00BF0E
:1067FC00000C0040003802400000024080B58EB012
:10680C0000AF786007F1240300221A605A609A6086
:10681C00DA601A617B681B68524A934231D1524B41
:10682C001B6A514A43F4804313624F4B1B6A03F4B7
:10683C0080433B623B6A4C4BDB694B4A43F00103A0
:10684C00D361494BDB6903F00103FB61FB694FF436
:10685C00C0637B620223BB620023FB6203233B63A6
:10686C0007237B6307F124031946404806F0F4FD27
:10687C0000220021252006F0EAFA252006F003FB71
:10688C006BE07B681B683A4A934230D1364B5B6AAB
:10689C00354A43F400335362334B5B6A03F40033E1
:1068AC00BB61BB69304BDB692F4A43F00103D361F9
:1068BC002D4BDB6903F001037B617B690C237B624D
:1068CC000223BB620023FB6203233B6307237B632E
:1068DC0007F124031946254806F0BEFD00220021CD
:1068EC00262006F0B4FA262006F0CDFA35E07B68B7
:1068FC001B68204A934230D11B4B5B6A1A4A43F403
:10690C0080235362184B5B6A03F480233B613B6921
:10691C00154BDB69144A43F00203D361124BDB695C
:10692C0003F00203FB60FB684FF440637B620223BD
:10693C00BB620023FB6203233B6307237B6307F1EA
:10694C00240319460C4806F087FD0022002127205D
:10695C0006F07DFA272006F096FA00BF3837BD46C0
:10696C0080BD00BF003801400038024000000240EA
:10697C0000440040004800400004024080B582B052
:10698C0000AF78607B681B681D4A93420ED11D4B8B
:10699C001B6A1C4A23F4804313624FF4C0611A48EB
:1069AC0006F0DAFE252006F07CFA25E07B681B68F1
:1069BC00164A93420DD1134B5B6A124A23F40033EF
:1069CC0053620C21104806F0C7FE262006F069FA27
:1069DC0012E07B681B680E4A93420DD1094B5B6A2F
:1069EC00084A23F4802353624FF44061094806F0AF
:1069FC00B3FE272006F055FA00BF0837BD4680BD10
:106A0C0000380140003802400000024000440040C1
:106A1C00004800400004024080B400AFBFF34F8F29
:106A2C0000BF064BDB6803F4E0620449044B1343DC
:106A3C00CB60BFF34F8F00BF00BFFDE700ED00E060
:106A4C000400FA0580B500AF07F0D4FDFEE780B571
:106A5C0000AFFFF7E1FF80B400AFFEE780B400AFFA
:106A6C00FEE780B400AFFEE780B400AF00BFBD46C8
:106A7C0080BC704780B400AF00BFBD4680BC70477F
:106A8C0080B400AF00BFBD4680BC704780B500AF7E
:106A9C0005F02CFC00BF80BD80B500AF024809F0AA
:106AAC002DFB00BF80BD00BF743E002080B500AF41
:106ABC00024809F023FB00BF80BD00BFB841002095
:106ACC0080B500AF024809F019FB00BF80BD00BFC4
:106ADC005C04002080B500AF4FF4805006F04CFFF2
:106AEC004FF4005006F048FF00BF80BD80B500AFEA
:106AFC00024808F099FA00BF80BD00BFA43F0020F7
:106B0C0080B400AF01231846BD4680BC704780B5E9
:106B1C0082B000AF786039600BF0A0FC03461622FF
:106B2C001A604FF0FF3318460837BD4680BD80B55C
:106B3C0082B000AF78604FF0FF317868FFF7E7FF65
:106B4C00FEE780B586B000AFF860B9607A600023CC
:106B5C007B610AE0AFF300800146BB685A1CBA6047
:106B6C00CAB21A707B6901337B617A697B689A427D
:106B7C00F0DB7B6818461837BD4680BD80B586B003
:106B8C0000AFF860B9607A6000237B6109E0BB68F4
:106B9C005A1CBA601B781846AFF300807B6901332E
:106BAC007B617A697B689A42F1DB7B6818461837FF
:106BBC00BD4680BD80B483B000AF78604FF0FF332A
:106BCC0018460C37BD4680BC704780B483B000AF0C
:106BDC00786039603B684FF400525A6000231846C5
:106BEC000C37BD4680BC704780B483B000AF786072
:106BFC00012318460C37BD4680BC704780B485B065
:106C0C0000AFF860B9607A60002318461437BD46AF
:106C1C0080BC704780B586B000AF7860144A154BC5
:106C2C00D31A7B617B693B61134B1B68002B02D130
:106C3C00114B124A1A60104B1A687B6813443A695C
:106C4C009A4207D20BF00AFC03460C221A604FF052
:106C5C00FF3309E0084B1B68FB60074B1A687B6825
:106C6C001344054A1360FB6818461837BD4680BDAF
:106C7C000080002000040000F4010020984D00204A
:106C8C0080B400AF00BFBD4680BC70470C480D49B6
:106C9C000D4A002302E0D458C4500433C4188C426B
:106CAC00F9D30A4A0A4C002301E013600432A242D1
:106CBC00FBD3FFF7E5FF0BF0D7FBFEF7DDFF7047CB
:106CCC0000000020D8010020C8580108D80100207D
:106CDC00984D0020FEE7000080B400AFBFF34F8F4B
:106CEC0000BF064BDB6803F4E0620449044B13431A
:106CFC00CB60BFF34F8F00BF00BFFDE700ED00E09E
:106D0C000400FA0580B500AF0AF0C4FC164B1B68F2
:106D1C00164A1268114618460BF098F9124B1B686C
:106D2C00134918460BF092F90F4B1B681149184682
:106D3C000BF08CF90C4B1B680F4A1168012218469A
:106D4C000BF05AF9084B1B680C4A1268114618468E
:106D5C000BF07CF9044B1B68074A11680522184696
:106D6C000BF04AF900BF80BD3C4D00203C000020D8
:106D7C007C3D00201845010818010020400000202F
:106D8C0080B500AF074B1B68074918460BF05EF93E
:106D9C00044B1B68054A1168052218460BF02CF9A8
:106DAC0000BF80BD3C4D00201C450108180100208F
:106DBC0090B5A7B000AF78600023C7F894300023DB
:106DCC00C7F890300AF0E4FA4FF47A7005F0AAFA9A
:106DDC000AF092FA0AF062FB0346134A1360FFF7BB
:106DEC0091FF00F0C3BD114B1B68114918460BF005
:106DFC0033F80E4B1B680F4A1168022218460BF031
:106E0C005DF80D490D480BF047FC0346002B17D1DC
:106E1C00D7F89030012B16D10023C7F890300023FF
:106E2C00C7F894300FE000BF580100203C4D002003
:106E3C00C8440108180100202C45010868450020B1
:106E4C000123C7F89030D7F89420531CC7F894301E
:106E5C00B34B83FB0231D317C91A0B465B000B44AF
:106E6C005B00D11A002905D1D7F89030002B01D145
:106E7C000BF0AAF8AB4B1B680122AB4918460BF080
:106E8C001DF80BF0ADF8A94B1B681946A8480BF080
:106E9C0003FC0346002B0FD0A24B1B68A54A1268BB
:106EAC00114618460AF0D8FF9E4B1B68A24A11687F
:106EBC000A2218460BF002F8A04B1B6819469C4896
:106ECC000BF0EAFB0346002B0FD0964B1B689C4A39
:106EDC001268114618460AF0BFFF924B1B68964A7F
:106EEC0011680A2218460AF0E9FF964B1B681946EE
:106EFC008F480BF0D1FB0346002B6ED092498C4887
:106F0C000BF0CAFB0346002B67D0904988480BF066
:106F1C00DBFB8E4900200BF0D7FB8C4900200BF0DB
:106F2C00D3FB8A4900200BF0CFFBC7F88C007D4BBC
:106F3C001B68874A1268114618460AF08DFF794B78
:106F4C001B68844A1168A02218460AF0B7FF8249D0
:106F5C00D7F88C00FEF70CF90346002B38D0714B98
:106F6C001B687E4918460BF071F86E4B1B687C4A07
:106F7C001268114618460BF069F86A4B1B686E4A8A
:106F8C001168052218460BF037F8664B1B687549DB
:106F9C0018460BF05BF8634B1B68D7F88C1018463F
:106FAC000BF054F85F4B1B686F4918460BF04EF80A
:106FBC005C4B1B686A4A1268114618460BF046F87F
:106FCC00584B1B685C4A1168012218460BF014F8E8
:106FDC00002003F063F80AF039FD5A4B1B68194680
:106FEC0053480BF059FB0346002B6CD05F495048BB
:106FFC000BF052FB0346002B65D054494C480BF068
:10700C0063FB524900200BF05FFB504900200BF052
:10701C005BFB4E4900200BF057FBC7F88C00414B33
:10702C001B684B4A1268114618460AF015FF3D4B77
:10703C001B68484A1168A02218460AF03FFF4C49C9
:10704C00D7F88C00FEF794F80346002B38D0354B5C
:10705C001B68484918460AF0F9FF324B1B68404A36
:10706C001268114618460AF0F1FF2E4B1B68324A83
:10707C001168052218460AF0BFFF2A4B1B683949D4
:10708C0018460AF0E3FF274B1B68D7F88C101846FC
:10709C000AF0DCFF234B1B68374918460AF0D6FF71
:1070AC00204B1B682E4A1268114618460AF0CEFF78
:1070BC001C4B1B68204A1168052218460AF09CFFDD
:1070CC00002002F0F8FF1F4B1B68194618480BF004
:1070DC00E3FA0346002B59D0284915480BF0DCFA8B
:1070EC000346002B52D0194911480BF0EDFA174901
:1070FC0000200BF0E9FA154900200BF0E5FA1349D2
:10710C0000200BF0E1FAC7F88C00064B1B68104A04
:10711C001268114618460AF09FFE024B1B682FE0BE
:10712C00ABAAAA2A3C4D0020344501080C000020D3
:10713C0068450020440000201801002010000020A9
:10714C004800002034000020384501084045010863
:10715C005800002038000020444501085045010823
:10716C00340100207445010890450108AC45010824
:10717C00B4450108C0450108E44501080046010872
:10718C004C4A1168A02218460AF098FE4A4B1B681C
:10719C0019464A480BF080FA0346002B00F0A880F1
:1071AC00474946480BF078FA0346002B00F0A080C4
:1071BC00444942480BF088FA424900200BF084FA0B
:1071CC00404900200BF080FA3E4900200BF07CFA7D
:1071DC00C7F88C003C4B1B683C4A12681146184699
:1071EC000AF03AFE384B1B68324A1168A022184646
:1071FC000AF064FE07F12803354A1C4613460FCBF0
:10720C0007C4238002341B0C237007F12803D7F822
:10721C008C1018460BF00BFA07F128031846FDF7F3
:10722C00B1FF03461A4607F12803134429491A46AD
:10723C000B461B88138007F12803194626480BF0D0
:10724C0012FA264801F0D2FB0AF0A2F805F098FFDA
:10725C00234A2449022005F0BFFF05F0ADFF4FF48F
:10726C007A7005F05FF8184B1B68184608F0DCFEC6
:10727C001D4B1B68184608F0D7FE1C4B1B681846A4
:10728C0008F0D2FE104B1B68184608F098FD164B00
:10729C001B68184608F093FD144B1B68184608F041
:1072AC008EFD06F0ADFB04F0C3FF642005F03AF848
:1072BC00FFF712FD38000020340000206845002044
:1072CC0004460108404501083C4D002058000020B0
:1072DC000C4601081C460108C81500202046010870
:1072EC00DEC0EDFE00010808844400208844002024
:1072FC00AD4B1B681946AD480BF0CEF90346002B7D
:10730C0000F03483AA4B1B681946A8480BF0C4F94B
:10731C000346002B24D0A74B1B68A74A12681146C2
:10732C0018460AF093FEA34B1B680122A34918468A
:10733C000AF0C4FD9F4B1B68A14918460AF086FE53
:10734C009C4B1B689F4A1268114618460AF07EFE39
:10735C00984B1B689C4A1168022218460AF0AEFD35
:10736C009A4B1B68194691480BF096F90346002B73
:10737C0007D04FF4FA6004F0D5FF09F055FB00F08C
:10738C0011FB934B1B68194688480BF085F9034693
:10739C00002B75D001F0BEF8864B1B68864A12682C
:1073AC00114618460AF052FE824B1B680122834993
:1073BC0018460AF083FD7F4B1B68814918460AF07A
:1073CC0045FE7C4B1B687F4A1268114618460AF032
:1073DC003DFE784B1B687C4A1168022218460AF065
:1073EC006DFD744B1B687B4A1268114618460AF0F7
:1073FC002DFE704B1B68784918460AF027FE6D4B22
:10740C001B68764918460AF021FE6A4B1B68744AC1
:10741C001268114618460AF019FE664B1B68714932
:10742C0018460AF013FE634B1B686F4A1168A022C2
:10743C0018460AF043FD5F4B1B685F4A1268114601
:10744C0018460AF003FE5B4B1B6801225B49184689
:10745C000AF034FD574B1B68594918460AF0F6FDE3
:10746C00544B1B68574A1268114618460AF0EEFD39
:10747C00504B1B68544A1168022218460AF01EFD34
:10748C005A4B1B68194649480BF006F90346002B6A
:10749C0075D001F03FF8474B1B68474A12681146FC
:1074AC0018460AF0D3FD434B1B680122434918468A
:1074BC000AF004FD3F4B1B68414918460AF0C6FD13
:1074CC003C4B1B683F4A1268114618460AF0BEFD39
:1074DC00384B1B683C4A1168022218460AF0EEFC35
:1074EC00344B1B683B4A1268114618460AF0AEFD35
:1074FC00304B1B68384918460AF0A8FD2D4B1B6809
:10750C00364918460AF0A2FD2A4B1B68384A126805
:10751C00114618460AF09AFD264B1B68314918464D
:10752C000AF094FD234B1B682F4A1168A0221846C1
:10753C000AF0C4FC1F4B1B681F4A12681146184600
:10754C000AF084FD1B4B1B6801221C4918460AF0EB
:10755C00B5FC184B1B681A4918460AF077FD154BF9
:10756C001B68184A1268114618460AF06FFD114B39
:10757C001B68154A1168022218460AF09FFC1D4B25
:10758C001B68194609480BF087F80346002B00F0DE
:10759C00A08000F0BFFF074B1B68074A126811461A
:1075AC0018460AF053FD27E014000020684500201F
:1075BC00200000203C4D00204C0000202C460108EF
:1075CC003046010818000020180100201C00002083
:1075DC002800002054000020883F00203846010875
:1075EC00A800002018450108240000202C000020D1
:1075FC00AC00002030000020AE4B1B680122AE49CD
:10760C0018460AF05BFCAB4B1B68AC4918460AF0F9
:10761C001DFDA84B1B68AA4A1268114618460AF0B1
:10762C0015FDA44B1B68A74A1168022218460AF0E4
:10763C0045FCA04B1B68A44A1268114618460AF078
:10764C0005FD9C4B1B68A14918460AF0FFFC994BA1
:10765C001B689F4918460AF0F9FC964B1B689D4A1B
:10766C001268114618460AF0F1FC924B1B689A49B5
:10767C0018460AF0EBFC8F4B1B68984A11684FF4C4
:10768C00967218460AF01AFC8A4B1B68944A1268C8
:10769C00114618460AF0DAFC864B1B680122864913
:1076AC0018460AF00BFC834B1B68844918460AF0F9
:1076BC00CDFC804B1B68824A1268114618460AF0B2
:1076CC00C5FC7C4B1B687F4A1168022218460AF0E5
:1076DC00F5FB844984480AF0DFFF0346002B38D0C1
:1076EC00824981480AF0F0FF814900200AF0ECFF42
:1076FC00024607F11803114618460AF0B4FF07F1C9
:10770C001803184600F0E8FF6A4B1B68744A1268AD
:10771C00114618460AF09AFC664B1B680122664912
:10772C0018460AF0CBFB634B1B68644918460AF0F9
:10773C008DFC604B1B68624A1268114618460AF0B1
:10774C0085FC5C4B1B685F4A1168022218460AF0E4
:10775C00B5FB684964480AF09FFF0346002B33D001
:10776C00624961480AF0B0FF614900200AF0ACFFA1
:10777C000346194660480AF076FF09F067F94D4B4D
:10778C001B68574A1268114618460AF05FFC494BB1
:10779C001B680122484918460AF090FB454B1B68B0
:1077AC00464918460AF052FC424B1B68444A126880
:1077BC00114618460AF04AFC3E4B1B68414A1168B8
:1077CC00022218460AF07AFB4C4947480AF064FF3B
:1077DC000346002B65D0454943480AF075FF4449E0
:1077EC0000200AF071FF024607F10C0311461846FF
:1077FC000AF039FF07F10C0318460AF027FE03467E
:10780C00184602F065FD03F007F902F039FF294B29
:10781C001B68334A1268114618460AF017FC254BB0
:10782C001B680122244918460AF048FB214B1B68AF
:10783C00334918460AF00AFC1E4B1B68204A126892
:10784C00114618460AF002FC1A4B1B681D4A1168B7
:10785C00022218460AF032FB164B1B68204A1268AB
:10786C00114618460AF0F2FB124B1B680122124912
:10787C0018460AF023FB0F4B1B68104918460AF0F8
:10788C00E5FB0C4B1B680E4A1268114618460AF0B1
:10789C00DDFB084B1B680B4A1168022218460AF0E4
:1078AC000DFB184910480AF0F7FE0346002B5DD07B
:1078BC002AE000BF3C4D00202C4601083046010850
:1078CC00180000201801002054000020883F0020E0
:1078DC0038460108B8000020184501082400002093
:1078EC004C0000203C460108684500204446010835
:1078FC001C46010848460108A00200205046010819
:10790C00CC0200205846010809F08EF802F05AFD0E
:10791C0002F00CFF012003F0E7F803F07DF802F011
:10792C00AFFE1A4B1B681A4A1268114618460AF029
:10793C008DFB164B1B680122164918460AF0BEFA3D
:10794C00124B1B68144918460AF080FB0F4B1B683E
:10795C00124A1268114618460AF078FB0B4B1B684A
:10796C000F4A1168022218460AF0A8FAD7F8942098
:10797C007B689A42FFF637AAD7F89030012B3FF478
:10798C0032AA00BF00BF9C37BD4690BD3C4D0020C5
:10799C004C0000202C46010830460108180000203D
:1079AC001801002080B500AFAC4B1B68AC4A1268C4
:1079BC00114618460AF04AFBA84B1B680122A9493C
:1079CC0018460AF07BFAA54B1B68A74918460AF023
:1079DC003DFBA24B1B68A54918460AF037FB9F4B91
:1079EC001B68A34918460AF031FB9C4B1B68A14A43
:1079FC001268114618460AF029FB984B1B689E4AE0
:107A0C001168042218460AF059FA322004F08AFC54
:107A1C00924B1B68924A1268114618460AF016FBE4
:107A2C008E4B1B6801228F4918460AF047FA8B4B84
:107A3C001B68924918460AF009FB884B1B68904951
:107A4C0018460AF003FB854B1B68894918460AF057
:107A5C00FDFA824B1B68874A1268114618460AF0D9
:107A6C00F5FA7E4B1B68844A1168042218460AF00A
:107A7C0025FA322004F056FC784B1B68784A1268C1
:107A8C00114618460AF0E2FA744B1B68012275493C
:107A9C0018460AF013FA714B1B687A4918460AF01B
:107AAC00D5FA6E4B1B68784918460AF0CFFA6B4B27
:107ABC001B686F4918460AF0C9FA684B1B686D4A77
:107ACC001268114618460AF0C1FA644B1B686A4AE0
:107ADC001168042218460AF0F1F9322004F022FC55
:107AEC005E4B1B685E4A1268114618460AF0AEFAE5
:107AFC005A4B1B6801225B4918460AF0DFF9574BB9
:107B0C001B68624918460AF0A1FA544B1B6860497D
:107B1C0018460AF09BFA514B1B68554918460AF057
:107B2C0095FA4E4B1B68534A1268114618460AF0D8
:107B3C008DFA4A4B1B68504A1168042218460AF009
:107B4C00BDF9322004F0EEFB444B1B68444A12682A
:107B5C00114618460AF07AFA404B1B68012241493B
:107B6C0018460AF0ABF93D4B1B684A4918460AF017
:107B7C006DFA3A4B1B68484918460AF067FA374BBE
:107B8C001B68464918460AF061FA344B1B68444995
:107B9C0018460AF05BFA314B1B68354918460AF057
:107BAC0055FA2E4B1B68334A1268114618460AF0D8
:107BBC004DFA2A4B1B68304A1168042218460AF009
:107BCC007DF9322004F0AEFB244B1B68244A12686A
:107BDC00114618460AF03AFA204B1B68012221493B
:107BEC0018460AF06BF91D4B1B682E4918460AF013
:107BFC002DFA1A4B1B682C4918460AF027FA174B1A
:107C0C001B681B4918460AF021FA144B1B68194AC9
:107C1C001268114618460AF019FA104B1B68164ADE
:107C2C001168042218460AF049F9322004F07AFB54
:107C3C000A4B1B680A4A1268114618460AF006FAE3
:107C4C00064B1B680122074918460AF037F9034B0B
:107C5C001B68164918460AF0F9F929E03C4D00203A
:107C6C004C0000202C46010860460108D83C00203E
:107C7C001C46010818000020180100206846010865
:107C8C00F43D002070460108980300207846010856
:107C9C000844002088460108CC02002090460108C8
:107CAC00F804002098460108D43D0020A0460108A5
:107CBC00AC4B1B68AC4918460AF0C8F9A94B1B68B9
:107CCC00AA4918460AF0C2F9A64B1B68A84A1268C2
:107CDC00114618460AF0BAF9A24B1B68A54A11685E
:107CEC00042218460AF0EAF8322004F01BFB9D4BE4
:107CFC001B68A14A1268114618460AF0A7F9994B5D
:107D0C001B6801229D4918460AF0D8F8954B1B6850
:107D1C009B4918460AF09AF9924B1B6899491846E8
:107D2C000AF094F98F4B1B68904918460AF08EF9AB
:107D3C008C4B1B688E4A1268114618460AF086F95D
:107D4C00884B1B688B4A1168042218460AF0B6F857
:107D5C00322004F0E7FA834B1B68874A12681146FD
:107D6C0018460AF073F97F4B1B68012283491846A9
:107D7C000AF0A4F87B4B1B68834918460AF066F995
:107D8C00784B1B68814918460AF060F9754B1B68E3
:107D9C00764918460AF05AF9724B1B68744A1268F5
:107DAC00114618460AF052F96E4B1B68714A11685D
:107DBC00042218460AF082F8322004F0B3FA694B18
:107DCC001B686D4A1268114618460AF03FF9654B5C
:107DDC001B680122694918460AF070F8614B1B6850
:107DEC006B4918460AF032F95E4B1B686949184614
:107DFC000AF02CF95B4B1B685C4918460AF026F913
:107E0C00584B1B685A4A1268114618460AF01EF95C
:107E1C00544B1B68574A1168042218460AF04EF856
:107E2C00322004F07FFA4F4B1B68534A12681146FC
:107E3C0018460AF00BF94B4B1B6801224F491846A8
:107E4C000AF03CF8474B1B68534918460AF0FEF8F9
:107E5C00444B1B68514918460AF0F8F8414B1B6813
:107E6C00424918460AF0F2F83E4B1B68404A126829
:107E7C00114618460AF0EAF83A4B1B683D4A11685D
:107E8C00042218460AF01AF8322004F04BFA354B4B
:107E9C001B68394A1268114618460AF0D7F8314B5C
:107EAC001B680122354918460AF008F82D4B1B684F
:107EBC003B4918460AF0CAF82A4B1B683949184640
:107ECC000AF0C4F8274B1B68284918460AF0BEF87C
:107EDC00244B1B68264A1268114618460AF0B6F85D
:107EEC00204B1B68234A11680422184609F0E6FF50
:107EFC00322004F017FA1B4B1B681F4A12681146FC
:107F0C0018460AF0A3F8174B1B6801221B491846A8
:107F1C0009F0D4FF134B1B68234918460AF096F856
:107F2C00104B1B68214918460AF090F80D4B1B6842
:107F3C000E4918460AF08AF80A4B1B680C4A12685C
:107F4C00114618460AF082F8064B1B68094A11685C
:107F5C000422184609F0B2FF322004F0E3F9014B79
:107F6C001B6825E03C4D0020900200201C460108B7
:107F7C0018000020180100204C0000202C4601089D
:107F8C00A8460108AC410020B0460108B802002008
:107F9C00B8460108F8430020C0460108AC02002096
:107FAC00C8460108EC430020D04601086C41002073
:107FBC00AD4A1268114618460AF048F8AB4B1B68DC
:107FCC000122AB49184609F079FFA84B1B68A94957
:107FDC0018460AF03BF8A54B1B68A74918460AF04F
:107FEC0035F8A24B1B68A54918460AF02FF89F4B91
:107FFC001B68A34A1268114618460AF027F89B4BD7
:10800C001B68A04A11680422184609F057FF322059
:10801C0004F088F9954B1B68934A12681146184670
:10802C000AF014F8914B1B6801229149184609F08B
:10803C0045FF8E4B1B68944918460AF007F88B4B8A
:10804C001B68924918460AF001F8884B1B688B494B
:10805C00184609F0FBFF854B1B68894A12681146CC
:10806C00184609F0F3FF814B1B68864A11680422FD
:10807C00184609F023FF322004F054F97B4B1B689F
:10808C00794A12681146184609F0E0FF774B1B68D5
:10809C0001227749184609F011FF744B1B687C4983
:1080AC00184609F0D3FF714B1B687A49184609F042
:1080BC00CDFF6E4B1B687149184609F0C7FF6B4B1F
:1080CC001B686F4A12681146184609F0BFFF674BD0
:1080DC001B686C4A11680422184609F0EFFE322026
:1080EC0004F020F9614B1B685F4A12681146184670
:1080FC0009F0ACFF5D4B1B6801225D49184609F085
:10810C00DDFE5A4B1B686449184609F09FFF574B1C
:10811C001B686249184609F099FF544B1B68574974
:10812C00184609F093FF514B1B68554A12681146CB
:10813C00184609F08BFF4D4B1B68524A11680422FC
:10814C00184609F0BBFE322004F0ECF8474B1B68D4
:10815C00454A12681146184609F078FF434B1B68D4
:10816C0001224349184609F0A9FE404B1B684C49B3
:10817C00184609F06BFF3D4B1B684A49184609F03D
:10818C0065FF3A4B1B683D49184609F05FFF374BBA
:10819C001B683B4A12681146184609F057FF334BCF
:1081AC001B68384A11680422184609F087FE3220F1
:1081BC0004F0B8F82D4B1B682B4A12681146184670
:1081CC0009F044FF294B1B6801222949184609F084
:1081DC0075FE264B1B683449184609F037FF234BB4
:1081EC001B683249184609F031FF204B1B682349A4
:1081FC00184609F02BFF1D4B1B68214A12681146CB
:10820C00184609F023FF194B1B681E4A11680422FB
:10821C00184609F053FE322004F084F8134B1B6807
:10822C00114A12681146184609F010FF0F4B1B68D3
:10823C0001220F49184609F041FE0C4B1B681C49E2
:10824C00184609F003FF094B1B681A4A12681146BD
:10825C00184609F0FBFE054B1B680849184609F047
:10826C00F5FE024B1B6827E04C0000203C4D002023
:10827C002C460108D8460108E43C00201C460108A5
:10828C001800002018010020E04601081C04002002
:10829C00E846010868020020F04601082843002047
:1082AC00F84601087C3D002000470108B00400207E
:1082BC000847010800000020874A1268114618463A
:1082CC0009F0C4FE854B1B68854A116804221846C8
:1082DC0009F0F4FD322004F025F8804B1B68814A2C
:1082EC0012681146184609F0B1FE7C4B1B6801223E
:1082FC007D49184609F0E2FD784B1B687B4918460E
:10830C0009F0A4FE754B1B68794A12681146184691
:10831C0009F09CFE714B1B687649184609F096FED5
:10832C006E4B1B686C4A12681146184609F08EFE9B
:10833C006A4B1B686A4A11680422184609F0BEFD94
:10834C00322003F0EFFF654B1B68664A126811463A
:10835C00184609F07BFE614B1B68012262491846E6
:10836C0009F0ACFD5D4B1B686349184609F06EFEC5
:10837C00624B31221A70594B1B686049184609F040
:10838C0065FE564B1B685B49184609F05FFE534B64
:10839C001B68514A12681146184609F057FE4F4B9C
:1083AC001B684F4A11680422184609F087FD3220D9
:1083BC0003F0B8FF494B1B684A4A1268114618462D
:1083CC0009F044FE454B1B6801224749184609F049
:1083DC0075FD424B1B684A49184609F037FE3F4B66
:1083EC001B684849184609F031FE3C4B1B68414953
:1083FC00184609F02BFE394B1B68374A1268114698
:10840C00184609F023FE354B1B68354A11680422C7
:10841C00184609F053FD322003F084FF2F4B1B68E4
:10842C00304A12681146184609F010FE2B4B1B6897
:10843C0001222D49184609F041FD284B1B68324991
:10844C00184609F003FE254B1B683049184609F005
:10845C00FDFD224B1B682749184609F0F7FD1F4B01
:10846C001B681D4A12681146184609F0EFFD1B4B9C
:10847C001B681B4A11680422184609F01FFD3220A4
:10848C0003F050FF154B1B68164A1268114618462C
:10849C0009F0DCFD114B1B6801221349184609F049
:1084AC000DFD0E4B1B681A49184609F0CFFD0B4BFE
:1084BC001B68094A12681146184609F0C7FD074B9C
:1084CC001B68074A11680422184609F0F7FC322091
:1084DC0003F028FF00BF80BD180000203C4D002099
:1084EC00180100204C0000202C4601081047010800
:1084FC00040000201C4601081847010850430020C6
:10850C0020470108A00400202C470108D840002077
:10851C003C47010880B58AB000AF424B1B68424A09
:10852C0012681146184609F091FD3E4B1B683F4AF4
:10853C0011680122184609F05FFD3D493D480AF0DB
:10854C00C3F8786266E03C49786A0AF0A5F80346FD
:10855C00002B5AD03949786A0AF0B6F8384900200D
:10856C000AF0B2F80346194636480AF07CF8364948
:10857C0000200AF0A9F8324900200AF0A5F80246BA
:10858C003B1D114618460AF06EF8264B1B68264A0E
:10859C0012681146184609F059FD224B1B68234AF4
:1085AC0011680122184609F027FD214921480AF0DB
:1085BC008BF8786226E03B1D1946786A0AF06CF855
:1085CC000346002B19D02149786A0AF065F8034656
:1085DC00002B12D01949786A0AF076F81849002055
:1085EC000AF072F80346194619480AF03CF8164985
:1085FC0000200AF069F8012310E00D4900200AF070
:10860C0063F878627B6A002BD5D1094900200AF007
:10861C005BF878627B6A002B95D1002318462837CB
:10862C00BD4680BD3C4D00205000002018010020AC
:10863C0018450108684500204447010848470108CF
:10864C0038460108B83E00204C4701085047010845
:10865C00883F002080B500AFFFF75CFF154B1B680F
:10866C001549184609F0F2FC124B1B6813491846C1
:10867C0009F0ECFC0F4B1B68114A126811461846A6
:10868C0009F0E4FC0B4B1B680E4A116802221846D9
:10869C0009F014FC0C490D480AF016F80C4900209E
:1086AC000AF012F8034619460A4809F0DCFF00BF2D
:1086BC0080BD00BF3C4D002054470108B83E00204F
:1086CC0034010020180100204847010868450020AB
:1086DC0018450108A004002080B582B000AF786076
:1086EC00164B1B681649184609F0B0FC134B1B6857
:1086FC007968184609F0AAFC104B1B6811491846FA
:10870C0009F0A4FC0D4B1B680F4A12681146184661
:10871C0009F09CFC094B1B680C4A11680522184691
:10872C0009F0CCFB054B1B68074A1168142218464C
:10873C0009F0C4FB00BF0837BD4680BD3C4D00208E
:10874C00604701086447010834010020180100202B
:10875C00B0B584B004AF164B1B68002215491846FF
:10876C0006F0E1F9124B1B6800221349184606F07B
:10877C00D5FA114BDB781C460F4B5B781D460E4B24
:10878C009B781A460B4B1B7819460A4B5B7818469C
:10879C00084B9B7803930290019100922B46224642
:1087AC000649074809F0B4FE00BFBD46B0BD00BF86
:1087BC006445002054020020BC400020684701089A
:1087CC006802002080B58AB004AF07F1100107F1F0
:1087DC0014023B4603933B1D029307F108030193DC
:1087EC0007F10C0300930B461649174809F0B0FE2D
:1087FC007B69DAB2154BDA703B69DAB2134B5A70FB
:10880C00FB68DAB2114B9A70BB68DAB2104B1A7073
:10881C007B68DAB20E4B5A703B68DAB20C4B9A702A
:10882C000C4B1B6800220A49184606F0C8F8094B85
:10883C001B6800220549184606F0D2F900BF18370C
:10884C00BD4680BD8847010868020020BC4000205E
:10885C00540200206445002080B582B000AF7860DF
:10886C000E4B1B680E49184609F0F0FB0B4B1B68AE
:10887C007968184609F0EAFB084B1B680949184649
:10888C0009F0E4FB054B1B68074A116805221846E2
:10889C0009F0B2FB00BF0837BD4680BD3C4D00203F
:1088AC00A0470108D84701081801002080B588B0FE
:1088BC0000AF78600023FB6107F10C030A22194614
:1088CC00F86909F00DFE404B00221A703F4B1B68F3
:1088DC003F49184609F0BAFB3C4B1B6879681846AF
:1088EC0009F0B4FB394B1B683A49184609F0AEFB4A
:1088FC00364B1B6807F10C021146184609F0A6FB13
:10890C00324B1B68344A12681146184609F09EFB1C
:10891C002E4B1B68314A11680122184609F0CEFA19
:10892C000346332B44D100234AE02D4BBB61B8697D
:10893C00FCF728FC0346063BBA69134400221A7064
:10894C00B969214809F073FEFB693233FB6107F109
:10895C000C030A221946F86909F0C2FD1B4B1B686F
:10896C001B49184609F072FB184B1B6879681846AE
:10897C0009F06CFB154B1B681649184609F066FB91
:10898C00124B1B6807F10C021146184609F05EFBEE
:10899C000E4B1B68104A12681146184609F056FB1C
:1089AC000A4B1B680D4A11680122184609F086FA19
:1089BC000C490D4809F070FE0346002BB5D001237D
:1089CC0018462037BD4680BDC81500203C4D002000
:1089DC00B0470108DC4701083401002018010020D1
:1089EC006A450020E44701086845002080B584B042
:1089FC0000AF78607868FFF72FFF3548FCF7C2FBB3
:108A0C000346184607F108030A22194609F068FDC7
:108A1C00304B1B68304A12681146184609F016FB99
:108A2C002C4B1B687968184609F010FB294B1B6806
:108A3C002A4A12681146184609F008FB254B1B6898
:108A4C00274A12681146184609F000FB214B1B6897
:108A5C00224A12681146184609F0F8FA1D4B1B6899
:108A6C0007F108021146184609F0F0FA194B1B6879
:108A7C001A4A12681146184609F0E8FA154B1B6899
:108A8C00184A12681146184609F0E0FA114B1B6897
:108A9C00154A12681146184609F0D8FA0D4B1B6896
:108AAC00124A11680522184609F0A6FA094B1B68F0
:108ABC000749184609F0D0F9064B1B680C4A116897
:108ACC000522184609F098FA00BF1037BD4680BD44
:108ADC00C81500203C4D002060000020380100200B
:108AEC006400002068000020340100205C0000209D
:108AFC001801002080B586B000AFF860B9607A60CC
:108B0C0007F110030A221946786809F0E9FC344B86
:108B1C001B68344A12681146184609F097FA304B14
:108B2C001B68F968184609F091FA2D4B1B682E4A00
:108B3C0012681146184609F089FA294B1B682B4913
:108B4C00184609F083FA264B1B68274A126811460F
:108B5C00184609F07BFA224B1B6807F110021146EC
:108B6C00184609F073FA1E4B1B681F4A126811460F
:108B7C00184609F06BFA1A4B1B681D4A126811460D
:108B8C00184609F063FA164B1B681A4A126811460C
:108B9C00184609F05BFA124B1B68174A116805223C
:108BAC00184609F08BF90346332B01D1002313E04F
:108BBC000B4B1B68B968184609F04EF9084B1B683B
:108BCC000E4A11680B22184609F078F90346332B2C
:108BDC0001D1002300E0012318461837BD4680BDA3
:108BEC003C4D00206000002038010020EC470108BB
:108BFC0068000020340100205C00002018010020D7
:108C0C0080B400AFBFF34F8F00BF064BDB6803F49B
:108C1C00E0620449044B1343CB60BFF34F8F00BF9A
:108C2C0000BFFDE700ED00E00400FA0580B500AFE1
:108C3C004B4B1B68382B40F090804A4B1B684A4AC0
:108C4C0012681146184609F001FA464B1B68474951
:108C5C00184609F0FBF9434B1B684549184609F0C7
:108C6C00F5F9404B1B684349184609F0EFF93D4BA9
:108C7C001B68414A11680122184609F0BDF9394BAD
:108C8C001B683E4A12681146184609F0DFF9354B4D
:108C9C001B68394A11680122184609F0ADF9314BAD
:108CAC001B68374A12681146184609F0CFF92D4B4C
:108CBC001B68344A11683222184609F0FFF8034643
:108CCC00332B01D1002349E04FF47A7003F02AFBD7
:108CDC00244B1B682C4A12681146184609F0B6F949
:108CEC00204B1B68244A11680522184609F084F9A8
:108CFC002649274809F0B7FC1A4B1B68254A11680E
:108D0C003C22184609F0DAF8234B00221A60234B58
:108D1C0000221A60224B00221A6022491C4809F0DA
:108D2C00BBFC0346002B02D01B4B01221A601E49D0
:108D3C00174809F0B1FC0346002B02D0174B012257
:108D4C001A601A49124809F0A7FC0346002B02D0FE
:108D5C00134B01221A60012300E00023184680BD4A
:108D6C005C0100203C4D0020900000204C49010883
:108D7C007C3D002054490108180100208C00002083
:108D8C00940000206C000020980000206845002012
:108D9C00C81500203401002008410020AC0400203C
:108DAC00843F00205C4901086849010874490108A6
:108DBC0080B500AF444B1B68444A126811461846F4
:108DCC0009F044F9404B1B68414A116801221846CE
:108DDC0009F012F93C4B1B683E4A126811461846C2
:108DEC0009F034F9384B1B683B49184609F02EF949
:108DFC00354B1B68394A12681146184609F026F99A
:108E0C00314B1B68324A11680122184609F0F4F8FC
:108E1C002D4B1B68324A12681146184609F016F998
:108E2C00294B1B682F49184609F010F9264B1B6873
:108E3C002A4A12681146184609F008F9224B1B6899
:108E4C00234A11680122184609F0D6F81E4B1B68FC
:108E5C00254A12681146184609F0F8F81A4B1B6897
:108E6C002249184609F0F2F8174B1B681B4A126886
:108E7C001146184609F0EAF8134B1B68144A11689E
:108E8C000122184609F0B8F80F4B1B68184A1268F3
:108E9C001146184609F0DAF80B4B1B6815491846B1
:108EAC0009F0D4F8084B1B680C4A12681146184696
:108EBC0009F0CCF8044B1B68054A116801221846CE
:108ECC0009F09AF800BF80BD3C4D002074000020D2
:108EDC001801002078000020E03D002088000020D0
:108EEC007C000020500400208000002094400020D2
:108EFC0084000020B4030020B0B500AFFFF796FE4D
:108F0C00934B1B68012B49D1924B1B689249184615
:108F1C0009F09CF88F4B1B68904A11680122184687
:108F2C0009F06AF88B4B1B688D4A1268114618467B
:108F3C0009F08CF8874B1B68884A11680122184687
:108F4C0009F05AF8834B1B68864A11684FF49672E5
:108F5C00184608F0B3FF0346322B1FD17D4B1B681C
:108F6C008149184609F072F87A4B1B687B4A1168E4
:108F7C000122184609F040F8764B1B681E227B49EB
:108F8C00184608F09BFF7A48FFF790FC794B1B685A
:108F9C001846FFF72BFD012001F080F8764B1B687B
:108FAC00012B49D16B4B1B687449184609F04EF8DC
:108FBC00684B1B68694A11680122184609F01CF8B5
:108FCC00644B1B686E4A12681146184609F03EF84D
:108FDC00604B1B68614A11680122184609F00CF8B5
:108FEC005C4B1B685F4A11684FF4C872184608F056
:108FFC0065FF0346322B1FD1564B1B685A49184646
:10900C0009F024F8534B1B68544A11680122184686
:10901C0008F0F2FF4F4B1B681E225449184608F00B
:10902C004DFF5348FFF742FC524B1B681846FFF7A5
:10903C00DDFC012001F03FF8524B1B68012B40F086
:10904C008580444B1B685049184608F0FFFF414B84
:10905C001B68424A11680122184608F0CDFF3D4BAF
:10906C001B684A4A12681146184608F0EFFF394B44
:10907C001B683A4A11680122184608F0BDFF354BAF
:10908C001B68384A11684FF4FA62184608F016FF4C
:10909C000346322B5AD12F4B1B683349184608F024
:1090AC00D5FF2C4B1B682D4A11680122184608F07D
:1090BC00A3FF284B1B681E222C49184608F0FEFE05
:1090CC00334A344B15461C460FCC28606960AA60A5
:1090DC00EB602068286123792B752F48FFF786FCFD
:1090EC0008F056F904F04CF82C4A2D49022004F0F3
:1090FC0073F804F061F84FF47A7003F013F9154B20
:10910C001B68184606F090FF264B1B68184606F0A5
:10911C008BFF254B1B68184606F086FF0D4B1B6812
:10912C00184606F04CFE1F4B1B68184606F047FE0F
:10913C001D4B1B68184606F042FE04F061FC03F060
:10914C0077F8642003F0EEF8FFF75AFD00BFB0BDCE
:10915C00084100203C4D00208449010818010020E2
:10916C009C00002070000020A4490108B4490108AB
:10917C00C4490108A8000020AC040020D84901080B
:10918C00A0000020843F0020F4490108A400002026
:10919C00C8150020144A01082C4A0108DEC0EDFE57
:1091AC0000010808844400208844002080B500AFEA
:1091BC000D4B1B680D4A934213D103F0E1FF0C4A8F
:1091CC000949022004F008F803F0F6FF03F0D8FF79
:1091DC00074A0549022003F0FFFF03F0EDFFFFF7FC
:1091EC000FFD00BF80BD00BF00010808DEC0EDFE12
:1091FC00DDC0EDFE80B500AF1F4B1B681F4A9342CC
:10920C0037D01F4B1B681F49184608F025FE1C4B16
:10921C001B681D4A11680222184608F04FFE184BB5
:10922C001B681A49184608F017FE154B1B68164A9E
:10923C0011680222184608F041FE00F0C5FD00F04E
:10924C0021FA00F0FDFE00F063FD02F0CBFF03F00D
:10925C0097FF0A4A0849022003F0BEFF03F0ACFF57
:10926C0003F08EFF054A0449022003F0B5FF03F01A
:10927C00A3FF00BF80BD00BF00020808DEC0EDFEEA
:10928C003C4D0020A44A010818010020B84A0108EE
:10929C0080B5ADF5836D08AF3B1D18603B1D1B6899
:1092AC00002B05D1C24B1B681846FFF7FFFA04E0F0
:1092BC00C04B1B681846FFF7F9FABF49BF4809F0C5
:1092CC00EBF9C7F8F403D7F8F433002B1AD0D7F81E
:1092DC00F4339A1D07F10C031146184609F0C3F933
:1092EC0007F10C03B649184609F0C5F9024607F117
:1092FC000C030021995407F10C03B24AB2491846E9
:10930C0009F026F9B149AD4809F0C6F9C7F8F403DC
:10931C00D7F8F433002B1CD0D7F8F433DA1D07F14F
:10932C000C031146184609F09EF907F10C03A449E9
:10933C00184609F0A0F9024607F10C0300219954D4
:10934C0007F10C00A24B0093A24BA34AA34909F0CE
:10935C00FFF8A349994809F09FF9C7F8F403D7F827
:10936C00F433002B22D0D7F8F4331A1D07F10C0379
:10937C001146184609F077F907F10C039049184685
:10938C0009F079F9024607F10C030021995407F111
:10939C000C00944B0393944B0293944B0193944B7A
:1093AC000093944B944A954909F0D2F89449834818
:1093BC0009F072F9C7F8F403D7F8F433002B1ED078
:1093CC00D7F8F4331A1D07F10C031146184609F0AF
:1093DC004AF907F10C037A49184609F04CF9024690
:1093EC0007F10C030021995407F10C00854B0193F4
:1093FC00854B0093854B864A864909F0A9F8864926
:10940C006E4809F049F9C7F8F403D7F8F433002B88
:10941C002AD0D7F8F4335A1D07F10C03114618461D
:10942C0009F021F907F10C036549184609F023F9F5
:10943C00024607F10C030021995407F10C00774BFD
:10944C000793774B0693774B0593774B0493774BA6
:10945C000393774B0293774B0193774B0093774BA6
:10946C00774A784909F074F87749544809F014F9A7
:10947C00C7F8F403D7F8F433002B24D0D7F8F4331F
:10948C001A1D07F10C031146184609F0ECF807F108
:10949C000C034B49184609F0EEF8024607F10C0391
:1094AC000021995407F10C00684B0493684B03930B
:1094BC00684B0293684B0193684B0093684B694A65
:1094CC00694909F045F869493C4809F0E5F8C7F8DD
:1094DC00F403D7F8F433002B1AD0D7F8F4339A1DD1
:1094EC0007F10C031146184609F0BDF807F10C03FF
:1094FC003349184609F0BFF8024607F10C03002166
:10950C00995407F10C035A4A2F49184609F020F8D0
:10951C0058492A4809F0C0F8C7F8F403D7F8F433CF
:10952C00002B1AD0D7F8F4339A1D07F10C0311460F
:10953C00184609F098F807F10C032149184609F070
:10954C009AF8024607F10C030021995407F10C0319
:10955C00494A1D49184608F0FBFF4849174809F0CD
:10956C009BF8C7F8F403D7F8F433002B1AD0D7F8CC
:10957C00F4339A1D07F10C031146184609F073F8E1
:10958C0007F10C030E49184609F075F8024607F16D
:10959C000C030021995407F10C03394A0A49184667
:1095AC0008F0D6FF00BF07F57E77BD4680BD00BF33
:1095BC00A8000020B0000020484B0108C81500206E
:1095CC00504B0108003E0020544B0108584B010839
:1095DC0008440020A0020020D8400020604B010865
:1095EC00704B01086C3D0020E44000201444002026
:1095FC00400200202C3E002034020020744B010855
:10960C00984B0108C4040020E04300200C410020CA
:10961C008C3F00209C4B0108B44B010812420020E7
:10962C0008420020CC400020F8400020503E002092
:10963C00C0400020143E002018410020FC410020B6
:10964C00183D0020BC4B0108F84B0108C63E002019
:10965C00BC3E0020A8030020B4030020944000204E
:10966C0050040020E03D0020FC4B0108284C010870
:10967C006C410020304C0108E43C0020384C0108BF
:10968C001C04002080B582B000AFBE4BBE4A1068EF
:10969C0018609188927999809A71BC49B94808F000
:1096AC00C6FFB848FBF76EFD03461A46B54B13448C
:1096BC00B74A10681860B348FBF764FD03461A46B6
:1096CC00B04B1344B3491A460B4603CB10605160A0
:1096DC00B149AC4808F0ABFFAA48FBF753FD034671
:1096EC001A46A84B1344AD491A460B461B881380E7
:1096FC00AB49A44808F09BFFA248FBF743FD034687
:10970C001A46A04B1344A5491A460B461B881380D6
:10971C00A4499C4808F08BFF9A48FBF733FD03469D
:10972C001A46984B13449A4A106818609548FBF7F0
:10973C0029FD03461A46934B13449B4A1068186044
:10974C0012791A7199498F4808F071FF8D48FBF70F
:10975C0019FD03461A468B4B134490491A460B4687
:10976C001B8813809249874808F061FF8548FBF7F6
:10977C0009FD03461A46834B134488491A460B4687
:10978C001B8813808B497F4808F051FF7D48FBF7FD
:10979C00F9FC03461A467B4B134480491A460B4688
:1097AC001B8813808449774808F041FF7548FBF704
:1097BC00E9FC03461A46734B1344754A106818604B
:1097CC007048FBF7DFFC03461A466E4B13447B4A8A
:1097DC001068186012791A7179496A4808F027FFE5
:1097EC006848FBF7CFFC03461A46664B13446B499B
:1097FC001A460B461B8813807249624808F017FF03
:10980C006048FBF7BFFC03461A465E4B13446349A2
:10981C001A460B461B8813806B495A4808F007FF01
:10982C005848FBF7AFFC03461A46564B13445B49AA
:10983C001A460B461B8813806449524808F0F7FE01
:10984C005048FBF79FFC03461A464E4B13445349B2
:10985C001A460B461B8813805D494A4808F0E7FE00
:10986C004848FBF78FFC03461A46464B13444B49BA
:10987C001A460B461B8813805649424808F0D7FEFF
:10988C004048FBF77FFC03461A463E4B1344404AC4
:10989C00106818603B48FBF775FC03461A46394BB9
:1098AC0013444D4A1068186092889A804B49354889
:1098BC0008F0BDFE3348FBF765FC03461A46314BF6
:1098CC00134436491A460B461B88138044492D48CD
:1098DC0008F0ADFE2B48FBF755FC03461A46294B06
:1098EC0013442E491A460B461B8813803D492548C4
:1098FC0008F09DFE2348FBF745FC03461A46214B16
:10990C00134426491A460B461B88138036491D48BA
:10991C0008F08DFE1B48FBF735FC03461A46194B25
:10992C0013441E491A460B461B8813802F491548B1
:10993C0008F07DFE1348FBF725FC03461A46114B35
:10994C00134416491A460B461B88138028490D48A8
:10995C0008F06DFE0B48FBF715FC03461A46094B45
:10996C0013440E491A460B461B881380214905489F
:10997C0008F05DFE0348FBF705FC03461A46014B55
:10998C00134439E0C8150020404C0108003E00206B
:10999C00484C01084C4C0108D8400020544C01089C
:1099AC00A002002008440020584C01088C3F0020E5
:1099BC000C410020E0430020C4040020604C01084E
:1099CC00340200202C3E00204002002014440020D1
:1099DC00E44000206C3D0020684C0108183D00203C
:1099EC00FC41002018410020143E0020C040002003
:1099FC00503E0020F84000208A491A460B461B882E
:109A0C0013808949894808F012FE00237B6018E016
:109A1C008648FBF7B7FB03461A46844B134481492F
:109A2C001A460B461B8813807A68531C7B601346BE
:109A3C009B0013445B007E4A134419467B4808F094
:109A4C00F6FD7B497A6813469B0013445B000B447C
:109A5C001B78002BDCD17548FBF794FB03461A46A8
:109A6C00724B1344734A106818607048FBF78AFBFA
:109A7C0003461A466D4B13446F4A106818601279EE
:109A8C001A716E49694808F0D2FD6848FBF77AFBF9
:109A9C0003461A46654B134462491A460B461B880B
:109AAC0013806749614808F0C2FD6048FBF76AFB08
:109ABC0003461A465D4B13445A491A460B461B88FB
:109ACC0013806049594808F0B2FD5848FBF75AFB1F
:109ADC0003461A46554B134452491A460B461B88EB
:109AEC0013805949514808F0A2FD5048FBF74AFB36
:109AFC0003461A464D4B13444A491A460B461B88DB
:109B0C0013805249494808F092FD00237B6018E00D
:109B1C004648FBF737FB03461A46444B134441496E
:109B2C001A460B461B8813807A68531C7B601346BD
:109B3C009B0013445B00464A134419463B4808F00B
:109B4C0076FD43497A6813469B0013445B000B4433
:109B5C001B78002BDCD13548FBF714FB03461A4667
:109B6C00324B1344334A106818603048FBF70AFB39
:109B7C0003461A462D4B1344364A106818609188D8
:109B8C00927999809A713449284808F050FD2748F9
:109B9C00FBF7F8FA03461A46244B1344254A10687F
:109BAC0018602248FBF7EEFA03461A461F4B134483
:109BBC002A4A106818609188927999809A7128497C
:109BCC001A4808F034FD1948FBF7DCFA03461A462C
:109BDC00164B1344174A106818601448FBF7D2FA56
:109BEC0003461A46114B13441E4A1068186091889C
:109BFC00927999809A711C490C4808F018FD0B4811
:109C0C00FBF7C0FA03461A46084B1344094A10687E
:109C1C001860164B1B681846FEF7E8FE00BF0837A5
:109C2C00BD4680BD544C0108CC400020C815002016
:109C3C0008420020484C0108704C0108E03D00200F
:109C4C005004002094400020B4030020A8030020FE
:109C5C00BC3E0020784C01086C410020804C01086F
:109C6C00E43C0020884C01081C040020A8000020C3
:109C7C0090B585B000AF78600023FB607B68002B4B
:109C8C0005D11D4B1B681846FEF710FE04E01B4B5C
:109C9C001B681846FEF70AFE19491A4808F014FD0D
:109CAC00B8600EE0FC68631CFB60B86808F0D2FB7F
:109CBC000346154A42F824301149002008F004FDEF
:109CCC00B860BB68002BEDD10F4AFB684FF0FF3139
:109CDC0042F8231004E00C4AFB680C4942F82310AC
:109CEC00FB685A1CFA6040F2E6329342F3DD00BF87
:109CFC0000BF1437BD4690BDAC000020B40000205E
:109D0C00544C0108C81500202406002018FCFFFF45
:109D1C0080B584B000AF0023FB60264B00221A7084
:109D2C00FB685A1CFA60244A52F8233039460A223E
:109D3C00184608F0D5FB3B4619461E4808F077FC40
:109D4C001BE0FB685A1CFA601B4A52F82330394658
:109D5C000A22184608F0C4FB1648FBF713FA034610
:109D6C001A46144B134415491A460B461B8813808C
:109D7C003B4619460F4808F05AFC0F4AFB6852F84C
:109D8C002330B3F1FF3FDCD10A48FBF7FBF9034664
:109D9C001A46084B13440A491A460B461B88138073
:109DAC00084B1B681846FEF721FE00BF1037BD4656
:109DBC0080BD00BFC815002024060020544C0108AB
:109DCC00504B0108AC000020B0B400AF614B624AAC
:109DDC001068186012791A71604B614A106818602B
:109DEC009188927999809A715E4A5F4B1B88138097
:109DFC005E4A5D4B1B8813805D4B5E4A11889278DE
:109E0C0019809A705C4A5D4B1B8813805C4A5B4BD3
:109E1C001B8813805B4A5C4B1B8813805B4A5C4B32
:109E2C0014461D460FCD20606160A260E360594B63
:109E3C00594A1068186012791A71584B584A1068B0
:109E4C00186012791A71574B574A1068186092882B
:109E5C009A80564A564B1B881380564A424B1B8895
:109E6C001380554B554A1188927819809A70544B2F
:109E7C00524A1188927819809A70524B524A106843
:109E8C00186012791A71514B514A10681860127986
:109E9C001A71504B504A10681860504B504A106859
:109EAC001860504A504B144607CB20606160A2608A
:109EBC001A889B78A281A3734C4B4D4A11889278D7
:109ECC0019809A704B4A4C4B14461D460FCD20609E
:109EDC006160A260E360494A494B03CB106051605A
:109EEC001B781372474A254B1B881380464B3A4A02
:109EFC0010681860454B464A1188927819809A7000
:109F0C00444A194B1B881380434A174B1B881380F8
:109F1C00424A154B1B881380414B424A106818600B
:109F2C0012791A71404A414B03CB106051601B7877
:109F3C0013723F4B00221A703E4B00221A703E4B9C
:109F4C0000221A703D4A0D4B1B88138000BFBD4682
:109F5C00B0BC7047003E0020904C0108D840002057
:109F6C00984C0108A0020020A04C010808440020D5
:109F7C008C3F0020A44C01080C410020A84C010887
:109F8C00E0430020C4040020AC4C0108183D002024
:109F9C00B04C0108FC410020C04C010818410020C5
:109FAC00C84C0108143E0020D04C0108C0400020D1
:109FBC00D84C0108503E0020F8400020DC4C010831
:109FCC00CC40002008420020E04C01081242002046
:109FDC00E84C01081C420020F04C010826420020ED
:109FEC00F44C0108E03D0020F84C0108500400201E
:109FFC00084D0108944000200C4D0108B4030020CA
:10A00C001C4D0108A8030020BC3E0020C63E0020C9
:10A01C00284D01086C410020E43C00201C04002069
:10A02C00340200202C4D01082C3E0020344D010838
:10A03C004002002014440020E44000206C3D00202D
:10A04C0080B400AF144B00221A60134B00225A60EC
:10A05C00114B00229A60104B0022DA600E4B00224A
:10A06C001A610D4B00225A610B4B00229A610A4B6C
:10A07C000022DA61084B00221A62074B00225A6256
:10A08C00054B00229A62044B4FF0FF32DA6200BF9C
:10A09C00BD4680BC704700BF2406002080B582B04E
:10A0AC0000AF78607868FFF7F3F8FFF7EBFA00BFC2
:10A0BC000837BD4680BD80B582B000AF7860786847
:10A0CC00FFF7D6FDFFF724FE00BF0837BD4680BD65
:10A0DC0080B500AF1C4B1B68382B32D11B4B3B227D
:10A0EC001A601B4B1B681B49184607F0AFFF184B37
:10A0FC001B68194A11681922184607F0DFFE144B29
:10A10C001B6801221549184607F0D8FE104B1B6836
:10A11C00134A11680122184607F0D0FE114B1B7828
:10A12C00302B0ED1094B3A221A600E490E4808F01A
:10A13C009AFA0D48FBF726F80346083B0A4A002119
:10A14C00D15400BF80BD00BF5C0100206401002021
:10A15C003C4D0020404D010834010020504D0108B9
:10A16C001801002068450020F804002080B500AFDD
:10A17C003B4B1B683A2B4DD13A4B9A793A4B1A70A0
:10A18C00384BDA79384B5A70374B2F229A70354B43
:10A19C001A7A354BDA70334B5A7A334B1A71324B7D
:10A1AC002F225A712F4B9A7A2F4B9A712D4BDA7AA8
:10A1BC002D4BDA712C4B2C221A722A4B1A7B2A4B00
:10A1CC005A72284B5A7B284B9A72274B3A22DA72D6
:10A1DC00244B9A7B244B1A73224BDA7B224B5A73F7
:10A1EC00214B3A229A731F4B1A7C1F4BDA731D4B6F
:10A1FC005A7C1D4B1A741C4B2B225A741A4B30224E
:10A20C009A74194B3022DA74174B00221A75FEF728
:10A21C00D9FA22E0154B1B683A2B1ED1144915486C
:10A22C0008F021FA1449134808F04EFA124900209C
:10A23C0008F04AFA1049002008F046FA0E490020AE
:10A24C0008F042FA0D49002008F03EFA0346194680
:10A25C00054808F008FAFEF7B5FA00BF80BD00BF4C
:10A26C0068010020CC02002068020020640100205C
:10A27C00F804002068450020984D01089C4D010809
:10A28C0080B500AF0E4B1B680E4A1268114618467B
:10A29C0007F0DCFE0A4B1B680B4A116805221846B6
:10A2AC0007F00CFE064B1B68084A1268114618464C
:10A2BC0007F0D2FD4FF47A7002F034F800BF80BD85
:10A2CC003C4D0020C0000020BC000020C400002039
:10A2DC0080B584B000AF78600023FB60264B3B2236
:10A2EC001A60FFF7CDFF3EE0244B1B68244A12682E
:10A2FC001146184607F0B0FD204B1B68022221497D
:10A30C00184607F0DBFD1D4B1B681F4A1168012224
:10A31C00184607F0D3FD1D491D4808F0A4F91D4946
:10A32C001B4808F0B9F9B860BB68194A9B1A184A5F
:10A33C000021D154164B1B79322B02D10E4B3A22F1
:10A34C001A60FFF713FF00F03DF807F03DFEFFF732
:10A35C00BFFE07F045FE00F0E9F9022000F0C4FB57
:10A36C00FB680133FB60FA687B689A42BCDB00BF78
:10A37C0000BF1037BD4680BD680100203C4D002059
:10A38C00C4000020A04D01083401002068450020C5
:10A39C00CC0200209C4D010880B400AFBFF34F8F5E
:10A3AC0000BF064BDB6803F4E0620449044B134323
:10A3BC00CB60BFF34F8F00BF00BFFDE700ED00E0A7
:10A3CC000400FA0580B500AF954B1B68362B40F0A6
:10A3DC002581944B1B68944A12681146184607F065
:10A3EC003BFD904B1B68914A11680122184607F0FF
:10A3FC0065FD8F498F4808F04FF90346002B03D1B8
:10A40C008D4B38221A6002E08B4B39221A60844B38
:10A41C001B68362B40F00281874B1B68392B40F0B0
:10A42C00FA80864B1B683F2B40F0F5807D4B1B68F8
:10A43C00834A12681146184607F008FE794B1B68D0
:10A44C008049184607F002FE764B1B687E4A12685C
:10A45C001146184607F0FAFD724B1B68734A1168D7
:10A46C000122184607F0C8FD6E4B1B68774A12682C
:10A47C001146184607F0EAFD6A4B1B6874491846EA
:10A48C0007F0E4FD674B1B686F4A126811461846CB
:10A49C0007F0DCFD634B1B68644A11680122184607
:10A4AC0007F0AAFD5F4B1B686A4A126811461846F2
:10A4BC0007F0CCFD5B4B1B686749184607F0C6FDDF
:10A4CC00584B1B68604A12681146184607F0BEFDCF
:10A4DC00544B1B68554A11680122184607F08CFD35
:10A4EC00504B1B685D4A12681146184607F0AEFDCA
:10A4FC004C4B1B685A49184607F0A8FD494B1B6882
:10A50C00514A12681146184607F0A0FD454B1B68CE
:10A51C00464A11680122184607F06EFD414B1B6834
:10A52C00504A12681146184607F090FD3D4B1B68C7
:10A53C004D49184607F08AFD3A4B1B68424A12688F
:10A54C001146184607F082FD364B1B68374A1168D6
:10A55C000122184607F050FD324B1B68434A126823
:10A56C001146184607F072FD2E4B1B6840491846E1
:10A57C0007F06CFD2B4B1B68334A126811461846CA
:10A58C0007F064FD274B1B68284A11680122184606
:10A59C0007F032FD234B1B68364A126811461846E9
:10A5AC0007F054FD1F4B1B68204A116814221846F3
:10A5BC0007F084FC1B4B1B681B4A1268114618469B
:10A5CC0007F04AFC174B1B68184A11680122184601
:10A5DC0007F074FC1649174808F05EF80346002B88
:10A5EC0003D1154B38221A6015E0134B39221A602F
:10A5FC00214B1B684FF4B46292FBF3F21F4B1B68A8
:10A60C009A4205DD1D4B1B6801331C4A136002E0A6
:10A61C000A4B3E221A60642001F084FE00BF80BD0C
:10A62C00580100203C4D0020E400002018010020BF
:10A63C00404F0108684500205C0100206C0100209F
:10A64C00C8000020340200203C010020CC00002077
:10A65C002C3E0020D000002040020020D40000201E
:10A66C0014440020D8000020E4400020DC0000202E
:10A67C00484F0108E0000020000200208C0200205E
:10A68C0080B500AF204B1B68362B3AD11F4B1B6893
:10A69C001F4A12681146184607F0DEFB1B4B1B685D
:10A6AC001C4A11680122184607F008FC1A491B487D
:10A6BC0007F0F2FF0346002B03D1194B38221A6026
:10A6CC0002E0174B39221A60154B1B68382B18D136
:10A6DC000E4B1B68134A12681146184607F0B6FC5D
:10A6EC000A4B1B68104A11682822184607F0E6FB33
:10A6FC000346322B02D10A4B39221A60642001F036
:10A70C0011FE00BF80BD00BF580100203C4D002051
:10A71C00E400002018010020404F0108684500208B
:10A72C005C010020E80000203401002080B500AF5F
:10A73C009C4B1B68362B40F033819B4B1B689B4911
:10A74C00184607F089FB984B1B68994A116801223F
:10A75C00184607F0B3FB9749974807F09DFF03464F
:10A76C00002B03D0954B38221A6002E0934B392210
:10A77C001A60934B1B68382B40F012818F4B1B686F
:10A78C00392B40F00A818F4B1B683F2B40F0058121
:10A79C00854B1B688C4A12681146184607F056FC0C
:10A7AC00814B1B688949184607F050FC7E4B1B688F
:10A7BC008749184607F04AFC7B4B1B6885491846AD
:10A7CC0007F044FC784B1B68834A12681146184604
:10A7DC0007F03CFC744B1B68754A11680122184643
:10A7EC0007F00AFC704B1B687C4A1268114618462D
:10A7FC0007F02CFC6C4B1B687949184607F026FCBB
:10A80C00694B1B687749184607F020FC664B1B68A0
:10A81C00714A12681146184607F018FC624B1B6807
:10A82C00634A11680122184607F0E6FB5E4B1B6871
:10A83C006D4A12681146184607F008FC5A4B1B6803
:10A84C006A49184607F002FC574B1B68624A1268AB
:10A85C001146184607F0FAFB534B1B68544A116813
:10A86C000122184607F0C8FB4F4B1B68604A126860
:10A87C001146184607F0EAFB4B4B1B685D4918461E
:10A88C0007F0E4FB484B1B68534A12681146184604
:10A89C0007F0DCFB444B1B68454A11680122184643
:10A8AC0007F0AAFB404B1B68534A12681146184626
:10A8BC0007F0CCFB3C4B1B685049184607F0C6FB15
:10A8CC00394B1B68444A12681146184607F0BEFB08
:10A8DC00354B1B68364A11680122184607F08CFB71
:10A8EC00314B1B68464A12681146184607F0AEFBFE
:10A8FC002D4B1B684349184607F0A8FB2A4B1B68D5
:10A90C00354A12681146184607F0A0FB264B1B6807
:10A91C00274A11680122184607F06EFB224B1B6870
:10A92C00394A12681146184607F090FB1E4B1B68FB
:10A93C00364A11681422184607F0C0FA1A4B1B68E5
:10A94C001A49184607F088FA174B1B68184A116801
:10A95C000122184607F0B2FA1649174807F09CFE78
:10A96C000346002B03D0154B38221A6015E0134B0D
:10A97C0039221A60264B1B684FF4B46292FBF3F237
:10A98C00244B1B689A4205DD224B1B680133214A7C
:10A99C00136002E00B4B3E221A60642001F0C2FCF3
:10A9AC0000BF80BD580100203C4D00204C4F0108D9
:10A9BC00180100205C4F0108684500206001002050
:10A9CC005C0100206C010020EC000020183D0020F0
:10A9DC00684F0108FC410020F0000020F40000202A
:10A9EC007C3D002068020020F80000201841002067
:10A9FC00FC000020143E0020000100206C4F0108D8
:10AA0C0004010020704F01080801002034010020CF
:10AA1C00000200208C02002080B500AF294B1B687F
:10AA2C00362B4CD1284B1B682849184607F014FAD2
:10AA3C00254B1B68264A11680122184607F03EFA7E
:10AA4C002449254807F028FE0346002B03D0234B4E
:10AA5C0038221A6002E0214B39221A601F4B1B6806
:10AA6C00382B2CD1184B1B681D49184607F0EEFAF1
:10AA7C00154B1B681B4A11682822184607F01EFA52
:10AA8C00114B1B681149184607F0E0FA0E4B1B6876
:10AA9C000F4A11680222184607F010FA0D490E48A9
:10AAAC0007F0FAFD0346002B03D00C4B38221A603A
:10AABC0002E00A4B39221A60642001F033FC00BF1B
:10AACC0080BD00BF580100203C4D00204C4F0108B8
