:020000040800F2
:1050000000800020996C0008516A00085B6A000863
:10501000636A0008696A00086F6A000800000000FF
:10502000000000000000000000000000756A000899
:10503000816A0008000000008D6A0008996A000873
:10504000E16C0008E16C0008E16C0008E16C00080C
:10505000E16C0008E16C0008E16C0008E16C0008FC
:10506000E16C0008E16C0008E16C0008E16C0008EC
:10507000E16C0008E16C0008E16C0008E16C0008DC
:10508000E16C0008E16C0008E16C0008E16C0008CC
:10509000E16C0008E16C0008E16C0008E16C0008BC
:1050A00000000000E16C0008E16C0008E16C000801
:1050B000E16C0008E16C0008E16C0008E16C00089C
:1050C000E16C0008E16C0008E16C0008E16C00088C
:1050D000E16C0008A56A0008B96A0008CD6A0008FA
:1050E000E16A0008F96A0008E16C0008E16C000858
:1050F000E16C000800000000E16C0008E16C0008B1
:105100000000000000000000E16C0008E16C0008F5
:10511000E16C0008E16C0008E16C00080000000090
:10512000E16C00080000000000000000000000002A
:0C51300000000000000000005FF808F123
:10513C0010B5054C237833B9044B13B10448AFF3C5
:10514C0000800123237010BDD80100200000000056
:10515C00184A010808B5034B1BB103490348AFF3C8
:10516C00008008BD00000000DC010020184A010886
:10517C0010F8012B11F8013B012A28BF9A42F7D0F5
:10518C00D01A7047034613F8012B002AFBD1181ACA
:10519C000138704781F0004102E000BF83F000430A
:1051AC0030B54FEA41044FEA430594EA050F08BFB6
:1051BC0090EA020F1FBF54EA000C55EA020C7FEA7A
:1051CC00645C7FEA655C00F0E2804FEA5454D4EBF7
:1051DC005555B8BF6D420CDD2C4480EA020281EAC1
:1051EC00030382EA000083EA010180EA020281EAF9
:1051FC000303362D88BF30BD11F0004F4FEA01314B
:10520C004FF4801C4CEA113102D0404261EB410159
:10521C0013F0004F4FEA03334CEA133302D05242DF
:10522C0063EB430394EA050F00F0A780A4F101049B
:10523C00D5F1200E0DDB02FA0EFC22FA05F28018D5
:10524C0041F1000103FA0EF2801843FA05F35941BB
:10525C000EE0A5F120050EF1200E012A03FA0EFC3A
:10526C0028BF4CF0020C43FA05F3C01851EBE37164
:10527C0001F0004507D54FF0000EDCF1000C7EEB81
:10528C0000006EEB0101B1F5801F1BD3B1F5001FBF
:10529C000CD349085FEA30004FEA3C0C04F10104DE
:1052AC004FEA445212F5800F80F09A80BCF1004F07
:1052BC0008BF5FEA500C50F1000041EB045141EA89
:1052CC00050130BD5FEA4C0C404141EB0101013C52
:1052DC0028BFB1F5801FE9D291F0000F04BF014641
:1052EC000020B1FA81F308BF2033A3F10B03B3F113
:1052FC0020020CDA0C3208DD02F1140CC2F10C02A3
:10530C0001FA0CF021FA02F10CE002F11402D8BF00
:10531C00C2F1200C01FA02F120FA0CFCDCBF41EACC
:10532C000C019040E41AA2BF01EB0451294330BD9B
:10533C006FEA04041F3C1CDA0C340EDC04F1140478
:10534C00C4F1200220FA04F001FA02F340EA03004F
:10535C0021FA04F345EA030130BDC4F10C04C4F195
:10536C00200220FA02F001FA04F340EA0300294675
:10537C0030BD21FA04F0294630BD94F0000F83F4BF
:10538C00801306BF81F480110134013D4EE77FEAA2
:10539C00645C18BF7FEA655C29D094EA050F08BFEE
:1053AC0090EA020F05D054EA000C04BF19461046CF
:1053BC0030BD91EA030F1EBF0021002030BD5FEA13
:1053CC00545C05D14000494128BF41F0004130BD3B
:1053DC0014F580043CBF01F5801130BD01F000458F
:1053EC0045F0FE4141F470014FF0000030BD7FEA02
:1053FC00645C1ABF194610467FEA655C1CBF0B46FD
:10540C00024650EA013406BF52EA033591EA030F13
:10541C0041F4002130BD00BF90F0000F04BF00210B
:10542C00704730B54FF4806404F132044FF000053E
:10543C004FF0000150E700BF90F0000F04BF0021B7
:10544C00704730B54FF4806404F1320410F000451D
:10545C0048BF40424FF000013EE700BF42004FEA18
:10546C00E2014FEA31014FEA02701FBF12F07F4395
:10547C0093F07F4F81F06051704732F07F4208BF4C
:10548C00704793F07F4F04BF41F40021704730B553
:10549C004FF4607401F0004521F000411CE700BF9F
:1054AC0050EA010208BF704730B54FF000050AE022
:1054BC0050EA010208BF704730B511F0004502D523
:1054CC00404261EB41014FF4806404F132045FEA25
:1054DC00915C3FF4D8AE4FF003025FEADC0C18BFCE
:1054EC0003325FEADC0C18BF033202EBDC02C2F1C0
:1054FC00200300FA03FC20FA02F001FA03FE40EA52
:10550C000E0021FA02F11444BDE600BF70B54FF055
:10551C00FF0C4CF4E06C1CEA11541DBF1CEA135533
:10552C0094EA0C0F95EA0C0F00F0DEF82C4481EA9B
:10553C00030621EA4C5123EA4C5350EA013518BFBB
:10554C0052EA033541F4801143F4801338D0A0FBA8
:10555C0002CE4FF00005E1FB02E506F00042E0FB55
:10556C0003E54FF00006E1FB03569CF0000F18BF5B
:10557C004EF0010EA4F1FF04B6F5007F64F5407403
:10558C0004D25FEA4E0E6D4146EB060642EAC62196
:10559C0041EA55514FEAC52040EA5E504FEACE2E03
:1055AC00B4F1FD0C88BFBCF5E06F1ED8BEF1004F06
:1055BC0008BF5FEA500E50F1000041EB045170BD82
:1055CC0006F0004646EA010140EA020081EA0301C6
:1055DC00B4EB5C04C2BFD4EB0C0541EA045170BDC2
:1055EC0041F480114FF0000E013C00F3AB8014F13C
:1055FC00360FDEBF002001F0004170BDC4F1000485
:10560C00203C35DA0C341BDC04F11404C4F1200505
:10561C0000FA05F320FA04F001FA05F240EA020060
:10562C0001F0004221F0004110EBD37021FA04F696
:10563C0042EB06015EEA430E08BF20EAD37070BD50
:10564C00C4F10C04C4F1200500FA04F320FA05F0AF
:10565C0001FA04F240EA020001F0004110EBD370B1
:10566C0041F100015EEA430E08BF20EAD37070BD21
:10567C00C4F1200500FA05F24EEA020E20FA04F3FA
:10568C0001FA05F243EA020321FA04F001F00041A9
:10569C0021FA04F220EA020000EBD3705EEA430E1A
:1056AC0008BF20EAD37070BD94F0000F0FD101F049
:1056BC000046400041EB010111F4801F08BF013C82
:1056CC00F7D041EA060195F0000F18BF704703F0C0
:1056DC000046520043EB030313F4801F08BF013D47
:1056EC00F7D043EA0603704794EA0C0F0CEA135503
:1056FC0018BF95EA0C0F0CD050EA410618BF52EABD
:10570C004306D1D181EA030101F000414FF00000C2
:10571C0070BD50EA410606BF1046194652EA4306D0
:10572C0019D094EA0C0F02D150EA013613D195EA44
:10573C000C0F05D152EA03361CBF104619460AD18C
:10574C0081EA030101F0004141F0FE4141F4700196
:10575C004FF0000070BD41F0FE4141F4780170BD86
:10576C0070B54FF0FF0C4CF4E06C1CEA11541DBFEB
:10577C001CEA135594EA0C0F95EA0C0F00F0A7F8ED
:10578C00A4EB050481EA030E52EA03354FEA01311A
:10579C0000F088804FEA03334FF0805545EA13132D
:1057AC0043EA12634FEA022245EA111545EA1065F5
:1057BC004FEA00260EF000419D4208BF964244F18C
:1057CC00FD0404F5407402D25B084FEA3202B61AAB
:1057DC0065EB03055B084FEA32024FF480104FF47F
:1057EC00002CB6EB020E75EB030E22BFB61A7546F3
:1057FC0040EA0C005B084FEA3202B6EB020E75EB86
:10580C00030E22BFB61A754640EA5C005B084FEAED
:10581C003202B6EB020E75EB030E22BFB61A7546BA
:10582C0040EA9C005B084FEA3202B6EB020E75EBC5
:10583C00030E22BFB61A754640EADC0055EA060E86
:10584C0018D04FEA051545EA16754FEA06164FEAC9
:10585C00C30343EA52734FEAC2025FEA1C1CC0D175
:10586C0011F4801F0BD141EA00014FF000004FF002
:10587C00004CB6E711F4801F04BF01430020B4F1C3
:10588C00FD0C88BFBCF5E06F3FF6AFAEB5EB030C7B
:10589C0004BFB6EB020C5FEA500C50F1000041EB78
:1058AC00045170BD0EF0004E4EEA113114EB5C0445
:1058BC00C2BFD4EB0C0541EA045170BD41F4801118
:1058CC004FF0000E013C90E645EA060E8DE60CEA20
:1058DC00135594EA0C0F08BF95EA0C0F3FF43BAF3D
:1058EC0094EA0C0F0AD150EA01347FF434AF95EAF4
:1058FC000C0F7FF425AF104619462CE795EA0C0FD8
:10590C0006D152EA03353FF4FDAE1046194622E7A4
:10591C0050EA410618BF52EA43067FF4C5AE50EA7E
:10592C0041047FF40DAF52EA43057FF4EBAE12E76E
:10593C004FEA410212F5001215D211D56FF47873AB
:10594C00B3EB625212D94FEAC12343F0004343EA4E
:10595C00505311F0004F23FA02F018BF4042704729
:10596C004FF00000704750EA013005D111F00040B3
:10597C0008BF6FF0004070474FF00000704700BF49
:10598C0053B94AB9002908BF00281CBF4FF0FF319A
:10599C004FF0FF3000F06EB9ADF1080C6DE904CE9C
:1059AC0000F006F8DDF804E0DDE9022304B07047EE
:1059BC002DE9F047089E0D4604468E46002B40F01C
:1059CC0083808A42174647D9B2FA82F34BB1C3F1AE
:1059DC00200105FA03FE20FA01F19F4041EA0E0E68
:1059EC009C404FEA1748BEFBF8FC1FFA87F908FBEE
:1059FC001CE20CFB09F0210C41EA024290420AD94C
:105A0C00BA180CF1FF3180F01881904240F21581E8
:105A1C00ACF1020C3A44121AB2FBF8F008FB10225B
:105A2C0000FB09F1A4B244EA0244A14209D93C1991
:105A3C0000F1FF3280F00381A14240F20081023874
:105A4C003C44641A002140EA0C401EB10022DC40A8
:105A5C00C6E90042BDE8F08702B9FFDEB2FA82F374
:105A6C00002B4FD18D1A01214FEA124E1FFA82F8EA
:105A7C00B5FBFEFC0EFB1C5508FB0CF0220C42EA9D
:105A8C000545A84207D97D190CF1FF3202D2A84274
:105A9C0000F2E98094462D1AB5FBFEF00EFB105572
:105AAC0008FB00F8A4B244EA0544A04507D93C1908
:105ABC0000F1FF3202D2A04500F2D9801046A4EBCF
:105ACC00080440EA0C40C0E78B4208D9002E00F0D5
:105ADC00B1800021C6E900050846BDE8F087B3FA9D
:105AEC0083F100294BD1AB4202D3824200F2B98040
:105AFC00841A65EB030301209E46002EAAD0C6E94A
:105B0C00004EA7E79F40C3F12002D1404FEA174E49
:105B1C00B1FBFEF01FFA87F80EFB101124FA02F20B
:105B2C009D4000FB08FC2A43150C45EA0145AC4599
:105B3C0004FA03F409D97D1900F1FF3180F08F804C
:105B4C00AC4540F28C8002383D44A5EB0C05B5FB0E
:105B5C00FEF10EFB115C01FB08F995B245EA0C4510
:105B6C00A94507D97D1901F1FF3274D2A94572D923
:105B7C0002393D44A5EB090541EA004178E7C1F142
:105B8C0020078B4022FA07FC4CEA030C25FA07F499
:105B9C004FEA1C4EB4FBFEF91FFA8CF80EFB1944AD
:105BAC0020FA07F309FB08FA8D401D432B0C43EA3E
:105BBC000444A24502FA01F200FA01F309D91CEBE4
:105BCC00040409F1FF3048D2A24546D9A9F10209D3
:105BDC006444A4EB0A04B4FBFEF00EFB104400FB7F
:105BEC0008FAADB245EA0444A24508D91CEB0404FA
:105BFC0000F1FF352DD2A2452BD90238644440EA7E
:105C0C000940A0FB0289A4EB0A044C45C6464D464C
:105C1C0019D316D05EB1B3EB0E0264EB050404FA93
:105C2C0007F722FA01F31F43CC40C6E900740021A8
:105C3C00BDE8F087314630460CE78C46EBE6104663
:105C4C00FFE64345E6D2B8EB020E69EB0C050138D2
:105C5C00E0E72846D3E711468CE78146B9E70846CA
:105C6C0073E7084649E7ACF1020C3D4413E70238F0
:105C7C003C4424E7704700BF80B586B006AF1C4B90
:105C8C001C4A9A6062B600BF06F05CFC00F046F855
:105C9C0000F018FB00F0ACF800F096FA00F0BEFA39
:105CAC0000F0E6FA00F03AFA00F0FAF800F04CF9DD
:105CBC0000F098F900F0E4F9282007F094FA0E4B64
:105CCC0004930E4B03930E4B02930E4B01930E4B0E
:105CDC0000930E4B0E4A0F490F480CF0CFFA0CF004
:105CEC003DFD0CF0E5FD0CF04DFE0CF0DFFEF8E791
:105CFC0000ED00E000500008F0420020C43F0020FE
:105D0C00C8030020B03D00204C3D00204C41002039
:105D1C005C040020D8410020943E002080B594B053
:105D2C0000AF07F11C033422002118460CF020FFB1
:105D3C0007F1080300221A605A609A60DA601A614F
:105D4C003B4600221A605A60284B1B6823F4C05350
:105D5C00264A43F4006313600723FB6101233B6273
:105D6C0001237B620123BB621023FB6202233B6491
:105D7C004FF480337B644FF40023BB644FF48003F7
:105D8C00FB6407F11C03184608F066F80346002B69
:105D9C0001D000F009FC0F23BB600323FB60002340
:105DAC003B6100237B610023BB6107F108030121E8
:105DBC00184608F081FB0346002B01D000F0F4FBE1
:105DCC0001233B604FF480337B603B46184608F060
:105DDC002DFE0346002B01D000F0E6FB08F0A0FCE2
:105DEC0008F0F2FE00BF5037BD4680BD0070004089
:105DFC0080B584B000AF3B1D00221A605A609A60D7
:105E0C00254B264A1A60244B00225A60224B002252
:105E1C009A60214B0022DA601F4B00221A611E4B44
:105E2C0000225A611C4B00229A611B4B0022DA6142
:105E3C00194B00221A62184B002283F82420164BAF
:105E4C0001229A62144B002283F82C20124B102250
:105E5C005A63114B00229A630F4B002283F83C20AB
:105E6C000D4806F03FFC0346002B01D000F09CFBD4
:105E7C0008237B600123BB600023FB603B1D19469C
:105E8C00054806F09DFE0346002B01D000F08CFB6C
:105E9C0000BF1037BD4680BDF042002000240140F9
:105EAC0080B58AB000AF3B462822002118460CF082
:105EBC005FFE224B224A1A60204B00225A601F4B75
:105ECC007F229A601D4BFF22DA601C4B00221A6164
:105EDC001A4B00225A61194B00229A61174808F09C
:105EEC007FFE0346002B01D000F05EFB00233B70CD
:105EFC0000237B700023BB7000237B600023FB60BE
:105F0C0000233B610F4B7B610023BB610023FB61D2
:105F1C00012387F820304FF480737B623B460122CB
:105F2C001946064809F0EAF80346002B01D000F0A8
:105F3C003BFB00BF2837BD4680BD00BFC43F0020DF
:105F4C00002800400080808080B586B000AF07F14B
:105F5C00080300221A605A609A60DA603B460022FD
:105F6C001A605A601E4B4FF080421A601C4B45F66B
:105F7C00C0525A601A4B00229A60194B4FF6FF72AE
:105F8C00DA60174B4FF400721A61154B00225A61FC
:105F9C00134809F0CBFA0346002B01D000F004FBA8
:105FAC004FF48053BB6007F1080319460C4809F005
:105FBC0019FD0346002B01D000F0F6FA00233B60DC
:105FCC0000237B603B461946054809F0EFFF03466A
:105FDC00002B01D000F0E8FA00BF1837BD4680BD99
:105FEC004C41002080B586B000AF07F108030022B9
:105FFC001A605A609A60DA603B4600221A605A6056
:10600C001D4B1E4A1A601C4B45F6C0525A601A4B67
:10601C0000229A60184B47F23052DA60164B00227D
:10602C001A61154B00225A61134809F07FFA034696
:10603C00002B01D000F0B8FA4FF48053BB6007F18D
:10604C00080319460C4809F0CDFC0346002B01D07F
:10605C0000F0AAFA00233B6000237B603B46194604
:10606C00054809F0A3FF0346002B01D000F09CFA71
:10607C0000BF1837BD4680BDB03D00200004004075
:10608C0080B586B000AF07F1080300221A605A6091
:10609C009A60DA603B4600221A605A601D4B1E4A19
:1060AC001A601C4B18225A601A4B00229A60194B2A
:1060BC004FF6FF72DA60174B00221A61154B002263
:1060CC005A61144809F032FA0346002B01D000F053
:1060DC006BFA4FF48053BB6007F1080319460D4867
:1060EC0009F080FC0346002B01D000F05DFA002380
:1060FC003B6000237B603B461946064809F056FF7F
:10610C000346002B01D000F04FFA00BF1837BD46F4
:10611C0080BD00BFC80300200008004080B586B0D9
:10612C0000AF07F1100300221A605A603B460022B0
:10613C001A605A609A60DA60214B224A1A60204B2E
:10614C0018225A601E4B00229A601D4B4FF4B772F6
:10615C00DA601B4B00221A61194B00225A61184855
:10616C0009F06EFA0346002B01D000F01DFA002353
:10617C003B6100237B6107F110031946104809F0BD
:10618C0015FF0346002B01D000F00EFA60233B6094
:10619C0000237B600023BB600023FB603B46042292
:1061AC001946074809F060FB0346002B01D000F0AC
:1061BC00FBF9034800F0EAFA00BF1837BD4680BD72
:1061CC004C3D0020000C004080B500AF114B124A32
:1061DC001A60104B4FF4E1325A600E4B00229A6059
:1061EC000C4B0022DA600B4B00221A61094B0C227B
:1061FC005A61084B00229A61064B0022DA6105486D
:10620C0009F032FF0346002B01D000F0CDF900BF9E
:10621C0080BD00BF943E00200038014080B500AF27
:10622C00114B124A1A60104B4FF416525A600E4B17
:10623C0000229A600C4B0022DA600B4B00221A6190
:10624C00094B0C225A61084B00229A61064B002222
:10625C00DA61054809F008FF0346002B01D000F075
:10626C00A3F900BF80BD00BFD8410020004400400E
:10627C0080B500AF114B124A1A60104B4FF41652F6
:10628C005A600E4B00229A600C4B0022DA600B4BCA
:10629C0000221A61094B0C225A61084B00229A61A8
:1062AC00064B0022DA61054809F0DEFE0346002B9E
:1062BC0001D000F079F900BF80BD00BF5C04002064
:1062CC000048004080B58AB000AF07F114030022EB
:1062DC001A605A609A60DA601A61664BDB69654A2B
:1062EC0043F00403D361634BDB6903F004033B61AC
:1062FC003B69604BDB695F4A43F02003D3615D4B24
:10630C00DB6903F02003FB60FB685A4BDB69594ADD
:10631C0043F00103D361574BDB6903F00103BB600E
:10632C00BB68544BDB69534A43F00203D361514BB6
:10633C00DB6903F002037B607B68012204214E4879
:10634C0007F0A3FC01224FF484514C4807F09DFC4C
:10635C0000224FF47061494807F097FC0022E021BD
:10636C00454807F092FC4FF400537B614FF4041343
:10637C00BB610123FB6107F1140319463F4807F089
:10638C000DFA01237B610023BB610123FB6107F143
:10639C00140319463A4807F001FA02237B610023E3
:1063AC00BB610023FB6107F114031946324807F067
:1063BC00F5F9E4237B610123BB610023FB6100231E
:1063CC003B6207F1140319462B4807F0E7F94FF429
:1063DC0080537B614FF48813BB610023FB6107F191
:1063EC0014031946244807F0D9F94FF400437B6194
:1063FC000023BB610123FB6107F1140319461E48FE
:10640C0007F0CCF980237B610123BB610123FB6185
:10641C0000233B6207F114031946184807F0BEF934
:10642C004FF4D8537B610123BB610023FB61002334
:10643C003B6207F114031946104807F0AFF94FF40B
:10644C0080637B610123BB610223FB6100233B6200
:10645C0007F114031946094807F0A0F9002200219E
:10646C00282006F096FE282006F0AFFE00BF283745
:10647C00BD4680BD003802400004024000080240C6
:10648C000000024080B483B000AF7860064B1B68FC
:10649C000133054A1360054B01221A6000BF0C370B
:1064AC00BD4680BC704700BFD8400020F03D0020A6
:1064BC0080B500AF134B1B681B689A68114B1B68A7
:1064CC001B6842F480729A60282006F07EFE0E480B
:1064DC0009F017FE0D4809F014FE0D4809F011FEE5
:1064EC00094809F043FF094809F040FF084809F042
:1064FC003DFF06F0DBF80121012007F0F7FB00BFA0
:10650C0080BD00BF84450020943E0020D84100206F
:10651C005C04002080B500AF06F0D6F8FFF7FEFB58
:10652C00134809F0A1FD134809F09EFD124809F02B
:10653C009BFD01221149104809F0E8FE01220F4988
:10654C000C4809F0E3FE01220C49094809F0DEFE73
:10655C00282006F048FE0A4B1B681B689A68084BFB
:10656C001B681B6822F480729A6000BF80BD00BF5C
:10657C005C040020D8410020943E0020584D00209F
:10658C008445002080B500AFFFF772FE044B1B68FA
:10659C0001220449184609F0B9FE00BF80BD00BFB6
:1065AC00A8440020584D002080B400AF72B600BF44
:1065BC00FEE7000080B485B000AF144B5B6A134A51
:1065CC0043F000435362114B5B6A03F00043FB60E2
:1065DC00FB680E4B1B6A0D4A43F0010313620B4B15
:1065EC001B6A03F00103BB60BB68084B5B6A074A7C
:1065FC0043F080535362054B5B6A03F080537B601E
:10660C007B6800BF1437BD4680BC70470038024021
:10661C0080B58AB000AF786007F1140300221A60CD
:10662C005A609A60DA601A617B681B68154A93425B
:10663C0023D1154B1B6A144A43F400731362124B9B
:10664C001B6A03F400733B613B690F4BDB690E4A19
:10665C0043F00203D3610C4BDB6903F00203FB60D4
:10666C00FB6801237B610323BB610023FB6107F102
:10667C0014031946054807F091F800BF2837BD46AA
:10668C0080BD00BF002401400038024000040240DD
:10669C0080B582B000AF78607B681B68084A934273
:1066AC000AD1084B01221A6000220021292006F091
:1066BC0070FD292006F089FD00BF0837BD4680BD5E
:1066CC0000280040D806474280B487B000AF7860FD
:1066DC007B681B68B3F1804F0CD11A4B5B6A194A6B
:1066EC0043F001035362174B5B6A03F001037B61B8
:1066FC007B6922E07B681B68134A93420CD1114BD7
:10670C005B6A104A43F0020353620E4B5B6A03F060
:10671C0002033B613B6910E07B681B680B4A9342A8
:10672C000BD1084B5B6A074A43F004035362054BD9
:10673C005B6A03F00403FB60FB6800BF1C37BD46BB
:10674C0080BC704700380240000400400008004044
:10675C0080B485B000AF78607B681B68094A9342AF
:10676C000BD1094B5B6A084A43F008035362064B92
:10677C005B6A03F00803FB60FB6800BF1437BD467F
:10678C0080BC7047000C00400038024080B588B0D7
:10679C0000AF786007F10C0300221A605A609A600F
:1067AC00DA601A617B681B68114A93421BD1114B4A
:1067BC00DB69104A43F00103D3610E4BDB6903F034
:1067CC000103BB60BB680223FB6002233B61002317
:1067DC007B610023BB610223FB6107F10C031946AB
:1067EC00054806F0DBFF00BF2037BD4680BD00BF6B
:1067FC00000C0040003802400000024080B58EB012
:10680C0000AF786007F1240300221A605A609A6086
:10681C00DA601A617B681B68524A934231D1524B41
:10682C001B6A514A43F4804313624F4B1B6A03F4B7
:10683C0080433B623B6A4C4BDB694B4A43F00103A0
:10684C00D361494BDB6903F00103FB61FB694FF436
:10685C00C0637B620223BB620023FB6203233B63A6
:10686C0007237B6307F124031946404806F096FF83
:10687C0000220021252006F08CFC252006F0A5FC2A
:10688C006BE07B681B683A4A934230D1364B5B6AAB
:10689C00354A43F400335362334B5B6A03F40033E1
:1068AC00BB61BB69304BDB692F4A43F00103D361F9
:1068BC002D4BDB6903F001037B617B690C237B624D
:1068CC000223BB620023FB6203233B6307237B632E
:1068DC0007F124031946254806F060FF0022002129
:1068EC00262006F056FC262006F06FFC35E07B686F
:1068FC001B68204A934230D11B4B5B6A1A4A43F403
:10690C0080235362184B5B6A03F480233B613B6921
:10691C00154BDB69144A43F00203D361124BDB695C
:10692C0003F00203FB60FB684FF440637B620223BD
:10693C00BB620023FB6203233B6307237B6307F1EA
:10694C00240319460C4806F029FF002200212720B9
:10695C0006F01FFC272006F038FC00BF3837BD4678
:10696C0080BD00BF003801400038024000000240EA
:10697C0000440040004800400004024080B582B052
:10698C0000AF78607B681B681D4A93420ED11D4B8B
:10699C001B6A1C4A23F4804313624FF4C0611A48EB
:1069AC0007F07CF8252006F01EFC25E07B681B68B0
:1069BC00164A93420DD1134B5B6A124A23F40033EF
:1069CC0053620C21104807F069F8262006F00BFCE6
:1069DC0012E07B681B680E4A93420DD1094B5B6A2F
:1069EC00084A23F4802353624FF44061094807F0AE
:1069FC0055F8272006F0F7FB00BF0837BD4680BDD1
:106A0C0000380140003802400000024000440040C1
:106A1C00004800400004024080B400AFBFF34F8F29
:106A2C0000BF064BDB6803F4E0620449044B1343DC
:106A3C00CB60BFF34F8F00BF00BFFDE700ED00E060
:106A4C000400FA0580B500AF07F076FFFEE780B5CD
:106A5C0000AFFFF7E1FF80B400AFFEE780B400AFFA
:106A6C00FEE780B400AFFEE780B400AF00BFBD46C8
:106A7C0080BC704780B400AF00BFBD4680BC70477F
:106A8C0080B400AF00BFBD4680BC704780B500AF7E
:106A9C0005F0CEFD00BF80BD80B500AF024809F007
:106AAC00CFFC00BF80BD00BF943E002080B500AF7E
:106ABC00024809F0C5FC00BF80BD00BFD8410020D2
:106ACC0080B500AF024809F0BBFC00BF80BD00BF21
:106ADC005C04002080B500AF4FF4805007F0EEF856
:106AEC004FF4005007F0EAF800BF80BD80B500AF4E
:106AFC00024808F03BFC00BF80BD00BFC43F002033
:106B0C0080B400AF01231846BD4680BC704780B5E9
:106B1C0082B000AF786039600BF0D8FF03461622C4
:106B2C001A604FF0FF3318460837BD4680BD80B55C
:106B3C0082B000AF78604FF0FF317868FFF7E7FF65
:106B4C00FEE780B586B000AFF860B9607A600023CC
:106B5C007B610AE0AFF300800146BB685A1CBA6047
:106B6C00CAB21A707B6901337B617A697B689A427D
:106B7C00F0DB7B6818461837BD4680BD80B586B003
:106B8C0000AFF860B9607A6000237B6109E0BB68F4
:106B9C005A1CBA601B781846AFF300807B6901332E
:106BAC007B617A697B689A42F1DB7B6818461837FF
:106BBC00BD4680BD80B483B000AF78604FF0FF332A
:106BCC0018460C37BD4680BC704780B483B000AF0C
:106BDC00786039603B684FF400525A6000231846C5
:106BEC000C37BD4680BC704780B483B000AF786072
:106BFC00012318460C37BD4680BC704780B485B065
:106C0C0000AFF860B9607A60002318461437BD46AF
:106C1C0080BC704780B586B000AF7860144A154BC5
:106C2C00D31A7B617B693B61134B1B68002B02D130
:106C3C00114B124A1A60104B1A687B6813443A695C
:106C4C009A4207D20BF042FF03460C221A604FF017
:106C5C00FF3309E0084B1B68FB60074B1A687B6825
:106C6C001344054A1360FB6818461837BD4680BDAF
:106C7C000080002000040000F4010020B84D00202A
:106C8C0080B400AF00BFBD4680BC70470C480D49B6
:106C9C000D4A002302E0D458C4500433C4188C426B
:106CAC00F9D30A4A0A4C002301E013600432A242D1
:106CBC00FBD3FFF7E5FF0BF00FFFFEF7DDFF70478F
:106CCC0000000020D8010020985F0108D8010020A6
:106CDC00B84D0020FEE7000080B400AFBFF34F8F2B
:106CEC0000BF064BDB6803F4E0620449044B13431A
:106CFC00CB60BFF34F8F00BF00BFFDE700ED00E09E
:106D0C000400FA0580B500AF0BF000F8164B1B68B9
:106D1C00164A1268114618460BF0D0FC124B1B6831
:106D2C00134918460BF0CAFC0F4B1B681149184647
:106D3C000BF0C4FC0C4B1B680F4A1168012218465F
:106D4C000BF092FC084B1B680C4A12681146184653
:106D5C000BF0B4FC044B1B68074A1168052218465B
:106D6C000BF082FC00BF80BD5C4D00203C0000207D
:106D7C009C3D0020884B0108180100204000002099
:106D8C0080B500AF074B1B68074918460BF096FC03
:106D9C00044B1B68054A1168052218460BF064FC6D
:106DAC0000BF80BD5C4D00208C4B010818010020F9
:106DBC0090B5A7B000AF78600023C7F894300023DB
:106DCC00C7F890300AF04CFE4FF47A7005F04CFC8A
:106DDC000AF010FE0AF09EFE0346134A1360FFF7FA
:106DEC0091FF00F01FBE114B1B68114918460BF0A8
:106DFC006FFB0E4B1B680F4A1168022218460BF0F2
:106E0C0099FB0D490D480BF07FFF0346002B17D162
:106E1C00D7F89030012B16D10023C7F890300023FF
:106E2C00C7F894300FE000BF580100205C4D0020E3
:106E3C00384B0108180100209C4B010888450020A4
:106E4C000123C7F89030D7F89420531CC7F894301E
:106E5C00B34B83FB0231D317C91A0B465B000B44AF
:106E6C005B00D11A002905D1D7F89030002B01D145
:106E7C000BF0E6FBAB4B1B680122AB4918460BF041
:106E8C0059FB0BF0E7FBA94B1B681946A8480BF004
:106E9C003BFF0346002B0FD0A24B1B68A54A126880
:106EAC00114618460BF014FB9E4B1B68A24A116846
:106EBC000A2218460BF03EFBA04B1B6819469C4857
:106ECC000BF022FF0346002B0FD0964B1B689C4AFD
:106EDC001268114618460BF0FBFA924B1B68964A47
:106EEC0011680A2218460BF025FB964B1B681946B5
:106EFC008F480BF009FF0346002B6ED092498C484B
:106F0C000BF002FF0346002B67D0904988480BF02A
:106F1C0013FF8E4900200BF00FFF8C4900200BF063
:106F2C000BFF8A4900200BF007FFC7F88C007D4B44
:106F3C001B68874A1268114618460BF0C9FA794B40
:106F4C001B68844A1168A02218460BF0F3FA824998
:106F5C00D7F88C00FEF70CF90346002B38D0714B98
:106F6C001B687E4918460BF0A9FB6E4B1B687C4ACC
:106F7C001268114618460BF0A1FB6A4B1B686E4A4F
:106F8C001168052218460BF06FFB664B1B687549A0
:106F9C0018460BF093FB634B1B68D7F88C10184604
:106FAC000BF08CFB5F4B1B686F4918460BF086FB94
:106FBC005C4B1B686A4A1268114618460BF07EFB44
:106FCC00584B1B685C4A1168012218460BF04CFBAD
:106FDC00002003F0C5F80BF075F85A4B1B681946E6
:106FEC0053480BF091FE0346002B6CD05F49504880
:106FFC000BF08AFE0346002B65D054494C480BF02D
:10700C009BFE524900200BF097FE504900200BF0DC
:10701C0093FE4E4900200BF08FFEC7F88C00414BBD
:10702C001B684B4A1268114618460BF051FA3D4B3F
:10703C001B68484A1168A02218460BF07BFA4C4991
:10704C00D7F88C00FEF794F80346002B38D0354B5C
:10705C001B68484918460BF031FB324B1B68404A01
:10706C001268114618460BF029FB2E4B1B68324A4E
:10707C001168052218460BF0F7FA2A4B1B683949A0
:10708C0018460BF01BFB274B1B68D7F88C101846C7
:10709C000BF014FB234B1B68374918460BF00EFB07
:1070AC00204B1B682E4A1268114618460BF006FB43
:1070BC001C4B1B68204A1168052218460BF0D4FAA9
:1070CC00002003F05AF81F4B1B68194618480BF0A8
:1070DC001BFE0346002B59D0284915480BF014FE13
:1070EC000346002B52D0194911480BF025FE1749C5
:1070FC0000200BF021FE154900200BF01DFE13495A
:10710C0000200BF019FEC7F88C00064B1B68104AC8
:10711C001268114618460BF0DBF9024B1B682FE086
:10712C00ABAAAA2A5C4D0020A44B01080C0000203D
:10713C008845002044000020180100201000002089
:10714C004800002034000020A84B0108B04B010877
:10715C005800002038000020B44B0108C04B010837
:10716C0034010020E44B0108004C01081C4C0108C0
:10717C00244C0108304C0108544C0108704C010897
:10718C004C4A1168A02218460BF0D4F94A4B1B68E4
:10719C0019464A480BF0B8FD0346002B00F0A880B6
:1071AC00474946480BF0B0FD0346002B00F0A08089
:1071BC00444942480BF0C0FD424900200BF0BCFD95
:1071CC00404900200BF0B8FD3E4900200BF0B4FD07
:1071DC00C7F88C003C4B1B683C4A12681146184699
:1071EC000BF076F9384B1B68324A1168A02218460E
:1071FC000BF0A0F907F12803354A1C4613460FCBB8
:10720C0007C4238002341B0C237007F12803D7F822
:10721C008C1018460BF043FD07F128031846FDF7B8
:10722C00B1FF03461A4607F12803134429491A46AD
:10723C000B461B88138007F12803194626480BF0D0
:10724C004AFD264801F034FC0AF00AFC06F03AF933
:10725C00234A2449022006F061F906F04FF94FF455
:10726C007A7005F001FA184B1B68184609F07EF885
:10727C001D4B1B68184609F079F81C4B1B68184607
:10728C0009F074F8104B1B68184608F03AFF164BBF
:10729C001B68184608F035FF144B1B68184608F09D
:1072AC0030FF06F04FFD05F065F9642005F0DCF9C0
:1072BC00FFF712FD38000020340000208845002024
:1072CC00744C0108B04B01085C4D002058000020A4
:1072DC007C4C01088C4C0108E8150020904C0108EE
:1072EC00DEC0EDFE00010808A4440020A8440020E4
:1072FC00AD4B1B681946AD480BF006FD0346002B41
:10730C0000F09083AA4B1B681946A8480BF0FCFCB4
:10731C000346002B24D0A74B1B68A74A12681146C2
:10732C0018460BF0CBF9A34B1B680122A349184656
:10733C000BF000F99F4B1B68A14918460BF0BEF9E6
:10734C009C4B1B689F4A1268114618460BF0B6F905
:10735C00984B1B689C4A1168022218460BF0EAF8FD
:10736C009A4B1B68194691480BF0CEFC0346002B38
:10737C0007D04FF4FA6005F077F909F0F7FC00F04C
:10738C0073FB934B1B68194688480BF0BDFC0346F6
:10739C00002B75D001F020F9864B1B68864A1268C9
:1073AC00114618460BF08AF9824B1B68012283495F
:1073BC0018460BF0BFF87F4B1B68814918460BF041
:1073CC007DF97C4B1B687F4A1268114618460BF0FE
:1073DC0075F9784B1B687C4A1168022218460BF031
:1073EC00A9F8744B1B687B4A1268114618460BF0BF
:1073FC0065F9704B1B68784918460BF05FF96D4BBB
:10740C001B68764918460BF059F96A4B1B68744A8D
:10741C001268114618460BF051F9664B1B687149FE
:10742C0018460BF04BF9634B1B686F4A1168A0228E
:10743C0018460BF07FF85F4B1B685F4A12681146C9
:10744C0018460BF03BF95B4B1B6801225B49184655
:10745C000BF070F8574B1B68594918460BF02EF976
:10746C00544B1B68574A1268114618460BF026F904
:10747C00504B1B68544A1168022218460BF05AF8FC
:10748C005A4B1B68194649480BF03EFC0346002B2F
:10749C0075D001F0A1F8474B1B68474A126811469A
:1074AC0018460BF00BF9434B1B6801224349184655
:1074BC000BF040F83F4B1B68414918460BF0FEF8A7
:1074CC003C4B1B683F4A1268114618460BF0F6F805
:1074DC00384B1B683C4A1168022218460BF02AF8FC
:1074EC00344B1B683B4A1268114618460BF0E6F801
:1074FC00304B1B68384918460BF0E0F82D4B1B68D5
:10750C00364918460BF0DAF82A4B1B68384A1268D1
:10751C00114618460BF0D2F8264B1B683149184619
:10752C000BF0CCF8234B1B682F4A1168A02218468D
:10753C000BF000F81F4B1B681F4A126811461846C7
:10754C000BF0BCF81B4B1B6801221C4918460AF0B7
:10755C00F1FF184B1B681A4918460BF0AFF8154B86
:10756C001B68184A1268114618460BF0A7F8114B05
:10757C001B68154A1168022218460AF0DBFF1D4BE6
:10758C001B68194609480BF0BFFB0346002B00F0A3
:10759C00A08001F021F8074B1B68074A12681146BE
:1075AC0018460BF08BF827E01400002088450020CB
:1075BC00200000205C4D00204C0000209C4C010859
:1075CC00A04C010818000020180100201C0000200D
:1075DC002800002054000020A83F0020A84C0108DF
:1075EC00A8000020884B0108240000202C0000205B
:1075FC00AC00002030000020AE4B1B680122AE49CD
:10760C0018460AF097FFAB4B1B68AC4918460BF0B9
:10761C0055F8A84B1B68AA4A1268114618460BF07D
:10762C004DF8A44B1B68A74A1168022218460AF0B1
:10763C0081FFA04B1B68A44A1268114618460BF038
:10764C003DF89C4B1B68A14918460BF037F8994B39
:10765C001B689F4918460BF031F8964B1B689D4AE6
:10766C001268114618460BF029F8924B1B689A4980
:10767C0018460BF023F88F4B1B68984A11684FF48F
:10768C00967218460AF056FF8A4B1B68944A126889
:10769C00114618460BF012F8864B1B6801228649DE
:1076AC0018460AF047FF834B1B68844918460BF0B9
:1076BC0005F8804B1B68824A1268114618460AF07E
:1076CC00FDFF7C4B1B687F4A1168022218460AF0AA
:1076DC0031FF844984480BF017FB0346002B38D04C
:1076EC00824981480BF028FB814900200BF024FBD8
:1076FC00024607F11803114618460BF0ECFA07F195
:10770C001803184601F04AF86A4B1B68744A126851
:10771C00114618460AF0D2FF664B1B6801226649D7
:10772C0018460AF007FF634B1B68644918460AF0B9
:10773C00C5FF604B1B68624A1268114618460AF076
:10774C00BDFF5C4B1B685F4A1168022218460AF0A9
:10775C00F1FE684964480BF0D7FA0346002B33D08E
:10776C00624961480BF0E8FA614900200BF0E4FA39
:10777C000346194660480BF0AEFA09F009FB4D4B75
:10778C001B68574A1268114618460AF097FF494B76
:10779C001B680122484918460AF0CCFE454B1B6871
:1077AC00464918460AF08AFF424B1B68444A126845
:1077BC00114618460AF082FF3E4B1B68414A11687D
:1077CC00022218460AF0B6FE4C4947480BF09CFAC8
:1077DC000346002B65D0454943480BF0ADFA4449AC
:1077EC0000200BF0A9FA024607F10C0311461846CB
:1077FC000BF071FA07F10C0318460BF05FF9034616
:10780C00184602F0C7FD03F069F902F09BFF294B03
:10781C001B68334A1268114618460AF04FFF254B75
:10782C001B680122244918460AF084FE214B1B6870
:10783C00334918460AF042FF1E4B1B68204A126857
:10784C00114618460AF03AFF1A4B1B681D4A11687C
:10785C00022218460AF06EFE164B1B68204A12686C
:10786C00114618460AF02AFF124B1B6801221249D6
:10787C0018460AF05FFE0F4B1B68104918460AF0B9
:10788C001DFF0C4B1B680E4A1268114618460AF075
:10789C0015FF084B1B680B4A1168022218460AF0A8
:1078AC0049FE184910480BF02FFA0346002B5DD007
:1078BC002AE000BF5C4D00209C4C0108A04C010844
:1078CC00180000201801002054000020A83F0020C0
:1078DC00A84C0108B8000020884B010824000020A7
:1078EC004C000020AC4C010888450020B44C010829
:1078FC008C4C0108B84C0108A0020020C04C0108B7
:10790C00CC020020C84C010809F030FA02F0BCFD92
:10791C0002F06EFF012003F049F903F0DFF802F0EA
:10792C0011FF484B1B68484A1268114618460AF06A
:10793C00C5FE444B1B680122444918460AF0FAFD67
:10794C00404B1B68424918460AF0B8FE3D4B1B6879
:10795C00404A1268114618460AF0B0FE394B1B68B3
:10796C003D4A1168022218460AF0E4FD3B493C48A6
:10797C000BF0CAF90346002B26D00AF0A7F8314BBE
:10798C001B68314A1268114618460AF097FE2D4BB7
:10799C001B6801222D4918460AF0CCFD294B1B68A7
:1079AC002B4918460AF08AFE264B1B68294A126896
:1079BC00114618460AF082FE224B1B68264A1168B3
:1079CC00022218460AF0B6FD264925480BF09CF910
:1079DC000346002B26D00AF085F81A4B1B681A4A6E
:1079EC001268114618460AF069FE164B1B680122F4
:1079FC00164918460AF09EFD124B1B68144918468E
:107A0C000AF05CFE0F4B1B68124A126811461846AE
:107A1C000AF054FE0B4B1B680F4A116802221846E1
:107A2C000AF088FDD7F894207B689A42FFF6DBA910
:107A3C00D7F89030012B3FF4D6A900BF00BF9C377C
:107A4C00BD4690BD5C4D00204C0000209C4C0108B4
:107A5C00A04C01081800002018010020D44C01088B
:107A6C0088450020E04C010880B500AFAC4B1B688A
:107A7C00AC4A1268114618460AF020FEA84B1B6847
:107A8C000122A94918460AF055FDA54B1B68A749C8
:107A9C0018460AF013FEA24B1B68A54918460AF0BB
:107AAC000DFE9F4B1B68A34918460AF007FE9C4B22
:107ABC001B68A14A1268114618460AF0FFFD984B44
:107ACC001B689E4A1168042218460AF033FD3220C6
:107ADC0004F0CAFD924B1B68924A12681146184674
:107AEC000AF0ECFD8E4B1B6801228F4918460AF0F8
:107AFC0021FD8B4B1B68924918460AF0DFFD884B21
:107B0C001B68904918460AF0D9FD854B1B688949BA
:107B1C0018460AF0D3FD824B1B68874A126811463F
:107B2C0018460AF0CBFD7E4B1B68844A1168042270
:107B3C0018460AF0FFFC322004F096FD784B1B68C7
:107B4C00784A1268114618460AF0B8FD744B1B6847
:107B5C000122754918460AF0EDFC714B1B687A49F5
:107B6C0018460AF0ABFD6E4B1B68784918460AF0B4
:107B7C00A5FD6B4B1B686F4918460AF09FFD684BBF
:107B8C001B686D4A1268114618460AF097FD644B43
:107B9C001B686A4A1168042218460AF0CBFC322092
:107BAC0004F062FD5E4B1B685E4A12681146184673
:107BBC000AF084FD5A4B1B6801225B4918460AF0F7
:107BCC00B9FC574B1B68624918460AF077FD544BB9
:107BDC001B68604918460AF071FD514B1B685549EA
:107BEC0018460AF06BFD4E4B1B68534A126811463F
:107BFC0018460AF063FD4A4B1B68504A1168042270
:107C0C0018460AF097FC322004F02EFD444B1B68FA
:107C1C00444A1268114618460AF050FD404B1B6846
:107C2C000122414918460AF085FC3D4B1B684A4924
:107C3C0018460AF043FD3A4B1B68484918460AF0AF
:107C4C003DFD374B1B68464918460AF037FD344B4F
:107C5C001B68444918460AF031FD314B1B68354905
:107C6C0018460AF02BFD2E4B1B68334A126811463E
:107C7C0018460AF023FD2A4B1B68304A116804226F
:107C8C0018460AF057FC322004F0EEFC244B1B681B
:107C9C00244A1268114618460AF010FD204B1B6846
:107CAC000122214918460AF045FC1D4B1B682E4940
:107CBC0018460AF003FD1A4B1B682C4918460AF0AB
:107CCC00FDFC174B1B681B4918460AF0F7FC144BBC
:107CDC001B68194A1268114618460AF0EFFC104B43
:107CEC001B68164A1168042218460AF023FC32203D
:107CFC0004F0BAFC0A4B1B680A4A12681146184673
:107D0C000AF0DCFC064B1B680122074918460AF0F6
:107D1C0011FC034B1B68164918460AF0CFFC29E0EE
:107D2C005C4D00204C0000209C4C0108EC4C0108E0
:107D3C00F83C00208C4C0108180000201801002091
:107D4C00F44C0108143E0020FC4C01089803002060
:107D5C00044D010828440020144D0108CC020020D9
:107D6C001C4D010818050020244D0108F43D00208D
:107D7C002C4D0108AC4B1B68AC4918460AF09EFC14
:107D8C00A94B1B68AA4918460AF098FCA64B1B681D
:107D9C00A84A1268114618460AF090FCA24B1B68C0
:107DAC00A54A1168042218460AF0C4FB322004F0DC
:107DBC005BFC9D4B1B68A14A1268114618460AF0E1
:107DCC007DFC994B1B6801229D4918460AF0B2FBB9
:107DDC00954B1B689B4918460AF070FC924B1B682C
:107DEC00994918460AF06AFC8F4B1B689049184653
:107DFC000AF064FC8C4B1B688E4A126811461846BC
:107E0C000AF05CFC884B1B688B4A116804221846EC
:107E1C000AF090FB322004F027FC834B1B68874A46
:107E2C001268114618460AF049FC7F4B1B68012268
:107E3C00834918460AF07EFB7B4B1B688349184626
:107E4C000AF03CFC784B1B68814918460AF036FC5A
:107E5C00754B1B68764918460AF030FC724B1B6850
:107E6C00744A1268114618460AF028FC6E4B1B68BF
:107E7C00714A1168042218460AF05CFB322004F0A7
:107E8C00F3FB694B1B686D4A1268114618460AF0E1
:107E9C0015FC654B1B680122694918460AF04AFB20
:107EAC00614B1B686B4918460AF008FC5E4B1B685B
:107EBC00694918460AF002FC5B4B1B685C49184682
:107ECC000AF0FCFB584B1B685A4A126811461846BC
:107EDC000AF0F4FB544B1B68574A116804221846ED
:107EEC000AF028FB322004F0BFFB4F4B1B68534AAF
:107EFC001268114618460AF0E1FB4B4B1B68012235
:107F0C004F4918460AF016FB474B1B685349184655
:107F1C000AF0D4FB444B1B68514918460AF0CEFBBF
:107F2C00414B1B68424918460AF0C8FB3E4B1B6884
:107F3C00404A1268114618460AF0C0FB3A4B1B68BF
:107F4C003D4A1168042218460AF0F4FA322004F073
:107F5C008BFB354B1B68394A1268114618460AF0E0
:107F6C00ADFB314B1B680122354918460AF0E2FA89
:107F7C002D4B1B683B4918460AF0A0FB2A4B1B688B
:107F8C00394918460AF09AFB274B1B6828491846B2
:107F9C000AF094FB244B1B68264A126811461846BB
:107FAC000AF08CFB204B1B68234A116804221846EC
:107FBC000AF0C0FA322004F057FB1B4B1B681F4A17
:107FCC001268114618460AF079FB174B1B68012200
:107FDC001B4918460AF0AEFA134B1B682349184686
:107FEC000AF06CFB104B1B68214918460AF066FB23
:107FFC000D4B1B680E4918460AF060FB0A4B1B68B8
:10800C000C4A1268114618460AF058FB064B1B68BE
:10801C00094A1168042218460AF08CFA322004F03E
:10802C0023FB014B1B6825E05C4D002090020020D7
:10803C008C4C010818000020180100204C00002076
:10804C009C4C0108344D0108CC4100203C4D0108EA
:10805C00B8020020444D0108184400204C4D010882
:10806C00AC020020544D01080C4400205C4D01086A
:10807C008C410020AD4A1268114618460AF01EFBCE
:10808C00AB4B1B680122AB4918460AF053FAA84BBC
:10809C001B68A94918460AF011FBA54B1B68A74998
:1080AC0018460AF00BFBA24B1B68A54918460AF0B0
:1080BC0005FB9F4B1B68A34A1268114618460AF031
:1080CC00FDFA9B4B1B68A04A1168042218460AF063
:1080DC0031FA322004F0C8FA954B1B68934A1268A7
:1080EC00114618460AF0EAFA914B1B680122914995
:1080FC0018460AF01FFA8E4B1B68944918460AF072
:10810C00DDFA8B4B1B68924918460AF0D7FA884B5C
:10811C001B688B4918460AF0D1FA854B1B68894AB3
:10812C001268114618460AF0C9FA814B1B68864A38
:10813C001168042218460AF0FDF9322004F094FA72
:10814C007B4B1B68794A1268114618460AF0B6FA3E
:10815C00774B1B680122774918460AF0EBF9744BF0
:10816C001B687C4918460AF0A9FA714B1B687A49BE
:10817C0018460AF0A3FA6E4B1B68714918460AF0B0
:10818C009DFA6B4B1B686F4A1268114618460AF031
:10819C0095FA674B1B686C4A1168042218460AF062
:1081AC00C9F9322004F060FA614B1B685F4A12680F
:1081BC00114618460AF082FA5D4B1B6801225D4994
:1081CC0018460AF0B7F95A4B1B68644918460AF06E
:1081DC0075FA574B1B68624918460AF06FFA544BF4
:1081EC001B68574918460AF069FA514B1B68554AE7
:1081FC001268114618460AF061FA4D4B1B68524A38
:10820C001168042218460AF095F9322004F02CFA71
:10821C00474B1B68454A1268114618460AF04EFA3D
:10822C00434B1B680122434918460AF083F9404B23
:10823C001B684C4918460AF041FA3D4B1B684A49E9
:10824C0018460AF03BFA3A4B1B683D4918460AF0AF
:10825C0035FA374B1B683B4A1268114618460AF030
:10826C002DFA334B1B68384A1168042218460AF061
:10827C0061F9322004F0F8F92D4B1B682B4A126877
:10828C00114618460AF01AFA294B1B680122294993
:10829C0018460AF04FF9264B1B68344918460AF069
:1082AC000DFA234B1B68324918460AF007FA204B8B
:1082BC001B68234918460AF001FA1D4B1B68214A1A
:1082CC001268114618460AF0F9F9194B1B681E4A38
:1082DC001168042218460AF02DF9322004F0C4F972
:1082EC00134B1B68114A1268114618460AF0E6F93E
:1082FC000F4B1B6801220F4918460AF01BF90C4B57
:10830C001B681C4918460AF0D9F9094B1B681A4A14
:10831C001268114618460AF0D1F9054B1B6808493A
:10832C0018460AF0CBF9024B1B6827E04C000020E2
:10833C005C4D00209C4C0108644D0108043D00205C
:10834C008C4C010818000020180100206C4D01080D
:10835C001C040020744D0108680200207C4D0108AB
:10836C0048430020844D01089C3D00208C4D0108A1
:10837C00B0040020944D010800000020874A1268C8
:10838C00114618460AF09AF9854B1B68854A116804
:10839C00042218460AF0CEF8322004F065F9804B1E
:1083AC001B68814A1268114618460AF087F97C4B03
:1083BC001B6801227D4918460AF0BCF8784B1B68F3
:1083CC007B4918460AF07AF9754B1B68794A126892
:1083DC00114618460AF072F9714B1B68764918461B
:1083EC000AF06CF96E4B1B686C4A12681146184601
:1083FC000AF064F96A4B1B686A4A11680422184631
:10840C000AF098F8322004F02FF9654B1B68664A85
:10841C001268114618460AF051F9614B1B6801228B
:10842C00624918460AF086F85D4B1B68634918468A
:10843C000AF044F9624B31221A70594B1B6860499F
:10844C0018460AF03BF9564B1B685B4918460AF074
:10845C0035F9534B1B68514A1268114618460AF0FD
:10846C002DF94F4B1B684F4A1168042218460AF02D
:10847C0061F8322004F0F8F8494B1B684A4A12683C
:10848C00114618460AF01AF9454B1B680122474958
:10849C0018460AF04FF8424B1B684A4918460AF036
:1084AC000DF93F4B1B68484918460AF007F93C4B3D
:1084BC001B68414918460AF001F9394B1B68374AC9
:1084CC001268114618460AF0F9F8354B1B68354A04
:1084DC001168042218460AF02DF8322004F0C4F872
:1084EC002F4B1B68304A1268114618460AF0E6F802
:1084FC002B4B1B6801222D4918460AF01BF8284B00
:10850C001B68324918460AF0D9F8254B1B683049CC
:10851C0018460AF0D3F8224B1B68274918460AF074
:10852C00CDF81F4B1B681D4A1268114618460AF0FD
:10853C00C5F81B4B1B681B4A11680422184609F02E
:10854C00F9FF322004F090F8154B1B68164A12689C
:10855C00114618460AF0B2F8114B1B680122134958
:10856C00184609F0E7FF0E4B1B681A4918460AF02B
:10857C00A5F80B4B1B68094A1268114618460AF0FD
:10858C009DF8074B1B68074A11680422184609F02E
:10859C00D1FF322004F068F800BF80BD1800002025
:1085AC005C4D0020180100204C0000209C4C010860
:1085BC009C4D0108040000208C4C0108A44D0108BE
:1085CC0070430020AC4D0108A0040020B84D0108F8
:1085DC00F8400020C84D010880B58AB000AF424B6E
:1085EC001B68424A1268114618460AF067F83E4B5F
:1085FC001B683F4A1168012218460AF035F83D49BC
:10860C003D480AF099FB786266E03C49786A0AF0CA
:10861C007BFB0346002B5AD03949786A0AF08CFB55
:10862C00384900200AF088FB0346194636480AF000
:10863C0052FB364900200AF07FFB324900200AF039
:10864C007BFB02463B1D114618460AF044FB264BA9
:10865C001B68264A1268114618460AF02FF8224B5E
:10866C001B68234A11680122184609F0FDFF2149B5
:10867C0021480AF061FB786226E03B1D1946786AB6
:10868C000AF042FB0346002B19D02149786A0AF004
:10869C003BFB0346002B12D01949786A0AF04CFBBD
:1086AC00184900200AF048FB0346194619480AF0FD
:1086BC0012FB164900200AF03FFB012310E00D4984
:1086CC0000200AF039FB78627B6A002BD5D109496E
:1086DC0000200AF031FB78627B6A002B95D10023D5
:1086EC0018462837BD4680BD5C4D00205000002048
:1086FC0018010020884B010888450020D04D010846
:10870C00D44D0108A84C0108D83E0020D84D0108D2
:10871C00DC4D0108A83F002080B500AFFFF75CFFDF
:10872C00154B1B681549184609F0C8FF124B1B68FE
:10873C001349184609F0C2FF0F4B1B68114A126807
:10874C001146184609F0BAFF0B4B1B680E4A11680C
:10875C000222184609F0EEFE0C490D480AF0ECFA1C
:10876C000C4900200AF0E8FA034619460A480AF0B8
:10877C00B2FA00BF80BD00BF5C4D0020E04D010887
:10878C00D83E00203401002018010020D44D0108EF
:10879C0088450020884B0108A004002080B582B0D9
:1087AC0000AF7860164B1B681649184609F086FF17
:1087BC00134B1B687968184609F080FF104B1B6837
:1087CC001149184609F07AFF0D4B1B680F4A1268C5
:1087DC001146184609F072FF094B1B680C4A1168C8
:1087EC000522184609F0A6FE054B1B68074A1168BE
:1087FC001422184609F09EFE00BF0837BD4680BD06
:10880C005C4D0020EC4D0108F04D010834010020B6
:10881C0018010020B0B584B004AF164B1B680022C1
:10882C001549184606F021FB124B1B680022134910
:10883C00184606F015FC114BDB781C460F4B5B7889
:10884C001D460E4B9B781A460B4B1B7819460A4B50
:10885C005B781846084B9B78039302900191009229
:10886C002B462246064907480AF08AF900BFBD4646
:10887C00B0BD00BF8445002054020020DC40002025
:10888C00F44D01086802002080B58AB004AF07F1EE
:10889C00100107F114023B4603933B1D029307F1B1
:1088AC000803019307F10C0300930B461649174874
:1088BC000AF086F97B69DAB2154BDA703B69DAB2E9
:1088CC00134B5A70FB68DAB2114B9A70BB68DAB270
:1088DC00104B1A707B68DAB20E4B5A703B68DAB2E6
:1088EC000C4B9A700C4B1B6800220A49184606F078
:1088FC0008FA094B1B6800220549184606F012FBC2
:10890C0000BF1837BD4680BD144E01086802002018
:10891C00DC400020540200208445002080B582B049
:10892C0000AF78600E4B1B680E49184609F0C6FE66
:10893C000B4B1B687968184609F0C0FE084B1B6886
:10894C000949184609F0BAFE054B1B68074A11681D
:10895C000522184609F088FE00BF0837BD4680BDC9
:10896C005C4D00202C4E0108644E010818010020BB
:10897C0080B588B000AF78600023FB6107F10C0371
:10898C000A221946F8690AF0E3F8404B00221A70E3
:10899C003F4B1B683F49184609F090FE3C4B1B6847
:1089AC007968184609F08AFE394B1B683A49184613
:1089BC0009F084FE364B1B6807F10C021146184671
:1089CC0009F07CFE324B1B68344A1268114618467B
:1089DC0009F074FE2E4B1B68314A116801221846AF
:1089EC0009F0A8FD0346332B44D100234AE02D4B5C
:1089FC00BB61B869FCF7C6FB0346063BBA69134476
:108A0C0000221A70B96921480AF049F9FB6932331E
:108A1C00FB6107F10C030A221946F8690AF098F871
:108A2C001B4B1B681B49184609F048FE184B1B686A
:108A3C007968184609F042FE154B1B681649184612
:108A4C0009F03CFE124B1B6807F10C02114618464C
:108A5C0009F034FE0E4B1B68104A1268114618467A
:108A6C0009F02CFE0A4B1B680D4A116801221846AE
:108A7C0009F060FD0C490D480AF046F90346002B3D
:108A8C00B5D0012318462037BD4680BDE81500201F
:108A9C005C4D00203C4E0108684E0108340100205A
:108AAC00180100208A450020704E010888450020DE
:108ABC0080B584B000AF78607868FFF72FFF354839
:108ACC00FCF760FB0346184607F108030A22194617
:108ADC000AF03EF8304B1B68304A126811461846B3
:108AEC0009F0ECFD2C4B1B687968184609F0E6FD83
:108AFC00294B1B682A4A12681146184609F0DEFDFC
:108B0C00254B1B68274A12681146184609F0D6FDFA
:108B1C00214B1B68224A12681146184609F0CEFDFB
:108B2C001D4B1B6807F108021146184609F0C6FDDB
:108B3C00194B1B681A4A12681146184609F0BEFDFB
:108B4C00154B1B68184A12681146184609F0B6FDF9
:108B5C00114B1B68154A12681146184609F0AEFDF8
:108B6C000D4B1B68124A11680522184609F07CFD52
:108B7C00094B1B680749184609F0AAFC064B1B68F1
:108B8C000C4A11680522184609F06EFD00BF10371B
:108B9C00BD4680BDE81500205C4D00206000002023
:108BAC0038010020640000206800002034010020FF
:108BBC005C0000201801002080B586B000AFF86082
:108BCC00B9607A6007F110030A221946786809F037
:108BDC00BFFF344B1B68344A12681146184609F023
:108BEC006DFD304B1B68F968184609F067FD2D4B7D
:108BFC001B682E4A12681146184609F05FFD294B76
:108C0C001B682B49184609F059FD264B1B68274A4F
:108C1C0012681146184609F051FD224B1B6807F1EA
:108C2C0010021146184609F049FD1E4B1B681F4ADD
:108C3C0012681146184609F041FD1A4B1B681D4A73
:108C4C0012681146184609F039FD164B1B681A4A72
:108C5C0012681146184609F031FD124B1B68174A71
:108C6C0011680522184609F065FC0346332B01D127
:108C7C00002313E00B4B1B68B968184609F028FC5D
:108C8C00084B1B680E4A11680B22184609F052FC5F
:108C9C000346332B01D1002300E00123184618377B
:108CAC00BD4680BD5C4D00206000002038010020D6
:108CBC00784E010868000020340100205C00002080
:108CCC001801002080B400AFBFF34F8F00BF064BDC
:108CDC00DB6803F4E0620449044B1343CB60BFF33D
:108CEC004F8F00BF00BFFDE700ED00E00400FA0568
:108CFC0080B500AF4B4B1B68382B40F090804A4B33
:108D0C001B684A4A12681146184609F0D7FC464BB4
:108D1C001B684749184609F0D1FC434B1B68454971
:108D2C00184609F0CBFC404B1B684349184609F028
:108D3C00C5FC3D4B1B68414A11680122184609F0DD
:108D4C0093FC394B1B683E4A12681146184609F0D1
:108D5C00B5FC354B1B68394A11680122184609F0DD
:108D6C0083FC314B1B68374A12681146184609F0D0
:108D7C00A5FC2D4B1B68344A11683222184609F0A9
:108D8C00D9FB0346332B01D1002349E04FF47A7011
:108D9C0003F06AFC244B1B682C4A126811461846D7
:108DAC0009F08CFC204B1B68244A116805221846DC
:108DBC0009F05AFC2649274809F08DFF1A4B1B680D
:108DCC00254A11683C22184609F0B4FB234B0022BB
:108DDC001A60234B00221A60224B00221A6022498F
:108DEC001C4809F091FF0346002B02D01B4B0122BB
:108DFC001A601E49174809F087FF0346002B02D062
:108E0C00174B01221A601A49124809F07DFF0346DC
:108E1C00002B02D0134B01221A60012300E0002327
:108E2C00184680BD5C0100205C4D002090000020A5
:108E3C00D84F01089C3D0020E04F0108180100208C
:108E4C008C000020940000206C0000209800002072
:108E5C0088450020E815002034010020284100201E
:108E6C00AC040020A43F0020E84F0108F44F010897
:108E7C000050010880B500AF444B1B68444A12688F
:108E8C001146184609F01AFC404B1B68414A116800
:108E9C000122184609F0E8FB3C4B1B683E4A12685D
:108EAC001146184609F00AFC384B1B683B4918461A
:108EBC0009F004FC354B1B68394A126811461846F8
:108ECC0009F0FCFB314B1B68324A11680122184631
:108EDC0009F0CAFB2D4B1B68324A12681146184622
:108EEC0009F0ECFB294B1B682F49184609F0E6FBEF
:108EFC00264B1B682A4A12681146184609F0DEFBFD
:108F0C00224B1B68234A11680122184609F0ACFB5E
:108F1C001E4B1B68254A12681146184609F0CEFBF9
:108F2C001A4B1B682249184609F0C8FB174B1B68E3
:108F3C001B4A12681146184609F0C0FB134B1B68FC
:108F4C00144A11680122184609F08EFB0F4B1B685E
:108F5C00184A12681146184609F0B0FB0B4B1B68F7
:108F6C001549184609F0AAFB084B1B680C4A1268F5
:108F7C001146184609F0A2FB044B1B68054A116800
:108F8C000122184609F070FB00BF80BD5C4D00202B
:108F9C00740000201801002078000020003E002002
:108FAC00880000207C00002050040020800000205D
:108FBC00B440002084000020B4030020B0B500AF02
:108FCC00FFF796FE934B1B68012B49D1924B1B6804
:108FDC009249184609F072FB8F4B1B68904A116836
:108FEC000122184609F040FB8B4B1B688D4A126816
:108FFC001146184609F062FB874B1B68884A1168BA
:10900C000122184609F030FB834B1B68864A116815
:10901C004FF49672184609F08DFA0346322B1FD185
:10902C007D4B1B688149184609F048FB7A4B1B683D
:10903C007B4A11680122184609F016FB764B1B6817
:10904C001E227B49184609F075FA7A48FFF790FC06
:10905C00794B1B681846FFF72BFD012001F080F8B7
:10906C00764B1B68012B49D16B4B1B687449184616
:10907C0009F024FB684B1B68694A116801221846E9
:10908C0009F0F2FA644B1B686E4A126811461846D6
:10909C0009F014FB604B1B68614A116801221846E9
:1090AC0009F0E2FA5C4B1B685F4A11684FF4C87216
:1090BC00184609F03FFA0346322B1FD1564B1B685A
:1090CC005A49184609F0FAFA534B1B68544A11686E
:1090DC000122184609F0C8FA4F4B1B681E2254494E
:1090EC00184609F027FA5348FFF742FC524B1B680D
:1090FC001846FFF7DDFC012001F03FF8524B1B68CE
:10910C00012B40F08580444B1B685049184609F0F0
:10911C00D5FA414B1B68424A11680122184609F0E6
:10912C00A3FA3D4B1B684A4A12681146184609F0CF
:10913C00C5FA394B1B683A4A11680122184609F0E6
:10914C0093FA354B1B68384A11684FF4FA6218468B
:10915C0009F0F0F90346322B5AD12F4B1B683349D7
:10916C00184609F0ABFA2C4B1B682D4A11680122EA
:10917C00184609F079FA284B1B681E222C49184610
:10918C0009F0D8F9334A344B15461C460FCC2860ED
:10919C006960AA60EB602068286123792B752F48E1
:1091AC00FFF786FC08F05CFC04F08CF92C4A2D4986
:1091BC00022004F0B3F904F0A1F94FF47A7003F033
:1091CC0053FA154B1B68184607F0D0F8264B1B6852
:1091DC00184607F0CBF8254B1B68184607F0C6F865
:1091EC000D4B1B68184606F08CFF1F4B1B6818466E
:1091FC0006F087FF1D4B1B68184606F082FF04F033
:10920C00A1FD03F0B7F9642003F02EFAFFF75AFD25
:10921C0000BFB0BD284100205C4D0020105001085B
:10922C00180100209C000020700000203050010824
:10923C004050010850500108A8000020AC04002048
:10924C0064500108A0000020A43F002080500108B9
:10925C00A4000020E8150020A0500108B850010817
:10926C00DEC0EDFE00010808A4440020A844002044
:10927C0080B500AF0D4B1B680D4A934213D104F01F
:10928C0021F90C4A0949022004F048F904F036F996
:10929C0004F018F9074A0549022004F03FF904F0DC
:1092AC002DF9FFF70FFD00BF80BD00BF00010808BE
:1092BC00DEC0EDFEDDC0EDFE80B500AF1F4B1B68C0
:1092CC001F4A934237D01F4B1B681F49184609F0A1
:1092DC00FFF81C4B1B681D4A11680222184609F046
:1092EC0029F9184B1B681A49184609F0F1F8154B67
:1092FC001B68164A11680222184609F01BF900F087
:10930C00C5FD00F021FA00F0FDFE00F063FD03F056
:10931C000BF904F0D7F80A4A0849022004F0FEF8C9
:10932C0004F0ECF804F0CEF8054A0449022004F0ED
:10933C00F5F804F0E3F800BF80BD00BF0002080898
:10934C00DEC0EDFE5C4D00203051010818010020FC
:10935C004451010880B5ADF5836D08AF3B1D186015
:10936C003B1D1B68002B05D1C24B1B681846FFF731
:10937C00FFFA04E0C04B1B681846FFF7F9FABF4927
:10938C00BF4809F0C1FCC7F8F403D7F8F433002B3D
:10939C001AD0D7F8F4339A1D07F10C03114618466E
:1093AC0009F099FC07F10C03B649184609F09BFC2F
:1093BC00024607F10C030021995407F10C03B24A41
:1093CC00B249184609F0FCFBB149AD4809F09CFCC8
:1093DC00C7F8F403D7F8F433002B1CD0D7F8F433C8
:1093EC00DA1D07F10C031146184609F074FC07F15D
:1093FC000C03A449184609F076FC024607F10C034D
:10940C000021995407F10C00A24B0093A24BA34AE4
:10941C00A34909F0D5FBA349994809F075FCC7F895
:10942C00F403D7F8F433002B22D0D7F8F4331A1DF9
:10943C0007F10C031146184609F04DFC07F10C031B
:10944C009049184609F04FFC024607F10C03002125
:10945C00995407F10C00944B0393944B0293944B47
:10946C000193944B0093944B944A954909F0A8FBB3
:10947C009449834809F048FCC7F8F403D7F8F4334F
:10948C00002B1ED0D7F8F4331A1D07F10C0311462C
:10949C00184609F020FC07F10C037A49184609F02C
:1094AC0022FC024607F10C030021995407F10C0031
:1094BC00854B0193854B0093854B864A864909F071
:1094CC007FFB86496E4809F01FFCC7F8F403D7F8F8
:1094DC00F433002B2AD0D7F8F4335A1D07F10C03C0
:1094EC001146184609F0F7FB07F10C0365491846BD
:1094FC0009F0F9FB024607F10C030021995407F11E
:10950C000C00774B0793774B0693774B0593774B70
:10951C000493774B0393774B0293774B0193774BE1
:10952C000093774B774A784909F04AFB77495448BE
:10953C0009F0EAFBC7F8F403D7F8F433002B24D076
:10954C00D7F8F4331A1D07F10C031146184609F02D
:10955C00C2FB07F10C034B49184609F0C4FB024649
:10956C0007F10C030021995407F10C00684B04938C
:10957C00684B0393684B0293684B0193684B0093C1
:10958C00684B694A694909F01BFB69493C4809F079
:10959C00BBFBC7F8F403D7F8F433002B1AD0D7F879
:1095AC00F4339A1D07F10C031146184609F093FB8E
:1095BC0007F10C033349184609F095FB024607F1F5
:1095CC000C030021995407F10C035A4A2F491846F1
:1095DC0009F0F6FA58492A4809F096FBC7F8F40343
:1095EC00D7F8F433002B1AD0D7F8F4339A1D07F1BF
:1095FC000C031146184609F06EFB07F10C032149C8
:10960C00184609F070FB024607F10C03002199542F
:10961C0007F10C03494A1D49184609F0D1FA48498B
:10962C00174809F071FBC7F8F403D7F8F433002B93
:10963C001AD0D7F8F4339A1D07F10C0311461846CB
:10964C0009F049FB07F10C030E49184609F04BFBD6
:10965C00024607F10C030021995407F10C03394A17
:10966C000A49184609F0ACFA00BF07F57E77BD46EB
:10967C0080BD00BFA8000020B0000020D45101081C
:10968C00E8150020DC510108203E0020E0510108C3
:10969C00E451010828440020A0020020F8400020DA
:1096AC00EC510108FC5101088C3D002004410020C4
:1096BC0034440020400200204C3E002034020020A4
:1096CC000052010824520108E40400200044002048
:1096DC002C410020AC3F00202852010840520108C8
:1096EC003242002028420020EC400020184100208B
:1096FC00703E0020E0400020343E00203841002025
:10970C001C420020383D00204852010884520108B8
:10971C00E63E0020DC3E0020A8030020B40300201D
:10972C00B440002050040020003E00208852010864
:10973C00B45201088C410020BC520108043D0020A9
:10974C00C45201081C04002080B582B000AFBE4B8F
:10975C00BE4A106818609188927999809A71BC49B8
:10976C00B94809F09CFAB848FBF70CFD03461A46B9
:10977C00B54B1344B74A10681860B348FBF702FDA9
:10978C0003461A46B04B1344B3491A460B4603CB57
:10979C0010605160B149AC4809F081FAAA48FBF756
:1097AC00F1FC03461A46A84B1344AD491A460B4626
:1097BC001B881380AB49A44809F071FAA248FBF747
:1097CC00E1FC03461A46A04B1344A5491A460B4626
:1097DC001B881380A4499C4809F061FA9A48FBF74E
:1097EC00D1FC03461A46984B13449A4A10681860E9
:1097FC009548FBF7C7FC03461A46934B13449B4A08
:10980C001068186012791A7199498F4809F047FA53
:10981C008D48FBF7B7FC03461A468B4B1344904913
:10982C001A460B461B8813809249874809F037FA71
:10983C008548FBF7A7FC03461A46834B134488491B
:10984C001A460B461B8813808B497F4809F027FA70
:10985C007D48FBF797FC03461A467B4B1344804923
:10986C001A460B461B8813808449774809F017FA6F
:10987C007548FBF787FC03461A46734B1344754A2D
:10988C00106818607048FBF77DFC03461A466E4B57
:10989C0013447B4A1068186012791A7179496A4826
:1098AC0009F0FDF96848FBF76DFC03461A46664B58
:1098BC0013446B491A460B461B8813807249624845
:1098CC0009F0EDF96048FBF75DFC03461A465E4B68
:1098DC00134463491A460B461B8813806B495A483C
:1098EC0009F0DDF95848FBF74DFC03461A46564B78
:1098FC0013445B491A460B461B8813806449524833
:10990C0009F0CDF95048FBF73DFC03461A464E4B87
:10991C00134453491A460B461B8813805D494A4829
:10992C0009F0BDF94848FBF72DFC03461A46464B97
:10993C0013444B491A460B461B8813805649424820
:10994C0009F0ADF94048FBF71DFC03461A463E4BA7
:10995C001344404A106818603B48FBF713FC03465D
:10996C001A46394B13444D4A1068186092889A80F5
:10997C004B49354809F093F93348FBF703FC034690
:10998C001A46314B134436491A460B461B88138032
:10999C0044492D4809F083F92B48FBF7F3FB0346A8
:1099AC001A46294B13442E491A460B461B88138022
:1099BC003D49254809F073F92348FBF7E3FB0346BF
:1099CC001A46214B134426491A460B461B88138012
:1099DC0036491D4809F063F91B48FBF7D3FB0346D6
:1099EC001A46194B13441E491A460B461B88138002
:1099FC002F49154809F053F91348FBF7C3FB0346ED
:109A0C001A46114B134416491A460B461B881380F1
:109A1C0028490D4809F043F90B48FBF7B3FB034603
:109A2C001A46094B13440E491A460B461B881380E1
:109A3C002149054809F033F90348FBF7A3FB03461A
:109A4C001A46014B134439E0E8150020CC520108AA
:109A5C00203E0020D4520108D8520108F8400020C2
:109A6C00E0520108A002002028440020E452010822
:109A7C00AC3F00202C41002000440020E4040020D6
:109A8C00EC520108340200204C3E00204002002021
:109A9C0034440020044100208C3D0020F452010885
:109AAC00383D00201C42002038410020343E00206C
:109ABC00E0400020703E0020184100208A491A46E0
:109ACC000B461B8813808949894809F0E8F8002364
:109ADC007B6018E08648FBF755FB03461A46844B1F
:109AEC00134481491A460B461B8813807A68531C11
:109AFC007B6013469B0013445B007E4A134419465B
:109B0C007B4809F0CCF87B497A6813469B001344D8
:109B1C005B000B441B78002BDCD17548FBF732FB48
:109B2C0003461A46724B1344734A10681860704807
:109B3C00FBF728FB03461A466D4B13446F4A10681B
:109B4C00186012791A716E49694809F0A8F86848CA
:109B5C00FBF718FB03461A46654B134462491A4639
:109B6C000B461B8813806749614809F098F86048D8
:109B7C00FBF708FB03461A465D4B13445A491A4639
:109B8C000B461B8813806049594809F088F85848DF
:109B9C00FBF7F8FA03461A46554B134452491A463A
:109BAC000B461B8813805949514809F078F85048E6
:109BBC00FBF7E8FA03461A464D4B13444A491A463A
:109BCC000B461B8813805249494809F068F800235A
:109BDC007B6018E04648FBF7D5FA03461A46444B1F
:109BEC00134441491A460B461B8813807A68531C50
:109BFC007B6013469B0013445B00464A1344194692
:109C0C003B4809F04CF843497A6813469B001344CF
:109C1C005B000B441B78002BDCD13548FBF7B2FA08
:109C2C0003461A46324B1344334A106818603048C6
:109C3C00FBF7A8FA03461A462D4B1344364A106814
:109C4C0018609188927999809A713449284809F062
:109C5C0026F82748FBF796FA03461A46244B13447A
:109C6C00254A106818602248FBF78CFA03461A46FE
:109C7C001F4B13442A4A1068186091889279998076
:109C8C009A7128491A4809F00AF81948FBF77AFA28
:109C9C0003461A46164B1344174A106818601448AA
:109CAC00FBF770FA03461A46114B13441E4A106810
:109CBC0018609188927999809A711C490C4808F027
:109CCC00EEFF0B48FBF75EFA03461A46084B1344AB
:109CDC00094A10681860164B1B681846FEF7E8FE18
:109CEC0000BF0837BD4680BDE0520108EC400020A3
:109CFC00E815002028420020D4520108FC5201082B
:109D0C00003E002050040020B4400020B40300208A
:109D1C00A8030020DC3E0020045301088C410020E5
:109D2C000C530108043D0020145301081C040020AE
:109D3C00A800002090B585B000AF78600023FB60D0
:109D4C007B68002B05D11D4B1B681846FEF710FED7
:109D5C0004E01B4B1B681846FEF70AFE19491A480B
:109D6C0008F0EAFFB8600EE0FC68631CFB60B868A2
:109D7C0008F0A8FE0346154A42F824301149002089
:109D8C0008F0DAFFB860BB68002BEDD10F4AFB6816
:109D9C004FF0FF3142F8231004E00C4AFB680C49E9
:109DAC0042F82310FB685A1CFA6040F2E6329342E8
:109DBC00F3DD00BF00BF1437BD4690BDAC000020E2
:109DCC00B4000020E0520108E815002044060020F1
:109DDC0018FCFFFF80B584B000AF0023FB60264B5E
:109DEC0000221A70FB685A1CFA60244A52F823307D
:109DFC0039460A22184608F0ABFE3B4619461E4867
:109E0C0008F04DFF1BE0FB685A1CFA601B4A52F825
:109E1C00233039460A22184608F09AFE1648FBF7FA
:109E2C00B1F903461A46144B134415491A460B460E
:109E3C001B8813803B4619460F4808F030FF0F4A29
:109E4C00FB6852F82330B3F1FF3FDCD10A48FBF733
:109E5C0099F903461A46084B13440A491A460B460D
:109E6C001B881380084B1B681846FEF721FE00BFA9
:109E7C001037BD4680BD00BFE81500204406002009
:109E8C00E0520108DC510108AC000020B0B400AF76
:109E9C00614B624A1068186012791A71604B614A02
:109EAC00106818609188927999809A715E4A5F4B1C
:109EBC001B8813805E4A5D4B1B8813805D4B5E4A8A
:109ECC001188927819809A705C4A5D4B1B881380BC
:109EDC005C4A5B4B1B8813805B4A5C4B1B88138072
:109EEC005B4A5C4B14461D460FCD20606160A2603E
:109EFC00E360594B594A1068186012791A71584B23
:109F0C00584A1068186012791A71574B574A1068E2
:109F1C00186092889A80564A564B1B881380564A72
:109F2C00424B1B881380554B554A118892781980E7
:109F3C009A70544B524A1188927819809A70524BED
:109F4C00524A1068186012791A71514B514A1068B4
:109F5C00186012791A71504B504A10681860504BA7
:109F6C00504A10681860504A504B144607CB20607A
:109F7C006160A2601A889B78A281A3734C4B4D4AF6
:109F8C001188927819809A704B4A4C4B14461D4696
:109F9C000FCD20606160A260E360494A494B03CB5E
:109FAC00106051601B781372474A254B1B88138035
:109FBC00464B3A4A10681860454B464A11889278CD
:109FCC0019809A70444A194B1B881380434A174BCB
:109FDC001B881380424A154B1B881380414B424A05
:109FEC001068186012791A71404A414B03CB10600B
:109FFC0051601B7813723F4B00221A703E4B0022AB
:10A00C001A703E4B00221A703D4A0D4B1B88138070
:10A01C0000BFBD46B0BC7047203E00201C53010859
:10A02C00F840002024530108A00200202C53010802
:10A03C0028440020AC3F0020305301082C41002064
:10A04C003453010800440020E40400203853010874
:10A05C00383D00203C5301081C4200204C530108A1
:10A06C003841002054530108343E00205C53010851
:10A07C00E040002064530108703E0020184100208D
:10A08C0068530108EC400020284200206C53010862
:10A09C0032420020745301083C4200207C530108DA
:10A0AC004642002080530108003E002084530108E2
:10A0BC005004002094530108B44000209853010828
:10A0CC00B4030020A8530108A8030020DC3E0020A4
:10A0DC00E63E0020B45301088C410020043D0020D2
:10A0EC001C04002034020020B85301084C3E002010
:10A0FC00C0530108400200203444002004410020D9
:10A10C008C3D002080B400AF144B00221A60134B1E
:10A11C0000225A60114B00229A60104B0022DA6028
:10A12C000E4B00221A610D4B00225A610B4B002280
:10A13C009A610A4B0022DA61084B00221A62074B23
:10A14C0000225A62054B00229A62044B4FF0FF32F8
:10A15C00DA6200BFBD4680BC704700BF44060020D9
:10A16C0080B582B000AF78607868FFF7F3F8FFF73E
:10A17C00EBFA00BF0837BD4680BD80B582B000AF9A
:10A18C0078607868FFF7D6FDFFF724FE00BF08372C
:10A19C00BD4680BD80B500AF1C4B1B68382B32D13F
:10A1AC001B4B3B221A601B4B1B681B49184608F0C3
:10A1BC0085FA184B1B68194A11681922184608F0C1
:10A1CC00B9F9144B1B6801221549184608F0B2F96D
:10A1DC00104B1B68134A11680122184608F0AAF9A3
:10A1EC00114B1B78302B0ED1094B3A221A600E49B9
:10A1FC000E4808F070FD0D48FAF7C4FF0346083B03
:10A20C000A4A0021D15400BF80BD00BF5C01002070
:10A21C00640100205C4D0020CC5301083401002067
:10A22C00DC53010818010020884500201805002087
:10A23C0080B500AF3B4B1B683A2B4DD13A4B9A790A
:10A24C003A4B1A70384BDA79384B5A70374B2F22FD
:10A25C009A70354B1A7A354BDA70334B5A7A334B3A
:10A26C001A71324B2F225A712F4B9A7A2F4B9A71AB
:10A27C002D4BDA7A2D4BDA712C4B2C221A722A4B7D
:10A28C001A7B2A4B5A72284B5A7B284B9A72274BB3
:10A29C003A22DA72244B9A7B244B1A73224BDA7BC8
:10A2AC00224B5A73214B3A229A731F4B1A7C1F4B29
:10A2BC00DA731D4B5A7C1D4B1A741C4B2B225A748F
:10A2CC001A4B30229A74194B3022DA74174B002235
:10A2DC001A75FEF7D9FA22E0154B1B683A2B1ED1E2
:10A2EC001449154808F0F7FC1449134808F024FDEC
:10A2FC001249002008F020FD1049002008F01CFD38
:10A30C000E49002008F018FD0D49002008F014FD3E
:10A31C0003461946054808F0DEFCFEF7B5FA00BF07
:10A32C0080BD00BF68010020CC0200206802002024
:10A33C0064010020180500208845002024540108E1
:10A34C002854010880B500AF0E4B1B680E4A1268EA
:10A35C001146184608F0B2F90A4B1B680B4A1168F3
:10A36C000522184608F0E6F8064B1B68084A1268E6
:10A37C001146184608F0ACF84FF47A7002F074F9F4
:10A38C0000BF80BD5C4D0020C0000020BC00002040
:10A39C00C400002080B584B000AF78600023FB605F
:10A3AC00264B3B221A60FFF7CDFF3EE0244B1B6887
:10A3BC00244A12681146184608F08AF8204B1B688C
:10A3CC0002222149184608F0B5F81D4B1B681F4A9C
:10A3DC0011680122184608F0ADF81D491D4808F017
:10A3EC007AFC1D491B4808F08FFCB860BB68194A01
:10A3FC009B1A184A0021D154164B1B79322B02D1CF
:10A40C000E4B3A221A60FFF713FF00F03DF808F0EC
:10A41C0017F9FFF7BFFE08F01DF900F0E9F902206B
:10A42C0000F0C4FBFB680133FB60FA687B689A425E
:10A43C00BCDB00BF00BF1037BD4680BD68010020EB
:10A44C005C4D0020C40000202C5401083401002075
:10A45C0088450020CC0200202854010880B400AFAD
:10A46C00BFF34F8F00BF064BDB6803F4E062044977
:10A47C00044B1343CB60BFF34F8F00BF00BFFDE70E
:10A48C0000ED00E00400FA0580B500AF954B1B68A9
:10A49C00362B40F02581944B1B68944A1268114668
:10A4AC00184608F015F8904B1B68914A1168012268
:10A4BC00184608F03FF88F498F4808F025FC0346F2
:10A4CC00002B03D18D4B38221A6002E08B4B3922C2
:10A4DC001A60844B1B68362B40F00281874B1B683B
:10A4EC00392B40F0FA80864B1B683F2B40F0F580EF
:10A4FC007D4B1B68834A12681146184608F0DEF83B
:10A50C00794B1B688049184608F0D8F8764B1B68C5
:10A51C007E4A12681146184608F0D0F8724B1B6838
:10A52C00734A11680122184608F09EF86E4B1B689E
:10A53C00774A12681146184608F0C0F86A4B1B6837
:10A54C007449184608F0BAF8674B1B686F4A1268D2
:10A55C001146184608F0B2F8634B1B68644A116840
:10A56C000122184608F080F85F4B1B686A4A126893
:10A57C001146184608F0A2F85B4B1B686749184651
:10A58C0008F09CF8584B1B68604A12681146184634
:10A59C0008F094F8544B1B68554A11680122184670
:10A5AC0008F062F8504B1B685D4A12681146184659
:10A5BC0008F084F84C4B1B685A49184608F07EF892
:10A5CC00494B1B68514A12681146184608F076F838
:10A5DC00454B1B68464A11680122184608F044F89E
:10A5EC00414B1B68504A12681146184608F066F831
:10A5FC003D4B1B684D49184608F060F83A4B1B68F8
:10A60C00424A12681146184608F058F8364B1B6837
:10A61C00374A11680122184608F026F8324B1B689D
:10A62C00434A12681146184608F048F82E4B1B682E
:10A63C004049184608F042F82B4B1B68334A126805
:10A64C001146184608F03AF8274B1B68284A11683F
:10A65C000122184608F008F8234B1B68364A12688A
:10A66C001146184608F02AF81F4B1B68204A11683F
:10A67C001422184607F05EFF1B4B1B681B4A12681E
:10A68C001146184607F024FF174B1B68184A11682F
:10A69C000122184607F04EFF1649174808F034FB04
:10A6AC000346002B03D1154B38221A6015E0134BCF
:10A6BC0039221A60214B1B684FF4B46292FBF3F2FF
:10A6CC001F4B1B689A4205DD1D4B1B6801331C4A4E
:10A6DC00136002E00A4B3E221A60642001F0C4FFB2
:10A6EC0000BF80BD580100205C4D0020E40000201C
:10A6FC0018010020CC550108884500205C01002081
:10A70C006C010020C8000020340200203C01002015
:10A71C00CC0000204C3E0020D00000204002002045
:10A72C00D400002034440020D80000200441002034
:10A73C00DC000020D4550108E000002000020020BD
:10A74C008C02002080B500AF204B1B68362B3AD111
:10A75C001F4B1B681F4A12681146184607F0B8FEBB
:10A76C001B4B1B681C4A11680122184607F0E2FEBD
:10A77C001A491B4808F0C8FA0346002B03D1194BA1
:10A78C0038221A6002E0174B39221A60154B1B68ED
:10A79C00382B18D10E4B1B68134A126811461846F9
:10A7AC0007F08CFF0A4B1B68104A116828221846C8
:10A7BC0007F0C0FE0346322B02D10A4B39221A6035
:10A7CC00642001F051FF00BF80BD00BF5801002084
:10A7DC005C4D0020E400002018010020CC5501083D
:10A7EC00884500205C010020E80000203401002096
:10A7FC0080B500AF9C4B1B68362B40F033819B4BD4
:10A80C001B689B49184607F063FE984B1B68994AD6
:10A81C0011680122184607F08DFE9749974808F0F9
:10A82C0073FA0346002B03D0954B38221A6002E0D2
:10A83C00934B39221A60934B1B68382B40F01281D2
:10A84C008F4B1B68392B40F00A818F4B1B683F2BB9
:10A85C0040F00581854B1B688C4A126811461846DE
:10A86C0007F02CFF814B1B688949184607F026FF1F
:10A87C007E4B1B688749184607F020FF7B4B1B68F3
:10A88C008549184607F01AFF784B1B68834A1268F3
:10A89C001146184607F012FF744B1B68754A116875
:10A8AC000122184607F0E0FE704B1B687C4A1268C8
:10A8BC001146184607F002FF6C4B1B687949184685
:10A8CC0007F0FCFE694B1B687749184607F0F6FE4B
:10A8DC00664B1B68714A12681146184607F0EEFE6B
:10A8EC00624B1B68634A11680122184607F0BCFED4
:10A8FC005E4B1B686D4A12681146184607F0DEFE67
:10A90C005A4B1B686A49184607F0D8FE574B1B6810
:10A91C00624A12681146184607F0D0FE534B1B686A
:10A92C00544A11680122184607F09EFE4F4B1B68D3
:10A93C00604A12681146184607F0C0FE4B4B1B6864
:10A94C005D49184607F0BAFE484B1B68534A12681B
:10A95C001146184607F0B2FE444B1B68454A116875
:10A96C000122184607F080FE404B1B68534A1268C0
:10A97C001146184607F0A2FE3C4B1B68504918467E
:10A98C0007F09CFE394B1B68444A12681146184666
:10A99C0007F094FE354B1B68364A116801221846A5
:10A9AC0007F062FE314B1B68464A12681146184686
:10A9BC0007F084FE2D4B1B684349184607F07EFEBA
:10A9CC002A4B1B68354A12681146184607F076FE6A
:10A9DC00264B1B68274A11680122184607F044FED3
:10A9EC00224B1B68394A12681146184607F066FE5E
:10A9FC001E4B1B68364A11681422184607F09AFD44
:10AA0C001A4B1B681A49184607F062FD174B1B6856
:10AA1C00184A11680122184607F08CFD1649174890
:10AA2C0008F072F90346002B03D0154B38221A603C
:10AA3C0015E0134B39221A60264B1B684FF4B46295
:10AA4C0092FBF3F2244B1B689A4205DD224B1B68E8
:10AA5C000133214A136002E00B4B3E221A60642042
:10AA6C0001F002FE00BF80BD580100205C4D0020AB
:10AA7C00D855010818010020E85501088845002028
:10AA8C00600100205C0100206C010020EC00002023
:10AA9C00383D0020F45501081C420020F000002035
:10AAAC00F40000209C3D002068020020F8000020EB
:10AABC0038410020FC000020343E00200001002022
:10AACC00F855010804010020FC550108080100207C
