:020000040800F2
:2050000000800020895E0008555D00085D5D0008815D0008835D0008855D000800000000CD
:20502000000000000000000000000000875D0008895D0008000000008B5D00088D5D0008B4
:20504000D15E0008D15E0008D15E0008D15E0008D15E0008D15E0008915D0008D15E0008D9
:20506000D15E0008975D0008D15E0008D15E0008D15E0008D15E0008D15E0008D15E0008B3
:20508000D15E0008D15E0008D15E0008D15E0008D15E0008D15E0008D15E0008D15E000858
:2050A00000000000D15E0008D15E0008D15E0008D15E00089D5D0008D15E0008D15E0008A4
:2050C000D15E0008D15E0008D15E0008D15E0008D15E0008A95D0008B55D0008C15D00086F
:2050E000D15E0008CD5D0008D15E0008D15E0008D15E000800000000D15E0008D15E000834
:205100000000000000000000D15E0008D15E0008D15E0008D15E0008D15E0008000000007C
:20512000D15E000800000000000000000000000000000000000000005FF808F110B5054CD2
:20514000237833B9044B13B10448AFF300800123237010BD180100200000000050A2000890
:2051600008B5034B1BB103490348AFF3008008BD000000001C01002050A20008034613F84F
:20518000012B002AFBD1181A0138704753B94AB9002908BF00281CBF4FF0FF314FF0FF30EC
:2051A00000F06EB9ADF1080C6DE904CE00F006F8DDF804E0DDE9022304B070472DE9F047B4
:2051C000089E0D4604468E46002B40F083808A42174647D9B2FA82F34BB1C3F1200105FA20
:2051E00003FE20FA01F19F4041EA0E0E9C404FEA1748BEFBF8FC1FFA87F908FB1CE20CFBBA
:2052000009F0210C41EA024290420AD9BA180CF1FF3180F01881904240F21581ACF1020CF7
:205220003A44121AB2FBF8F008FB102200FB09F1A4B244EA0244A14209D93C1900F1FF32FF
:2052400080F00381A14240F2008102383C44641A002140EA0C401EB10022DC40C6E90042F7
:20526000BDE8F08702B9FFDEB2FA82F3002B4FD18D1A01214FEA124E1FFA82F8B5FBFEFC6F
:205280000EFB1C5508FB0CF0220C42EA0545A84207D97D190CF1FF3202D2A84200F2E9804A
:2052A00094462D1AB5FBFEF00EFB105508FB00F8A4B244EA0544A04507D93C1900F1FF32BD
:2052C00002D2A04500F2D9801046A4EB080440EA0C40C0E78B4208D9002E00F0B18000219E
:2052E000C6E900050846BDE8F087B3FA83F100294BD1AB4202D3824200F2B980841A65EB8B
:20530000030301209E46002EAAD0C6E9004EA7E79F40C3F12002D1404FEA174EB1FBFEF051
:205320001FFA87F80EFB101124FA02F29D4000FB08FC2A43150C45EA0145AC4504FA03F4D4
:2053400009D97D1900F1FF3180F08F80AC4540F28C8002383D44A5EB0C05B5FBFEF10EFB02
:20536000115C01FB08F995B245EA0C45A94507D97D1901F1FF3274D2A94572D902393D443A
:20538000A5EB090541EA004178E7C1F120078B4022FA07FC4CEA030C25FA07F44FEA1C4EDF
:2053A000B4FBFEF91FFA8CF80EFB194420FA07F309FB08FA8D401D432B0C43EA0444A2456A
:2053C00002FA01F200FA01F309D91CEB040409F1FF3048D2A24546D9A9F102096444A4EBDA
:2053E0000A04B4FBFEF00EFB104400FB08FAADB245EA0444A24508D91CEB040400F1FF35D6
:205400002DD2A2452BD90238644440EA0940A0FB0289A4EB0A044C45C6464D4619D316D088
:205420005EB1B3EB0E0264EB050404FA07F722FA01F31F43CC40C6E900740021BDE8F0877D
:20544000314630460CE78C46EBE61046FFE64345E6D2B8EB020E69EB0C050138E0E72846C8
:20546000D3E711468CE78146B9E7084673E7084649E7ACF1020C3D4413E702383C4424E730
:20548000704700BF30B5102595B02A4600210CA803F03EFE1422002102A803F039FE002375
:2054A000CDE900331D4A012413684FF4002123F4C05343F40063136007230B95CDE90734A6
:2054C0004FF480350223CDE910354FF4800307A8CDE90944CDE9121301F0FAFE08B172B697
:2054E000FEE70F220323CDE904000690214602A8CDE9022302F048F908B172B6FEE768468D
:20550000CDE9004502F034FA08B172B6FEE702F0FDF802F0B9FA15B030BD00BF00700040FD
:205520002DE98048B74BB84A9BB09A6062B601F055FAFFF7A7FF1422002110A803F0E8FD69
:20554000B24B4FF4FC51DA69B14842F00402DA61DA69002402F004020792079ADA694FF4F0
:20556000881542F02002DA61DA694FF0010802F020020892089ADA694FF0080942F001025C
:20558000DA61DA69102702F001020992099ADA6942F00202DA61DB69002203F002030A9374
:2055A0000A9B01F03BFE0022C0219A4801F036FE4FF40053964810A9CDE91035129401F053
:2055C0005FFD4FF40413944810A9CDE91083CDF8488001F055FD48F202038E4810A9CDE9E3
:2055E0001034129401F04CFD4FF48053894810A9CDE91035129401F043FD4FF4DC538448D7
:2056000010A9CDE91038CDE9124401F039FD4FF48063CDE9103802237D4810A9CDE91234DD
:2056200001F02EFD4FF444137A4810A9CDE91093CDF8488001F024FDC023764810A9CDE931
:205640001038CDE9124401F01BFD22462146062001F076FB062001F0A5FB224621460920E7
:205660006E4D01F06DFB092001F09CFB6C4B2846CDE91044C5E90034C5E90244C5E904446A
:20568000C5E90644C5E90D7412942C6285F82440C5F8288085F82C4085F83C4001F0D2F9CB
:2056A0002E4608B172B6FEE7129010A92846CDE9109801F089FA034608B172B6FEE74FF4C3
:2056C000E1350C245748584AC0E90233C0E905430361C361C0E9002502F0E4FF034608B147
:2056E00072B6FEE75148524AC0E90233C0E90434C0E90633C0E9002502F0D4FF034608B132
:2057000072B6FEE74FF416524A484B4DC0E90434C0E90052C0E90233C0E9063302F0C2FF58
:20572000044608B172B6FEE73A460146CDE90B0010A803F0EDFC1823DFF810913F48C9F842
:205740000840C9E900034FF4B7734846C9E90334C9F8144002F03DFD4F4608B172B6FEE7CC
:20576000CDE90B000BA9484602F004FF08B172B6FEE76023CDE91200CDE910300422484676
:2057800010A902F04EFD054608B172B6FEE7484600F01CFA142229460BA803F0B9FC2946FF
:2057A000282210A8264C069503F0B2FC254B7F21C4E90035FF232046C4E90213C4E90455F7
:2057C000A56102F0C6F908B172B6FEE744F21103ADF82C304023CDE90E00424620460BA938
:2057E0008DF82E3002F00EFA08B172B6FEE7164B0122134806A9069302F06BFA40B372B66D
:20580000FEE700BF00ED00E00050000800380240000802400004024000000240CC40002047
:2058200000240140143D002000380140B03F0020004400407C03002000480040000C004013
:205840007C3E00200028004001010122D43B0020724B0122CDE915304FF48073CDE91300D8
:20586000ADF840008DF842001190179010A96C488DF86020199302F083FA804608B172B600
:20588000FEE70146102210A803F042FC45F6C05A4FF08043634D4FF6FF79C5E9003A4FF4D2
:2058A00000732846CDE90B88C5E90393C5F80880C5F8148002F09AFB08B172B6FEE74FF454
:2058C0008058284610A9CDF8408002F02BFD08B172B6FEE7CDE90B000BA9284602F04AFE47
:2058E000054608B172B6FEE70146102210A803F00FFCDFF854B14C4B5846CBE9003A47F230
:205900003053CDE90B55CBE90335CBF80850CBF8145002F06BFBDA4608B172B6FEE75846E4
:2059200010A9CDF8408002F0FDFC08B172B6FEE7CDE90B000BA9584602F01CFE054608B155
:2059400072B6FEE71022014610A803F0E1FB1823DFF8DCB0354A5846CDE90B55CBE9002392
:20596000CBE90259CBE9045502F040FB08B172B6FEE7584610A9CDF8408002F0D3FC08B1C2
:2059800072B6FEE700232A480BA9CDE90B3302F0F1FD08B172B6FEE7CDE90346254C214B3B
:2059A000254A26492648CDE901AB009703F0E8F900F0C0FD2349206803F076FAFFF762FD75
:2059C0004FF4FA6001F02CF81E49206803F06CFA03F07AF803F0F4FAC82001F021F803F0A2
:2059E000F5FAC82001F01CF803F0EAFAC82001F017F803F0EBFA03F077F803F0FDFA00F0F8
:205A0000BBFD00F0C9FE00F00DFC00F06FFB012000F098FC00F096FFFEE700BF0080808076
:205A20007C3E0020283F00200004004000080040EC020020DC4100207C030020B03F002080
:205A4000143D002068A20008383C0020704700000F4B84B05A6A42F000425A625A6A02F040
:205A600000420192019A1A6A42F001021A621A6A02F001020292029A5A6A42F080525A6254
:205A80005B6A03F080530393039B04B0704700BF0038024010B5044688B01422002103A85A
:205AA00003F036FB2268114B9A421DD103F58A331A6A0F4842F400721A621A6A03A902F438
:205AC00000720192019ADA6942F00202DA61DB69012203F002030293029B0323CDE90323DF
:205AE0000023059301F0CCFA08B010BD002401400004024008B50268084B9A420CD10122AE
:205B0000074B29201A600022114601F019F9BDE80840292001F046B908BD00BF00280040E2
:205B2000D80647421FB50368B3F1804F0DD103F50E335A6A42F001025A625B6A03F00103C4
:205B40000193019B05B05DF804FB134A934214D1124B1D205A6A42F002025A6200225B6ABE
:205B6000114603F002030293029B01F0E9F81D2005B05DF804EB01F015B9094A9342E1D103
:205B8000064B5A6A42F004025A625B6A03F004030393039BD6E700BF0004004000380240CF
:205BA000000800400268084B82B09A420AD103F50B335A6A42F008025A625B6A03F0080342
:205BC0000193019B02B07047000C004010B5044686B01422002101A803F09AFA22680D4B32
:205BE0009A4215D103F50B33DA690B4842F00102DA61DB69002203F001030093009B0223F7
:205C000001A9CDE90133CDE90322059301F038FA06B010BD000C00400000024010B504463A
:205C20008CB01422002107A803F072FA2368434A93422BD1424B4FF4C0601A6A002442F40C
:205C400080421A621A6A07A902F480420192019ADA6942F00102DA61DB6903F00103029369
:205C6000029B0223CDE907030323CDE90943072334480B9301F004FA25202246214601F042
:205C80005FF8252001F08EF80CB010BD2E4A934227D12B4B0C215A6A002442F400325A6274
:205CA0005A6A284802F400320392039ADA6942F00102DA61DB6903F001030493049B02230D
:205CC000CDE907130323CDE90943072307A90B9301F0D6F926202246214601F031F826201F
:205CE000D0E71A4A9342CFD1154B00245A6A184842F480225A625A6A07A902F48022059235
:205D0000059ADA6942F00202DA61DB694FF4406203F002030693069B0223CDE907230323AA
:205D2000CDE9094307230B9301F0AAF927202246214601F005F82720A4E700BF00380140F7
:205D4000003802400000024000440040004800400004024008B501F0FBFDFEE7BFF34F8F1A
:205D60000549064BCA6802F4E0621343CB60BFF34F8F00BFFDE700BF00ED00E00400FA05D7
:205D8000FEE7FEE7FEE770477047704700F036BE012001F051BA082001F04EBA014802F0D2
:205DA00062BB00BF383C0020014802F025BD00BF143D0020014802F01FBD00BFB03F002041
:205DC000014802F019BD00BF7C030020014801F061BE00BF7C3E00200120704708B503F0DA
:205DE00045F9162303604FF0FF3008BD08B503F03DF916230360FEE770B50E461446002537
:205E0000A54201DB204670BDAFF3008070550135F6E770B50E4614460025A54201DB204611
:205E200070BD705DAFF300800135F6E74FF0FF3070474FF4005300204B607047012070471E
:205E4000002070470B4B0246196810B509B90A491960186809490A4C0244091B8A4206D9BC
:205E600003F004F90C2303604FF0FF3010BD1A60FCE700BF34010020F84A002000800020F2
:205E800000040000704700000C480D490D4A002302E0D458C4500433C4188C42F9D30A4A00
:205EA0000A4C002301E013600432A242FBD3FFF7E9FF03F0E1F8FFF733FB70470000002088
:205EC0001801002068AA000818010020F44A0020FEE7000038B505460A4C0B49206803F096
:205EE00083F82946206803F07FF82068074903F07BF8074B206819680522BDE8384003F0F6
:205F00006BB800BF984A002091A20008D6A200089C0000202DE9F04F054687B00A22334CA4
:205F200003A9002003F0E4F83149324803F04AF93149206803F058F82946206803F054F821
:205F40002E4E2F49206803F04FF82E4F206803A903F04AF83168206803F046F8012239688F
:205F6000206802F0D7FF33283DD04FF00008DFF8A090DFF8A0A009F1060B5146224803F005
:205F800029F9034618B1012007B0BDE8F08F1F480193FFF7F3F8019B594609F8003008F190
:205FA0003208144803F0FFF80A2203A9404603F09FF82068104903F017F82946206803F0AC
:205FC00013F820680E4903F00FF8206803A903F00BF83168206803F007F801223968206854
:205FE00002F098FFC9E70020CEE700BF984A0020D8A20008701400209EA2000898000020AC
:20600000A9A200089C000020C0420020C2420020BC420020B0A2000873B50D460646FFF7F6
:2060200059FF2846FFF7AAF80A22694603F060F81D4C1E4B2068196802F0D6FF31461C4E59
:20604000206802F0D1FF3168206802F0CDFF194B2068196802F0C8FF3168206802F0C4FF1B
:206060006946206802F0C0FF3168206802F0BCFF114B2068196802F0B7FF104B20681968F9
:2060800002F0B2FF0E4B05221968206802F0A4FF2946206802F0A8FF0A4B0522196820682A
:2060A00002F09AFF02B070BD984A002004000020A80000200C00002008000020980000207C
:2060C000100000209C000020BFF34F8F0549064BCA6802F4E0621343CB60BFF34F8F00BF6B
:2060E000FDE700BF00ED00E00400FA05384B70B51B68382B01D0002070BD364C364B2068F6
:20610000196802F071FF3549206802F06DFF344D3449206802F068FF3349206802F064FF00
:2061200001222968206802F057FF304B2068196802F05AFF01222968206802F04DFF2C4B1B
:206140002068196802F050FF2A4B32221968206802F0E0FE3328CED04FF47A7000F060FCE1
:20616000254B2068196802F03FFF05222968206802F032FF2149224803F024F8214B3C2266
:206180001968206802F0C6FE1F4B1D49186802F08BFE00231D4D1E4C1E4E1F4918482B60BF
:2061A0002360336003F016F808B101232B601B49134803F00FF808B101232360184910488E
:2061C00003F008F8012300B13360184694E700BFB0000020984A002040000020CDA2000823
:2061E0009C000020243C0020D4A200083C000020440000204800002018000020C042002063
:206200007014002098000020DC410020043F0020C8030020283E002052A300086DA60008F9
:20622000D9A200082DE9F843364EDFF81091DFF810813046344902F0C5FF344F48463449EF
:2062400002F0C0FF4046334902F0BCFF38463249324C02F0B7FF324B324D1968206802F0C8
:20626000C3FE01222968206802F0B6FE2E4B2068196802F0B9FE31462C4E206802F0B4FE33
:206280003168206802F0B0FE01222968206802F0A3FE274B2068196802F0A6FE4946206846
:2062A00002F0A2FE3168206802F09EFE01222968206802F091FE1F4B2068196802F094FEE9
:2062C0004146206802F090FE3168206802F08CFE01222968206802F07FFE174B206819687C
:2062E00002F082FE3946206802F07EFE3168206802F07AFE296820680122BDE8F84302F01E
:206300006BBE00BF863C0020E6A20008D5020020F5A20008F8A2000808A30008984A002036
:20632000140000209C00002028000020380000202C00002030000020340000207203002048
:206340009E3E0020614B70B51D68012D38D1604C604E6149206802F047FE2A463168206860
:2063600002F03AFE5D4B2068196802F03DFE2A463168206802F030FE594B4FF496721968F4
:20638000206802F0C7FD32281AD15649206802F02BFE2A463168206802F01EFE1E225249BE
:2063A000206802F0B7FD5148FFF7B4FD504B51491868FFF731FE504B5049186802F074FD7E
:2063C0004F4B1D68012D38D1414C424E4D49206802F00AFE2A463168206802F0FDFD4A4B20
:2063E0002068196802F000FE2A463168206802F0F3FD3B4B4FF4C8721968206802F08AFDAC
:2064000032281AD13749206802F0EEFD2A463168206802F0E1FD1E223349206802F07AFD44
:206420003248FFF777FD324B32491868FFF7F4FD314B3649186802F037FD354B1D68012D45
:2064400043D1234C234E3349206802F0CDFD2A463168206802F0C0FD2F4B2068196802F0D3
:20646000C3FD2A463168206802F0B6FD1C4B4FF4FA621968206802F04DFD322825D1206803
:20648000184902F0B1FD20682A46316802F0A4FD2068194C1E22144902F03CFD1F49206832
:2064A00002F002FD1E491F48FFF7B6FD1E49206802F0FAFC00F060FD1C4A1D49022000F072
:2064C00077FD00F06BFDFFF7FFFD70BD043F0020984A00209C00002011A300081C000020B8
:2064E0004C0000202EA300083BA300084BA300085000002070140020DC4100205DA3000822
:20650000C80300206DA300082000002089A30008283E002098A3000824000020B7A3000895
:20652000C9A30008DEA30008E8A30008DEC0EDFE0001080810B50B4C0B4B22689A420FD179
:2065400000F01AFD2146094A022000F031FD00F025FD074B0749186802F0A6FCFFF7B4FDCB
:2065600010BD00BF00010808DEC0EDFEDDC0EDFEDC410020FDA30008F8B54E494E4C4F4813
:2065800002F020FE4E494F4802F01CFE4E4D21464E4802F017FE21464D4802F013FE4D4E78
:2065A00029464D4802F00EFE29464C4802F00AFE31464B4802F006FE4A494B4802F002FEC4
:2065C0004A494B4802F0FEFD4A494B4802F0FAFD4A494B4802F0F6FD4A494B4802F0F2FD87
:2065E0004A4D4B494B4802F0EDFD21464A4802F0E9FD2946494802F0E5FD2946484D4948C7
:2066000002F0E0FD484F2846484902F0DBFD484905F10A0002F0D6FD394605F1140002F07A
:20662000D1FD444905F11E0002F0CCFD4249434802F0C8FD4249434802F0C4FD4249434884
:2066400002F0C0FD4249434802F0BCFD4249434802F0B8FD424B3946184602F0B3FD414977
:206660000A3002F0AFFD21463F4802F0ABFD21463E4802F0A7FD21463D4802F0A3FD3D4C30
:206680003D493E4802F09EFD3D493E4802F09AFD21463D4802F096FD21463C4802F092FDEF
:2066A00021463B4802F08EFD3146BDE8F840394802F088BDF0A5000835A50008A43C0020E8
:2066C000F5A50008DC3E0020B6A20008CC01002060410020FCA50008343E0020083F00202E
:2066E0003C4100201CA60008D6030020FEA50008C03B00200EA60008F43F002013A60008A4
:20670000123F002018A60008B83C00201EA6000843A50008C83E0020F03C0020FA3E0020A8
:20672000FE3F0020D23E00202BA6000821A6000826A600082FA60008E6A20008863C002001
:20674000F5A2000872030020F8A200089E3E002008A30008D502002033A60008CB020020EF
:206760005F3D002038A60008683F00208A3B002040030020D8A200083BA600084801002094
:2067800040A60008CC3C0020700100206A410020E63E0020143C0020534B2DE9F0411B686B
:2067A000362B40F09E80514FD7F80080B8F1390F40F097804E4C4F4B4F4E196820684F4D8D
:2067C00002F012FC4E49206802F00EFC3168206802F00AFC01222968206802F0FDFB494BCB
:2067E0002068196802F000FC4749206802F0FCFB3168206802F0F8FB01222968206802F06D
:20680000EBFB424B2068196802F0EEFB4049206802F0EAFB3168206802F0E6FB0122296891
:20682000206802F0D9FB3B4B2068196802F0DCFB3949206802F0D8FB3168206802F0D4FB01
:2068400001222968206802F0C7FB344B2068196802F0CAFB3249206802F0C6FB3168206832
:2068600002F0C2FB01222968206802F0B5FB2D4B2068196802F0B8FB2B49206802F0B4FBC8
:206880003168206802F0B0FB01222968206802F0A3FB264B2068196802F0A6FB2822296886
:2068A000206802F037FB224B2068196802F09CFB29682068012202F08FFB1E491E4802F0B6
:2068C00089FC58B938233B601C4B1D49186802F0EBFABDE8F041642000F0A2B8C7F8008025
:2068E000F7E7BDE8F08100BF904A0020B0000020984A002054000020AC0000209C0000201D
:206900004801002058000020CC3C00205C00002070010020600000206A4100206400002092
:20692000E63E002068000020143C00206C00002070000020B5A60008C0420020DC4100203D
:20694000BDA6000838B50E4C2368382B16D10D4D0D4B2868196802F047FB0C4B2868196851
:20696000282202F0D7FA322808BF39234FF0640008BF2360BDE8384000F052B838BD00BFD5
:20698000B0000020984A0020740000209C00002038B50F4B0546186808B9012038BD4FF4A9
:2069A0007A73B3FBF0F30B4A1068B0FBF3F000F007FA04460028F0D10F2DEED80246294621
:2069C0004FF0FF3000F0BCF9034B20461D60E5E778000020000000207C00002010B503206B
:2069E00000F09CF90F20FFF7D3FF044618B9FFF72FF8204610BD0124FBE70000034A04490F
:206A0000136809680B441360704700BF8041002078000020014B1868704700BF80410020B6
:206A200038B50446FFF7F6FF0546631C1EBF044B1B68E418FFF7EEFF431BA342FAD338BDD7
:206A400078000020F7B5044608B9012095E0C36C73B9036580F84830564B1A6A42F0010244
:206A60001A621B6A03F001030193019BFFF712F8E36CDB06E9D4E36C4F4A23F4885323F014
:206A8000020343F00203E3645368616823F440330B4353604FF4007191FAA1F10223B1FAC2
:206AA00081F194F8245093FAA3F3B3FA83F36069E26805FA03F30243206A2669024394F8E7
:206AC0003C0000FA01F10A431343626B2068102A1CBFA16B0A43016818BF134311F0400150
:206AE00024D1A269E7691343A268B6F5807F42EA070244D0012E08BF4FF480710A4394F8F0
:206B00002C1001290DD1002D3BD14FF4604191FAA1F1B1FA81F5216B0139A9400A4342F4A4
:206B200000624568254929400A4342608168244AB6F5807F02EA010242EA0302826001D0AC
:206B4000012E27D1056B4FF0F87292FAA2F2B2FA82F1A26A013A8A4025F0F8710A43026375
:206B60008168184A0A409A4218D100202065E36C23F0030343F00103E36403B0F0BD314659
:206B8000BCE7E16C41F02001E164216D41F001012165C6E7026B22F0F872E0E7E36C23F068
:206BA000120343F01003E364236D43F0010323654BE700BF0038024000270140FF16FCFC04
:206BC00089F1FFC0FEFF80BF002373B5019390F84830012B00F09A80012380F848304D6862
:206BE0000468062D0A6805EB850322D81F26256C053B9E4025EA060502FA03F32B4323641D
:206C0000092A48D8072663698D6802EB4202964023EA060305FA02F21A4362610968A1F100
:206C20001003012B5AD9002380F84830184602B070BD0C2D0AD81F26E56B233B9E4025EA97
:206C4000060502FA03F32B43E363D9E7122D0AD81F26A56B413B9E4025EA060502FA03F3E7
:206C60002B43A363CCE7182D4FF01F0509D8666B5F3B9D4026EA050502FA03F32B436363DC
:206C8000BEE7266B7D3B9D4026EA050502FA03F32B432363B4E7132A0ED802EB4202A2F1A7
:206CA0001E0507222369AA4023EA02028B6803FA05F52A432261B1E71A2A0DD8072502EB4D
:206CC0004202E3683C3A954023EA05038D6805FA02F21A43E260A1E700BF9FE70C4B5A6858
:206CE0001202A0D45A68102942F400025A609AD1084B094A1B68B3FBF2F20A2353430193A2
:206D0000019B002B8FD0019B013BF8E702208EE7002701400000002040420F000749030291
:206D2000CA6803F4E06322F4E0621204120C134343F0BF6343F40033CB60704700ED00E097
:206D4000164B30B5DC68C4F30224C4F10703251D042B28BF0423062D4FF0FF3598BF00246D
:206D600005FA03F388BF033C21EA0303A34005FA04F422EA0402002843EA0203ACBF00F1E5
:206D80006040074A4FEA0313DBB2ABBF00F5614000F00F0080F80033135430BD00ED00E05B
:206DA00014ED00E0002808DB0123420900F01F0003FA00F0014B43F82200704700E100E05B
:206DC0000138B0F1807F0AD2F021064B064A586082F823100020072298601A607047012054
:206DE000704700BF10E000E000ED00E090F82130022B06D004238363002380F8203001208B
:206E0000704703681A6822F00E021A601A6822F001021A600122D0E90F1303F01C0302FA15
:206E200003F34B60002380F8212080F820301846704710B590F82120022A03D00422826360
:206E4000012010BD0268436B116821F00E011160116821F0010111600121D0E90F4202F007
:206E60001C0201FA02F26260002480F8211080F8204013B198472046E3E71846E1E70000A5
:206E8000214A936913F4807306D020494B6943F002034B614FF480739269900506D51B49B5
:206EA00043F400734A6942F001024A61164A9169090506D5154843F40063416941F004017B
:206EC00041619269900406D5104943F400534A6942F010024A610C4A9169C90406D50B48D6
:206EE00043F48053416941F0200141619269520506D5064943F480634A6942F008024A61BA
:206F0000014A9361704700BF003C024084410020F8B50546FFF77EFD164E07463446B369A9
:206F2000DB071BD4B3699F0744BF0223B361A369DD050FD4A36918050CD4A369990409D422
:206F4000A369DA0406D4A3695B0503D4A06910F4007007D0FFF794FF012003E06A1CDED015
:206F60000DB90320F8BDFFF755FDC01BA842D6D9F7E700BF003C0240054B5A68D20741BFB1
:206F8000044A0020DA60044A54BF0120DA607047003C0240EFCDAB8905040302034A0020ED
:206FA000536843F001035360704700BF003C02402DE9F041304C0746237C0E46012B1546AE
:206FC00058D04FF001084CF2503084F81080FFF79FFFF8B9022F606106D14CF25030FFF7B5
:206FE00097FFB8B9356011E0012F07D14CF25030FFF78EFF70B9ADB2358007E077B94CF229
:020000040800F2
:207000005030FFF785FF28B9EDB235704CF25030FFF77EFF00232374BDE8F081042F0BD141
:207020004CF25030FFF774FF0028F3D1134A536823F480735360E7E7082F0BD14CF25030C9
:20704000FFF766FF0028E5D10C4A536823F480735360D0E7102F0BD14CF25030FFF758FF4C
:207060000028D7D1054A536823F480735360B9E74046CFE70220CFE784410020003C024062
:2070800000232DE9F74FDFF884915E4C0A6832FA03F502D103B0BDE8F08F012505FA03FE75
:2070A0001EEA020200F0A3804FF0030C4E684FEA430806F003056F1E0CFA08FC012F6FEA0B
:2070C0000C0C34D8876807EA0C0ACF6807FA08F747EA0A078760476827EA0E0EC6F300178A
:2070E0009F4047EA0E074760C768022D07EA0C0E8F6807FA08F747EA0E07C76019D14FF0CE
:207100000F0E4FEAD30A00EB8A0A03F0070BDAF820704FEA8B0B0EFA0BFE27EA0E0E0F69D1
:2071200007FA0BF747EA0E07CAF8207001E0032DDAD1076805FA08F507EA0C0C45EA0C0544
:2071400016F4403F056052D04FF00F0CD9F8205023F0030745F00105C9F82050D9F82050BA
:2071600007F1804705F00105019507F5803703F0030E019D4FEA8E0EBD680CFA0EFC25EA51
:207180000C0C214DA84234D005F58065A84232D005F58065A84230D005F58065A8422ED020
:2071A00005F58065A8420CBF0425052505FA0EF545EA0C05BD60D743256816F4803F0CBF4E
:2071C0003D4015432560656816F4003F0CBF3D4015436560A56816F4801F0CBF3D40154384
:2071E000A560E568B60254BF3D401543E56001334CE70025DAE70125D8E70225D6E703251A
:20720000D4E700BF0004014000000240003802400369194214BF0120002070470AB18161C4
:2072200070470904FBE7436901EA030221EA030141EA024181617047044A08B551690142EE
:2072400002D0506101F05EFD08BD00BF000401401C4B82B09A6812F0F00F0CD000221A4999
:207260000B6823F0010313430B60086800F00100504002B070475A6A144912F0805F0FD088
:207280000A6802F4C052B2F5C05FE7D1B0F5404FE4D10D4A136843F0040313600122DEE7A6
:2072A0005A6A42F080525A625A6A02F080520192019A0A68596A02F4C05221F080515962BA
:2072C000E1E700BF00380240003C0240007000402DE9F7430446002860D0A24B02689E6830
:2072E0009F68D00706F00C0607F480374BD42368990700F197802368D80636D5002E40F0D2
:20730000E080984D2B68990502D5A369002B45D06B68206A03F46043984240F2C080FFF79B
:2073200097FF00283AD16B68226A23F4604313436B606B68E26923F07F4343EA02636B60FA
:20734000884B9968236A5B0B5A1C4FF400439340C1F3031284498A5CD340844A1360844BF8
:207360001868FFF715FB002830D12368180700F1D7802368590700F10381606A002840F0EA
:207380006B81002022E0082E02D00C2E08D13FB11B689A03ABD56368002BA8D1012015E0AF
:2073A0006268012A15D11A6842F480321A60FFF731FB0546DFF8AC81D8F800309B0396D495
:2073C000FFF728FB401B6428F6D9032003B0BDE8F083644D2B68A2B923F480332B602B6869
:2073E00023F480232B60FFF715FB80462B6898037FF57DAFFFF70EFBA0EB08006428F5D9C2
:20740000E3E7052A0BBF43F4802323F480332B602B600BBF2B682B6843F4803323F480235B
:207420002B60C4E7042E02D00C2E0FD177B94D4B1A68910702D5E268012AAFD15A682169FE
:2074400022F4F85242EA01225A6054E7E268494BB2B101221A60FFF7DDFA0746414D2B686F
:207460009A0707D56B68226923F4F85343EA02236B6040E7FFF7CEFAC01B0228EFD9A4E775
:207480001A60FFF7C7FA0546364F3B689B077FF532AFFFF7BFFA401B0228F6D995E76B68FF
:2074A00023F4604303436B606B68E26923F07F4343EA02636B60FFF7CBFE00283FF440AFA8
:2074C0006CE7A2692C4BE2B101221A60FFF7A2FA0746244D2B689A050DD56B68226A23F4CD
:2074E000604313436B606B68E26923F07F4343EA02636B6039E7FFF78DFAC01B0228E9D914
:2075000063E71A60FFF786FA0546164F3B689B057FF52BAFFFF77EFA401B0228F6D954E7F3
:207520006269164B7AB101221A60FFF773FA05460C4F7B6B9A073FF51CAFFFF76BFA401B12
:207540000228F6D941E71A60FFF764FA0546054F7B6B9B077FF50DAFFFF75CFA401B022814
:20756000F6D932E70038024070A20008000000207C00002000004742200047428006474292
:207580005F4B5A6AD00029D44FF001085A6A42F080525A625B6A03F080530193019B594D83
:2075A0002B68D9051DD5A368554D012B29D16B6B43F480736B63FFF72DFA41F2883905466B
:2075C0004F4F7B6B9B0541D5B8F1000F3FF4D5AE4B4A536A23F080535362CEE64FF000081B
:2075E000DDE72B6843F480732B60FFF713FA07462B68DA05D7D4FFF70DFAC01B6428F7D9DE
:20760000E3E6ABB96B6B41F2883923F480736B636B6B23F480636B63FFF7FCF907466B6BEF
:207620009805D1D5FFF7F6F9C01B4845F7D9CCE6052B6B6B03D143F480636B63B7E723F4C1
:2076400080736B636B6B23F48063B3E7FFF7E2F9401B4845B5D9B8E60C2E39D000232A4D3D
:2076600002282B6026D1FFF7D5F90746244E3368990119D4B268D4E90A3122F47D020B43C4
:207680001343226B1343B36001232B60FFF7C2F904461B4D2B689A013FF573AEFFF7BAF960
:2076A000001B0228F6D990E6FFF7B4F9C01B0228DDD98AE6FFF7AEF90446114D2B689B01FE
:2076C0007FF55FAEFFF7A6F9001B0228F6D97CE601283FF47BAE0A4BA26A9B6803F480318D
:2076E00091427FF45BAEE16A03F470128A427FF455AE226B03F4400393423FF442AE4DE643
:207700000038024000700040600047420122014B1A60704770004742174B2DE900489A68FB
:2077200002F00C01082925D00C2903D0042919D1124815E09B681248C2F3834113F4803326
:2077400010F801B014BF0F4B0C49C2F3815216BFABFB0301ABFB010100230132FDF716FDE2
:20776000BDE800885868C0F34230431C4FF400409840F5E70348F3E7003802400024F400AA
:2077800088A2000800127A002DE9F0410E46054610B90120BDE8F081574B1A6802F001022C
:2077A0008A422AD32A68940738D4D0073ED4524B1A6802F00102B24200F28C802A685107EE
:2077C00000F19180130707D54C4A2969936823F4605343EAC1039360FFF79EFFBDE8F04177
:2077E000464B474A9B68C3F30313D35CD840454B1860454B1868FFF7CBB8012902BF1A6853
:2078000042F004021A601A6822F001020A431A601B6803F001038B42BBD1C3E73749A8684B
:207820008B6823F0F00303438B60BEE76A68334B022A1B681CD113F4003FAAD02F4C41F21F
:207840008838A36823F003031343A360FFF7E2F86B680746022B18D1A36803F00C03082BA5
:20786000A5D0FFF7D7F8C01B4045F5D9032091E7032A02D113F0007FDFE7012A02D113F0BC
:20788000020FDAE713F4007FD7E7032B0AD1A36803F00C030C2B8AD0FFF7BCF8C01B404521
:2078A000F5D9E3E7012B10D1A36803F00C03042B3FF47DAFFFF7AEF8C01B4045F4D9D5E703
:2078C000FFF7A8F8C01B4045D0D8A36813F00C0FF6D16CE71A6822F001021A601B68DA0752
:2078E0007FF56CAF55E70549E8688B6823F4E06303438B6066E700BF003C0240003802409D
:2079000070A20008000000207C000020044B054A9B68C3F30223D35C034A1068D840704752
:207920000038024080A2000800000020044B054A9B68C3F3C223D35C034A1068D840704784
:207940000038024080A20008000000207047000008B5054BDB681B0604D5FFF7F7FF8022D4
:20796000024B1A7008BD00BF003802400E38024003682DE9F3410446D80701D400203CE0BB
:207980003E4B5A6AD10026D401265A6A42F080525A625B6A03F080530193019B384D2B6851
:2079A000DA051AD5354A6368116803F0C04001F0C0418842114623D14A6B12F4403229D115
:2079C0002368DD0747D4002ED8D02C4A536A23F080535362D2E70026E0E72B6843F4807316
:2079E0002B60FFF717F807462B68DB05DAD4FFF711F8C01B6428F7D9032002B0BDE8F08168
:207A000003F44030B0F5403FD6D112689703D3D50120F2E703F440339342D1D02368D80734
:207A2000D1D50125174A4B6B1560002523F440301560DA054863C3D5FEF7ECFF41F28838D8
:207A400005460E4F7B6B9B05BAD4FEF7E3FF401B4045F7D9D0E76068084A00F44031B1F507
:207A6000403F06D1136800F0C04023F0C04303431360536B19435163A5E700BF00380240E3
:207A800000700040DC0647420122014B1A607047AC064742036810B59A680446D2040AD5BF
:207AA000DB68D90507D5FDF7D1FF2268D368DBB263F4C073D36023689A6892040BD5DB68B0
:207AC0009B0508D5204600F00DFA2268D368DBB263F42073D3604FF40032024B5A610123BC
:207AE000637710BD0004014038B5036804469A68920601D5002038BDDA6822F0A002DA6043
:207B0000FEF788FF05462368DB689B06F2D4FEF781FF401BB0F57A7FF5D90320EBE738B54B
:207B200003680446DA68520601D5002038BD4FF0FF32DA60FEF76EFF05462368DB685B0685
:207B4000F3D4FEF767FF401BB0F57A7FF5D90320ECE738B50446B8B1437F03F0FF0213B924
:207B60000277FDF7C7FF0223CA226377236820465A6253225A62FFF7D2FF2368054628B193
:207B8000FF225A620423637701252EE09A68206922F4E00222F040029A60626899680243F2
:207BA000606902430A439A60E268A1681A611A6942EA01421A61DA6822F08002DA609B6822
:207BC0009B0605D42046FFF78FFF08B12368D7E72368A1691A6C22F480221A641A6C0A431B
:207BE0001A64FF225A6201236377284638BD0023092803D840EA0310C0B270470A380133BE
:207C0000C0B2F5E7F8B5037F0546012B0E464FF002002ED0012368772B7729683078747813
:207C2000B7783ABB8A6812F0400208BFF270FFF7DEFF02462046FFF7DAFF04463846FFF7B3
:207C4000D6FFF37840EA034343EA024343EA0424CA234B62532328464B62FFF760FF2A689B
:207C60000746A0B1FF23536204236B7700232B770120F8BD8A68240212F0400208BFF27066
:207C8000F37844EA00443C4344EA0344E0E704F07F3424F0FE441460936823F48023936033
:207CA0009168D6E9033003430B439360D368284623F08003D360FFF717FFFF222B685A6264
:207CC00018B104232F776B77D2E7012328776B77CFE7F8B5037F0446012B4FF0020030D032
:207CE0000123607723770D78C8784B788F786D03002A3FD1DA0603D523F010030A334B70E0
:207D0000FFF775FF06464878FFF771FF02463846FFF76DFF054345EA064343EA0225CA225F
:207D2000236820465A6253225A62FFF7F8FE2268064638B1FF235362042363770023237725
:207D40000120F8BD25F07F4525F0C0055560D368204623F08003D360FFF7C6FEFF22236815
:207D60005A6218B1042326776377E9E7012320776377E6E745EA00453D4345EA0325CEE7AE
:207D80002DE9F84F037F0446012B4FF0020000F083800123276823776077087891F801A08C
:207DA00091F802B091F82080CE69BB68002A54D113F0400308BFCB70FFF719FF8146504603
:207DC000FFF715FF02465846FFF711FF05464046FFF70DFF4B691E43CB7846EA0346354391
:207DE00045EA094545EA022545EA00658B694E681E43CA237B6253237B624B6AB3F5807F98
:207E0000BB684BD123F48073BB60FB68DBB263F4C073FB60FEF7FEFD80462368DF6817F09A
:207E200001072CD0DD615E649A6842F480729A609A6842F480529A60294B00201A6842F4CA
:207E400000321A609A6842F400329A60FF2223685A620123207763771EE013F0400308BF0A
:207E6000CB704B691E4346EA0B0646EA0045C87845EA0A2545EA004545EA0865B6E7FEF7BC
:207E8000C9FDA0EB0800B0F57A7FC6D9FF22032023685A6260772777BDE8F88F23F4007396
:207EA000BB60FB68DBB263F42073FB60FEF7B2FD80462368DF6817F0020709D01D629E64CC
:207EC0009A6842F400729A609A6842F40052B2E7FEF7A0FDA0EB0800B0F57A7FE9D9D5E79A
:207EE0000004014070470000B0F1804F03680ED01E4A90420BD002F58062904207D002F53F
:207F00008062904203D002F57C42904216D14A6823F07003B0F1804F43EA020315D0134A50
:207F2000904212D002F5806290420ED002F5806290420AD002F57C42904206D00C4A9042FA
:207F400003D002F58062904203D1CA6823F4407313430A6923F08003134303608B68C362A3
:207F60000B68836201234361704700BF00040040000C0140036A30B523F001030362036A9F
:207F8000446882690D6822F073022A438D6823F00203446082614A682B434263036230BD36
:207FA000036A30B523F010030362036A446882690D6822F4E64242EA05228D6823F02003AF
:207FC000446082614A6843EA05138263036230BD10B50124036A01F01F018C4023EA0403A4
:207FE0000362036A8A401A43026210BD10B50446F0B190F8393003F0FF021BB980F838201E
:20800000FDF790FD0223206884F83930211DFFF76BFF0123002084F83E3084F83A3084F81F
:208020003B3084F83C3084F83D3084F8393010BD0120FCE790F83930012B1CD1022380F8A7
:2080400039300368B3F1804F0AD00C4A934207D002F58062934203D002F58032934204D129
:208060009A6802F00702062A03D01A6842F001021A60002070470120704700BF000400401D
:2080800090F83930012B20D1022380F839300368DA68B3F1804F42F00102DA600AD00C4A0D
:2080A000934207D002F58062934203D002F58032934204D19A6802F00702062A03D01A68BE
:2080C00042F001021A60002070470120704700BF000400400368DA6822F00102DA6041F210
:2080E0001112196A114202BF1A6822F001021A60012380F8393000207047000010B50446CA
:2081000029B990F83A30012B1DD0012010BD042907D190F83B30012BF7D1022380F83B3090
:2081200014E0082907D190F83C30012BEDD1022380F83C300AE090F83D30012BE5D1022375
:2081400080F83D3002E0022380F83A3001222068FFF73EFF2368B3F1804F0AD00A4A934272
:2081600007D002F58062934203D002F58032934204D19A6802F00702062A03D01A6842F0A0
:2081800001021A600020C1E70004004038B50446002200680D46FFF71BFF41F21112236851
:2081A000196A114202BF1A6822F001021A6001231DB984F83A30002038BD042D02D184F8A2
:2081C0003B30F8E7082D0CBF84F83C3084F83D30F1E710B50446F0B190F8393003F0FF0217
:2081E0001BB980F83820FDF7DDFC0223206884F83930211DFFF778FE0123002084F83E30A4
:2082000084F83A3084F83B3084F83C3084F83D3084F8393010BD0120FCE7FFF76FBFFFF7F0
:20822000B5BF70B590F838300546012B0C4677D00123082A80F838304FD006D85AB3042A37
:208240003AD0002085F8380070BD0C2AF9D1036826681A6A22F480521A621A6A5868D969AB
:2082600022F4005221F4E64141EA0621A6685860D961616842EA063219641A62DA69E16856
:2082800042F40062DA61DA6922F48062DA61DA6942EA012242E00068FFF76CFE2B68C96855
:2082A0009A6942F008029A619A6922F004029A619A690A439A61C4E70068FFF771FE2B6818
:2082C000C9689A6942F400629A619A6922F480629A619A6942EA0122ECE7036826681A6A3F
:2082E00022F480721A621A6A5868D96922F4007221F073013143A6685860D961616842EAFE
:208300000622D9631A62DA69E16842F00802DA61DA6922F00402DA61DA690A43DA6190E7A2
:20832000022091E770B590F838300446012B4FF0020027D0012384F83830236884F8390098
:208340009A6822F47F4222F077029A600A68602A56D031D8402A6BD015D8202A03D009D804
:2083600032F0100108D1996821F070010A4342F0070243E0302AF6D00123002084F839307A
:2083800084F8380070BD502AF6D14868CE68196A1D6A21F00A0125F001051D629A690143CE
:2083A00022F0F00242EA06129A6119629A6822F0700242F0570221E0702A11D0B2F5005F6C
:2083C000DAD1D1E901529868C9682A4320F47F4042EA012202439A609A6842F480420DE0FF
:2083E0009868D1E90152C9682A4320F47F4042EA012202439A609A6842F077029A60BBE728
:20840000186A4D6820F01000CE68186299691A6A21F4704122F0A00242EA051241EA0631B0
:2084200099611A629A6822F0700242F06702E5E74868CE68196A1D6A21F00A0125F00105B2
:208440001D629A69014322F0F00242EA06129A6119629A6822F0700242F04702CEE770472B
:20846000704770477047036810B51A69044691070ED5DA6892070BD56FF002021A610122A3
:2084800002769B6999075CD0FFF7EAFF0023237623681A69520710D5DA6850070DD56FF0D3
:2084A00004021A61022222769B69204613F4407F4DD0FFF7D5FF0023237623681A69110786
:2084C0000FD5DA6812070CD56FF008021A6104222276DB6920469B073FD0FFF7C1FF0023A6
:2084E000237623681A69D00610D5DA68D1060DD56FF010021A6108222276DB69204613F4C0
:20850000407F30D0FFF7ACFF0023237623681A69D20708D5DA68D00705D56FF001022046C0
:208520001A6100F01DFC23681A69510608D5DA68520605D56FF0400220461A61FFF792FFF8
:2085400010BDFFF78CFF2046FFF78BFF9EE7FFF786FF2046FFF785FFADE7FFF780FF204698
:20856000FFF77FFFBBE7FFF77AFF2046FFF779FFCAE7000030B590F838300246012B4FF069
:20858000020022D0136882F839005C680D6824F070042C43B3F1804F98685C600AD00B4C29
:2085A000A34207D004F58064A34203D004F58034A34204D1496820F0800001439960012361
:2085C000002082F8393082F8380030BD000400400368DA6822F49072DA605A6922F00102DE
:2085E0005A61026B012A02BFDA6822F01002DA60202380F83E3000230363704710B504464F
:208600000268C168136923F440530B43136183680069D1680343606921F416410343E06948
:2086200021F00C0103430B43D3605369A16923F440730B4353611A4B9A4220D1FFF776F92C
:208640001923E1694343D4E90020B1F5004F4FF0640117D14000B3FBF0F0B0FBF1F401FB56
:208660001403DB003233B3FBF1F303F007015B0001EB041103F4F8730B44936010BDFFF753
:2086800045F9DDE78000B3FBF0F0B0FBF1F401FB14031B013233B3FBF1F303EB0413ECE73C
:2086A0000038014010B5044640B390F83D3003F0FF021BB980F83C20FDF7B0FA242322683F
:2086C00084F83D30D368204623F40053D360FFF795FF236800201A6922F490421A615A6995
:2086E00022F02A025A61DA6842F40052DA602023206484F83D3084F83E3010BD0120FCE712
:2087000090F83D30202B18D1A9B1A2B190F83C30012B12D0C2840023828421220162016803
:20872000036480F83C3080F83D20CA68184642F08002CA607047012070470220704770478C
:2087400008B50023406AC385C384FFF7F8FF08BD704713B590F83E30222B49D18168836A9C
:20876000B1F5805F026833D10169002933D15268C2F3080223F8022BC48D8362013CA4B2E5
:20878000C4851CBB0368DA6822F02002DA60DA6822F48072DA605A6922F001025A61202245
:2087A00080F83E20026B012A1FD10463DA6822F01002DA601A68D20605D501941A68019276
:2087C0005B680193019B818DFFF7C2FF002010E039B9016929B95268D2B21A70836A0133AA
:2087E000CAE7526802F07F02F7E700F029FAEDE7022002B010BD0000036837B51A68044612
:2088000012F00F0FD9685D6908D195065FD58D065DD503B0BDE83040FFF79BBF05F00100B6
:2088200001F49075054352D0D50705D5CB0542BF236C43F001032364550704D518B1236C73
:2088400043F002032364930704D518B1236C43F004032364150707D501F0200303431EBF9E
:20886000236C43F008032364236C53B3920604D58B0602D52046FFF76CFF236820465B69BA
:20888000256C03F0400305F008051D431BD0FFF79FFE23685A69550610D55A69A06B22F0C3
:2088A00040025A6150B1534B4363FEF7C2FA40B1A06B436B03B0BDE8304018472046FFF798
:2088C0003EFF03B030BDFFF73AFF2564F9E7206B012855D1D00653D5CD0651D5002101919F
:2088E0001A6801925A680192019A5A6912F040022AD0A06B0268526892B2002AE1D0A58DF2
:208900009542DED9E2858269202A15D0DA6822F48072DA605A6922F001025A615A6922F05C
:2089200040025A61202284F83E202163DA6822F01002DA60FEF75AFAE38DA18DC91A89B2F5
:208940002046FFF705FFBCE7E18D88B2E18D89B20029B6D0A18D091A89B20029B1D0D8689E
:2089600020F49070D860586920F001005861202084F83E002263DA6822F01002DA60DFE73B
:20898000100626D50D0624D594F83D20212A98D1A168226AB1F5805F16D12169A1B932F80E
:2089A000021BC1F3080159602262E28C013A92B2E284002A85D1DA6822F08002DA60DA687B
:2089C00042F04002DA607CE7511C216212785A60EBE750067FF575AF4A067FF572AFDA686B
:2089E000204622F04002DA60202384F83D3000F083F966E741870008C28582858162034654
:208A000022220020186483F83C0083F83E201B68DA6842F48072DA605A6942F001025A610C
:208A2000DA6842F02002DA60704770B490F83E60202E10D161B15AB190F83C40012C0AD00E
:208A4000012480F83C400024046370BCFFF7D4BF012070BC70470220FBE7000001224FF44F
:208A600000610148FEF7DABB0008024010B54FF48053012411491248C1E9003402238B60D6
:208A8000FEF7FEFA6420FDF7CBFF6420FDF7C8FF22464FF480610A48FEF7C0FB094C022162
:208AA0002046FEF7B5FB0028F9D0BDE8104000224FF480610248FEF7B1BB00BF2C030020C6
:208AC000000802400004024001234FF4807204490448C1E9002302238B60FEF7D1BA00BFF8
:208AE0002C0300200008024000234FF4807204490448C1E9002301238B60FEF7C1BA00BFE1
:208B00002C030020000802402DE9F041284C0B262746DFF8BC80274DD8F80010206800F084
:208B2000C3F901222968206800F0F4F9322803D0013EF0D1372035E01F4B2068196800F064
:208B400053FA01222968206800F046FA1B4B2068196800F049FA01222968206800F03CFA58
:208B60004FF47A70FDF75CFF154B2068196800F03BFA144B01221968206800F0CBF9332851
:208B800012D02924104D114E2968386800F02CFA01223168386800F0BDF9322806D0013C34
:208BA000F2D13520BDE8F0813420FBE73620F9E7984A00209C000020840000208800002011
:208BC00094000020A40000208C000020A00000208000002010B50B4B0B4C1968206800F0A6
:208BE00003FA0A4B20681968012200F0F5F90849084800F007FBBDE810400146064800F00C
:208C0000E1BA00BF90000020984A00209C000020D6A20008C0420020243C0020BFF34F8FDA
:208C20000549064BCA6802F4E0621343CB60BFF34F8F00BFFDE700BF00ED00E00400FA05E8
:208C40000268234B10B59A42044611D1214B1B78012B07D1204A1368591C11601F4A1178AF
:208C60001F4AD1541F4B01221C491868FFF7DDFE22681D4B9A4211D1164B1B78022B07D17A
:208C8000154A1368591C1160144A1178144AD154164B012211491868FFF7C7FE2268144BA8
:208CA0009A4213D10B4B1B78032B07D10A4A1368591C1160094A1178094AD1540D4B012281
:208CC000BDE8104005491868FFF7AFBE10BD00BF00380140B8420020A04A0020944A002047
:208CE000C0420020984A002000440040DC41002000480040E04100200122014B1A60704726
:208D00009C4A00200828014638B51BD11248FEF77FFA044660B9114D2846FFF7B1F92B68D3
:208D200001225C628021BDE838400B48FEF776BA094800228021FEF771FABDE8384007483C
:208D4000FFF7C8B9012805D1BDE8384080210248FEF769BA38BD00BF00040240A44A002075
:208D600008B50268044B9A4205D1044B1B68012B01D1FFF753FF08BD000400403C0100204D
:208D80002DE9F84F3C4D1C46AC46DFF810813B4E3B4FC8F8000031603A600FCCACE80F00B5
:208DA0000FCCACE80F000FCCACE80F00DFF8F0A0DDF8349094E80F0054468CE80F00DDF83A
:208DC00028C0DFF8E0B0BCE80F000FC4BCE80F000FC4BCE80F000FC49CE80F0084E80F00A4
:208DE000DDF82CC0274CBCE80F000FC4BCE80F000FC4BCE80F000FC49CE80F0084E80F009F
:208E00005C46DDF830C0BCE80F000FC4BCE80F000FC4BCE80F000FC49CE80F0084E80F004B
:208E20000E995422184800F065F9184C184B5846C3F80090FFF7FEF821460122D8F8000071
:208E4000FFF7F3FD214601223868FFF7EEFD214601223068FFF7E9FD2846FFF7EBF8642256
:208E6000DAF800300B499A634FF4B7720A485A62BDE8F84F00F0A6B99C410020DC410020B0
:208E8000E0410020A44A002064420020944A0020BC420020B7A80008093D0020984A0020D2
:208EA00024420020E4410020F8B50B7805460C4633B30846FCF762F92968124B124F99426E
:208EC000124E214682B20ED1114B1868FFF718FC002233683A605A6244F62062596A91426D
:208EE000FCD93320F8BD2846FFF70AFC002233683A605A6244F62062596A9142FCD9F0E71A
:208F00003220EFE7003801409C4A00209C410020E04100202DE9F843002304469146214F67
:208F2000214A084613603B708846FCF727F923681E4A934203D101221D4B1A7006E01D4A7B
:208F4000934224D002F58062934223D01A4B3F1A1E6800231D461A467362716AB1F57A7F2E
:208F600003D30133994572621AD000248442F4DA17F804C018F804108C450ED10135A842CC
:208F80000CD1002232200D4B1A60BDE8F8830222074BD2E70322064BCFE700250134E5E70D
:208FA0003320F2E7C0420020A04A002000380140B8420020004400409C41002038010020EC
:208FC00004210148FFF729B92442002004210148FFF725B92442002008B5FFF79BFF332855
:208FE00001D1FFF71BFE08BD08B5FFF75DFF332801D1FFF713FE08BD10B5FFF72FFDFFF7E6
:020000040800F2
:2090000035FDFFF781FD134C2060FFF7E3FD2368372B04D1104B11491868FFF745FF236839
:20902000342B04D10C4B0E491868FFF73DFF2368352B04D1084B0B491868FFF735FF236800
:20904000362B04D1044B08491868FFF72DFF206810BD00BF904A0020DC410020BDA80008E0
:20906000CBA80008D4A80008D8A80008014B1868704700BFB400002070B500260C4D0D4C56
:20908000641BA410A64209D101F0E2F800260A4D0A4C641BA410A64205D170BD55F8043B93
:2090A00098470136EEE755F8043B98470136F2E760AA000860AA000860AA000864AA0008FE
:2090C000931E222B10B50C4604D900231C460B70204610BD0A2A09D1002807DA2D230B7089
:2090E00001214042214400F0E9F8F1E70021F9E7FFF7E6BF0A44914200F1FF3300D1704756
:2091000010B511F8014B914203F8014FF9D110BD03460244934200D1704703F8011BF9E79D
:2091200010B50C46B1F90E1000F00AFD0028ABBF636DA3891B1823F48053ACBF6365A38157
:2091400010BD2DE9F0411F468B890546DB050C46164605D502230022B1F90E1000F042F995
:20916000A389324623F48053A38128463B46B4F90E10BDE8F04100F0E3B810B50C46B1F961
:209180000E1000F02FF9431CA38915BF606523F4805343F48053A38118BFA38110BDB1F9EB
:2091A0000E1000F0FDB8024610B5147813460132002CFAD1013B11F8012B03F8012F002A0A
:2091C000F9D110BD034611F8012B03F8012B002AF9D17047F0B50C7864B103461A78184631
:2091E0005E1C0AB9104605E0944208D10D4615F8012F02B9F0BD13F8017F9742F7D03346AC
:20920000ECE70000164B2DE9F0411F680546BC6D0E46ECB9502000F0F7F80246B86520B952
:209220005721104B104800F09DF8C0E90044C0E90244C0E90444C0E90A44C0E90C44C0E918
:209240000E44C0E91044C0E9124484610477446231462846BA6D0123BDE8F04100F006B806
:20926000B4000020ECA8000803A90008F0B508B9106888B104460F46204614F8015B17F837
:20928000016B1EB965B92846156005E0B542F6D1002BF0D114600370F0BD1C460CE015B94B
:2092A0000E4614F8013B16F8015BAB42F7D1002BF3D0002304F8013C1460EDE7F0B58BB081
:2092C00005460B466E461D4C04F1200C374620686168083403C764453E46F7D121792068C9
:2092E0003971911E222938604FF0000104D919700B4618460BB0F0BD581E8446B5FBF2F79C
:2093000002FB17560DF1280E764416F8286C0C460CF8016F2E46B2423D4601F10101EDD9E8
:2093200000225A541919A51AAA42E2DA10F8015F0E780132067001F80159F4E764A90008EA
:2093400038B50446084611460022054D2A601A46FCF75FFD431C02D12B6803B1236038BD93
:20936000E44A00201FB514461A46094B05461B68D8684CB1074BCDE9013400912B46064924
:2093800000F01EF800F0BEFC044B1C46F3E700BFB400002089A9000896A90008D8A20008FC
:2093A00038B50023054D044608462B60FCF73EFD431C02D12B6803B1236038BDE44A0020BB
:2093C0000EB403B5014603AB054853F8042B0068019300F0EFF802B05DF804EB03B0704724
:2093E000B400002038B50446084611460022054D2A601A46FCF724FD431C02D12B6803B1D2
:20940000236038BDE44A0020024B0146186800F04FB800BFB400002038B50546002943D074
:2094200051F8043C0C1F002BB8BFE41800F09EFE1E4A1368104633B9636014602846BDE8DF
:20944000384000F099BEA3420AD921686218934201BF1A685B685218226063600460EDE7C1
:209460001A465B680BB1A342FAD911685018A0420BD120680144501883421160DED118681C
:209480005B68014411605360D8E702D90C232B60D4E7206821188B4201BF19685B680918DE
:2094A000216063605460C9E738BD00BF40010020F8B5CD1C25F0030508350C2D38BF0C259E
:2094C000002D064601DBA94203D90C2333600020F8BD00F04BFE21490A6814469CB9204FA6
:2094E0003B6823B92146304600F03CFB38602946304600F037FB431C23D10C2330463360BF
:2095000000F03AFEE3E723685B1B17D40B2B03D923601C44256004E06368A2420CBF0B602A
:209520005360304600F028FE04F10B00231D20F00700C21ACCD01B1AA350C9E72246646811
:20954000CCE7C41C24F00304A042E3D0211A304600F008FB0130DDD1CFE700BF400100206F
:2095600044010020936810B4013B002B936007DA9469A34201DB0A2902D110BC00F002BB4F
:209580001368581C10601970084610BC7047F8B506460F461446D518AC4201D1002007E0B6
:2095A0003A46304614F8011BFFF7DCFF431CF3D1F8BD00002DE9F04F0D46144698460646B8
:2095C0009DB018B183690BB900F0BEFC894B9D421BD175686B6ED90705D4AB899A0502D464
:2095E000A86D00F04FFDAB891B0701D52B69EBB92946304600F018FBC0B16B6EDC070ED5BE
:209600004FF0FF301DB0BDE8F08F7B4B9D4201D1B568DFE7794B9D4208BFF568DAE7AB89D5
:209620009805EDD4A86D00F02EFDE9E70023099320238DF8293030234FF00109CDF80C80FF
:20964000DFF8BC818DF82A3023469A4613F8012B0AB1252AF9D1BAEB040B0BD05B4622462B
:2096600029463046FFF793FF013000F0AA80099A5A4409929AF80030002B00F0A280002334
:209680004FF0FF32CDE905230AF1010A049307938DF853301A935446052214F8011B584807
:2096A00000F056FD049AD8B9D10644BF20238DF85330130744BF2B238DF853309AF80030DE
:2096C0002A2B15D0544600204FF00A0C079A214611F8013B303B092B4ED9B0B1079214E040
:2096E000A0EB080309FA03F31343A2460493D2E7039B191D1B680391002BBBBF5B4242F0EE
:20970000020207930793B8BF049223782E2B0CD163782A2B35D1039B02341A1D1B680392DA
:20972000002BB8BF4FF0FF330593DFF8E4A003225046217800F00CFD40B14023A0EB0A00ED
:2097400003FA00F0049B01340343049314F8011B06222C488DF8281000F0FAFC00283FD0CD
:20976000294B1BBB039B073323F0070308330393099B3B44099367E70C4601200CFB02321E
:20978000A5E700234FF00A0C194601340593204610F8012B303A092A03D9002BC5D0059130
:2097A000C3E7044601230CFB0121F0E703AB00932A463046154B04A9AFF300800746781C5A
:2097C000D6D16B6ED90705D4AB899A0502D4A86D00F059FCAB895B063FF512AF099811E72A
:2097E00003AB00932A463046084B04A900F082F8E4E700BF18AA000838AA0008F8A90008F1
:20980000C5A90008CFA90008000000008F950008CBA900082DE9F047164699468A680B69BC
:2098200007469342B8BF1346336091F843200C46DDF820800AB1013333602368990642BF43
:20984000336802333360256815F0060506D104F1190AE36832689B1AAB4228DC94F843209F
:20986000131E226818BF012392062DD44946384604F14302C047013020D02368E56803F05F
:209880000603042B18BF002532684FF00006A36808BFAD1A226908BF25EAE5759342C4BF09
:2098A0009B1AED181A34B5421AD1002008E00123524649463846C047013003D14FF0FF3073
:2098C000BDE8F0870135C4E73020E11881F843005A1C94F845102244023382F84310C5E71B
:2098E0000123224649463846C0470130E6D00136D9E700002DE9FF470C46277E9146782F19
:2099000080469A460C9904F1430207D8622F0AD8002F00F0D980582F00F0A48004F1420620
:2099200084F842703AE0A7F16303152BF6D801A050F823F08D990008A19900081D990008A9
:209940001D9900081D9900081D990008A19900081D9900081D9900081D9900081D99000893
:20996000AF9A0008D1990008919A00081D9900081D990008D19A00081D990008D1990008D2
:209980001D9900081D990008999A00080B6804F142061A1D1B680A6084F842300123A4E0A6
:2099A000256808682E0600F104030AD505680B60002D03DA2D236D4284F843300A235E48FC
:2099C00019E015F0400F05680B6018BF2DB2EFE70B682568181D0860280601D51D6802E0CE
:2099E0006906FBD51D886F2F0CBF08230A235248002184F843106668002EA8BF2168A66046
:209A0000A4BF21F0040121600DB9002E4DD01646B5FBF3F103FB1157C75D06F8017D2F46D0
:209A2000BB420D46F4D9082B0BD12368DF0708D5236961689942DEBF302306F8013C06F15A
:209A4000FF36921B22614B4621464046CDF800A003AAFFF7DFFE01304CD14FF0FF3004B0CE
:209A6000BDE8F087344884F845700E68236856F8045B1F060E6014D5D90744BF43F02003BA
:209A800023601DB9236823F0200323601023AFE7236843F0200323607823284884F8453000
:209AA000E3E75E0648BFADB2E6E71646BBE70B6826681D1D60690D6035061B6801D51860CA
:209AC00002E07106FBD51880002316462361BAE70B681A1D0A601E6800213046626800F036
:209AE00037FB08B1801B606063682361002384F84330A8E73246494640462369D0470130CF
:209B0000ABD023689B0713D4E068039B9842B8BF1846A4E70123324649464046D04701309D
:209B20009BD00135E36803995B1AAB42F2DCEBE7002504F11906F5E7D6A90008E7A9000867
:209B400038B50446084611460022054D2A601A46FCF752F9431C02D12B6803B1236038BD9C
:209B6000E44A002038B50023054D044608462B60FCF768F9431C02D12B6803B1236038BDCD
:209B8000E44A0020F8B50E461446054618B183690BB900F0D9F9214B9C422BD16C68A36970
:209BA000A360A3891A072FD523696BB323692068F6B2C01A63693746834204DC214628464E
:209BC00000F02EF930BBA3680130013BA36023685A1C22601E706369834204D0A389DB0784
:209BE00006D50A2E04D12146284600F019F988B93846F8BD0A4B9C4201D1AC68CFE7094B0F
:209C00009C4208BFEC68CAE72146284600F00CF80028CBD04FF0FF37EAE700BF18AA00083F
:209C200038AA0008F8A90008324B70B51D6806460C4625B1AB6913B9284600F085F92E4BC1
:209C40009C420FD16C68A389B4F90C2019072CD4DD0611D40923336042F040034FF0FF30E3
:209C6000A3813EE0254B9C4201D1AC68EBE7244B9C4208BFEC68E6E7580712D5616B41B163
:209C800004F14403994202D03046FFF7C5FB00236363A38923F02403A381002363602369CA
:209CA0002360A38943F00803A38123694BB9A38903F42073B3F5007F03D02146304600F086
:209CC00007FAA089B4F90C2010F001030AD00023A36063695B42A361236943B910F0800008
:209CE000BAD170BD810758BF6369A360F4E70020F7E700BFB400002018AA000838AA00081E
:209D0000F8A90008062008B500F064FA0120FCF76DF800008A892DE9F041054610070C46E2
:209D200058D44B68002B05DC0B6C002B02DC0020BDE8F081E66A002EF9D0002312F4805240
:209D40002F682B6032D0606DA3895A0705D56368C01A636B0BB1236CC01A00230246E66A58
:209D60002846216AB047431CA38906D129681D292CD82A4ACA40D60728D5002262602269EF
:209D8000D904226004D5421C01D12B6803B96065616B2F600029CAD004F14403994202D040
:209DA0002846FFF739FB00206063C1E7216A01232846B047411CC7D12B68002BC4D01D2BDD
:209DC00001D0162B01D12F60B1E7A38943F04003A381ADE70F69002FA9D0930718BF00236A
:209DE0000E6808BF4B69A6EB07080F608B60B8F1000F9CDD43463A462846216AA66AB0473E
:209E0000002806DCA3894FF0FF3043F04003A3818EE70744A8EB0008E9E700BF01004020B9
:209E200038B50B6905460C4613B90025284638BD18B183690BB900F087F8144B9C421BD1BF
:209E40006C68B4F90C30002BEFD0626ED00704D4990502D4A06D00F015F928462146FFF792
:209E600059FF636E0546DA07E0D4A3899B05DDD4A06D00F008F9D9E7054B9C4201D1AC688A
:209E8000DFE7044B9C4208BFEC68DAE718AA000838AA0008F8A90008002310B50446C0E9BB
:209EA0000033C0E90433836081814366C2818361194608225C30FFF72BF9054B2462636210
:209EC000044BA362044BE362044B236310BD00BF21910008439100087B9100089F91000857
:209EE000014900F0AFB800BF219E000870B568254A1E55430E4605F17401FFF7D9FA0446B7
:209F000040B10021C0E900160C30A06005F16802FFF7FEF8204670BD014800F0B3B800BFF2
:209F2000F04A0020014800F0AEB800BFF04A0020014800F0A7B800BFEB4A0020014800F02A
:209F4000A2B800BFEB4A002010B50446FFF7F0FFA3691BB1BDE81040FFF7F0BFC4E912333B
:209F60002365134B134A1B68A262A34208BF0123204608BFA36100F01FF86060204600F0F9
:209F80001BF8A060204600F017F800220421E0606068FFF781FF01220921A068FFF77CFFBE
:209FA00002221221E068FFF777FF0123A361D1E7E8A80008E19E0008F8B50746FFF7ACFFFC
:209FC0001E4B1E68B36913B93046FFF7BDFF4836D6E90134013B03D533680BB33668F7E727
:209FE000B4F90C50D5B9164B04F15800E360656600F047F8FFF796FF08222946C4E90155B8
:20A00000C4E904552560A56104F15C00FFF780F8C4E90D55C4E912552046F8BD6834D9E756
:20A0200004213846FFF762FF044630600028D5D1FFF778FF0C233B60EEE700BFE8A800081B
:20A040000100FFFF2DE9F84306468846002700F14804D4E90195B9F1010905D52468002C99
:20A06000F7D13846BDE8F883AB89012B07D9B5F90E30013303D029463046C0470743683574
:20A08000E9E770477047704770B50E46B1F90E10144600291D4696B007DA00232B60B38993
:20A0A0001A0610D44FF480630EE06A4600F0AEF80028F2DB019A02F47042A2F500535A4284
:20A0C0005A412A60EEE740230020236016B070BD8B8973B59D0706460C4607D504F14703F4
:20A0E000236023610123636102B070BD6A4601ABFFF7CAFF009905463046FFF7D9F948B954
:20A10000B4F90C309A05EFD423F0030343F00203A381E3E70D4BB362A389206043F08003E6
:20A12000A381009B20616361019B5BB13046B4F90E1000F07DF828B1A38923F0030343F07C
:20A140000103A381A0890543A581CDE7E19E0008034610B5C9B202449342184601D1002011
:20A1600003E0047801338C42F6D110BD0148FFF789BF00BFEC4A00200148FFF784BF00BF0D
:20A18000EC4A00201F2938B504460D4604D9162303604FF0FF3038BD426C12B152F82130AF
:20A1A0004BB9204600F030F82A4601462046BDE8384000F017B8012B0AD0591C03D116239C
:20A1C00003600120E7E70024284642F8254098470020E0E7024B01461868FFF7D3BF00BFDB
:20A1E000B400002038B50023064D0446084611462B60FBF7F3FD431C02D12B6803B12360D0
:20A2000038BD00BFE44A0020FBF7E6BD38B50023064D0446084611462B60FBF70AFE431C71
:20A2200002D12B6803B1236038BD00BFE44A002038B50023054D044608462B60FBF7FEFD0D
:20A24000431C02D12B6803B1236038BDE44A0020F8B500BFF8BC08BC9E467047F8B500BFD4
:20A26000F8BC08BC9E46704752455345540D0A000000000000000000010203040607080909
:20A280000000000001020304030406080C1018203041542B46534352454154453D0041543C
:20A2A0002B4653524541443D002C312C35302C004552524F52003130003130323430004144
:20A2C000542B465357524954453D003E002F535353322F002F220D0A006669726D77617277
:20A2E000652E686578003138352E3139362E3231342E36330032310061646D696E5F736D13
:20A300006172745F6674700031323334353637380041542B4654504745544E414D453D229F
:20A32000636F6E6669672E747874220D0A0041542B46545044454C450D0A002B46545044AC
:20A34000454C453A20312C300D0A00443A5C4654505C636F6E6669672E74787400434F4E25
:20A360004649475F5550444154450D0A0041542B4654504745544E414D453D227461626C21
:20A38000652E747874220D0A005441424C455F5550444154450D0A0041542B4654504745BA
:20A3A000544E414D453D226669726D776172652E686578220D0A004649524D574152455F04
:20A3C0005550444154450D0A00443A5C4654505C6669726D776172652E6865782300433A13
:20A3E0005C66772E636667004A554D50494E475F424F4F544C4F414445520D0A00424F4F6B
:20A40000544C4F414445525F52454D4F5645440A0041542B465450474554544F46533D3182
:20A420002C226669726D776172652E686578222C33302C35390D0A0041542B465450474566
:20A4400054544F46533D312C227461626C652E747874222C352C35390D0A0041542B46548C
:20A4600050474554544F46533D312C22636F6E6669672E747874222C332C35390D0A00413D
:20A48000542B4654504745544E414D453D220041542B4654504C4953543D322C31343630A7
:20A4A0000D0A0041542B4654504C4953543D310D0A0041542B465450474554504154483D26
:20A4C000220041542B4654504745544E414D453D443A5C6B2E7478740D0A0041542B46542E
:20A4E0005050573D220041542B465450554E3D220041542B465450504F52543D2200415477
:20A500002B465450534552563D220041542B4654504349443D310D0A002B46545047455493
:20A52000544F46533A20302C002B4654504C4953543A20312C30002B4654504C4953543A66
:20A5400020312C310077726974696E67206D6561737572652066696C650D0A004153415437
:20A56000483D0041444953543D0041534152463D0041434F5252454354494F4E3D00414CF7
:20A580004F434B3D004154454D503D00414241543D00415349473D00414D534154483D003C
:20A5A000414D434F4E3D00414D54454D503D004150473D00414E414D45313D00414E414DED
:20A5C00045323D00414E414D45333D004154494D453D0041504E554D3D0041494D45493DE8
:20A5E000004149443D004146563D004142563D002B393938004D4237353838003200313845
:20A60000352E3139362E3231342E313930003138383300656D7178003132333435003630B6
:20A62000005341524600534154480042415400434F52003134343000465700475052530061
:20A64000696E7465726E657400443A5C706F732E74787400443A5C6C6F672E7478740044E9
:20A660003A5C427452656365697665645C7461626C652E74787400443A5C42745265636566
:20A68000697665645C636F6E6669672E74787400443A5C427452656365697665645C494412
:20A6A0002E74787400443A5C6D656173757265642E74787400302E302E302E3000434F4E24
:20A6C0004E45435445440D0A0041542B534D5055423D220041542B534D434F4E4E0D0A0065
:20A6E00041542B534D434F4E463D2254494D454F5554222C220041542B534D434F4E463D1B
:20A7000022434C45414E5353222C220041542B534D434F4E463D224B454550414C49564523
:20A72000222C220041542B534D434F4E463D2250415353574F5244222C220041542B534D81
:20A74000434F4E463D22555345524E414D45222C220041542B534D434F4E463D22434C49E7
:20A76000454E544944222C220041542B534D434F4E463D2255524C222C220041542B534159
:20A780005042523D302C310D0A0041542B53415042523D322C310D0A0041542B53415042F3
:20A7A000523D312C310D0A0041542B53415042523D332C312C2252415445222C22004154E1
:20A7C0002B53415042523D332C312C2250484F4E454E554D222C220041542B5341504252A9
:20A7E0003D332C312C22505744222C220041542B53415042523D332C312C2255534552222F
:20A800002C220041542B53415042523D332C312C2241504E222C220041542B534150425210
:20A820003D332C312C22436F6E74797065222C220041542B4350494E3F0D0A0041542B4368
:20A8400053510D0A0041542B43434C4B3F0D0A0041542B434D54453F0D0A0041542B434D7B
:20A8600054453D310D0A0041542B434349440D0A0041542B47534E0D0A0041542B43524577
:20A88000473F0D0A0041542B435245473D300D0A00415445300D0A0041540D0A0052454111
:20A8A00044590D0A002B435245473A20302C310D0A004F4B0D0A0068656C6C6F004D4F44F5
:20A8C000454D5F4552524F520D0A004E4F5F53494D0D0A004E4F545F524547495354455235
:20A8E00045440D0A00000000B80000205245454E54206D616C6C6F632073756363656564CE
:20A900006564002F6275696C642F676E752D746F6F6C732D666F722D73746D33325F392D39
:20A92000323032302D71322D7570646174652E32303230313030312D313632312F737263B1
:20A940002F6E65776C69622F6E65776C69622F6C6962632F737472696E672F737472746F9D
:20A960006B2E6300303132333435363738396162636465666768696A6B6C6D6E6F70717263
:20A98000737475767778797A002C2066756E6374696F6E3A2000617373657274696F6E20FF
:20A9A00022257322206661696C65643A2066696C6520222573222C206C696E65202564257E
:20A9C0007325730A00232D302B2000686C4C00656667454647003031323334353637383966
:20A9E000414243444546003031323334353637383961626364656600000000000000000060
:20AA0000000000000000000000000000000000000000000000000000000000000000000036
:20AA2000000000000000000000000000000000000000000000000000000000000000000016
:20AA400000000000000000000000000000000000000000000000000064A7FF7F010000006C
:20AA6000615100083D51000868FF1F00BFA20008B6A2000835A50008CBA200080BA5000828
:20AA80008FA400085BA4000838A4000811A40008FEA40008F1A40008E6A40008DBA4000873
:20AAA000D5A20008C2A40008B2A40008A3A4000837A5000819A5000877A6000818A8000865
:20AAC00003A80008EDA70008D8A70008BEA70008A8A7000899A700088AA700087BA7000831
:20AAE000010000001000000098A8000891A8000885A800087AA8000871A8000831A800085B
:20AB0000D6A20008B2A80008A5A800089DA8000827A50008D5A2000839000000B80000204D
:20AB20000000000018AA000838AA0008F8A9000800000000000000000000000000000000B8
:20AB40000000000000000000000000000000000000000000000000000000000000000000F5
:20AB60000000000000000000000000000000000000000000000000000000000000000000D5
:00000001FF
