:020000040800F2
:1050000000800020F9660008C5650008CD6500082D
:10501000F1650008F3650008F56500080000000070
:10502000000000000000000000000000F76500081C
:10503000F965000800000000FB650008FD65000838
:1050400041670008416700084167000841670008A0
:1050500041670008416700080166000841670008D1
:1050600041670008076600084167000841670008BB
:105070004167000841670008416700084167000870
:105080004167000841670008416700084167000860
:105090004167000841670008416700084167000850
:1050A00000000000416700084167000841670008F0
:1050B000416700080D660008416700084167000865
:1050C0004167000841670008416700084167000820
:1050D0004167000819660008256600083166000867
:1050E000416700083D660008416700084167000805
:1050F00041670008000000004167000841670008A0
:10510000000000000000000041670008416700083F
:10511000416700084167000841670008000000007F
:1051200041670008000000000000000000000000CF
:0C51300000000000000000005FF808F123
:10513C0010B5054C237833B9044B13B10448AFF3C5
:10514C0000800123237010BD94010020000000009A
:10515C006CE9000808B5034B1BB103490348AFF3D6
:10516C00008008BD00000000980100206CE90008D8
:10517C0010F8012B11F8013B012A28BF9A42F7D0F5
:10518C00D01A7047034613F8012B002AFBD1181ACA
:10519C000138704781F0004102E000BF83F000430A
:1051AC0030B54FEA41044FEA430594EA050F08BFB6
:1051BC0090EA020F1FBF54EA000C55EA020C7FEA7A
:1051CC00645C7FEA655C00F0E2804FEA5454D4EBF7
:1051DC005555B8BF6D420CDD2C4480EA020281EAC1
:1051EC00030382EA000083EA010180EA020281EAF9
:1051FC000303362D88BF30BD11F0004F4FEA01314B
:10520C004FF4801C4CEA113102D0404261EB410159
:10521C0013F0004F4FEA03334CEA133302D05242DF
:10522C0063EB430394EA050F00F0A780A4F101049B
:10523C00D5F1200E0DDB02FA0EFC22FA05F28018D5
:10524C0041F1000103FA0EF2801843FA05F35941BB
:10525C000EE0A5F120050EF1200E012A03FA0EFC3A
:10526C0028BF4CF0020C43FA05F3C01851EBE37164
:10527C0001F0004507D54FF0000EDCF1000C7EEB81
:10528C0000006EEB0101B1F5801F1BD3B1F5001FBF
:10529C000CD349085FEA30004FEA3C0C04F10104DE
:1052AC004FEA445212F5800F80F09A80BCF1004F07
:1052BC0008BF5FEA500C50F1000041EB045141EA89
:1052CC00050130BD5FEA4C0C404141EB0101013C52
:1052DC0028BFB1F5801FE9D291F0000F04BF014641
:1052EC000020B1FA81F308BF2033A3F10B03B3F113
:1052FC0020020CDA0C3208DD02F1140CC2F10C02A3
:10530C0001FA0CF021FA02F10CE002F11402D8BF00
:10531C00C2F1200C01FA02F120FA0CFCDCBF41EACC
:10532C000C019040E41AA2BF01EB0451294330BD9B
:10533C006FEA04041F3C1CDA0C340EDC04F1140478
:10534C00C4F1200220FA04F001FA02F340EA03004F
:10535C0021FA04F345EA030130BDC4F10C04C4F195
:10536C00200220FA02F001FA04F340EA0300294675
:10537C0030BD21FA04F0294630BD94F0000F83F4BF
:10538C00801306BF81F480110134013D4EE77FEAA2
:10539C00645C18BF7FEA655C29D094EA050F08BFEE
:1053AC0090EA020F05D054EA000C04BF19461046CF
:1053BC0030BD91EA030F1EBF0021002030BD5FEA13
:1053CC00545C05D14000494128BF41F0004130BD3B
:1053DC0014F580043CBF01F5801130BD01F000458F
:1053EC0045F0FE4141F470014FF0000030BD7FEA02
:1053FC00645C1ABF194610467FEA655C1CBF0B46FD
:10540C00024650EA013406BF52EA033591EA030F13
:10541C0041F4002130BD00BF90F0000F04BF00210B
:10542C00704730B54FF4806404F132044FF000053E
:10543C004FF0000150E700BF90F0000F04BF0021B7
:10544C00704730B54FF4806404F1320410F000451D
:10545C0048BF40424FF000013EE700BF42004FEA18
:10546C00E2014FEA31014FEA02701FBF12F07F4395
:10547C0093F07F4F81F06051704732F07F4208BF4C
:10548C00704793F07F4F04BF41F40021704730B553
:10549C004FF4607401F0004521F000411CE700BF9F
:1054AC0050EA010208BF704730B54FF000050AE022
:1054BC0050EA010208BF704730B511F0004502D523
:1054CC00404261EB41014FF4806404F132045FEA25
:1054DC00915C3FF4D8AE4FF003025FEADC0C18BFCE
:1054EC0003325FEADC0C18BF033202EBDC02C2F1C0
:1054FC00200300FA03FC20FA02F001FA03FE40EA52
:10550C000E0021FA02F11444BDE600BF70B54FF055
:10551C00FF0C4CF4E06C1CEA11541DBF1CEA135533
:10552C0094EA0C0F95EA0C0F00F0DEF82C4481EA9B
:10553C00030621EA4C5123EA4C5350EA013518BFBB
:10554C0052EA033541F4801143F4801338D0A0FBA8
:10555C0002CE4FF00005E1FB02E506F00042E0FB55
:10556C0003E54FF00006E1FB03569CF0000F18BF5B
:10557C004EF0010EA4F1FF04B6F5007F64F5407403
:10558C0004D25FEA4E0E6D4146EB060642EAC62196
:10559C0041EA55514FEAC52040EA5E504FEACE2E03
:1055AC00B4F1FD0C88BFBCF5E06F1ED8BEF1004F06
:1055BC0008BF5FEA500E50F1000041EB045170BD82
:1055CC0006F0004646EA010140EA020081EA0301C6
:1055DC00B4EB5C04C2BFD4EB0C0541EA045170BDC2
:1055EC0041F480114FF0000E013C00F3AB8014F13C
:1055FC00360FDEBF002001F0004170BDC4F1000485
:10560C00203C35DA0C341BDC04F11404C4F1200505
:10561C0000FA05F320FA04F001FA05F240EA020060
:10562C0001F0004221F0004110EBD37021FA04F696
:10563C0042EB06015EEA430E08BF20EAD37070BD50
:10564C00C4F10C04C4F1200500FA04F320FA05F0AF
:10565C0001FA04F240EA020001F0004110EBD370B1
:10566C0041F100015EEA430E08BF20EAD37070BD21
:10567C00C4F1200500FA05F24EEA020E20FA04F3FA
:10568C0001FA05F243EA020321FA04F001F00041A9
:10569C0021FA04F220EA020000EBD3705EEA430E1A
:1056AC0008BF20EAD37070BD94F0000F0FD101F049
:1056BC000046400041EB010111F4801F08BF013C82
:1056CC00F7D041EA060195F0000F18BF704703F0C0
:1056DC000046520043EB030313F4801F08BF013D47
:1056EC00F7D043EA0603704794EA0C0F0CEA135503
:1056FC0018BF95EA0C0F0CD050EA410618BF52EABD
:10570C004306D1D181EA030101F000414FF00000C2
:10571C0070BD50EA410606BF1046194652EA4306D0
:10572C0019D094EA0C0F02D150EA013613D195EA44
:10573C000C0F05D152EA03361CBF104619460AD18C
:10574C0081EA030101F0004141F0FE4141F4700196
:10575C004FF0000070BD41F0FE4141F4780170BD86
:10576C0070B54FF0FF0C4CF4E06C1CEA11541DBFEB
:10577C001CEA135594EA0C0F95EA0C0F00F0A7F8ED
:10578C00A4EB050481EA030E52EA03354FEA01311A
:10579C0000F088804FEA03334FF0805545EA13132D
:1057AC0043EA12634FEA022245EA111545EA1065F5
:1057BC004FEA00260EF000419D4208BF964244F18C
:1057CC00FD0404F5407402D25B084FEA3202B61AAB
:1057DC0065EB03055B084FEA32024FF480104FF47F
:1057EC00002CB6EB020E75EB030E22BFB61A7546F3
:1057FC0040EA0C005B084FEA3202B6EB020E75EB86
:10580C00030E22BFB61A754640EA5C005B084FEAED
:10581C003202B6EB020E75EB030E22BFB61A7546BA
:10582C0040EA9C005B084FEA3202B6EB020E75EBC5
:10583C00030E22BFB61A754640EADC0055EA060E86
:10584C0018D04FEA051545EA16754FEA06164FEAC9
:10585C00C30343EA52734FEAC2025FEA1C1CC0D175
:10586C0011F4801F0BD141EA00014FF000004FF002
:10587C00004CB6E711F4801F04BF01430020B4F1C3
:10588C00FD0C88BFBCF5E06F3FF6AFAEB5EB030C7B
:10589C0004BFB6EB020C5FEA500C50F1000041EB78
:1058AC00045170BD0EF0004E4EEA113114EB5C0445
:1058BC00C2BFD4EB0C0541EA045170BD41F4801118
:1058CC004FF0000E013C90E645EA060E8DE60CEA20
:1058DC00135594EA0C0F08BF95EA0C0F3FF43BAF3D
:1058EC0094EA0C0F0AD150EA01347FF434AF95EAF4
:1058FC000C0F7FF425AF104619462CE795EA0C0FD8
:10590C0006D152EA03353FF4FDAE1046194622E7A4
:10591C0050EA410618BF52EA43067FF4C5AE50EA7E
:10592C0041047FF40DAF52EA43057FF4EBAE12E76E
:10593C004FEA410212F5001215D211D56FF47873AB
:10594C00B3EB625212D94FEAC12343F0004343EA4E
:10595C00505311F0004F23FA02F018BF4042704729
:10596C004FF00000704750EA013005D111F00040B3
:10597C0008BF6FF0004070474FF00000704700BF49
:10598C0053B94AB9002908BF00281CBF4FF0FF319A
:10599C004FF0FF3000F06EB9ADF1080C6DE904CE9C
:1059AC0000F006F8DDF804E0DDE9022304B07047EE
:1059BC002DE9F047089E0D4604468E46002B40F01C
:1059CC0083808A42174647D9B2FA82F34BB1C3F1AE
:1059DC00200105FA03FE20FA01F19F4041EA0E0E68
:1059EC009C404FEA1748BEFBF8FC1FFA87F908FBEE
:1059FC001CE20CFB09F0210C41EA024290420AD94C
:105A0C00BA180CF1FF3180F01881904240F21581E8
:105A1C00ACF1020C3A44121AB2FBF8F008FB10225B
:105A2C0000FB09F1A4B244EA0244A14209D93C1991
:105A3C0000F1FF3280F00381A14240F20081023874
:105A4C003C44641A002140EA0C401EB10022DC40A8
:105A5C00C6E90042BDE8F08702B9FFDEB2FA82F374
:105A6C00002B4FD18D1A01214FEA124E1FFA82F8EA
:105A7C00B5FBFEFC0EFB1C5508FB0CF0220C42EA9D
:105A8C000545A84207D97D190CF1FF3202D2A84274
:105A9C0000F2E98094462D1AB5FBFEF00EFB105572
:105AAC0008FB00F8A4B244EA0544A04507D93C1908
:105ABC0000F1FF3202D2A04500F2D9801046A4EBCF
:105ACC00080440EA0C40C0E78B4208D9002E00F0D5
:105ADC00B1800021C6E900050846BDE8F087B3FA9D
:105AEC0083F100294BD1AB4202D3824200F2B98040
:105AFC00841A65EB030301209E46002EAAD0C6E94A
:105B0C00004EA7E79F40C3F12002D1404FEA174E49
:105B1C00B1FBFEF01FFA87F80EFB101124FA02F20B
:105B2C009D4000FB08FC2A43150C45EA0145AC4599
:105B3C0004FA03F409D97D1900F1FF3180F08F804C
:105B4C00AC4540F28C8002383D44A5EB0C05B5FB0E
:105B5C00FEF10EFB115C01FB08F995B245EA0C4510
:105B6C00A94507D97D1901F1FF3274D2A94572D923
:105B7C0002393D44A5EB090541EA004178E7C1F142
:105B8C0020078B4022FA07FC4CEA030C25FA07F499
:105B9C004FEA1C4EB4FBFEF91FFA8CF80EFB1944AD
:105BAC0020FA07F309FB08FA8D401D432B0C43EA3E
:105BBC000444A24502FA01F200FA01F309D91CEBE4
:105BCC00040409F1FF3048D2A24546D9A9F10209D3
:105BDC006444A4EB0A04B4FBFEF00EFB104400FB7F
:105BEC0008FAADB245EA0444A24508D91CEB0404FA
:105BFC0000F1FF352DD2A2452BD90238644440EA7E
:105C0C000940A0FB0289A4EB0A044C45C6464D464C
:105C1C0019D316D05EB1B3EB0E0264EB050404FA93
:105C2C0007F722FA01F31F43CC40C6E900740021A8
:105C3C00BDE8F087314630460CE78C46EBE6104663
:105C4C00FFE64345E6D2B8EB020E69EB0C050138D2
:105C5C00E0E72846D3E711468CE78146B9E70846CA
:105C6C0073E7084649E7ACF1020C3D4413E70238F0
:105C7C003C4424E7704700BF08B54FF4E1330948B2
:105C8C00094AC0E9002300230C22C0E90233C0E911
:105C9C0005230361C36105F0DFFC08B172B6FEE7B2
:105CAC0008BD00BFA43D00200038014008B54FF4EA
:105CBC0016530948094AC0E9002300230C22C0E905
:105CCC000233C0E905230361C36105F0C5FC08B1CB
:105CDC0072B6FEE708BD00BF104000200044004033
:105CEC0008B54FF416530948094AC0E900230023AC
:105CFC000C22C0E90233C0E905230361C36105F03E
:105D0C00ABFC08B172B6FEE708BD00BF0004002072
:105D1C000048004030B5102595B02A4600210CA84B
:105D2C0006F0DEFE1422002102A806F0D9FE0023A4
:105D3C00CDE900331D4A012413684FF4002123F4EC
:105D4C00C05343F40063136007230B95CDE907346C
:105D5C004FF480350223CDE910354FF4800307A8AA
:105D6C00CDE90944CDE9121304F01AFA08B172B660
:105D7C00FEE70F220323CDE904000690214602A87A
:105D8C00CDE9022304F068FC08B172B6FEE7684660
:105D9C00CDE9004504F054FD08B172B6FEE704F0FD
:105DAC001DFC04F0D9FD15B030BD00BF00700040E3
:105DBC0080B5B54BB54A9AB09A6062B603F0B8FBA1
:105DCC00FFF7A8FF1422002110A806F089FEB04BA3
:105DDC008021DA69AF4842F00402DA61DA69002402
:105DEC0002F004020792079ADA694FF4881742F01E
:105DFC002002DA61DA69012602F020020892089A80
:105E0C00DA69022542F00102DA61DA694FF0080919
:105E1C0002F001020992099ADA6942F00202DA618F
:105E2C00DB69012203F002030A930A9B04F000F9D8
:105E3C0000224FF4F851974804F0FAF80022C021E0
:105E4C00954804F0F5F84FF40053924810A9CDE9A9
:105E5C001037129403F0A2FF4FF404138F4810A9CB
:105E6C00CDE91063129603F099FF8B4810A9CDE988
:105E7C001054129403F092FF4FF48053864810A9EB
:105E8C00CDE91037129403F089FF4FF40043824898
:105E9C0010A9CDE91034129603F080FF80237D48C1
:105EAC0010A9CDE91036CDE9126403F077FF4FF459
:105EBC00D853784810A9CDE91036CDE9124403F037
:105ECC006DFF4FF48063734810A9CDE91036CDE90E
:105EDC00125403F063FF4FF444136F4810A9CDE93B
:105EEC001093129603F05AFFC02310276A4810A98A
:105EFC00CDE91036CDE9124403F050FF224621467D
:105F0C00062003F097FD062003F0C6FD224621462D
:105F1C000920634D03F08EFD092003F0BDFD614B9C
:105F2C002846CDE91044C5E90034C5E90244C5E969
:105F3C000444C5E90644C5E90D7412942C6285F835
:105F4C002440AE6285F82C4085F83C4003F024FBDD
:105F5C00A84608B172B6FEE7129010A92846CDE902
:105F6C00109603F035FC054608B172B6FEE7FFF754
:105F7C0083FEFFF79BFEFFF7B3FE3A46294610A8B7
:105F8C00CDE90B5506F0ACFD1823474CDFF82CE19E
:105F9C002046C4E900E34FF4B773A560C4E90335A8
:105FAC00656105F0C8F8A14608B172B6FEE7CDE907
:105FBC000B000BA9204605F08FFA08B172B6FEE76C
:105FCC006023CDE91200CDE910300422204610A93F
:105FDC0005F0D9F8054608B172B6FEE7204600F088
:105FEC00E7F9142229460BA806F07AFD2822294647
:105FFC0010A82E4C069506F073FD2D4B4FF07F0C20
:10600C00C4E90035FF232046C4E902C3C4E90455A2
:10601C00A56104F006FDA24608B172B6FEE744F293
:10602C001103ADF82C304023CDE90E00324620464A
:10603C000BA98DF82E3004F04DFD08B172B6FEE7B9
:10604C001C4B3246204606A9069304F0AAFD08B163
:10605C0072B6FEE7184BCDE91300CDE915304FF4BD
:10606C008073ADF840008DF84200119017903246C5
:10607C00204610A98DF86060199304F0E9FD0446E0
:10608C00F0B172B6FEE700BF00ED00E00050000872
:10609C0000380240000802400004024000000240A8
:1060AC002841002000240140643C0020D83E002000
:1060BC00002800400101012200808080000C00407B
:1060CC0001463A4610A806F00BFD4FF0804545F608
:1060DC00C0534F484FF6FF76C0E900534FF400739E
:1060EC00CDE90B44C0E903638460446104F030FFE4
:1060FC0008B172B6FEE74FF48057454810A91097C7
:10610C0005F0C2F808B172B6FEE7CDE90B000BA999
:10611C003F4805F0E1F9054608B172B6FEE70146C5
:10612C00102210A806F0DCFC45F6C053394C3A4955
:10613C002046C4E9001347F23053CDE90B55C4E9AE
:10614C000335A560656104F003FF08B172B6FEE784
:10615C00204610A9109705F097F808B172B6FEE723
:10616C00CDE90B000BA9204605F0B6F9064608B19F
:10617C0072B6FEE71022014610A806F0B1FC1823F7
:10618C00264D274A2846C5E900234FF6FF73CDE973
:10619C000B66C5E90336AE606E6104F0D9FE08B13A
:1061AC0072B6FEE7284610A9109705F06DF808B1F5
:1061BC0072B6FEE7CDE90B000BA9284605F08CF969
:1061CC0008B172B6FEE7124B164A17491748CDE9CB
:1061DC0003A8CDE90145CDF8009006F0EBFA06F0E6
:1061EC00D1FB06F0CFFB05F0E9FE02F025FB02F037
:1061FC001FFC012002F03CFD02F002FD02F0F2FB5C
:10620C0005F0BEFF4EF6602003F0B4F9E9E700BFDD
:10621C00883F0020C83C0020000400407003002090
:10622C00000800400004002010400020A43D002085
:10623C00704700000F4B84B05A6A42F000425A6219
:10624C005A6A02F000420192019A1A6A42F0010263
:10625C001A621A6A02F001020292029A5A6A42F017
:10626C0080525A625B6A03F080530393039B04B021
:10627C00704700BF0038024010B5044688B01422A5
:10628C00002103A806F02CFC2268114B9A421DD168
:10629C0003F58A331A6A0F4842F400721A621A6ABA
:1062AC0003A902F400720192019ADA6942F0020227
:1062BC00DA61DB69012203F002030293029B0323E0
:1062CC00CDE903230023059303F068FD08B010BD4E
:1062DC00002401400004024008B50268084B9A42B1
:1062EC000CD10122074B29201A600022114603F021
:1062FC00A1FBBDE80840292003F0CEBB08BD00BFC0
:10630C0000280040D80647421FB50368B3F1804F00
:10631C000DD103F50E335A6A42F001025A625B6AE0
:10632C0003F001030193019B05B05DF804FB134AD4
:10633C00934214D1124B1D205A6A42F002025A6247
:10634C0000225B6A114603F002030293029B03F0E6
:10635C0071FB1D2005B05DF804EB03F09DBB094AF1
:10636C009342E1D1064B5A6A42F004025A625B6ACC
:10637C0003F004030393039BD6E700BF0004004023
:10638C0000380240000800400268084B82B09A4274
:10639C000AD103F50B335A6A42F008025A625B6A5F
:1063AC0003F008030193019B02B07047000C0040FE
:1063BC0010B5044686B01422002101A806F090FB0B
:1063CC0022680D4B9A4215D103F50B33DA690B4851
:1063DC0042F00102DA61DB69002203F00103009351
:1063EC00009B022301A9CDE90133CDE903220593DA
:1063FC0003F0D4FC06B010BD000C004000000240BD
:10640C0010B504468CB01422002107A806F068FBD6
:10641C002368434A93422BD1424B4FF4C0601A6A13
:10642C00002442F480421A621A6A07A902F48042DC
:10643C000192019ADA6942F00102DA61DB6903F038
:10644C0001030293029B0223CDE907030323CDE949
:10645C000943072334480B9303F0A0FC2520224664
:10646C00214603F0E7FA252003F016FB0CB010BD13
:10647C002E4A934227D12B4B0C215A6A002442F40A
:10648C0000325A625A6A284802F400320392039A84
:10649C00DA6942F00102DA61DB6903F0010304936B
:1064AC00049B0223CDE907130323CDE909430723FA
:1064BC0007A90B9303F072FC26202246214603F019
:1064CC00B9FA2620D0E71A4A9342CFD1154B0024B3
:1064DC005A6A184842F480225A625A6A07A902F48E
:1064EC0080220592059ADA6942F00202DA61DB69D0
:1064FC004FF4406203F002030693069B0223CDE99E
:10650C0007230323CDE9094307230B9303F046FC30
:10651C0027202246214603F08DFA2720A4E700BF4E
:10652C0000380140003802400000024000440040A6
:10653C00004800400004024008B51A4A0368934220
:10654C000FD102F58032136A174823F480434FF4BD
:10655C00C061136203F0EAFC2520BDE8084003F09B
:10656C00A9BA124A93420BD102F5FA32536A0E4879
:10657C0023F400330C21536203F0D8FC2620ECE703
:10658C000B4A93420CD102F5F832536A094823F4B2
:10659C0080234FF44061536203F0C8FC2720DCE7F2
:1065AC0008BD00BF0038014000000240004400401C
:1065BC00004800400004024008B504F031F9FEE741
:1065CC00BFF34F8F0549064BCA6802F4E0621343D0
:1065DC00CB60BFF34F8F00BFFDE700BF00ED00E0C5
:1065EC000400FA05FEE7FEE7FEE7704770477047C8
:1065FC0002F0AEBF012003F029BD082003F026BD38
:10660C00014804F0E2BE00BFC83C0020014805F080
:10661C007FB900BFA43D0020014805F079B900BF47
:10662C0010400020014805F073B900BF00040020A1
:10663C00014804F097B900BFD83E002001207047F4
:10664C0008B506F0FBF9162303604FF0FF3008BDC8
:10665C0008B506F0F3F916230360FEE770B50E4695
:10666C0014460025A54201DB204670BDAFF3008027
:10667C0070550135F6E770B50E4614460025A54257
:10668C0001DB204670BD705DAFF300800135F6E78D
:10669C004FF0FF3070474FF4005300204B607047B1
:1066AC0001207047002070470B4B0246196810B54B
:1066BC0009B90A491960186809490A4C0244091BAE
:1066CC008A4206D906F0BAF90C2303604FF0FF306A
:1066DC0010BD1A60FCE700BFB0010020784B002011
:1066EC000080002000040000704700000C480D4999
:1066FC000D4A002302E0D458C4500433C4188C4211
:10670C00F9D30A4A0A4C002301E013600432A24276
:10671C00FBD3FFF7E9FF06F097F9FFF749FB70474A
:10672C00000000209401002058F60008940100207D
:10673C00784B0020FEE70000BFF34F8F0549064B56
:10674C00CA6802F4E0621343CB60BFF34F8F00BF03
:10675C00FDE700BF00ED00E00400FA0538B505F0D8
:10676C00CBFD124C124B2068196806F003F9114D41
:10677C002068114906F0FEF82068104906F0FAF876
:10678C0001222968206806F0EDF80D4B2068196885
:10679C0006F0F0F829682068052206F0E3F8094BAA
:1067AC0009491868BDE8384005F082BF1C4B002031
:1067BC000C0000200C010020B43C0020FEEA000874
:1067CC001000002060420020FAE900082DE9F8438F
:1067DC00BA4CDFF85883BA4FD8F80010206806F08E
:1067EC00C9F8012239462068DFF8449306F0BAF85C
:1067FC002068B449B44E06F0BDF82068B349B44DD6
:10680C0006F0B8F84946206806F0B4F831682068FC
:10681C0006F0B0F802222968206806F0A3F8D8F830
:10682C000010206806F0A6F801223946206806F010
:10683C0099F82068A74906F09DF82068A64906F04B
:10684C0099F84946206806F095F83168206806F0FA
:10685C0091F802222968206806F084F8D8F8001014
:10686C00206806F087F801223946206806F07AF88D
:10687C0020689A4906F07EF82068994906F07AF863
:10688C004946206806F076F83168206806F072F800
:10689C0002222968206806F065F8D8F800102068F4
:1068AC0006F068F801223946206806F05BF820688B
:1068BC008C4906F05FF820688B4906F05BF8494676
:1068CC00206806F057F83168206806F053F8022269
:1068DC002968206806F046F8D8F80010206806F001
:1068EC0049F801223946206806F03CF820687F49B7
:1068FC0006F040F820687E4906F03CF849462068CE
:10690C0006F038F83168206806F034F8022229685D
:10691C00206806F027F8D8F80010206806F02AF84E
:10692C0001223946206806F01DF82068714906F0EE
:10693C0021F82068704906F01DF84946206806F0D9
:10694C0019F83168206806F015F8022229682068C9
:10695C0006F008F8D8F80010206806F00BF80122B1
:10696C003946206805F0FEFF2068644906F002F8FD
:10697C002068634905F0FEFF4946206805F0FAFFE0
:10698C003168206805F0F6FF02222968206805F0BE
:10699C00E9FFD8F80010206805F0ECFF0122394619
:1069AC00206805F0DFFF2068564905F0E3FF2068FA
:1069BC00554905F0DFFF4946206805F0DBFF3168DB
:1069CC00206805F0D7FF02222968206805F0CAFF6D
:1069DC00D8F80010206805F0CDFF01223946206858
:1069EC0005F0C0FF2068494905F0C4FF20684849FC
:1069FC0005F0C0FF4946206805F0BCFF31682068EF
:106A0C0005F0B8FF02222968206805F0ABFFD8F822
:106A1C000010206805F0AEFF01223946206805F011
:106A2C00A1FF20683B4905F0A5FF20683A4905F015
:106A3C00A1FF4946206805F09DFF3168206805F0EC
:106A4C0099FF02222968206805F08CFFD8F8001005
:106A5C00206805F08FFF01223946206805F082FF7F
:106A6C0020682E4905F086FF20682D4905F082FF2D
:106A7C004946206805F07EFF3168206805F07AFFF2
:106A8C0002222968206805F06DFFD8F800102068F4
:106A9C0005F070FF01223946206805F063FF20687D
:106AAC00204905F067FF20681F4905F063FF494640
:106ABC00206805F05FFF316820683BE01C4B00202C
:106ACC0008EA00080BEA00084C000020103C0020EB
:106ADC000C01002012EA00082A3D002019EA0008E7
:106AEC003C03002020EA0008E44100202DEA0008C5
:106AFC007002002034EA00080C3D00203BEA00083C
:106B0C003802002041EA00080440002047EA00084F
:106B1C005C0200204FEA0008D441002056EA00082D
:106B2C00520200205EEA0008CA4100201C0000202E
:106B3C00BDEA000805F01EFF02222968206805F056
:106B4C0011FFD8F80010206805F014FF0122394617
:106B5C00206805F007FF2068BB4905F00BFF206893
:106B6C00BA4905F007FF4946206805F003FF316874
:106B7C00206805F0FFFE02222968206805F0F2FE6D
:106B8C00D8F80010206805F0F5FE0122394620687F
:106B9C0005F0E8FE2068AE4905F0ECFE2068AD4932
:106BAC0005F0E8FE4946206805F0E4FE31682068EF
:106BBC0005F0E0FE02222968206805F0D3FED8F823
:106BCC000010206805F0D6FE01223946206805F039
:106BDC00C9FE2068A04905F0CDFE20689F4905F04C
:106BEC00C9FE4946206805F0C5FE3168206805F0ED
:106BFC00C1FE02222968206805F0B4FED8F8001006
:106C0C00206805F0B7FE01223946206805F0AAFE7F
:106C1C002068934905F0AEFE2068924905F0AAFE63
:106C2C004946206805F0A6FE3168206805F0A2FEF2
:106C3C0002222968206805F095FED8F8001020681B
:106C4C0005F098FE01223946206805F08BFE20687D
:106C5C00854905F08FFE2068844905F08BFE494676
:106C6C00206805F087FE3168206805F083FE02225B
:106C7C002968206805F076FED8F80010206805F029
:106C8C0079FE01223946206805F06CFE20687849AF
:106C9C0005F070FE2068774905F06CFE49462068C7
:106CAC0005F068FE3168206805F064FE0222296850
:106CBC00206805F057FED8F80010206805F05AFE41
:106CCC0001223946206805F04DFE20686A4905F01E
:106CDC0051FE2068694905F04DFE4946206805F0D3
:106CEC0049FE3168206805F045FE022229682068BB
:106CFC0005F038FED8F80010206805F03BFE0122A4
:106D0C003946206805F02EFE20685D4905F032FEFC
:106D1C005C4B2068196805F02DFE4946206805F08B
:106D2C0029FE3168206805F025FE022229682068BA
:106D3C0005F018FED8F80010206805F01BFE0122A3
:106D4C003946206805F00EFE20684F4905F012FE0A
:106D5C004E4B2068196805F00DFE4946206805F079
:106D6C0009FE3168206805F005FE022229682068BA
:106D7C0005F0F8FDD8F80010206805F0FBFD0122A5
:106D8C003946206805F0EEFD2068414905F0F2FD1A
:106D9C003123404920680B7005F0ECFD4946206812
:106DAC0005F0E8FD3168206805F0E4FD0222296851
:106DBC00206805F0D7FDD8F80010206805F0DAFD42
:106DCC0001223946206805F0CDFD2068324905F0D6
:106DDC00D1FD2068314905F0CDFD4946206805F00C
:106DEC00C9FD3168206805F0C5FD022229682068BC
:106DFC0005F0B8FDD8F80010206805F0BBFD0122A5
:106E0C003946206805F0AEFD2068254905F0B2FD35
:106E1C002068244905F0AEFD4946206805F0AAFD1E
:106E2C003168206805F0A6FD02222968206805F06B
:106E3C0099FDD8F80010206805F09CFD0122394618
:106E4C00206805F08FFD2FE063EA0008C83F0020A2
:106E5C006BEA00081A3C002073EA0008C403002007
:106E6C007BEA00081402002082EA0008804100201E
:106E7C0089EA0008B43C002090EA00085004002085
:106E8C0095EA0008040000209AEA0008000000209F
:106E9C009FEA000894410020A4EA00084404002062
:106EAC00ADEA00083C3F00202068074905F062FD70
:106EBC003168206805F05EFD296820680222BDE873
:106ECC00F84305F04FBD00BFBAEA00082DE9F04FBA
:106EDC003B4E3C4D3C4F8BB03168286805F04AFD69
:106EEC0001223968286805F03DFD3849384805F01D
:106EFC00CDFE0446DFF8F490DFF8E4A0DFF8E48080
:106F0C0001960CB9204651E04946204605F0A7FEF3
:106F1C0028B900202D4905F0B9FE0446F1E7514689
:106F2C00204605F0B3FE4146002005F0AFFE0146B9
:106F3C00284805F07BFE2849002005F0A7FE4146B5
:106F4C00002005F0A3FE014602A805F06FFE019B90
:106F5C002868196805F00EFD01223968286805F0CB
:106F6C0001FD1A491A4805F091FE06461B4CDFF844
:106F7C005CB0002ECDD0304602A905F070FEC0B139
:106F8C002146304605F06BFE98B11549304605F0A8
:106F9C007DFE1449002005F079FE0146124805F0EB
:106FAC0045FE00200C4905F071FE01200BB0BDE838
:106FBC00F08F5946002005F069FE0646D9E700BF60
:106FCC00200000201C4B00200C010020FEEA0008D1
:106FDC0044430020EC3D0020C3EA0008C6EA000848
:106FEC009EF50008C4EA0008BC3E0020BFEA000879
:106FFC0010B5124CFFF76AFF2068114905F0BAFC76
:10700C002068104905F0B6FC0F4B2068196805F094
:10701C00B1FC0E4B02221968206805F069FB0C4983
:10702C000C4805F033FE0C49002005F02FFEBDE89E
:10703C0010400146094805F0F9BD00BF1C4B00206B
:10704C00CAEA0008EC3D0020080100200C010020D9
:10705C009EF5000844430020FEEA0008440400208A
:10706C0038B505460C4C0D49206805F083FC2946C3
:10707C00206805F07FFC2068094905F07BFC094B72
:10708C002068196805F076FC074B206819681422F3
:10709C00BDE8384005F02CBB1C4B0020D5EA00089D
:1070AC00D9EA0008080100200C0100202DE9F04F5E
:1070BC0000259BB0804605F043F82B46804CDFF84A
:1070CC007CA2434505DB25B905F04AF81BB0BDE8A9
:1070DC00F08F0621B3FBF1F203F1010901FB12332E
:1070EC002B4301D105F05AFB51460122206805F0D3
:1070FC00FFFA05F059FB734B7348196805F0AFFDA7
:10710C0078B1724B2068196805F034FC704B20681C
:10711C0019680A2205F026FC6E4B6F49186805F0B9
:10712C00C7FA6E4B6848196805F099FDF0B16C4BC5
:10713C00674E1968206805F01DFC0A22316820682A
:10714C0005F010FC6749206805F014FC3168022238
:10715C00206805F0CDFA64495B4805F080FD28B144
:10716C005C4B6249186805F0A3FA0125604B564840
:10717C00196805F074FD00B35E4B554E1968206814
:10718C0005F0F8FB01223168206805F0EBFB55494E
:10719C00206805F0EFFB31680222206805F0A8FAA0
:1071AC005149494805F05BFD064630B9494B5249F7
:1071BC00186805F07DFA3546B146504E42483168A4
:1071CC0005F04DFD002800F00E814D493E4805F0BC
:1071DC0046FD002840F0B4804A493B4805F03FFD8D
:1071EC00002840F04A814849374805F038FD00280E
:1071FC0040F097814549344805F031FD002800F0F6
:10720C00F2804349304805F041FD4149002005F02A
:10721C003DFD3F49002005F039FD3D49002005F0BA
:10722C0035FD06463B4B2068196805F0A3FB3A4B2D
:10723C00284D1968A022206805F094FB374928686E
:10724C0005F036FA364901A805F0F0FC314601A8E4
:10725C0005F0DDFC334901A805F0D9FC324801A941
:10726C0000F094FC3149286805F022FA02F012FD76
:10727C002F4A3049022002F029FD02F01DFD4FF487
:10728C007A7002F077F92C4E206804F0ABFA28687B
:10729C0004F0A8FA306804F0A5FA206804F00AFAA1
:1072AC00286804F007FA306804F004FA02F01AFFB8
:1072BC0002F006F9642002F05DF9FFF73DFA00BF19
:1072CC001C4B00202C000020444300201400002004
:1072DC000C01002060420020DFEA0008440000207E
:1072EC0018000020EBEA0008FAEA000801EB00089D
:1072FC0040000020E000002010EB000838000020C7
:10730C0022EB000829EB000886EB0008D4E9000802
:10731C006BF10008280000203C000020C4EB0008A2
:10732C005DEB0008BDEA0008D6EB0008E0EB0008B6
:10733C00DEC0EDFE0001080864420020DBEA000814
:10734C0089498A4805F0A2FC8749002005F09EFC7B
:10735C008549002005F09AFC8349002005F096FC35
:10736C000746834B2068196805F004FB814B2068A5
:10737C001968A02205F0F6FA38467F49FDF7F8FEA9
:10738C0038B37E49206805F0F5FA7D4BDFF814B26E
:10739C001968206805F0EEFA0522DBF80010206869
:1073AC0005F0E0FA7749206805F0E4FA39462068E0
:1073BC0005F0E0FA7449206805F0DCFA704B20689F
:1073CC00196805F0D7FA0122DBF80010206805F0E7
:1073DC00C9FA002001F008F93168644805F03FFC57
:1073EC0000287FF4F9AE694B6048196805F037FC4A
:1073FC00002800F0A782664B5C48196805F02FFC4A
:10740C00C0B1644B2068196805F0B4FA01226249D6
:10741C00206805F0A7FA6149206805F0ABFA604BCB
:10742C002068196805F0A6FA5E4B022219682068DC
:10743C0005F098FA5C494D4805F011FC002800F065
:10744C00BB8004F0F3FD534B2068196805F092FAE9
:10745C0001222068504905F085FA20684F4905F053
:10746C0089FA4F4B2068196805F084FA4D4B0222BB
:10747C001968206805F076FA1FE73B493B4805F090
:10748C0005FC3949002005F001FC3749002005F0C6
:10749C00FDFB3549002005F0F9FB0746344B20680D
:1074AC00196805F067FA334B20681968A02205F0BB
:1074BC0059FA38463D49FDF75BFE38B33C49206824
:1074CC0005F058FA2E4BDFF8DCB01968206805F08F
:1074DC0051FA0522DBF80010206805F043FA29491F
:1074EC00206805F047FA3946206805F043FA31491F
:1074FC00206805F03FFA224B2068196805F03AFA2B
:10750C000522DBF80010206805F02CFA002001F0B1
:10751C0072F83168154805F0A2FB00287FF463AEC1
:10752C0061E71149114805F0B1FB0F49002005F046
:10753C00ADFB0D49002005F0A9FB0B49002005F01F
:10754C00A5FB0B4B2068196805F014FA094B206851
:10755C001968A02205F006FA3168044805F07FFB93
:10756C0000287FF447AE3EE76BF10008444300204F
:10757C00280000203C00002023EF00082FEB00081F
:10758C000801002051EB00086CEB000848000020BB
:10759C00540000201C00002008EA0008F5EB00084D
:1075AC004C0000200C010020FAEB000812EF000840
:1075BC008AEB0008ABEB0008AF4BB048196805F03C
:1075CC004EFB28B1FFF714FD04F0F8FCFFF7FEF8B2
:1075DC00AB4BAA48196805F042FB00284FD0DFF8E6
:1075EC00F0B2FFF773FCDBF80010206805F0C2F96D
:1075FC00A44F0122A449206805F0B4F9A34EA44974
:10760C00206805F0B7F93968206805F0B3F9022253
:10761C003168206805F0A6F99E4B2068196805F0C2
:10762C00A9F99D49206805F0A5F99C49206805F049
:10763C00A1F99B4B2068196805F09CF999492068C1
:10764C0005F098F9984BA0221968206805F08AF982
:10765C00DBF80010206805F08DF901228A492068BA
:10766C0005F080F98A49206805F084F939682068AA
:10767C0005F080F902223168206805F073F98B4B14
:10768C007E48196805F0EBFA00284FD0DFF840B2BD
:10769C00FFF71CFCDBF80010206805F06BF9794F44
:1076AC0001227949206805F05DF9784E7849206807
:1076BC0005F060F93968206805F05CF90222316840
:1076CC00206805F04FF9734B2068196805F052F9E2
:1076DC007149206805F04EF97049206805F04AF9A7
:1076EC00734B2068196805F045F96E49206805F060
:1076FC0041F96D4BA0221968206805F033F9DBF8CD
:10770C000010206805F036F901225F49206805F069
:10771C0029F95F49206805F02DF93968206805F0D2
:10772C0029F902223168206805F01CF9614B534895
:10773C00196805F094FA002850D0DFF894B1FFF7DF
:10774C00C5FBDBF80010206805F014F94D4F012241
:10775C004D49206805F006F94C4E4D49206805F05E
:10776C0009F93968206805F005F9022231682068AA
:10777C0005F0F8F8474B2068196805F0FBF8464906
:10778C00206805F0F7F84549206805F0F3F84A4BF6
:10779C002068196805F0EEF84249206805F0EAF80F
:1077AC00414B4FF496721968206805F0DBF8DBF852
:1077BC000010206805F0DEF801223349206805F03E
:1077CC00D1F83349206805F0D5F83968206805F000
:1077DC00D1F802223168206805F0C4F837492748EF
:1077EC0005F03DFA70B13649244805F04FFA354999
:1077FC00002005F04BFA014601A805F017FA01A884
:10780C00FFF72EFC30491D4805F029FA002872D0EC
:10781C002B491A4805F03AFA2A49002005F036FAA5
:10782C00014601A805F002FADFF8A4B001A805F0A2
:10783C00FDF800F0ADFFDBF80010206805F09AF8B9
:10784C00104F01221049206805F08CF80F4E1F498B
:10785C00206805F08FF83968206805F08BF8022253
:10786C003168206805F07EF8DBF80010206805F020
:10787C0081F801222EE000BF50000020444300207C
:10788C005C0000204C00002008EA00080C010020DD
:10789C00F5EB000824000020BC3E0020C4EA0008E0
:1078AC0070000020FEEA0008580000203000002084
:1078BC007C000020340000207800002004EC00083C
:1078CC0069EA0008BDEA00080AEC00087002002012
:1078DC001C0000201D49206805F044F81C49206854
:1078EC0005F048F83968206805F044F80222316840
:1078FC00206805F037F81749174805F0B0F908B3B8
:10790C0004F05CFB00F098FF01F092F8012001F00C
:10791C00AFF9124B2068196805F02CF801220B49BD
:10792C00206805F01FF80A49206805F023F80C4B75
:10793C002068196805F01EF80A4B022219682068A5
:10794C0005F010F84B46FFF7BCBB00BF08EA000877
:10795C00F5EB000810EC0008444300201C0000204C
:10796C004C0000200C0100207FB50E4D0E4E0F4C2C
:10797C0029460022306803F025FA2146002230689F
:10798C0003F046FAAB78E27803936B7808490293DC
:10799C002B7808480193A3780093637805F0A8F836
:1079AC0004B070BD0002002040430020243F0020A2
:1079BC0028ED00081402002030B58BB009AB0393FE
:1079CC0008AB029307AB019306AB009304AA05AB7B
:1079DC000E490F4805F0ACF80E4C049B0E49E370B1
:1079EC00059B0E4D6370069B0022A370079B2868B5
:1079FC000B70089B4B70099B8B7003F06BF800228B
:107A0C002146286803F0CDF80BB030BD47ED0008D7
:107A1C0014020020243F00200002002040430020DC
:107A2C00F8B50546134C144F2068144904F0A2FF16
:107A3C00134E2946206804F09DFF3946206804F057
:107A4C0099FF05223168206804F052FE20680D4928
:107A5C0004F090FF2946206804F08CFF394620681A
:107A6C0004F088FF316820680522BDE8F84004F076
:107A7C0079BF00BF1C4B0020FEEA000859ED00083E
:107A8C000C01002063ED00082DE9F04F054687B08E
:107A9C000A22334C03A9002005F012F83149324870
:107AAC0005F0C4F83149206804F064FF29462068C9
:107ABC0004F060FF2E4E2F49206804F05BFF2E4F20
:107ACC00206803A904F056FF3168206804F052FFC7
:107ADC0001223968206804F00BFE33283DD04FF0AA
:107AEC000008DFF8A090DFF8A0A009F1060B5146C2
:107AFC00224805F0B4F8034618B1012007B0BDE8E0
:107B0C00F08F1F480193FDF73DFB019B594609F887
:107B1C00003008F13208144805F079F80A2203A95C
:107B2C00404604F0CDFF2068104904F023FF29469D
:107B3C00206804F01FFF20680E4904F01BFF20682A
:107B4C0003A904F017FF3168206804F013FF012229
:107B5C003968206804F0CCFDC9E70020CEE700BFEF
:107B6C001C4B002000EB00080015002070ED0008F5
:107B7C00080100207BED00080C010020444300208C
:107B8C00464300204043002082ED000873B50D46AB
:107B9C000646FFF745FF2846FDF7F4FA0A22694628
:107BAC0004F08EFF1D4C1E4B2068196804F0E2FE99
:107BBC0031461C4E206804F0DDFE3168206804F06C
:107BCC00D9FE194B2068196804F0D4FE316820687E
:107BDC0004F0D0FE6946206804F0CCFE31682068C1
:107BEC0004F0C8FE114B2068196804F0C3FE104B5A
:107BFC002068196804F0BEFE0E4B05221968206837
:107C0C0004F0B0FE2946206804F0B4FE0A4B0522AD
:107C1C001968206804F0A6FE02B070BD1C4B002051
:107C2C006000002018010020680000206400002083
:107C3C00080100206C0000200C010020BFF34F8FC6
:107C4C000549064BCA6802F4E0621343CB60BFF3EC
:107C5C004F8F00BFFDE700BF00ED00E00400FA0508
:107C6C0010B50B4C0B4B22689A420FD102F012F854
:107C7C002146094A022002F029F802F01DF8074BB0
:107C8C000749186804F014FDFFF7D8FF10BD00BFBA
:107C9C0000010808DEC0EDFEDDC0EDFE60420020F4
:107CAC009FED0008002370B5104C114D114E236050
:107CBC002B68B34219D001F0EDFF32462946022061
:107CCC0002F004F801F0F8FF0B4B0C49186804F0B3
:107CDC00EFFC00F06FFB00F073F900F07BFC00F0A0
:107CEC002FFB01F0DFFB0123236070BD4C03002050
:107CFC0000020808DEC0EDFE60420020B3ED000873
:107D0C0010B5ADF5816D002840F0F180794B186805
:107D1C00FFF7BAFE7849794804F0A1FF78B108ACB6
:107D2C00811D204604F082FF7549204604F086FF31
:107D3C000023744A23547449204604F0F9FE734915
:107D4C006E4804F08CFF90B108ACC11D204604F0C5
:107D5C006DFF6B49204604F071FF002323546C4BDC
:107D6C00204600936B4A6C4B6C4904F0E1FE6C4965
:107D7C00624804F074FFC0B108AC011D204604F049
:107D8C0055FF5F49204604F059FF00232354654BEF
:107D9C0020460393644B654A0293654B65490193F6
:107DAC00654B0093654B04F0C3FE6549534804F0E2
:107DBC0056FFA0B108AC011D204604F037FF504916
:107DCC00204604F03BFF002323545E4B20460193D6
:107DDC005D4B5E4A00935E495E4B04F0A9FE5E4922
:107DEC00464804F03CFF00B308AC411D204604F0AB
:107DFC001DFF4349204604F021FF00232354574B19
:107E0C00204607930A3B0693554B564A0593564B0F
:107E1C0056490493564B0393564B0293564B01937E
:107E2C00564B0093564B04F083FE5649334804F0EE
:107E3C0016FFD0B108AC011D204604F0F7FE304906
:107E4C00204604F0FBFE002323544F4B20460493A2
:107E5C000A3B03934D4B4E4A02934E4B4E490193B2
:107E6C004E4B00934E4B04F063FE4E49234804F0F6
:107E7C00F6FE78B108AC811D204604F0D7FE2049EF
:107E8C00204604F0DBFE0023474A23541E492046BB
:107E9C0004F04EFE4549194804F0E1FE78B108ACF7
:107EAC00811D204604F0C2FE1549204604F0C6FE92
:107EBC0000233F4A23541449204604F039FE3D491F
:107ECC000E4804F0CCFE78B108AC811D204604F0BD
:107EDC00ADFE0B49204604F0B1FE0023364A235474
:107EEC000949204604F024FE0DF5816D10BD334B7D
:107EFC000DE700BF70000020C2ED00080015002047
:107F0C00BDEA0008343D0020F1ED0008C8ED000882
:107F1C00E44100203C3F002048020020E5ED000831
:107F2C00CFED0008A43C0020463F0020C4010020F7
:107F3C00EE410020D3ED0008EC0100205C3D002058
:107F4C00F4ED000864040020C0410020C43E002071
:107F5C00DFED0008683F0020F8ED000868400020C5
:107F6C00323F0020503C00205A3F0020FDED00081D
:107F7C00803D0020283F0020483D0020723F00201B
:107F8C005440002039EE0008F93D00205003002039
:107F9C00163D00205A0300200FEE0008FA3E002088
:107FAC00F60300203DEE0008C83F002043EE000819
:107FBC001A3C002049EE0008C40300207400002085
:107FCC0038B59D499D4804F031FE9D499B4804F00D
:107FDC001EFE9C49994804F01AFE9B49974804F0F0
:107FEC0016FE9A49954804F012FE9949934804F0FC
:107FFC000EFE9849914804F00AFE95498F4804F00A
:10800C0006FE95498D4804F002FE8E498B4804F01B
:10801C00FEFD9249894804F0FAFD9149874804F025
:10802C00F6FD8B49854804F0F2FD8E49834804F037
:10803C00EEFD8749814804F0EAFD8B497F4804F046
:10804C00E6FD83497D4804F0E2FD88497B4804F055
:10805C00DEFD7C49794804F0DAFD8549774804F067
:10806C00D6FD8449754804F0D2FD7949734804F073
:10807C00CEFD8149714804F0CAFD75496F4804F082
:10808C00C6FD7E496D4804F0C2FD71496B4804F091
:10809C00BEFD7B49694804F0BAFD6D49674804F0A0
:1080AC00B6FD7849654804F0B2FD6949634804F0AF
:1080BC00AEFD7549614804F0AAFD62495F4804F0C1
:1080CC00A6FD72495D4804F0A2FD71495B4804F0BD
:1080DC009EFD5F49594804F09AFD6E49574804F0DB
:1080EC0096FD5B49554804F092FD6B49534804F0EA
:1080FC008EFD5749514804F08AFD68494F4804F0F9
:10810C0086FD53494D4804F082FD65494B4804F007
:10811C007EFD4F49494804F07AFD6249474804F016
:10812C0076FD4B49454804F072FD5F49434804F025
:10813C006EFD4749414804F06AFD5C493F4804F034
:10814C0066FD5B4C424D3D4B2278002A60D13D4987
:10815C003A4804F05CFD5749384804F058FD56493C
:10816C00364804F054FD3A49344804F050FD534964
:10817C00324804F04CFD3649304804F048FD504973
:10818C002E4804F044FD32492C4804F040FD4D4982
:10819C002A4804F03CFD2E49284804F038FD4A4991
:1081AC00264804F034FD494C294D244B2278002AF2
:1081BC0038D12449214804F02AFD45491F4804F0D0
:1081CC0026FD44491D4804F022FD1E491B4804F0BD
:1081DC001EFD4149194804F01AFD4049174804F0A6
:1081EC0016FD1849154804F012FD3D49134804F0DA
:1081FC000EFD3C49114804F00AFD12490F4804F0E9
:10820C0006FD394B0D491868BDE83840FFF7BEBC78
:10821C001846294604F0FBFC214604F0F8FC0A340D
:10822C00034691E71846294604F0F1FC214604F078
:10823C00EEFC0A340346B9E74FEE000800150020A7
:10824C00343D002029EC000856EE00083C3F00208D
:10825C00C4EA000848020020E44100205EEE000859
:10826C00C43E0020683F0020C04100206404002070
:10827C0063EE0008C40100205C3D0020EC010020EE
:10828C00EE410020463F0020A43C002068EE000890
:10829C00503C002054400020723F0020483D0020FC
:1082AC00283F0020803D00205A3F0020323F002014
:1082BC005E4000206EEE0008163D0020F603002004
:1082CC00FA3E00205A03002050030020EF3D00200E
:1082DC0064EA0008C83F00206CEA00081A3C002041
:1082EC0074EA0008C403002070000020F8B588B9B7
:1082FC000E4B18680E4DFFF7C7FB0E490E4804F0E5
:10830C00C5FC00242E460B4F30B94FF0FF3346F816
:10831C002430F8BD094BECE704F08CFB394645F8EA
:10832C00040B0020013404F0B1FCEDE77C000020CC
:10833C0060050020C4EA0008001500208000002021
:10834C007FB5164C1649174804F070FC0A2201A997
:10835C0054F8040B04F0B4FB124801A904F057FCC8
:10836C00114E104D54F8040B431C0AD10F490D4803
:10837C0004F04DFC0E4B0B491868FFF707FC04B0DA
:10838C0070BD0A2201A904F09BFB3146284604F07B
:10839C003EFC284601A904F03AFCE3E76005002006
:1083AC0000EB000800150020C4EA0008BDEA000834
:1083BC007C000020F8B54E494E4C4F4804F036FC7A
:1083CC004E494F4804F032FC4E4D21464E4804F0C5
:1083DC002DFC21464D4804F029FC4D4E29464D48B4
:1083EC0004F024FC29464C4804F020FC31464B4850
:1083FC0004F01CFC4A494B4804F018FC4A494B4811
:10840C0004F014FC4A494B4804F010FC4A494B4810
:10841C0004F00CFC4A494B4804F008FC4A4D4B490B
:10842C004B4804F003FC21464A4804F0FFFB294664
:10843C00494804F0FBFB2946484D494804F0F6FB3B
:10844C00484F2846484904F0F1FB484905F10A0019
:10845C0004F0ECFB394605F1140004F0E7FB444949
:10846C0005F11E0004F0E2FB4249434804F0DEFB38
:10847C004249434804F0DAFB4249434804F0D6FB36
:10848C004249434804F0D2FB4249434804F0CEFB36
:10849C00424B3946184604F0C9FB41490A3004F0F6
:1084AC00C5FB21463F4804F0C1FB21463E4804F081
:1084BC00BDFB21463D4804F0B9FB3D4C3D493E48CF
:1084CC0004F0B4FB3D493E4804F0B0FB21463D4866
:1084DC0004F0ACFB21463C4804F0A8FB21463B4889
:1084EC0004F0A4FB3146BDE8F840394804F09EBBCB
:1084FC0073EE0008D6F20008343D002078EE000838
:10850C003C3F002088ED000848020020E441002098
:10851C0047EE0008C43E0020683F0020C041002008
:10852C009DEE0008640400207FEE0008503C002003
:10853C008FEE00085440002094EE0008723F00209B
:10854C0099EE0008483D00209FEE0008ABEF0008B4
:10855C00283F0020803D00205A3F00205E40002034
:10856C00323F0020ACEE0008A2EE0008A7EE000897
:10857C00B0EE0008B4EE0008163D0020C3EE000873
:10858C00F6030020C6EE0008FA3E0020D6EE0008E6
:10859C005A030020DFEE000850030020EF3D0020BE
:1085AC00E4EE0008C83F00201A3C0020C403002061
:1085BC0000EB0008E7EE0008C4010020ECEE000818
:1085CC005C3D0020EC010020EE410020463F0020E5
:1085DC00A43C002000214FF0FF32024BC3E90012F3
:1085EC00704700BF6005002008B5FFF789FBBDE8A8
:1085FC000840FFF7E5BC08B5FFF778FEBDE808407A
:10860C00FFF79EBE38B5174B1B68382B29D13B237F
:10861C00154C164D164920682B6004F0ABF9154B20
:10862C0028221968206804F063F801221249206896
:10863C0004F05EF8114B01221968206804F058F818
:10864C000F490B78302B0CD13A230E4C2B60204663
:10865C0004F0ECFA2046FCF795FD0023044404F8E2
:10866C00083C38BD200100201C4B002028010020B4
:10867C002EEF0008080100203CEF00080C01002040
:10868C004443002096040020294B10B519683A2960
:10869C002BD1284A284B9079147A1870D079DC7039
:1086AC0058702F2098705871907A547A9871D07AAB
:1086BC00D972D8712C201872107B99735872507B18
:1086CC00117C9872907B1C711873D07B527C587300
:1086DC001A742B225A7430229A74DA740022D973C9
:1086EC001A75BDE81040FFF767B9144B1B683A2B9D
:1086FC001CD11349134804F099FA1349114804F09A
:10870C00C5FA1149002004F0C1FA0F49002004F009
:10871C00BDFA0D49002004F0B9FA0C49002004F010
:10872C00B5FA0146044804F081FADAE710BD00BF3F
:10873C0024010020700200201402002028010020D7
:10874C009604002044430020C4EA0008FEEA000816
:10875C0010B50B4B0B4C1968206804F00BF90A4B45
:10876C0020681968052204F0FDF8084B2068196888
:10877C0003F09EFFBDE810404FF47A7000F0FABE93
:10878C00840000201C4B00208C000020880000205E
:10879C003B232DE9F047204D06462B600027FFF7C1
:1087AC00D7FFDFF88890DFF88880DFF888A0B74221
:1087BC0001DBBDE8F087D9F80010D8F8000003F011
:1087CC0077FF02225146D8F8000003F091FF134BBB
:1087DC00134C01221968D8F8000003F089FF1149E5
:1087EC00204604F023FA1049204604F038FA0023FE
:1087FC00001B235423790137322B04BF3A232B60FF
:10880C00FFF742FF00F018F8FFF7FCFE00F010F93C
:10881C00022000F02DFACAE72401002008010020F4
:10882C007002002044430020FEEA0008880000206B
:10883C001C4B002044EF0008534B2DE9F0411B6802
:10884C00362B40F09E80514FD7F80080B8F1390F8D
:10885C0040F097804E4C4F4B4F4E196820684F4D4F
:10886C0004F088F84E49206804F084F831682068D8
:10887C0004F080F801222968206804F073F8494B51
:10888C002068196804F076F84749206804F072F8FB
:10889C003168206804F06EF801222968206804F021
:1088AC0061F8424B2068196804F064F8404920686C
:1088BC0004F060F83168206804F05CF80122296843
:1088CC00206804F04FF83B4B2068196804F052F80C
:1088DC003949206804F04EF83168206804F04AF8F1
:1088EC0001222968206804F03DF8344B206819688F
:1088FC0004F040F83249206804F03CF831682068F4
:10890C0004F038F801222968206804F02BF82D4B6C
:10891C002068196804F02EF82B49206804F02AF816
:10892C003168206804F026F801222968206804F0D8
:10893C0019F8264B2068196804F01CF828222968BD
:10894C00206803F0D5FE224B2068196804F012F859
:10895C0029682068012204F005F81E491E4804F01D
:10896C007EF958B938233B601C4B1D49186803F03D
:10897C009FFEBDE8F041642000F0FCBDC7F800800C
:10898C00F7E7BDE8F08100BF144B00202001002068
:10899C001C4B0020900000201C0100200C0100202A
:1089AC00C4010020AC0000205C3D0020B000002081
:1089BC00EC010020B4000020EE410020B8000020A3
:1089CC00463F0020BC00002047EE0008C0000020FD
:1089DC00C400002087EF00084443002060420020C0
:1089EC0016EB000838B50E4C2368382B16D10D4DFC
:1089FC000D4B2868196803F0BDFF0C4B28681968EB
:108A0C00282203F075FE322808BF39234FF064008A
:108A1C0008BF2360BDE8384000F0ACBD38BD00BFD6
:108A2C00200100201C4B0020C80000200C0100205D
:108A3C002DE9F843584FD7F80080B8F1390F40F0C2
:108A4C00A980564BD3F80090B9F1380F40F0A280B2
:108A5C00534C544B2068196803F08CFF5249206822
:108A6C00524E03F087FF52492068524D03F082FFAB
:108A7C005149206803F07EFF3168206803F07AFFCB
:108A8C0001222968206803F06DFF4C4B206819689F
:108A9C0003F070FF4A49206803F06CFF31682068CE
:108AAC0003F068FF01222968206803F05BFF454B47
:108ABC002068196803F05EFF4349206803F05AFFF1
:108ACC003168206803F056FF01222968206803F002
:108ADC0049FF3E4B2068196803F04CFF3C49206865
:108AEC0003F048FF3168206803F044FF0122296835
:108AFC00206803F037FF374B2068196803F03AFF02
:108B0C003549206803F036FF3168206803F032FFE6
:108B1C0001222968206803F025FF304B2068196872
:108B2C0003F028FF2E49206803F024FF31682068E9
:108B3C0003F020FF01222968206803F013FF294B62
:108B4C002068196803F016FF274B64221968206807
:108B5C0003F0CEFD642000F00DFD2449206803F0E5
:108B6C0009FF29682068012203F0FCFE20492148F6
:108B7C0004F075F858B1204B20491868C7F80090DC
:108B8C0003F096FDBDE8F843642000F0F3BCC7F891
:108B9C000080F7E7BDE8F8832C01002020010020BD
:108BAC001C4B0020CC000020503C0020D0000020AA
:108BBC000BED00080C01002054400020D4000020D4
:108BCC00B43C002094000020723F0020980000204C
:108BDC00483D00209C0000208FEF0008A0000020E2
:108BEC00D6F20008A40000200801002093EF000832
:108BFC00A1EF00084443002060420020ADEF0008C4
:108C0C0070B5134E3468382C21D1124D1249286896
:108C1C0003F0B0FE114B28221968286803F068FD98
:108C2C0028680F4903F0A6FE0E4B2868196801222C
:108C3C0003F098FE0C490D4804F011F8002808BF09
:108C4C00392464203460BDE8704000F093BC70BDE2
:108C5C002C0100201C4B0020BEEF00080801002056
:108C6C0093EF00080C010020A1EF00084443002002
:108C7C0038B50446FEF778FE012C40F0B180A149CE
:108C8C00A14803F0ECFFA14C002848D0A04B206871
:108C9C00196803F06FFE9F49206803F06BFE9E4934
:108CAC00206803F067FE9D49206803F001FD9C4994
:108CBC00206803F05FFE9949206803F05BFE994938
:108CCC00206803F057FE9849206803F053FE95493D
:108CDC00206803F04FFE9549206803F04BFE944941
:108CEC00206803F047FE9349206803F043FE924945
:108CFC00206803F03FFE9149206803F03BFE904949
:108D0C00206803F037FE8F49206803F033FE8E494C
:108D1C00206803F02FFE8D49206803F02BFE8C4950
:108D2C00794803F09CFF002848D0794B20681968DB
:108D3C0003F020FE8749206803F01CFE764920686A
:108D4C0003F018FE7549206803F014FE744920687E
:108D5C0003F010FE7149206803F00CFE7149206885
:108D6C0003F008FE7049206803F004FE6D4920688A
:108D7C0003F000FE6D49206803F0FCFD6C4920688F
:108D8C0003F0F8FD6B49206803F0F4FD724920688C
:108D9C0003F0F0FD7149206803F0ECFD7049206888
:108DAC0003F0E8FD6F49206803F0E4FD6E4920688C
:108DBC0003F0E0FD6549206803F0DCFD6B4B6C4D66
:108DCC0019682822206803F093FC01222968206886
:108DDC0003F08EFC01222968206803F089FC38BD61
:108DEC00022C00F0E180032C40F09981484B474C59
:108DFC001968206803F05CFC4249434803F02FFFDC
:108E0C0018B14449206803F053FC51493E4803F023
:108E1C0026FF18B14F49206803F04AFC3E492068F0
:108E2C0003F046FC3D49206803F042FC3C492068B5
:108E3C0003F03EFC3949206803F03AFC39492068BC
:108E4C0003F036FC4B49206803F032FC35492068AE
:108E5C0003F02EFC3549206803F02AFC34492068C5
:108E6C0003F026FC4449206803F022FC2A492068C0
:108E7C0003F01EFC4149206803F01AFC28492068C5
:108E8C0003F016FC3E49206803F012FC3D492068B3
:108E9C0003F00EFC3C49206803F00AFC3B492068B7
:108EAC0003F006FC3A49206803F002FC39492068BB
:108EBC0003F0FEFB3849206803F0FAFB37492068C1
:108ECC0003F0F6FB3649206803F0F2FB35492068C5
:108EDC0003F0EEFB1D49206803F0EAFB234B244D05
:108EEC0019682822206803F003FC296801222068F5
:108EFC0003F0FEFB296820680122BDE8384003F02E
:108F0C00F7BB00BF78EE00083C3F00201C4B002054
:108F1C00A8000020CAEF0008C83F002023F000087A
:108F2C001A3C0020B43C0020CDEF0008E3EF000811
:108F3C0014020020EFEF0008103C0020FBEF0008AB
:108F4C003C03002007F00008E441002013F0000867
:108F5C001AF0000822F000085C02002025F000083E
:108F6C00D441002031F00008520200200C010020F6
:108F7C00080100201CF1000853F0000860F0000804
:108F8C006DF00008C40300207AF000088041002036
:108F9C0087F00008343D002094F0000838020020CF
:108FAC00A1F0000835F100087A4B7B4C1968206859
:108FBC0003F07EFB79497A4803F051FE18B17949E8
:108FCC00206803F075FB7849754803F048FE18B12A
:108FDC007649206803F06CFB7549206803F068FB48
:108FEC007449206803F064FB7349206803F060FB4C
:108FFC007049206803F05CFB7049206803F058FB53
:10900C006F49206803F054FB6C49206803F050FB57
:10901C006C49206803F04CFB6B49206803F048FB5B
:10902C006A49206803F044FB6149206803F040FB67
:10903C006749206803F03CFB5F49206803F038FB6C
:10904C006449206803F034FB6349206803F030FB6B
:10905C006249206803F02CFB6149206803F028FB6F
:10906C006049206803F024FB5F49206803F020FB73
:10907C005E49206803F01CFB5D49206803F018FB77
:10908C005C49206803F014FB5B49206803F010FB7B
:10909C005A49206803F00CFB5949206803F008FB7F
:1090AC005849206803F004FB5749206803F000FB83
:1090BC005649206803F0FCFA554B2068196803F0F8
:1090CC00F7FA5449206803F0F3FA534B20681968F7
:1090DC0003F0EEFA5149206803F0EAFA504920688F
:1090EC0003F0E6FA4F49206803F0E2FA4E49206893
:1090FC0003F0DEFA4D49206803F0DAFA4C49206897
:10910C0003F0D6FA4B49206803F0D2FA4A4920689A
:10911C0003F0CEFA4949206803F0CAFA4EE6042C53
:10912C0000F09280072C00F00181082C7FF457AEE0
:10913C00184B194C1968206803F0BAFA17491848EB
:10914C0003F08DFD18B11749206803F0B1FA1649E8
:10915C00134803F084FD18B11449206803F0A8FAF1
:10916C001349206803F0A4FA1249206803F0A0FA0E
:10917C001149206803F09CFA0E49206803F098FA14
:10918C000E49206803F094FA2D49206803F090FAF8
:10919C002C49A0E6A80000201C4B002078EE00080B
:1091AC003C3F0020CAEF00081AF0000822F000082B
:1091BC00C83F002023F000081A3C0020B43C0020DB
:1091CC003DF00008E3EF00081402002053F0000803
:1091DC0060F000086DF00008C40300207AF000086D
:1091EC008041002087F00008343D002094F00008F6
:1091FC0070020020A1F000080C3D0020AEF0000829
:10920C0038020020BBF0000804400020C8F0000821
:10921C0004000020D6F0000800000020E4F0000854
:10922C00C43E0020F2F000086404002000F10008A5
:10923C00683F00200EF100089604002013F000088F
:10924C005BF10008FEEA0008714B724C196820684B
:10925C0003F02EFA7049714803F001FD18B1704902
:10926C00206803F025FA6F496C4803F0F8FC18B13C
:10927C006D49206803F01CFA6C49206803F018FA59
:10928C006B49206803F014FA6A49206803F010FA5D
:10929C006749206803F00CFA6749206803F008FA64
:1092AC006649206803F004FA6349206803F000FA69
:1092BC006349206803F0FCF96249206803F0F8F96F
:1092CC006149206803F0F4F95849206803F0F0F97B
:1092DC005E49206803F0ECF95649206803F0E8F980
:1092EC005B49206803F0E4F95A49206803F0E0F97F
:1092FC005949206803F0DCF95849206803F0D8F983
:10930C005749206803F0D4F95649206803F0D0F986
:10931C005549206803F0CCF95449206803F0C8F98A
:10932C005349206803F0C4F95249D0E5384B394C05
:10933C001968206803F0BCF93749384803F08FFCF2
:10934C0018B13749206803F0B3F93649334803F0B4
:10935C0086FC18B13449206803F0AAF93349206817
:10936C0003F0A6F93249206803F0A2F931492068CC
:10937C0003F09EF92E49206803F09AF92E492068D3
:10938C0003F096F92D49206803F092F92A492068D8
:10939C0003F08EF92A49206803F08AF929492068DC
:1093AC0003F086F92849206803F082F91F492068E8
:1093BC0003F07EF92549206803F07AF91D492068ED
:1093CC0003F076F92249206803F072F921492068EC
:1093DC0003F06EF92049206803F06AF91F492068F0
:1093EC0003F066F91E49206803F062F91D492068F4
:1093FC0003F05EF91C49206803F05AF91E492068F5
:10940C0003F056F91A49206803F052F91B495EE53E
:10941C00A80000201C4B002078EE00083C3F0020E8
:10942C00CAEF00081AF0000822F00008C83F00201C
:10943C0023F000081A3C0020B43C00201CF100086A
:10944C00E3EF00081402002053F0000860F000085D
:10945C006DF00008C40300207AF000088041002061
:10946C0087F00008343D002094F0000870020020C2
:10947C00A1F000083FF10008E44100204AF1000887
:10948C0008B500F007FC054B02201A68044900F0EF
:10949C001DFCBDE8084000F00FBC00BFE0410020FF
:1094AC001001080808B5044B1868FEF7B9FABDE8B6
:1094BC0008400020FFF7E4BF780000207047000050
:1094CC0010B54FF0FF320024054B9A619C615A6134
:1094DC005C611A611C61FFF7F1FF204610BD00BFF3
:1094EC000038024038B50F4B0546186808B9012002
:1094FC0038BD4FF47A73B3FBF0F30B4A1068B0FB32
:10950C00F3F000F0EBFA04460028F0D10F2DEED862
:10951C00024629464FF0FF3000F08CFA034B2046F0
:10952C001D60E5E7D800002008000020DC000020CA
:10953C0010B5032000F06CFA0F20FFF7D3FF0446A0
:10954C0018B9FCF777FE204610BD0124FBE700009C
:10955C00034A0449136809680B441360704700BF41
:10956C0004420020D8000020014B1868704700BF4F
:10957C000442002038B50446FFF7F6FF0546631C8D
:10958C001EBF044B1B68E418FFF7EEFF431BA342FE
:10959C00FAD338BDD8000020F7B5044608B901202D
:1095AC0095E0C36C73B9036580F84830564B1A6A62
:1095BC0042F001021A621B6A03F001030193019B42
:1095CC00FCF75AFEE36CDB06E9D4E36C4F4A23F458
:1095DC00885323F0020343F00203E3645368616889
:1095EC0023F440330B4353604FF4007191FAA1F113
:1095FC000223B1FA81F194F8245093FAA3F3B3FA4D
:10960C0083F36069E26805FA03F30243206A266972
:10961C00024394F83C0000FA01F10A431343626BD5
:10962C002068102A1CBFA16B0A43016818BF1343A2
:10963C0011F0400124D1A269E7691343A268B6F581
:10964C00807F42EA070244D0012E08BF4FF480719C
:10965C000A4394F82C1001290DD1002D3BD14FF465
:10966C00604191FAA1F1B1FA81F5216B0139A94060
:10967C000A4342F400624568254929400A43426086
:10968C008168244AB6F5807F02EA010242EA0302AD
:10969C00826001D0012E27D1056B4FF0F87292FA3F
:1096AC00A2F2B2FA82F1A26A013A8A4025F0F8716C
:1096BC000A4302638168184A0A409A4218D1002072
:1096CC002065E36C23F0030343F00103E36403B070
:1096DC00F0BD3146BCE7E16C41F02001E164216D45
:1096EC0041F001012165C6E7026B22F0F872E0E758
:1096FC00E36C23F0120343F01003E364236D43F097
:10970C00010323654BE700BF0038024000270140EE
:10971C00FF16FCFC89F1FFC0FEFF80BF036870B52B
:10972C009A68044652050D460BD59B68DE0508D594
:10973C00C36C43F02003C364002380F8483001203D
:10974C0070BDFFF711FF064623681A6891070ED506
:10975C00A26912B96FF012021A60E26C42F4007244
:10976C00E2649A6812F0405F17D00020E8E7681CAA
:10977C00EBD065B923681B6813F00203E4D1E26CEB
:10978C00032042F00402E26484F84830D8E7FFF783
:10979C00EBFE801BA842EDD8D6E794F824000028F5
:1097AC00E3D11A6B12F0F87F02D09B685A05DCD417
:1097BC00E36C23F48073E364E36CDB04D5D4E36CD7
:1097CC0043F00103E364BBE70368986D7047000046
:1097DC00002373B5019390F84830012B00F09A8068
:1097EC00012380F848304D680468062D0A6805EBA3
:1097FC00850322D81F26256C053B9E4025EA0605CD
:10980C0002FA03F32B432364092A48D80726636919
:10981C008D6802EB4202964023EA060305FA02F237
:10982C001A4362610968A1F11003012B5AD9002374
:10983C0080F84830184602B070BD0C2D0AD81F268F
:10984C00E56B233B9E4025EA060502FA03F32B4306
:10985C00E363D9E7122D0AD81F26A56B413B9E4026
:10986C0025EA060502FA03F32B43A363CCE7182D74
:10987C004FF01F0509D8666B5F3B9D4026EA050536
:10988C0002FA03F32B436363BEE7266B7D3B9D40DB
:10989C0026EA050502FA03F32B432363B4E7132AE4
:1098AC000ED802EB4202A2F11E0507222369AA4040
:1098BC0023EA02028B6803FA05F52A432261B1E719
:1098CC001A2A0DD8072502EB4202E3683C3A954070
:1098DC0023EA05038D6805FA02F21A43E260A1E758
:1098EC0000BF9FE70C4B5A681202A0D45A6810298B
:1098FC0042F400025A609AD1084B094A1B68B3FB28
:10990C00F2F20A2353430193019B002B8FD0019B4E
:10991C00013BF8E702208EE70027014008000020F9
:10992C0040420F00002337B50193036804461A68C0
:10993C00520602D5002003B030BD9A6842F00102F5
:10994C009A60154B154A1B68B3FBF2F303EB430308
:10995C000193019BE3B9FFF707FE054623681B68DB
:10996C005B06E7D4FFF700FE401B0228F6D92368FC
:10997C001B6813F04003F1D1E26C012042F010029D
:10998C00E264226D84F8483042F001022265D2E78D
:10999C00019B013BDCE700BF0800002040420F00A8
:1099AC0010B590F848300446012B2ED0012380F8D6
:1099BC004830FFF7B7FF38BBE36C23F4E06323F0C8
:1099CC00010343F48073E36423685A68520541BF72
:1099DC00E26C22F4405242F48052E264E26C12F4E3
:1099EC0080521CBF226D22F006022265002284F8F0
:1099FC0048206FF022021A609A6812F0405F03D17F
:109A0C009A6842F080429A6010BD0220FCE7000088
:109A1C0007490302CA6803F4E06322F4E06212040B
:109A2C00120C134343F0BF6343F40033CB60704715
:109A3C0000ED00E0164B30B5DC68C4F30224C4F131
:109A4C000703251D042B28BF0423062D4FF0FF35DB
:109A5C0098BF002405FA03F388BF033C21EA0303F3
:109A6C00A34005FA04F422EA0402002843EA0203A4
:109A7C00ACBF00F16040074A4FEA0313DBB2ABBF47
:109A8C0000F5614000F00F0080F80033135430BD36
:109A9C0000ED00E014ED00E0002808DB0123420992
:109AAC0000F01F0003FA00F0014B43F8220070474E
:109ABC0000E100E000280DDB0122430900F01F004B
:109ACC0002FA00F0044A203342F82300BFF34F8F10
:109ADC00BFF36F8F704700BF00E100E00138B0F1B9
:109AEC00807F0AD2F021064B064A586082F8231078
:109AFC000020072298601A6070470120704700BF51
:109B0C0010E000E000ED00E090F82130022B06D0D0
:109B1C0004238363002380F82030012070470368FE
:109B2C001A6822F00E021A601A6822F001021A60FA
:109B3C000122D0E90F1303F01C0302FA03F34B606C
:109B4C00002380F8212080F820301846704710B58B
:109B5C0090F82120022A03D004228263012010BD38
:109B6C000268436B116821F00E011160116821F03D
:109B7C00010111600121D0E90F4202F01C0201FA2F
:109B8C0002F26260002480F8211080F8204013B1AA
:109B9C0098472046E3E71846E1E70000214A93691D
:109BAC0013F4807306D020494B6943F002034B61D8
:109BBC004FF480739269900506D51B4943F40073EA
:109BCC004A6942F001024A61164A9169090506D5B3
:109BDC00154843F40063416941F004014161926905
:109BEC00900406D5104943F400534A6942F0100220
:109BFC004A610C4A9169C90406D50B4843F4805359
:109C0C00416941F0200141619269520506D506492E
:109C1C0043F480634A6942F008024A61014A936145
:109C2C00704700BF003C024008420020F8B50546D2
:109C3C00FFF79AFC164E07463446B369DB071BD474
:109C4C00B3699F0744BF0223B361A369DD050FD439
:109C5C00A36918050CD4A369990409D4A369DA047F
:109C6C0006D4A3695B0503D4A06910F4007007D077
:109C7C00FFF794FF012003E06A1CDED00DB903202E
:109C8C00F8BDFFF771FCC01BA842D6D9F7E700BF9F
:109C9C00003C0240054B5A68D20741BF044A0020E1
:109CAC00DA60044A54BF0120DA607047003C02407D
:109CBC00EFCDAB8905040302034A0020536843F03F
:109CCC0001035360704700BF003C02402DE9F04196
:109CDC00304C0746237C0E46012B154658D04FF0CE
:109CEC0001084CF2503084F81080FFF79FFFF8B950
:109CFC00022F606106D14CF25030FFF797FFB8B9D4
:109D0C00356011E0012F07D14CF25030FFF78EFF78
:109D1C0070B9ADB2358007E077B94CF25030FFF72F
:109D2C0085FF28B9EDB235704CF25030FFF77EFF4D
:109D3C0000232374BDE8F081042F0BD14CF250307A
:109D4C00FFF774FF0028F3D1134A536823F4807390
:109D5C005360E7E7082F0BD14CF25030FFF766FF4A
:109D6C000028E5D10C4A536823F480735360D0E784
:109D7C00102F0BD14CF25030FFF758FF0028D7D1E1
:109D8C00054A536823F480735360B9E74046CFE724
:109D9C000220CFE708420020003C024000232DE9BE
:109DAC00F74FDFF884915E4C0A6832FA03F502D162
:109DBC0003B0BDE8F08F012505FA03FE1EEA02028E
:109DCC0000F0A3804FF0030C4E684FEA430806F0F6
:109DDC0003056F1E0CFA08FC012F6FEA0C0C34D82B
:109DEC00876807EA0C0ACF6807FA08F747EA0A07F8
:109DFC008760476827EA0E0EC6F300179F4047EAB4
:109E0C000E074760C768022D07EA0C0E8F6807FA29
:109E1C0008F747EA0E07C76019D14FF00F0E4FEA4B
:109E2C00D30A00EB8A0A03F0070BDAF820704FEA2A
:109E3C008B0B0EFA0BFE27EA0E0E0F6907FA0BF7C7
:109E4C0047EA0E07CAF8207001E0032DDAD1076843
:109E5C0005FA08F507EA0C0C45EA0C0516F4403F28
:109E6C00056052D04FF00F0CD9F8205023F00307A7
:109E7C0045F00105C9F82050D9F8205007F180476A
:109E8C0005F00105019507F5803703F0030E019DE0
:109E9C004FEA8E0EBD680CFA0EFC25EA0C0C214D17
:109EAC00A84234D005F58065A84232D005F580650E
:109EBC00A84230D005F58065A8422ED005F5806506
:109ECC00A8420CBF0425052505FA0EF545EA0C053C
:109EDC00BD60D743256816F4803F0CBF3D40154349
:109EEC002560656816F4003F0CBF3D401543656066
:109EFC00A56816F4801F0CBF3D401543A560E568AE
:109F0C00B60254BF3D401543E56001334CE70025D4
:109F1C00DAE70125D8E70225D6E70325D4E700BF09
:109F2C000004014000000240003802402DE9F04FCF
:109F3C0000234FF0010A4FF00F084FF0030B374A84
:109F4C0031FA03F401D1BDE8F08F0AFA03FC1CEAE4
:109F5C00010658D023F0030404F1804404F5803446
:109F6C0003F00307A568BF0008FA07F909EA050E14
:109F7C002B4DA84249D005F58065A84247D005F580
:109F8C008065A84245D005F58065A84243D005F50B
:109F9C008065A8420CBF04250525BD40754513D12D
:109FAC00156825EA06051560556825EA060555600D
:109FBC00956825EA06059560D56825EA0606D660FB
:109FCC00A56825EA0905A56005685C000BFA04F490
:109FDC0025EA0405DE08056000EB860603F007059C
:109FEC00376AAD0008FA05F527EA05053562C5683C
:109FFC0025EA0405C560456825EA0C0545608568B9
:10A00C0025EA0404846001339AE70025C5E701259D
:10A01C00C3E70225C1E70325BFE700BF00040140E9
:10A02C00000002400369194214BF01200020704750
:10A03C000AB1816170470904FBE7436901EA030235
:10A04C0021EA030141EA024181617047044A08B5E3
:10A05C005169014202D0506102F0ECFA08BD00BF18
:10A06C00000401401C4B82B09A6812F0F00F0CD027
:10A07C0000221A490B6823F0010313430B60086894
:10A08C0000F00100504002B070475A6A144912F0B7
:10A09C00805F0FD00A6802F4C052B2F5C05FE7D1FE
:10A0AC00B0F5404FE4D10D4A136843F0040313603C
:10A0BC000122DEE75A6A42F080525A625A6A02F072
:10A0CC0080520192019A0A68596A02F4C05221F036
:10A0DC0080515962E1E700BF00380240003C024069
:10A0EC000070004070B52A4C636803F0FF1343F412
:10A0FC0030436360236843F480732360FFF734FAC2
:10A10C00054623689B052FD541F28836A36823F0BA
:10A11C000303A3601E4CA36813F00C0F2CD11D4B32
:10A12C001D4A1A601D4B1868FFF7DCF9054608BB81
:10A13C00236823F0885323F001132360236823F44E
:10A14C0080232360FFF710FA0646114C236813F0A6
:10A15C00007317D1A360E3604FF47F03E360636B7C
:10A16C0043F08073636305E0FFF7FEF9401B0228A0
:10A17C00C7D90325284670BDFFF7F6F9401BB0423E
:10A18C00C9D9F6E7FFF7F0F9801B0228DED9F0E712
:10A19C00003802400800002068FF1F00DC0000208F
:10A1AC002DE9F7430446002860D0A24B02689E6854
:10A1BC009F68D00706F00C0607F480374BD4236851
:10A1CC00990700F197802368D80636D5002E40F009
:10A1DC00E080984D2B68990502D5A369002B45D0DA
:10A1EC006B68206A03F46043984240F2C080FFF72A
:10A1FC0039FF00283AD16B68226A23F46043134379
:10A20C006B606B68E26923F07F4343EA02636B6027
:10A21C00884B9968236A5B0B5A1C4FF4004393409C
:10A22C00C1F3031284498A5CD340844A1360844B83
:10A23C001868FFF757F9002830D12368180700F188
:10A24C00D7802368590700F10381606A002840F029
:10A25C006B81002022E0082E02D00C2E08D13FB1D9
:10A26C001B689A03ABD56368002BA8D1012015E0BD
:10A27C006268012A15D11A6842F480321A60FFF71D
:10A28C0073F90546DFF8AC81D8F800309B0396D4FF
:10A29C00FFF76AF9401B6428F6D9032003B0BDE828
:10A2AC00F083644D2B68A2B923F480332B602B68A8
:10A2BC0023F480232B60FFF757F980462B68980313
:10A2CC007FF57DAFFFF750F9A0EB08006428F5D9B6
:10A2DC00E3E7052A0BBF43F4802323F480332B6080
:10A2EC002B600BBF2B682B6843F4803323F4802343
:10A2FC002B60C4E7042E02D00C2E0FD177B94D4B36
:10A30C001A68910702D5E268012AAFD15A6821690F
:10A31C0022F4F85242EA01225A6054E7E268494BAF
:10A32C00B2B101221A60FFF71FF90746414D2B68A5
:10A33C009A0707D56B68226923F4F85343EA022382
:10A34C006B6040E7FFF710F9C01B0228EFD9A4E7B8
:10A35C001A60FFF709F90546364F3B689B077FF5F6
:10A36C0032AFFFF701F9401B0228F6D995E76B686D
:10A37C0023F4604303436B606B68E26923F07F4313
:10A38C0043EA02636B60FFF76DFE00283FF440AFB9
:10A39C006CE7A2692C4BE2B101221A60FFF7E4F8DA
:10A3AC000746244D2B689A050DD56B68226A23F459
:10A3BC00604313436B606B68E26923F07F4343EAAD
:10A3CC0002636B6039E7FFF7CFF8C01B0228E9D9AD
:10A3DC0063E71A60FFF7C8F80546164F3B689B0504
:10A3EC007FF52BAFFFF7C0F8401B0228F6D954E7D6
:10A3FC006269164B7AB101221A60FFF7B5F805466F
:10A40C000C4F7B6B9A073FF51CAFFFF7ADF8401B69
:10A41C000228F6D941E71A60FFF7A6F80546054F62
:10A42C007B6B9B077FF50DAFFFF79EF8401B022857
:10A43C00F6D932E700380240D9E9000808000020BC
:10A44C00DC000020000047422000474280064742C3
:10A45C005F4B5A6AD00029D44FF001085A6A42F077
:10A46C0080525A625B6A03F080530193019B594DF1
:10A47C002B68D9051DD5A368554D012B29D16B6BC4
:10A48C0043F480736B63FFF76FF841F2883905462C
:10A49C004F4F7B6B9B0541D5B8F1000F3FF4D5AE08
:10A4AC004B4A536A23F080535362CEE64FF00008B8
:10A4BC00DDE72B6843F480732B60FFF755F80746F4
:10A4CC002B68DA05D7D4FFF74FF8C01B6428F7D9EF
:10A4DC00E3E6ABB96B6B41F2883923F480736B63A1
:10A4EC006B6B23F480636B63FFF73EF807466B6B73
:10A4FC009805D1D5FFF738F8C01B4845F7D9CCE6FD
:10A50C00052B6B6B03D143F480636B63B7E723F4C8
:10A51C0080736B636B6B23F48063B3E7FFF724F8F2
:10A52C00401B4845B5D9B8E60C2E39D000232A4D2E
:10A53C0002282B6026D1FFF717F80746244E336804
:10A54C00990119D4B268D4E90A3122F47D020B4383
:10A55C001343226B1343B36001232B60FFF704F802
:10A56C0004461B4D2B689A013FF573AEFEF7FCFFBA
:10A57C00001B0228F6D990E6FEF7F6FFC01B022856
:10A58C00DDD98AE6FEF7F0FF0446114D2B689B01DE
:10A59C007FF55FAEFEF7E8FF001B0228F6D97CE6DC
:10A5AC0001283FF47BAE0A4BA26A9B6803F480310E
:10A5BC0091427FF45BAEE16A03F470128A427FF43D
:10A5CC0055AE226B03F4400393423FF442AE4DE68A
:10A5DC000038024000700040600047420122014BED
:10A5EC001A60704770004742174B2DE900489A6873
:10A5FC0002F00C01082925D00C2903D0042919D10B
:10A60C00124815E09B681248C2F3834113F480335F
:10A61C0010F801B014BF0F4B0C49C2F3815216BF96
:10A62C00ABFB0301ABFB010100230132FBF7A8F9E3
:10A63C00BDE800885868C0F34230431C4FF400401A
:10A64C009840F5E70348F3E7003802400024F40093
:10A65C00F1E9000800127A002DE9F0410E4605469A
:10A66C0010B90120BDE8F081574B1A6802F00102C5
:10A67C008A422AD32A68940738D4D0073ED4524B46
:10A68C001A6802F00102B24200F28C802A6851076B
:10A69C0000F19180130707D54C4A2969936823F47C
:10A6AC00605343EAC1039360FFF79EFFBDE8F0419E
:10A6BC00464B474A9B68C3F30313D35CD840454BC6
:10A6CC001860454B1868FEF70DBF012902BF1A68C8
:10A6DC0042F004021A601A6822F001020A431A605E
:10A6EC001B6803F001038B42BBD1C3E73749A86851
:10A6FC008B6823F0F00303438B60BEE76A68334B2F
:10A70C00022A1B681CD113F4003FAAD02F4C41F233
:10A71C008838A36823F003031343A360FEF724FFD8
:10A72C006B680746022B18D1A36803F00C03082BA7
:10A73C00A5D0FEF719FFC01B4045F5D9032091E7C2
:10A74C00032A02D113F0007FDFE7012A02D113F0B4
:10A75C00020FDAE713F4007FD7E7032B0AD1A368C3
:10A76C0003F00C030C2B8AD0FEF7FEFEC01B4045F9
:10A77C00F5D9E3E7012B10D1A36803F00C03042BEC
:10A78C003FF47DAFFEF7F0FEC01B4045F4D9D5E792
:10A79C00FEF7EAFEC01B4045D0D8A36813F00C0F9F
:10A7AC00F6D16CE71A6822F001021A601B68DA070E
:10A7BC007FF56CAF55E70549E8688B6823F4E063D7
:10A7CC0003438B6066E700BF003C02400038024048
:10A7DC00D9E9000808000020DC000020044B054AE1
:10A7EC009B68C3F30223D35C034A1068D8407047BC
:10A7FC0000380240E9E9000808000020044B054A33
:10A80C009B68C3F3C223D35C034A1068D8407047DB
:10A81C0000380240E9E900080800002070470000F9
:10A82C0008B5054BDB681B0604D5FFF7F7FF802244
:10A83C00024B1A7008BD00BF003802400E380240AF
:10A84C0003682DE9F3410446D80701D400203CE00D
:10A85C003E4B5A6AD10026D401265A6A42F08052E5
:10A86C005A625B6A03F080530193019B384D2B684D
:10A87C00DA051AD5354A6368116803F0C04001F057
:10A88C00C0418842114623D14A6B12F4403229D17F
:10A89C002368DD0747D4002ED8D02C4A536A23F006
:10A8AC0080535362D2E70026E0E72B6843F48073B1
:10A8BC002B60FEF759FE07462B68DB05DAD4FEF752
:10A8CC0053FEC01B6428F7D9032002B0BDE8F08109
:10A8DC0003F44030B0F5403FD6D112689703D3D57E
:10A8EC000120F2E703F440339342D1D02368D80718
:10A8FC00D1D50125174A4B6B1560002523F4403048
:10A90C001560DA054863C3D5FEF72EFE41F2883890
:10A91C0005460E4F7B6B9B05BAD4FEF725FE401BFC
:10A92C004045F7D9D0E76068084A00F44031B1F5EA
:10A93C00403F06D1136800F0C04023F0C0430343EE
:10A94C001360536B19435163A5E700BF00380240F5
:10A95C0000700040DC0647420122014B1A60704730
:10A96C00AC064742036810B59A680446D2040AD56F
:10A97C00DB68D90507D5FBF75BFC2268D368DBB233
:10A98C0063F4C073D36023689A6892040BD5DB68B8
:10A99C009B0508D5204600F058FA2268D368DBB234
:10A9AC0063F42073D3604FF40032024B5A610123DD
:10A9BC00637710BD0004014038B5036804469A68FB
:10A9CC00920601D5002038BDDA6822F0A002DA60C8
:10A9DC00FEF7CAFD05462368DB689B06F2D4FEF73A
:10A9EC00C3FD401BB0F57A7FF5D90320EBE738B5F2
:10A9FC0003680446DA68520601D5002038BD4FF0D2
:10AA0C00FF32DA60FEF7B0FD05462368DB685B06B3
:10AA1C00F3D4FEF7A9FD401BB0F57A7FF5D90320DE
:10AA2C00ECE738B50446B8B1437F03F0FF0213B925
:10AA3C000277FBF751FC0223CA2263772368204676
:10AA4C005A6253225A62FFF7D2FF2368054628B197
:10AA5C00FF225A620423637701252EE09A6820694D
:10AA6C0022F4E00222F040029A6062689968024384
:10AA7C00606902430A439A60E268A1681A611A6924
:10AA8C0042EA01421A61DA6822F08002DA609B68BD
:10AA9C009B0605D42046FFF78FFF08B12368D7E744
:10AAAC002368A1691A6C22F480221A641A6C0A4376
:10AABC001A64FF225A6201236377284638BD0023AB
:10AACC00092803D840EA0310C0B270470A38013392
